:0A221800000102020303040405059F
:100B2300E4F570F56FF56EF56DC20DC20AC20CC225
:100B33000B12208712074D7E187F008E0A8F0B75CC
:100B4300121875131275081875091C75101875118C
:100B53005175161875177FEE54E07003020C6A7511
:100B630071007572808E738F74C374A99FFF74189C
:100B73009ECF2402CF3400FEE48F6C8E6BF56AF5B2
:100B830069F568F567F566F565AF6CAE6BAD6AAC94
:100B930069AB68AA67A966A865C31209F75026E579
:100BA300722568F582E5713567F58374CDF0E568E4
:100BB3002401F568E43567F567E43566F566E435E1
:100BC30065F56580C4E4F568F567F566F565AF6CB2
:100BD300AE6BAD6AAC69AB68AA67A966A865C312B8
:100BE30009F75031AE67AF68E5742FF582E5733EC0
:100BF300F583E0FDE5722FF582E5713EF583EDF0B7
:100C0300EF2401F568E43EF567E43566F566E435FF
:100C130065F56580B985710A85720B74002480FFC0
:100C2300741834FFFEC3E5139FF513E5129EF51206
:100C3300C3E50D9FF50DE50C9EF50CC3E50F9FF580
:100C43000FE50E9EF50EC3E5099FF509E5089EF530
:100C530008C3E5119FF511E5109EF510C3E5179F35
:100C6300F517E5169EF516D2E843D82090E668E01E
:100C73004409F090E65CE0443DF0D2AFD288D28ADA
:100C8300C2A8C2AA43E808D2FB90E680E020E105AF
:100C9300D20E121E0690E680E054F7F0538EF8C28F
:100CA3000D300B05120529C20B300D291222D3502A
:100CB30024C20D121FB5200A1690E682E030E70425
:100CC300E020E1EF90E682E030E604E020E0E41289
:0A0CD3001E901222D51216B880C739
:1005290090E6B9E070030205DA1470030206572455
:10053900FE70030206DA24FB70030205D41470036B
:100549000205CE146073146076240560030207392E
:100559001222D7400302074590E6BBE024FE602241
:1005690014603324FD601114602224067048E50AE2
:1005790090E6B3F0E50B8037E51290E6B3F0E513AA
:10058900802DE50C90E6B3F0E50D8023E50E90E6AD
:10059900B3F0E50F801990E6BAE0FF121EBCAA0677
:1005A900A9077B01EA494B600DEE90E6B3F0EF90A5
:1005B900E6B4F002074502073E12210D0207451273
:1005C90022610207451219E20207451220FB0207C0
:1005D900451222D9400302074590E6B8E0247F601E
:1005E9001514601924027063A20AE43325E0FFA2FE
:1005F9000CE4334F8041E490E740F0803F90E6BC43
:10060900E0547EFF7E00E0D394807C0040047D01AD
:1006190080027D00EC4EFEED4F2418F58274223ED7
:10062900F583E493FF3395E0FEEF24A1FFEE34E672
:100639008F82F583E0540190E740F0E4A3F090E65F
:100649008AF090E68B7402F002074502073E1222F7
:10065900DB400302074590E6B8E024FE6016240259
:10066900600302074590E6BAE0B40105C20A020731
:100679004502073E90E6BAE0705590E6BCE0547E2C
:10068900FF7E00E0D394807C0040047D0180027DE0
:1006990000EC4EFEED4F2418F58274223EF583E4FA
:1006A90093FF3395E0FEEF24A1FFEE34E68F82F548
:1006B90083E054FEF090E6BCE05480131313541FFA
:1006C900FFE0540F2F90E683F0E04420F0806D8026
:1006D900641222DD506690E6B8E024FE6019240217
:1006E900705A90E6BAE0B40104D20A804F90E6BA93
:1006F900E064026047803E90E6BCE0547EFF7E00E5
:10070900E0D394807C0040047D0180027D00EC4EA2
:10071900FEED4F2418F58274223EF583E493FF33EE
:1007290095E0FEEF24A1FFEE34E68F82F583800881
:10073900120080500790E6A0E04401F090E6A0E0A6
:030749004480F0F9
:01074C00228A
:030033000222C3E3
:0422C30053D8EF32CB
:10208700758CE0758AC0E58954F04401F589758E31
:0820970003D28CD2A9D2AF22C2
:03003B0002198225
:10198200C0E0C083C082C0D075D000C006C007309E
:10199200C041C2C085C114052EE52E7002052DD3AB
:1019A200E52E94F4E52D648094814006752D007532
:1019B2002E00AE2DAF2EEE90F800F0AE2DAF2EEF32
:1019C200A3F0AE2DAF2E74012FF58274F83EF5838D
:1019D200E514F0D007D006D0D0D082D083D0E03248
:03002300021A9529
:101A9500C0E0C083C082C0D075D000C00730983682
:101AA500C298859915052CE52C7002052BD3E52CDC
:101AB500940EE52B648094804006752B00752C00F0
:101AC500AF2C90E7F0EFF0AF2C74F02FF582E434F3
:101AD500E7F583E515F0D007D0D0D082D083D0E0EC
:011AE50032CE
:10180000120100020000004018163116000001020B
:1018100000010A0600020000004001000902350034
:1018200001010080FA0904000005FF00000007051F
:101830000102400000070582020002000705810244
:1018400040000007058602000200070508020002AA
:101850000009022E0001010080FA0904000004FFC3
:101860000000000705010240000007058202400059
:101870000007050202000200070581024000000483
:1018800003090410035100480059002D0043004390
:101890000044001603490043002D00310036003893
:0B18A00000300033002000200000009A
:1010E90060802800020704010202020700000002D2
:1010F900000002000A2B0B1311151111000000004A
:101109000000003F02060203030502070000001069
:10111900020002000A2B0B130B151111000000002D
:101129000000003F02190301030402070000000246
:10113900000002000A2B0B13111511110000000009
:101149000000003F02060206060603070000000031
:10115900020002000A2B0B130B15111100000000ED
:101169000000003F60242887000000000000000004
:101179000000000000000000000000000000000066
:1011890000000000000000000000000047288080E7
:06119900000009EA4E000F
:1014680090E60174EAF090E6F574FFF0902880E0C9
:1014780090E6F3F0902881E090E6C3F0902882E0AF
:1014880090E6C1F0902883E090E6C2F0902885E0CD
:1014980090E6C0F0902886E090E6F4F075AF077407
:1014A80028F59A7400F59B759DE4E4F59EFF90E697
:1014B8007BE090E67CF00FBF80F490E67174FFF05B
:1014C800F5B490E672E04480F043B680000000E492
:1014D80090E6C4F000000090E6C5F0902887E09000
:1014E800E6C6F0902888E090E6C7F0902889E0905A
:1014F800E6C8F090288AE090E6C9F090288BE09042
:10150800E6CAF090288CE090E6CBF090288DE09029
:0B151800E6CCF090288EE090E6CDF0CD
:0115230022A5
:03004300021600A2
:0300530002160092
:1016000002209F000220E5000220CF000220B70048
:10161000021D3400021C47000222DF000222E0000B
:101620000222E1000222E200021CC100020E8B0035
:101630000222E3000222E400021BC1000212D300D6
:101640000222E5000222E0000222E6000222E70078
:101650000222E8000222E9000222EA000222EB0054
:101660000222EC000222E0000222E0000222E0005E
:101670000222ED000222EE000222EF000222F00020
:101680000222F1000222F2000222F3000222F40000
:101690000222F5000222F6000222F7000222F800E0
:1016A0000222F9000222FA000222FB000222FC00C0
:0816B0000222FD000222FE00EF
:101E900090E682E030E004E020E60B90E682E0305D
:101EA000E119E030E71590E680E04401F07F147E10
:0C1EB00000121B3790E680E054FEF02288
:101FB50090E682E044C0F090E681F043870100009E
:041FC50000000022F6
:101E0600300E0990E680E0440AF0800790E680E014
:101E16004408F07FDC7E05121B3790E65D74FFF008
:0F1E260090E65FF05391EF90E680E054F7F022E2
:021EBC00A90774
:101EBE00AE16AF178F828E83A3E064037017AD0149
:101ECE0019ED7001228F828E83E07C002FFDEC3E97
:091EDE00FEAF0580DF7E007F00ED
:011EE70022D8
:101B37008E798F7A90E600E054187012E57A2401C6
:101B4700FFE43579C313F579EF13F57A801590E63D
:101B570000E05418FFBF100BE57A25E0F57AE57928
:101B670033F579E57A157AAE79700215794E600505
:061B7700121FC980EE22DE
:101FC9007400F58690FDA57C05A3E582458370F92B
:011FD90022E5
:10119F00C18202361040C100C107C10404580000CB
:1011AF000000014F00012500044900000000044227
:1011BF0000000000013C000153010133FF013230F8
:1011CF00023D0000025100000160000238C35002CE
:0911DF00300019014100013F003C
:101E63008E1E8F1F9028EB7403F0E4A3F07A287B77
:101E7300EB7D027F411220519028EB7401F0A3E522
:0D1E83001FF07A287BEB7D027F4102205189
:05214300122148AF0568
:0B214800C2B6C2B48FB1D2B4D2B6222E
:0B220D00D2B6C2B48FB1D2B4D2B62258
:0C218900AE077FA0122148AF06022148DB
:0C219500AE077FA1122148AF06022148CE
:0C21A100AE077FA2122148AF06022148C1
:07227100EF44A4FF02214825
:07227800EF44AEFF02214814
:0C21AD00AE077FAD122148AF06022148AA
:0C21B900AE077FA8122148AF06022148A3
:0C21C500AE077FB0122148AF060221488F
:0C21D100AE077FB1122148AF0602214882
:0C21DD00AE077FBB122148AF060221486C
:0C21E900AE077FB3122148AF0602214868
:101FFB00AE07AC037F8A122148AF061221487F8BB4
:0D200B001221437F8C122148AF04022148AE
:0C21F500AE077F87122148AF0602214888
:10201800AE07AC037F81122148AF061221487F82A8
:0D2028001221437F83122148AF040221489A
:0C220100AE077FBE122148AF0602214844
:0E17F200AE05AD077F15122143AF0602214858
:0E215300AE05AD077F75122143AF060221488D
:041F6700AC05AB0713
:101F6B007D5FE4FF1217F27D3FFF122153FEE4FD6C
:101F7B00AF0312220DAF0412220D0DBD60F20EBE87
:021F8B0040EC28
:011F8D002231
:061AE6008B758A768977FA
:101AEC00E4F578F579900001120943FC700C7D5FE8
:101AFC00FF1217F27D3FFF022153BCFF2DD2B675AA
:101B0C007800757902C2B4AB75AA76A9778579820B
:101B1C00857883120943F5B1D2B40579E579700261
:0A1B2C000578B482E0E578B401DB2F
:011B3600228C
:10192100C2B77FC87E00121C30D2B7E4FF12227802
:101931007F72122189E4FF122195FF1221A1FF126A
:1019410022717F3F1221B97F8E1221AD7F0B1221AF
:10195100C57F311221D17FF01221E97B647D787F2F
:1019610064121FFB7F3A1221DD7F3E1222017F06A6
:101971001221F57B7D7D507F911220187F0102227B
:0119810078ED
:10074D0090E600E054E74410F00000000000009037
:10075D00E61074A0F000000090E60B7401F090E636
:10076D001274E0F0000000E490E613F00000009039
:10077D00E61474E2F000000090E61574A0F000009D
:10078D000090E6D27402F090E6047480F000000050
:10079D007402F00000007406F00000007408F00010
:1007AD000000E4F000000012146890E6187408F0E0
:1007BD0000000090E619F000000090E61AF000002D
:1007CD000090E61BF0000000E490E671F075B47F38
:1007DD0075A07F90E672F075B6FF75B1FF90E6706B
:1007ED00F075B2FF75B5FFC28CD2B01222B790E68C
:1007FD001074A0F000000090E611F000000090E6EB
:10080D005EE04408F0000000E490E68DF00000008A
:10081D0090E65EE04404F0000000E490E7C0F09044
:10082D00E7C4F0A3F0A3F0A3F090E7F0F090E68F0B
:10083D007440F000000090E65EE04440F0000000DF
:10084D007E027F0090F800E4F0A3DFFCDEFA90E674
:10085D00987402F0000000E490E699F00000007E2C
:10086D00027F0090F800E4F0A3DFFCDEFA90E65E74
:10087D00E04480F0000000E490E69CF00000009061
:10088D00E69DF00000007F9AFE122222752700756A
:10089D0028B47554017555907536107537B8755661
:1008AD000675572C12226990E67AE054FEF0E4FDAD
:1008BD007F9012211F7F647E00121B377DFF7F42C8
:1008CD0012211F7F647E00121B377D827F4E122105
:1008DD001F7540FF43A020E4F54890E782E540F006
:1008ED0090E781E548F0121F3FE4F52DF52E122219
:1008FD00B7753827753910753000753164121C8441
:10090D007F887E13121C30121C847F887E13121C6C
:10091D0030121C847F887E13121C3012217C121918
:10092D00217DFF7FFF121F67D2F9C2F8E4F54F90CA
:05093D00E7C0E54FF0EA
:010942002292
:0E216100EF2401FBE43EFA7D047F48022035A6
:100CDD00E548C313FFC374809FF57DE548D39400A9
:100CED0040067540FF43A020E548700353A0DF7E0A
:100CFD00297F0B12216190290CE090E7C1F090291A
:100D0D000DE090E7C2F09028EB74E5F07A287BEBCC
:100D1D007D017F411220517A287BEB7D027F4112AC
:100D2D0020359028EBE0FEA3E07C002400FFEC3E94
:100D3D00FEE48F7C8E7BF57AF5797F097E3DFDABE8
:100D4D007CAA7BA97AA879120992780D120A1BEF59
:100D5D002490F57CEE34E8F57BED34FFF57AEC3438
:100D6D00FFF579E4FB7A01F9F8AF7CAE7BAD7AAC97
:100D7D0079121B7D90E7CCEFF0E4FB7A01F9F8AF27
:100D8D007CAE7BAD7AAC79121B7D90E7CDEBF0900C
:100D9D0028EB7450F0A3742EF07A287BEB7D027F44
:100DAD00411220519028EB74EEF07A287BEB7D01F7
:100DBD007F411220517A287BEB7D027F4112203535
:100DCD009028EBE0FEA3E07C002400FFEC3EFEE467
:100DDD008F7C8E7BF57AF5799028EB7450F0A374A7
:100DED000FF07A287BEB7D027F41122051E47FCDFD
:100DFD007E55FDFCAB7CAA7BA97AA8791209927865
:100E0D000D120A1BEF24FEF57CEE3448F57BED3414
:100E1D00FFF57AEC34FFF579E4FB7A01F9F8AF7C54
:100E2D00AE7BAD7AAC79121B7D90E7CEEFF0E4FB93
:100E3D007A01F9F8AF7CAE7BAD7AAC79121B7D905F
:100E4D00E7CFEBF09028EBE540F07A287BEB7D01C6
:100E5D007F211220519028EB7402F0A37480F07A58
:100E6D00287BEB7D027F28122051E49028EBF0A324
:0E0E7D00E57DF07A287BEB7D027F2802205174
:1016B800E55B2401F55BE4355AF55AE43559F559EB
:1016C800E43558F5580552E552700205510560AEEB
:1016D80038AF39E4FCFDAB5BAA5AA959A858C31224
:1016E80009F7700C120CDDE4F55BF55AF559F5585D
:1016F800E560B40A1790FC00E0B411097B017AFC9C
:101708007900121AE6E490FC00F0F56090E7C8E56D
:1017180053F0A3E532F0A3E53FF0300140754F01E7
:1017280090E7C0E54FF0E5B130E7032007F8121164
:10173800E9C201E4F54F90E7C0E54FF0121C847F41
:10174800887E13121C30121C847F887E13121C3072
:0E175800121C847F887E13121C3012217C220A
:0222D300D32214
:0222D500D32212
:0222D700D32210
:1019E20090E680E030E73A00000090E6207402F0D2
:1019F200000000E490E621F000000090E62474026A
:101A0200F0000000E490E625F000000090E6267465
:101A120002F0000000E490E627F0000000D202800D
:101A220016000000E490E620F000000090E6217429
:0F1A320040F0000000C20290E6BAE0F550D32267
:1020FB0090E740E550F0E490E68AF090E68B04F030
:02210B00D322DD
:0822610090E6BAE0F526D32255
:10210D0090E740E526F0E490E68AF090E68B04F047
:02211D00D322CB
:0222D900D3220E
:0222DB00D3220C
:0222DD00D3220A
:10008000E4F575F57690E6B9E0120A2F00B1B300F9
:10009000E9B5026FB602A7BB02F9BC03A2C1035ABD
:1000A000C20420C5043FC60474CA04B5CB000005D1
:1000B00025E490E68AF090E68BF090E6A0E020E15F
:1000C000F990E68BE0F575E4F5B390E60174CAF0BB
:1000D000D20100000090E6047480F0000000740279
:1000E000F0000000E4F0020527E490E68AF090E6D4
:1000F0008BF090E6A0E020E1F990E68BE0F575D377
:10010000943F4024E4F57674402576F582E434E7A4
:10011000F583E0FF74AB2576F582E43428F583EFB0
:10012000F00576E576B440DF7F8A7E0012222290C9
:1001300028ABE0FF7E0012222B9028ABE0FF7E0070
:100140001222349028ABE0FF7E0012223D9028ACB2
:10015000E075F004A4FFAEF01222469028ACE075E2
:10016000F004A4FFAEF012224F9028ACE075F0042A
:10017000A4FFAEF01222589028B0E0C394025013AE
:100180009028CCE090E6C07005744EF08016749C08
:10019000F080119028CCE090E6C07005749FF0804C
:1001A00003749DF09028CEE024FF92069028CBE0C7
:1001B00024FF92059028CFE024FF92089028D9E0F0
:1001C000754600F547A3E0FEA3E07C002400F5247B
:1001D000EC3EF5239028B1E0F53AE53A7003753A24
:1001E000019028B6E0FEA3E07C002400F528EC3E58
:1001F000F527A3E0FEA3E02400F555EC3EF554906E
:1002000028B2E0FEA3E02400F537EC3EF536A3E08B
:10021000FEA3E02400F557EC3EF5569028BCE0FE26
:10022000A3E02400F54EEC3EF54D9028BAE0FEA385
:10023000E02400F535EC3EF5349028E0E0540FF56D
:100240003CE4FD7F9012211F9028ACE0FCA3E0FD70
:10025000A3E0FEA3E0F54C8E4B8D4A8C49E54CF5AE
:100260004CE54BF54BE54AF54AE4F549020527E430
:10027000F57674AB2576F582E43428F583E0FF74D7
:10028000402576F582E434E7F583EFF00576E576F0
:10029000B440DF000000E490E68AF000000090E641
:1002A0008B7440F0020527E490E68AF090E68BF02C
:1002B00090E6A0E020E1F990E6BCE09028EBF0E4C5
:1002C000F57690E6BEE0FFE576C39F501E744025AC
:1002D00076F582E434E7F583E0FF74EC2576F58269
:1002E000E43428F583EFF0057680D790E6BAE0C3D2
:1002F00013FF90E6BEE0048059E490E68AF090E6B1
:100300008BF090E6A0E020E1F990E6BDE09028EBCC
:10031000F090E6BCE09028ECF0E4F57690E6BEE0E4
:10032000FFE576C39F501E74402576F582E434E7DE
:10033000F583E0FF74ED2576F582E43428F583EF4C
:10034000F0057680D790E6BAE0C313FF90E6BEE0F2
:100350002402FD7A287BEB02052090E74074F7F039
:10036000A3741DF0A3740CF0A37426F0A37407F01B
:10037000A374EEF0A37401F0A37403F0A37453F01C
:10038000300205E4A3F0800690E74974FFF0000016
:1003900000E490E68AF000000090E68B740AF00218
:1003A0000527E490E68AF090E68BF090E6A0E02046
:1003B000E1F990E68BE0F575C298D3940050030202
:1003C000052790E740E0940A5007E02430FF12210F
:1003D0006F90E740E0B40A057F6112216F90E7401B
:1003E000E0B40B057F6212216F90E740E0B40C058A
:1003F0007F6312216F90E740E0B40D057F64122106
:100400006F90E740E0B40E057F6512216F90E740E2
:10041000E0640F60030205277F6612216F02052743
:100420007AE77B407D047F48122035000000E4908D
:10043000E68AF000000090E68B7404F0020527E4E1
:1004400090E68AF090E68BF090E6A0E020E1F9904B
:10045000E68BE0F575D39401500302052790E74140
:10046000E0FD7F4212211F90E740E0FD7F4E122108
:100470001F02052790E6BCE090290BF07A297B0B40
:100480007D017F501220517A297B0B7D017F501214
:10049000205190E6BEE0FD7AE77B407F5012203588
:1004A000E490E68AF000000090E6BEE090E68BF073
:1004B0000000008072E490E68AF000000090E68B75
:1004C000F000000090E6A0E020E1F990E6BCE0D367
:1004D00094074053E09028EBF0E4F57690E6BEE018
:1004E000FFE576C39F501E74402576F582E434E71D
:1004F000F583E0FF74EC2576F582E43428F583EF8C
:10050000F0057680D790E6BEE004FD7A287BEB7F8D
:100510005012205190E6BEE004FD7A287BEB7F501C
:080520001220518002D322C316
:0105280022B0
:10209F00C0E0C083C082D20B5391EF90E65D740114
:0820AF00F0D082D083D0E032B2
:1020CF00C0E0C083C0825391EF90E65D7404F0D0FE
:0620DF0082D083D0E03244
:1020E500C0E0C083C0825391EF90E65D7402F0D0EA
:0620F50082D083D0E0322E
:101D3400C0E0C083C08285100C85110D850D82859D
:101D44000C83A37402F085080E85090F850F828524
:101D54000E83A37407F05391EF90E65D7410F0D0F6
:061D640082D083D0E032C2
:1020B700C0E0C083C082D20D5391EF90E65D7408F3
:0820C700F0D082D083D0E0329A
:101C4700C0E0C083C08290E680E030E72085080CC2
:101C570085090D850D82850C83A37402F085100E0E
:101C670085110F850F82850E83A37407F05391EFBB
:0D1C770090E65D7420F0D082D083D0E03282
:0122DF0032CC
:0122E00032CB
:0122E10032CA
:0122E20032C9
:101CC100C0E0C083C08290E65EE054FBF0000000FB
:101CD10090E68F7440F0000000752B00752C009089
:101CE100E7F0E4F05391EF90E65FE04404F090E612
:0C1CF1005EE04404F0D082D083D0E032EA
:100E8B00C0E0C0F0C083C082C0D075D000C000C02D
:0D0E9B0001C002C003C004C005C006C007AE
:100EA80090E65EE054F7F090E6A1E020E1F990E7E3
:100EB80080E0FF14602624D160311460621470034E
:100EC800020F6324347003020F9E147003020FA8EC
:100ED800146003020FAD752200020FAD90E782E0A7
:100EE800F54090E781E0F548020FAD756100756245
:100EF8000190E68DE0FFC3E5629F7480F865619814
:100F08004003020FAD74802562F582E434E7F5836F
:100F1800E0FF12216F0562E56270D6056180D2900C
:100F2800E781E07005758DB2807B90E781E0B401C0
:100F380005758D64806F90E781E0B40205758DD9E1
:100F4800806390E781E0B40305758DE6805790E7EC
:100F580081E06404704F758DF3804A90E781E070FA
:100F680005121C84803F90E781E0B4010512206DD2
:100F7800803390E781E0B40205121E35802790E7A0
:100F880081E0B403051218AB801B90E781E0B4FF41
:100F98001412217C800F90E781E024FF92078005DE
:100FA800752200D20300000090E68DE4F05391EF23
:0E0FB80090E65FE04408F090E65EE04408F04A
:100FC600D007D006D005D004D003D002D001D0007F
:0B0FD600D0D0D082D083D0F0D0E03229
:0122E30032C8
:0122E40032C7
:101BC100C0E0C083C08290E65EE054BFF000000038
:101BD10090E6987402F000000090E699E4F00000AD
:101BE10000F52DF52E90F800F0A3F05391EF90E65B
:101BF1005FE04440F090E65EE04440F0D082D08364
:031C0100D0E032FE
:1012D300C0E0C0F0C083C082C0D075D000C000C0E1
:0D12E30001C002C003C004C005C006C00762
:1012F00090E65EE0547FF090E6A6E020E1F990E60B
:101300009CE0FE90E69DE07C002400F562EC3EF55A
:1013100061E56264054561704D90FC00E0B4EE1437
:10132000A3E0B4440FA3E0B4880AA3E07006A3E0EE
:1013300064336032756300756400C3E5649562E5EB
:10134000616480F8E563648098501B74002564F53F
:101350008274FC3563F583E0FF12216F0564E56458
:1013600070D8056380D400000090E69CE4F090E61D
:101370009DF05391EF90E65FE04480F090E65EE0F0
:031380004480F0B6
:10138300D007D006D005D004D003D002D001D000BE
:0B139300D0D0D082D083D0F0D0E03268
:0122E50032C6
:0122E60032C5
:0122E70032C4
:0122E80032C3
:0122E90032C2
:0122EA0032C1
:0122EB0032C0
:0122EC0032BF
:0122ED0032BE
:0122EE0032BD
:0122EF0032BC
:0122F00032BB
:0122F10032BA
:0122F20032B9
:0122F30032B8
:0122F40032B7
:0122F50032B6
:0122F60032B5
:0122F70032B4
:0122F80032B3
:0122F90032B2
:0122FA0032B1
:0122FB0032B0
:0122FC0032AF
:0122FD0032AE
:0122FE0032AD
:06139E008F778C788D7939
:1013A40053770753B0F77F0A7E00121C30E4F57AB6
:1013B400F57BC37402957BFFE577A807088002C319
:1013C40013D8FC30E00543800280035380FD7F0A7C
:1013D4007E00121C304380017F0A7E00121C3053B1
:1013E40080FE7F0A7E00121C30057BE57B700205BF
:1013F4007AC39403E57A6480948040B6E4F57AF580
:101404007BC37409957BFFE579AE78A8070880054E
:10141400CEC313CE13D8F930E005438002800353C2
:1014240080FD7F0A7E00121C304380017F0A7E000B
:10143400121C305380FE7F0A7E00121C30057BE5AF
:101444007B7002057AC3940AE57A6480948040B183
:1014540043B0087F0A7E00121C3053B0F77F0A7E27
:0414640000021C3036
:09222200AD07AC06E4FF02139EB7
:09222B00AD07AC067F0402139E0E
:09223400AD07AC067F0502139E04
:09223D00AD07AC067F0602139EFA
:09224600AD07AC067F0102139EF6
:09224F00AD07AC067F0202139EEC
:09225800AD07AC067F0302139EE2
:10211F009028EBEDF0EFC313FF7A287BEB7D0102E4
:02212F0020513D
:101C04007FF47E01121C301222867FF47E01121CA6
:101C14003012228D7FF47E01121C301222947FF444
:0C1C24007E01121C3012229B7FF47E0116
:101C3000EF7803C333CE33CED8F9FFEF4E6007EF12
:071C40001F70F81E80F52261
:0322C700C28422AC
:0322CA00D2842299
:0322CD00C28322A7
:0322D000D2832294
:0622B7001222D00222CA2F
:101FDA001222CD7F127E00121C301222C71222D08A
:101FEA007F127E00121C301222CA7F127E00021C4F
:011FFA0030B6
:10213100E4FDFC121FDA0DBD00010CBC10F5BD2041
:01214100F2AB
:01214200227A
:07227F0012206D43A0402274
:0622BD0053A0BF0218ABA4
:10152400854C45854B44854A43854942300502C272
:10153400B012227F3006030215C5752201E47FE84C
:101544007E03FDFCAB45AA44A943A842C31209F794
:101554004061E5226401705B7FDD7E03121B37125C
:101564000CDDE5452418F545E54434FCF544E54334
:1015740034FFF543E54234FFF542E4FFFEFDE54266
:10158400FC7818120A0890E7C4EFF0E4FFFEE54384
:10159400FDE4FC7810120A08A3EFF0E4FFE544FE32
:1015A400E4FDFC7808120A08A3EFF0E545FFA3EF79
:1015B400F0808AE522B40112AE44AF45121B378095
:1015C40009752201E522640160FA1222BD30050288
:0315D400D2B02270
:101EE800AD07AC06D3ED9400EC9400401E00000052
:101EF800EE90E6D0F0000000ED90E6D1F000000092
:0C1F080075BB04000000E5BB30E7FB22C5
:081CFD008C798D7AAB07AA0671
:101D0500E4FDFCC3ED957AEC95795022EA90E6D096
:101D1500F0000000EB90E6D1F000000075BB050077
:0E1D25000000E5BB30E7FB0DBD00010C80D5D2
:011D3300228D
:1015D700AD07AC06000000ED25E0EC3390E6D0F057
:1015E700000000ED25E090E6D1F000000075BB0497
:0915F700000000E5BB30E7FB2217
:1011E900C203122294121C2C12229B121C2C1222B2
:1011F900A2121C2C1222A9121C2C121A8E121C2C9F
:101209001222B0121C2C122131754F0290E7C0E551
:101219004FF0121524754F0390E7C0E54FF03003E6
:10122900030212D2E4F577F578C3E5789528E577D6
:101239009527500D121FDA0578E57870EC0577804F
:10124900E8D3E5479400E5469400400BAD47AC462A
:10125900AF37AE36121CFDD3E5249400E523940084
:101269004007AF24AE231215D7E4F575F576C3E52B
:10127900769557E5759556502C121F14E4F577F5B8
:1012890078C3E578953A7480F8657798500D121F00
:10129900DA0578E57870EA057780E60576E576700F
:1012A900CD057580C9E4F577F578C3E5789555E5F9
:1012B900779554500D121FDA0578E57870EC0577AB
:0912C90080E8AF4EAE4D121EE8A4
:0112D20022F9
:101F1400000000E53725E0E5363390E6D0F0000018
:101F240000E53725E090E6D1F000000075BB040021
:0B1F34000000E5BB20E7033003F822AB
:101F3F00E490E608F0D28E53897F5389BF438920FE
:101F4F005389EF438E10758DB243C05043D880C272
:081F5F00C0C2C1D2AED2AF2214
:0D216F0030C102C2C18FC130C1FDC2C1220A
:101F8E0090000020C01CA3AF82AE83E4FCFD7BFA60
:101F9E007AFFF9F8C31209E15004D2008004C2009E
:061FAE0080E1C2C0AFC1DA
:011FB400220A
:0722860053A0F043A0092260
:07228D0053A0F043A0012261
:0722940053A0F043A0032258
:07229B0053A0F043A0022252
:0722A20053A0F043A0062247
:0722A90053A0F043A0042242
:101A41007F587E02121C301222A97F587E02121C7E
:101A5100301222A27F587E02121C3012229B7F5824
:101A61007E02121C301222947F587E02121C301208
:101A7100228D7F587E02121C301222867F587E02F0
:0D1A8100121C301222B07F587E02121C3061
:071A8E0053A0F043A00C225D
:0722B00053A0F043A0082237
:0D217C0053A0F07525FF90E7CBE525F0227C
:101C8400121C0B1222A2121C2C1222A9121C2C129E
:101C94001A8E121C2C1222B0121C041222A2121C24
:101CA4002C1222A9121C2C121A8E121C2C1222B0D5
:0D1CB400121C2CE4F52590E7CBE525F0226D
:1018AB001222B0121C2C121A8E121C2C1222A912EC
:1018BB001C2C1222A2121C22122294121C2C122259
:1018CB008D121C2C122286121C2C1222B0121C2CD4
:1018DB00121A8E121C2C1222A9121C2C1222A212CA
:1018EB001C22122294121C2C12228D121C2C12223E
:1018FB0086121C2C1222B0121C2C121A8E121C2CAB
:10190B001222A9121C2C1222A2121C2C7525039038
:06191B00E7CBE525F022F8
:10206D00121A84121A41121A417F587E02121C3024
:0A207D0075250190E7CBE525F02260
:101E3500122286121C2C12228D121C2C1222941294
:101E45001C2C12229B121C04122286121C2C1222FC
:0E1E55008D121C2C75250290E7CBE525F0229E
:08226900E4F51DD2E9D2AF2219
:101D6A0090E678E020E6F9C2E990E678E04480F06F
:101D7A00EF25E090E679F090E678E030E0F990E639
:101D8A0078E04440F090E678E020E6F990E678E0E2
:061D9A0030E1D6D2E9227F
:101DD400A90790E678E020E6F9E51D702390E678FF
:101DE400E04480F0E925E090E679F08D18AF03A98E
:101DF400077519018A1A891BE4F51C751D01D32284
:021E0400C322F7
:101DA000A90790E678E020E6F9E51D702590E67831
:101DB000E04480F0E925E0440190E679F08D18AF29
:101DC00003A9077519018A1A891BE4F51C751D03FF
:041DD000D322C32235
:03004B00020FE1C0
:100FE100C0E0C083C082C085C084C086758600C051
:100FF100D075D000C000C001C002C003C006C00748
:1010010090E678E030E206751D060210CB90E67896
:10101100E020E10CE51D64026006751D070210CB9E
:10102100E51D24FE605F14603624FE70030210BCCF
:1010310024FC70030210C8240860030210CBAB1912
:10104100AA1AA91BAF1C051C8F82758300120943C4
:1010510090E679F0E51C65187070751D05806B9040
:10106100E679E0AB19AA1AA91BAE1C8E8275830022
:10107100120970751D02E5186401704E90E678E062
:101081004420F08045E51824FEB51C0790E678E081
:101091004420F0E51814B51C0A90E678E04440F0CD
:1010A100751D0090E679E0AB19AA1AA91BAE1C8E3A
:1010B10082758300120970051C800F90E678E04468
:1010C10040F0751D008003751D005391DFD007D0DE
:1010D10006D003D002D001D000D0D0D086D084D0A9
:0810E10085D082D083D0E032FB
:10203500121DA0E51D24FA600E146006240770F336
:0C204500D322E4F51DD322E4F51DD322C4
:10205100121DD4E51D24FA600E146006240770F3E6
:0C206100D322E4F51DD322E4F51DD322A8
:030000000217667E
:0C176600787FE4F6D8FD75817D0217AD98
:10094300BB010CE58229F582E5833AF583E0225069
:1009530006E92582F8E622BBFE06E92582F8E222B3
:0D096300E58229F582E5833AF583E49322CD
:10097000F8BB010DE58229F582E5833AF583E8F0BD
:10098000225006E92582C8F622BBFE05E92582C869
:02099000F22251
:10099200E88FF0A4CC8BF0A42CFCE98EF0A42CFC04
:1009A2008AF0EDA42CFCEA8EF0A4CDA8F08BF0A482
:1009B2002DCC3825F0FDE98FF0A42CCD35F0FCEBE1
:1009C2008EF0A4FEA9F0EB8FF0A4CFC5F02ECD39A6
:0F09D200FEE43CFCEAA42DCE35F0FDE43CFC2213
:101B7D00C2D5E830E70FB2D5E4C39BFBE49AFAE493
:101B8D0099F9E498F8EC30E717B2D5121BB3120AA5
:101B9D0091E4C39BFBE49AFAE499F9E498F8800385
:101BAD00120A9130D50DE4C39FFFE49EFEE49DFD26
:041BBD00E49CFC2286
:1009E100EB9FF5F0EA9E42F0E99D42F0EC6480C88D
:0609F10064809845F0222D
:1009F700EB9FF5F0EA9E42F0E99D42F0E89C45F056
:010A070022CC
:100A0800E8600FECC313FCED13FDEE13FEEF13FFCC
:030A1800D8F122F0
:100A1B00E86010ECA2E713FCED13FDEE13FEEF13F1
:040A2B00FFD8F022DE
:100A2F00D083D082F8E4937012740193700DA3A356
:100A3F0093F8740193F5828883E47374029368606A
:060A4F00EFA3A3A380DF6A
:10177200020B23E493A3F8E493A34003F68001F25F
:1017820008DFF48029E493A3F85407240CC8C33378
:10179200C4540F4420C8834004F456800146F6DF47
:1017A200E4800B01020408102040809010E9E47EDE
:1017B200019360BCA3FF543F30E509541FFEE4933C
:1017C200A360010ECF54C025E060A840B8E493A303
:1017D200FAE493A3F8E493A3C8C582C8CAC583CA2E
:1017E200F0A3C8C582C8CAC583CADFE9DEE780BEE6
:0111E8000006
:100A550075F008758200EF2FFFEE33FECD33CDCC58
:100A650033CCC58233C5829BED9AEC99E5829840DB
:100A75000CF582EE9BFEED9AFDEC99FC0FD5F0D6B8
:100A8500E4CEFBE4CDFAE4CCF9A88222B800C1B9E2
:100A95000059BA002DEC8BF084CFCECDFCE5F0CB20
:100AA500F97818EF2FFFEE33FEED33FDEC33FCEB59
:100AB50033FB10D703994004EB99FB0FD8E5E4F914
:100AC500FA227818EF2FFFEE33FEED33FDEC33FC01
:100AD500C933C910D7059BE99A4007EC9BFCE99AF5
:100AE500F90FD8E0E4C9FAE4CCFB2275F010EF2F3A
:100AF500FFEE33FEED33FDCC33CCC833C810D7073A
:100B05009BEC9AE899400AED9BFDEC9AFCE899F874
:0E0B15000FD5F0DAE4CDFBE4CCFAE4C8F92207
:00000001FF
