:0A2166000001020203030404050552
:100B2300E4F570F56FF56EF56DC211C20EC210C219
:100B33000F121FB11207637E177F008E0A8F0B758A
:100B4300121775131275081775091C75101775118F
:100B53005175161775177FEE54E07003020C6A7512
:100B630071007572808E738F74C374A99FFF74179D
:100B73009ECF2402CF3400FEE48F6C8E6BF56AF5B2
:100B830069F568F567F566F565AF6CAE6BAD6AAC94
:100B930069AB68AA67A966A865C31209F75026E579
:100BA300722568F582E5713567F58374CDF0E568E4
:100BB3002401F568E43567F567E43566F566E435E1
:100BC30065F56580C4E4F568F567F566F565AF6CB2
:100BD300AE6BAD6AAC69AB68AA67A966A865C312B8
:100BE30009F75031AE67AF68E5742FF582E5733EC0
:100BF300F583E0FDE5722FF582E5713EF583EDF0B7
:100C0300EF2401F568E43EF567E43566F566E435FF
:100C130065F56580B985710A85720B74002480FFC0
:100C2300741734FFFEC3E5139FF513E5129EF51207
:100C3300C3E50D9FF50DE50C9EF50CC3E50F9FF580
:100C43000FE50E9EF50EC3E5099FF509E5089EF530
:100C530008C3E5119FF511E5109EF510C3E5179F35
:100C6300F517E5169EF516D2E843D82090E668E01E
:100C73004409F090E65CE0443DF0D2AFD288D28ADA
:100C8300C2A8C2AA43E808D2FB90E680E020E105AF
:100C9300D212121D4790E680E054F7F0538EF8C24B
:100CA30011300F0512053FC20F3011291214FE50E7
:100CB30024C211121EA2200E1690E682E030E70431
:100CC300E020E1EF90E682E030E604E020E0E41289
:0A0CD3001DA312221F12118280C718
:10053F0090E6B9E070030205F014700302066D2413
:10054F00FE70030206F024FB70030205EA14700329
:10055F000205E41460731460762405600302074FEC
:10056F00122221400302075B90E6BBE024FE6022CB
:10057F0014603324FD601114602224067048E50ACC
:10058F0090E6B3F0E50B8037E51290E6B3F0E51394
:10059F00802DE50C90E6B3F0E50D8023E50E90E697
:1005AF00B3F0E50F801990E6BAE0FF121DCFAA064F
:1005BF00A9077B01EA494B600DEE90E6B3F0EF908F
:1005CF00E6B4F002075B02075412204D02075B12DC
:1005DF0021A602075B12193902075B12203B0207A3
:1005EF005B122223400302075B90E6B8E0247F6092
:1005FF001514601924027063A20EE43325E0FFA2E4
:10060F0010E4334F8041E490E740F0803F90E6BC28
:10061F00E0547EFF7E00E0D394807C0040047D0197
:10062F0080027D00EC4EFEED4F2466F58274213E74
:10063F00F583E493FF3395E0FEEF24A1FFEE34E65C
:10064F008F82F583E0540190E740F0E4A3F090E649
:10065F008AF090E68B7402F002075B0207541222B5
:10066F0025400302075B90E6B8E024FE60162402E3
:10067F00600302075B90E6BAE0B40105C20E020701
:10068F005B02075490E6BAE0705590E6BCE0547EEA
:10069F00FF7E00E0D394807C0040047D0180027DCA
:1006AF0000EC4EFEED4F2466F58274213EF583E497
:1006BF0093FF3395E0FEEF24A1FFEE34E68F82F532
:1006CF0083E054FEF090E6BCE05480131313541FE4
:1006DF00FFE0540F2F90E683F0E04420F0806D8010
:1006EF0064122227506690E6B8E024FE60192402B7
:1006FF00705A90E6BAE0B40104D20E804F90E6BA79
:10070F00E064026047803E90E6BCE0547EFF7E00CE
:10071F00E0D394807C0040047D0180027D00EC4E8C
:10072F00FEED4F2466F58274213EF583E493FF338B
:10073F0095E0FEEF24A1FFEE34E68F82F58380086B
:10074F00120080500790E6A0E04401F090E6A0E090
:03075F004480F0E3
:010762002274
:0300330002220F97
:04220F0053D8EF327F
:101FB100758CE0758AC0E58954F04401F589758E08
:081FC10003D28CD2A9D2AF2299
:03003B000217ABFE
:1017AB00C0E0C083C082C0D075D000C006C0073077
:1017BB00C041C2C085C114052FE52F7002052ED381
:1017CB00E52F94F4E52E648094814006752E007508
:1017DB002F00AE2EAF2FEE90F800F0AE2EAF2FEF06
:1017EB00A3F0AE2EAF2F74012FF58274F83EF58364
:1017FB00E514F030C105C2C185C114D007D006D0A5
:08180B00D0D082D083D0E0327E
:03002300021A4C72
:101A4C00C0E0C083C082C0D075D000C007309836CB
:101A5C00C298859915052DE52D7002052CD3E52D21
:101A6C00940EE52C648094804006752C00752D0036
:101A7C00AF2D90E7F0EFF0AF2D74F02FF582E4343A
:101A8C00E7F583E515F0D007D0D0D082D083D0E035
:011A9C003217
:03005B0002181375
:09181300C0E0C0D075D000C00790
:10181C00AF91530780EF6480704953917F200C4146
:10182C00E555B40120300A08753330755500D202E5
:10183C00D3E54094D0E53F94075002D20A753F009F
:10184C00754000801CE555B40217300B140533E5C8
:10185C0033B43803753330E533B53405755500C2F0
:03186C000BC20CA0
:07186F00D007D0D0D0E03219
:1017000012010002000000401816218300000102AF
:1017100000010A0600020000004001000902350035
:1017200001010080FA0904000005FF000000070520
:101730000102400000070582020002000705810245
:1017400040000007058602000200070508020002AB
:101750000009022E0001010080FA0904000004FFC4
:10176000000000070501024000000705820240005A
:101770000007050202000200070581024000000484
:1017800003090410035100480059002D0043004391
:10179000004400160351004800590041004C004C21
:0B17A0000020002000200020000000BE
:100E8B0060802800030A030302020307000000022C
:100E9B00000002000A2B0B131115111100000000AA
:100EAB000000003F020A03030303030700000002D4
:100EBB00000002000A2B130B11151111000000008A
:100ECB000000003F032D0303030303070000000290
:100EDB00000002000A2B0B1311151111000000006A
:100EEB000000003F030A0A0A0A0E0A07000000026C
:100EFB00000002000A2B130B11151111000000004A
:100F0B000000003F60242887000000000000000064
:100F1B0000000000000000000000000000000000C6
:100F2B000000000000000000000000004728808047
:060F3B00000009CA4E008F
:1013FC0090E60174CAF090E6F574FFF0902880E056
:10140C0090E6F3F0902881E090E6C3F0902882E01B
:10141C0090E6C1F0902883E090E6C2F0902885E039
:10142C0090E6C0F0902886E090E6F4F075AF077473
:10143C0028F59A7400F59B759DE4E4F59EFF90E603
:10144C007BE090E67CF00FBF80F490E67174FFF0C7
:10145C00F5B490E672E04480F043B680000000E4FE
:10146C0090E6C4F000000090E6C5F0902887E0906C
:10147C00E6C6F0902888E090E6C7F0902889E090C6
:10148C00E6C8F090288AE090E6C9F090288BE090AE
:10149C00E6CAF090288CE090E6CBF090288DE09096
:0B14AC00E6CCF090288EE090E6CDF03A
:0114B7002212
:03004300021500A3
:0300530002150093
:10150000021FC90002200F00021FF900021FE100A4
:10151000021C7500021BC5000222290002222A00BB
:1015200002222B0002222C00021C020002125A008E
:1015300002222D0002222E00021B820002199800B6
:1015400002222F0002222A00022230000222310051
:10155000022232000222330002223400022235002D
:101560000222360002222A0002222A0002222A0037
:1015700002223700022238000222390002223A00F9
:1015800002223B0002223C0002223D0002223E00D9
:1015900002223F00022240000222410002224200B9
:1015A0000222430002224400022245000222460099
:0815B00002224700022248005C
:101DA30090E682E030E004E020E60B90E682E0304B
:101DB300E119E030E71590E680E04401F07F147EFE
:0C1DC300001214B890E680E054FEF022FC
:101EA20090E682E044C0F090E681F04387010000B2
:041EB200000000220A
:101D470030120990E680E0440AF0800790E680E0D0
:101D57004408F07FDC7E051214B890E65D74FFF04E
:0F1D670090E65FF05391EF90E680E054F7F022A2
:021DCF00A90762
:101DD100AE16AF178F828E83A3E064037017AD0137
:101DE10019ED7001228F828E83E07C002FFDEC3E85
:091DF100FEAF0580DF7E007F00DB
:011DFA0022C6
:1014B8008E798F7A90E600E054187012E57A24014C
:1014C800FFE43579C313F579EF13F57A801590E6C3
:1014D80000E05418FFBF100BE57A25E0F57AE579AE
:1014E80033F579E57A157AAE79700215794E60058B
:0614F800121EB680EE2278
:101EB6007400F58690FDA57C05A3E582458370F93F
:011EC60022F9
:100F4100C18302381040C100C108C105045A000024
:100F51000000015100012600044B00000000044480
:100F610000000000013E000155010134FF01333052
:100F7100023F000002530000016200023AC3500226
:100F8100310019C10AC18CC102C10B0143000141E9
:040F91000001370024
:101D76008E758F769028EB7403F0E4A3F07A287BB7
:101D8600EB7D027F41121F7C9028EB7401F0A3E5E6
:0D1D960076F07A287BEB7D027F41021F7CF6
:05208300122088AF05EA
:0B208800C2B6C2B48FB1D2B4D2B622EF
:0B215B00D2B6C2B48FB1D2B4D2B6220B
:0C20D700AE077FA0122088AF0602208810
:0C20E300AE077FA1122088AF0602208803
:0C20EF00AE077FA2122088AF06022088F6
:0721B600EF44A4FF022088A2
:0721BD00EF44AEFF02208891
:0C20FB00AE077FAD122088AF06022088DF
:0C210700AE077FA8122088AF06022088D7
:0C211300AE077FB0122088AF06022088C3
:0C211F00AE077FB1122088AF06022088B6
:0C212B00AE077FBB122088AF06022088A0
:0C213700AE077FB3122088AF060220889C
:101F0A00AE07AC037F8A122088AF061220887F8B27
:0D1F1A001220837F8C122088AF04022088E3
:0C214300AE077F87122088AF06022088BC
:101F2700AE07AC037F81122088AF061220887F821C
:0D1F37001220837F83122088AF04022088CF
:0C214F00AE077FBE122088AF0602208879
:0E209300AE05AD077F15122083AF0602208830
:0E20A100AE05AD077F75122083AF06022088C2
:041E7B00AC05AB0700
:101E7F007D5FE4FF1220937D3FFF1220A1FEE4FD62
:101E8F00AF0312215BAF0412215B0DBD60F20EBEDA
:021E9F0040EC15
:011EA100221E
:061A9D008B758A76897743
:101AA300E4F578F579900001120959FC700C7D5F1B
:101AB300FF1220937D3FFF0220A1BCFF2DD2B675FC
:101AC3007800757902C2B4AB75AA76A97785798255
:101AD300857883120959F5B1D2B40579E579700295
:0A1AE3000578B482E0E578B401DB79
:011AED0022D6
:1018D800C2B77FC87E00121B27D2B7E4FF1221BD12
:1018E8007F721220D7E4FF1220E3FF1220EFFF12CD
:1018F80021B67F3F1221077F8E1220FB7F0B12211A
:10190800137F3112211F7FF01221377B647D787F8E
:1019180064121F0A7F3A12212B7F3E12214F7F0645
:101928001221437B7D7D507F91121F277F01022169
:01193800BDF1
:1007630090E600E054E74410F00000000000009021
:10077300E61074A0F000000090E60B7401F090E620
:100783001274E0F0000000E490E613F00000009023
:10079300E61474E2F000000090E61574A0F0000087
:1007A3000090E6D27402F090E6047480F00000003A
:1007B3007402F00000007406F00000007408F000FA
:1007C3000000E4F00000001213FC90E6187408F037
:1007D30000000090E619F000000090E61AF0000017
:1007E3000090E61BF0000000E490E671F075B47F22
:1007F30075A07F90E672F075B6FF75B1FF90E67055
:10080300F075B2FF75B5FFC28CD2B012220390E629
:100813001074A0F000000090E611F000000090E6D4
:100823005EE04408F0000000E490E68DF000000074
:1008330090E65EE04404F0000000E490E7C0F0902E
:10084300E7C4F0A3F0A3F0A3F090E7F0F090E68FF5
:100853007440F000000090E65EE04440F0000000C9
:100863007E027F0090F800E4F0A3DFFCDEFA90E65E
:10087300987402F0000000E490E699F00000007E16
:10088300027F0090F800E4F0A3DFFCDEFA90E65E5E
:10089300E04480F0000000E490E69CF0000000904B
:1008A300E69DF00000007F9AFE1216F7752800758A
:1008B30029B47556017557907538107539B8755840
:1008C3000675592C1221AE90E67AE054FEF0E4FD51
:1008D3007F9012205F7F647E001214B87DFF7F42F9
:1008E30012205F7F647E001214B87D827F4E122037
:1008F3005F7542FF43A020E4F54A90E782E542F0AA
:1009030090E781E54AF0122203D20C755501753A3E
:1009130027753B107531007532051219F27F887EF9
:1009230013121B271219F27FB87E0B121B277F8825
:100933007E13121B271220BD1218D87DAA7FAA127C
:100943001E7BD2F9C2F8E4F55190E7C0E551F043BC
:05095300A01053917F8C
:01095800227C
:0E20AF00EF2401FBE43EFA7D047F48021F602F
:100CDD00E54AC313FFC374809FF57DE54AD39400A5
:100CED0040067542FF43A020E54A700353A0DF7E06
:100CFD00297F0B1220AF90290CE090E7C1F09029CD
:100D0D000DE090E7C2F09028EB74E5F07A287BEBCC
:100D1D007D017F41121F7C7A297B0B7D027F411261
:100D2D001F6090290BE0FEA3E07C002400FFEC3E49
:100D3D00FEE48F7C8E7BF57AF5797F097E3DFDABE8
:100D4D007CAA7BA97AA8791209A8780D120A1BEF43
:100D5D002490F57CEE34E8F57BED34FFF57AEC3438
:100D6D00FFF579E4FB7A01F9F8AF7CAE7BAD7AAC97
:100D7D0079121B3E90E7CCEFF0E4FB7A01F9F8AF66
:100D8D007CAE7BAD7AAC79121B3E90E7CDEBF0904B
:100D9D0028EB7450F0A3742EF07A287BEB7D027F44
:100DAD0041121F7C9028EB74EEF07A287BEB7D01CD
:100DBD007F41121F7C7A297B0B7D027F41121F60C0
:100DCD0090290BE0FEA3E07C002400FFEC3EFEE446
:100DDD008F7C8E7BF57AF5799028EB7450F0A374A7
:100DED000FF07A287BEB7D027F41121F7CE47FCDD3
:100DFD007E55FDFCAB7CAA7BA97AA8791209A8784F
:100E0D000D120A1BEF24FEF57CEE3448F57BED3414
:100E1D00FFF57AEC34FFF579E4FB7A01F9F8AF7C54
:100E2D00AE7BAD7AAC79121B3E90E7CEEFF0E4FBD2
:100E3D007A01F9F8AF7CAE7BAD7AAC79121B3E909E
:100E4D00E7CFEBF09028EBE542F07A287BEB7D01C4
:100E5D007F21121F7C9028EB7402F0A37480F07A2E
:100E6D00287BEB7D027F28121F7CE49028EBF0A3FA
:0E0E7D00E57DF07A287BEB7D027F28021F7C4A
:10118200E55D2401F55DE4355CF55CE4355BF55B1A
:10119200E4355AF55A0554E554700205530562AE1A
:1011A2003AAF3BE4FCFDAB5DAA5CA95BA85AC31253
:1011B20009F7700C120CDDE4F55DF55CF55BF55A90
:1011C20090E7C8E555F0A3E533F0A3E541F0E56209
:1011D200B40A1790FC00E0B411097B017AFC790093
:1011E200121A9DE490FC00F0F562E554B53228E550
:1011F20053B53123E555601124FE600804701312C3
:101202002025800E121EC78009E4FFFE121D7653B0
:10121200A0EFE4F553F55430013D75510190E7C05C
:10122200E551F0E5A030E7032008F812109EC20154
:10123200E4F55190E7C0E551F01219F27FB87E0B48
:10124200121B271219F27F887E13121B277F887EBA
:0812520013121B271220BD221C
:0214FE00D322F7
:02221F00D322C8
:02222100D322C6
:1019390090E680E030E73A00000090E6207402F07B
:10194900000000E490E621F000000090E624740213
:10195900F0000000E490E625F000000090E626740F
:1019690002F0000000E490E627F0000000D20380B6
:1019790016000000E490E620F000000090E62174D3
:0F19890040F0000000C20390E6BAE0F552D3220E
:10203B0090E740E552F0E490E68AF090E68B04F0EE
:02204B00D3229E
:0821A60090E6BAE0F527D32210
:10204D0090E740E527F0E490E68AF090E68B04F007
:02205D00D3228C
:02222300D322C4
:02222500D322C2
:02222700D322C0
:10008000E4F575F57690E6B9E0120A2F00B1B300F9
:10009000E9B5026FB602A7BB02F9BC035AC203A2BC
:1000A000C503C1C603F6CA0438CB04ACD0000005B2
:1000B0003BE490E68AF090E68BF090E6A0E020E149
:1000C000F990E68BE0F575E4F5B390E60174CAF0BB
:1000D000D20100000090E6047480F0000000740279
:1000E000F0000000E4F002053DE490E68AF090E6BE
:1000F0008BF090E6A0E020E1F990E68BE0F575D377
:10010000943F4024E4F57674402576F582E434E7A4
:10011000F583E0FF74AB2576F582E43428F583EFB0
:10012000F00576E576B440DF7F8A7E001216F79000
:1001300028ABE0FF7E001221709028ABE0FF7E002C
:100140001221799028ABE0FF7E001221829028AC2A
:10015000E075F004A4FFAEF012218B9028ACE0759E
:10016000F004A4FFAEF01221949028ACE075F004E6
:10017000A4FFAEF012219D9028B0E0C3940250136A
:100180009028CCE090E6C07005744EF08016749C08
:10019000F080119028CCE090E6C07005749FF0804C
:1001A00003749DF09028CEE024FF92079028CBE0C6
:1001B00024FF92069028CFE024FF92099028D9E0EE
:1001C000754800F549A3E0FEA3E07C002400F52576
:1001D000EC3EF5249028B1E0F53CE53C7003753C1D
:1001E000019028B6E0FEA3E07C002400F529EC3E57
:1001F000F528A3E0FEA3E02400F557EC3EF5569069
:1002000028B2E0FEA3E02400F539EC3EF538A3E087
:10021000FEA3E02400F559EC3EF5589028BCE0FE22
:10022000A3E02400F550EC3EF54F9028BAE0FEA381
:10023000E02400F536EC3EF5359028E0E0540FF56B
:100240003EE4FD7F9012205F9028ACE0FCA3E0FD2F
:10025000A3E0FEA3E0F54E8E4D8D4C8C4BE54EF5A4
:100260004EE54DF54DE54CF54CE4F54B02053DE40E
:10027000F57674AB2576F582E43428F583E0FF74D7
:10028000402576F582E434E7F583EFF00576E576F0
:10029000B440DF000000E490E68AF000000090E641
:1002A0008B7440F002053DE490E68AF090E68BF016
:1002B00090E6A0E020E1F990E6BCE09028EBF0E4C5
:1002C000F57690E6BEE0FFE576C39F501E744025AC
:1002D00076F582E434E7F583E0FF74EC2576F58269
:1002E000E43428F583EFF0057680D790E6BAE0C3D2
:1002F00013FF90E6BEE0048059E490E68AF090E6B1
:100300008BF090E6A0E020E1F990E6BDE09028EBCC
:10031000F090E6BCE09028ECF0E4F57690E6BEE0E4
:10032000FFE576C39F501E74402576F582E434E7DE
:10033000F583E0FF74ED2576F582E43428F583EF4C
:10034000F0057680D790E6BAE0C313FF90E6BEE0F2
:100350002402FD7A287BEB0204A690E74074F6F0B5
:10036000A37417F0A3740CF0A37426F0A37407F021
:10037000A374EEF0A37401F0A37403F0A37453F01C
:10038000300305E4A3F0800690E74974FFF0000015
:1003900000E490E68AF000000090E68B740AF00218
:1003A000053D7AE77B407D047F48121F6000000016
:1003B000E490E68AF000000090E68B7404F00205F9
:1003C0003DE490E68AF090E68BF090E6A0E020E134
:1003D000F990E68BE0F575D39401500302053D904A
:1003E000E741E0FD7F4212205F90E740E0FD7F4E55
:1003F00012205F02053D90E6BCE090290BF07A29BF
:100400007B0B7D017F50121F7C7A297B0B7D017F46
:1004100050121F7C90E6BEE0FD7AE77B407F5012D1
:100420001F60E490E68AF000000090E6BEE090E6EF
:100430008BF000000002053DE490E68AF000000029
:1004400090E68BF000000090E6A0E020E1F990E655
:10045000BCE0D39407500302053DE09028EBF0E4A4
:10046000F57690E6BEE0FFE576C39F501E7440250A
:1004700076F582E434E7F583E0FF74EC2576F582C7
:10048000E43428F583EFF0057680D790E6BEE004EB
:10049000FD7A287BEB7F50121F7C90E6BEE004FDC6
:1004A0007A287BEB7F50121F7C02053DE490E68AA0
:1004B000F090E68BF090E6A0E020E1F990E68BE08A
:1004C000F576C29890E740E0C394304006E0D394BC
:1004D00036400790E740E0F47063E555705F43A055
:1004E0001090E740E0B4FF09D20C755501C20A80B4
:1004F0004C90E740E0F53465336042C20BE0B40A4B
:100500000375346190E740E0B40B0375346290E703
:1005100040E0B40C0375346390E740E0B40D03751C
:10052000346490E740E0B40E0375346590E740E032
:0E053000B40F037534667555028002D322C3E2
:01053E00229A
:101FC900C0E0C083C082D20F5391EF90E65D7401E7
:081FD900F0D082D083D0E03289
:101FF900C0E0C083C0825391EF90E65D7404F0D0D5
:0620090082D083D0E0321A
:10200F00C0E0C083C0825391EF90E65D7402F0D0C0
:06201F0082D083D0E03204
:101C7500C0E0C083C08285100C85110D850D82855D
:101C85000C83A37402F085080E85090F850F8285E4
:101C95000E83A37407F05391EF90E65D7410F0D0B6
:061CA50082D083D0E03282
:101FE100C0E0C083C082D2115391EF90E65D7408C6
:081FF100F0D082D083D0E03271
:101BC500C0E0C083C08290E680E030E72085080C45
:101BD50085090D850D82850C83A37402F085100E91
:101BE50085110F850F82850E83A37407F05391EF3E
:0D1BF50090E65D7420F0D082D083D0E03205
:012229003282
:01222A003281
:01222B003280
:01222C00327F
:101C0200C0E0C083C08290E65EE054FBF0000000BA
:101C120090E68F7440F0000000752C00752D009046
:101C2200E7F0E4F05391EF90E65FE04404F090E6D1
:0C1C32005EE04404F0D082D083D0E032A9
:10125A00C0E0C0F0C083C082C0D075D000C000C05A
:0D126A0001C002C003C004C005C006C007DB
:1012770075630075640090E65EE054F7F090E6A1B0
:10128700E020E1F990E780E0FF14601324CF601DB0
:101297002434605414605B14705D7523008058908B
:1012A700E782E0F54290E781E0F54A804A90E781DE
:1012B700E070051219F2803F90E781E0B401051252
:1012C7001F98803390E781E0B40205121F448027FE
:1012D70090E781E0B403051220CA801B90E781E004
:1012E700B4FF141220BD800F90E781E024FF92081D
:1012F7008005752300D20400000090E68DE4F053CA
:1013070091EF90E65FE04408F090E65EE04408F075
:10131700D007D006D005D004D003D002D001D0002A
:0B132700D0D0D082D083D0F0D0E032D4
:01222D00327E
:01222E00327D
:101B8200C0E0C083C08290E65EE054BFF000000077
:101B920090E6987402F000000090E699E4F00000EC
:101BA20000F52EF52F90F800F0A3F05391EF90E698
:101BB2005FE04440F090E65EE04440F0D082D083A3
:031BC200D0E0323E
:0F199800C0E0C083C082C0D075D000C004C006BC
:1019A70090E65EE0547FF090E6A6E020E1F990E64D
:1019B7009CE0FE90E69DE07C002400F564EC3EF59B
:1019C7006300000090E69CE4F090E69DF05391EFF1
:0E19D70090E65FE04480F090E65EE04480F031
:0D19E500D006D004D0D0D082D083D0E03224
:01222F00327C
:01223000327B
:01223100327A
:012232003279
:012233003278
:012234003277
:012235003276
:012236003275
:012237003274
:012238003273
:012239003272
:01223A003271
:01223B003270
:01223C00326F
:01223D00326E
:01223E00326D
:01223F00326C
:01224000326B
:01224100326A
:012242003269
:012243003268
:012244003267
:012245003266
:012246003265
:012247003264
:012248003263
:061332008F778C788D79A5
:1013380053770753B0F77F0A7E00121B27E4F57A2C
:10134800F57BC37402957BFFE577A807088002C385
:1013580013D8FC30E00543800280035380FD7F0AE8
:101368007E00121B274380017F0A7E00121B275331
:1013780080FE7F0A7E00121B27057BE57B70020535
:101388007AC39403E57A6480948040B6E4F57AF5EC
:101398007BC37409957BFFE579AE78A807088005BB
:1013A800CEC313CE13D8F930E0054380028003532F
:1013B80080FD7F0A7E00121B274380017F0A7E0082
:1013C800121B275380FE7F0A7E00121B27057BE530
:1013D8007B7002057AC3940AE57A6480948040B1F0
:1013E80043B0087F0A7E00121B2753B0F77F0A7E9E
:0413F80000021B27AD
:0916F700AD07AC06E4FF0213325A
:09217000AD07AC067F0402133236
:09217900AD07AC067F050213322C
:09218200AD07AC067F0602133222
:09218B00AD07AC067F010213321E
:09219400AD07AC067F0202133214
:09219D00AD07AC067F030213320A
:10205F009028EBEDF0EFC313FF7A287BEB7D0102A5
:02206F001F7CD4
:101AEE001221FC7FC47E09121B271221F57FC47EB2
:101AFE0009121B271221EE7FC47E09121B27122109
:101B0E00E77FC47E09121B271221E07FC47E0912D3
:091B1E001B271221D97FC47E09A6
:101B2700EF7803C333CE33CED8F9FFEF4E6007EF1C
:071B37001F70F81E80F5226B
:03221300C2842260
:03221600D284224D
:03221900C283225B
:03221C00D2832248
:0622030012221C0222164B
:101EE9001222197F027E00121B2712221312221CB2
:101EF9007F027E00121B271222167F027E00021B20
:011F090027B0
:10207100E4FDFC121EE90DBD00010CBC0DF5BDF621
:01208100F26C
:01208200223B
:0721C400121F9843A0402206
:0622090053A0BF0220CA31
:1015B800854E47854D46854C45854B44300602C2CD
:1015C800B01221C4300703021659752301E47FE8DD
:1015D8007E03FDFCAB47AA46A945A844C31209F7F8
:1015E8004061E5236401705B7FDD7E031214B8124D
:1015F8000CDDE5472418F547E54634FCF546E54596
:1016080034FFF545E54434FFF544E4FFFEFDE544C9
:10161800FC7818120A0890E7C4EFF0E4FFFEE545ED
:10162800FDE4FC7810120A08A3EFF0E4FFE546FE9B
:10163800E4FDFC7808120A08A3EFF0E547FFA3EFE2
:10164800F0808AE523B40112AE46AF471214B88081
:1016580009752301E523640160FA122209300602A4
:03166800D2B022DB
:101DFB00AD07AC06D3ED9400EC9400401E00000040
:101E0B00EE90E6D0F0000000ED90E6D1F00000007F
:0C1E1B0075BB04000000E5BB30E7FB22B3
:081C3E008C798D7AAB07AA0630
:101C4600E4FDFCC3ED957AEC95795022EA90E6D056
:101C5600F0000000EB90E6D1F000000075BB050037
:0E1C66000000E5BB30E7FB0DBD00010C80D592
:011C7400224D
:101E5200AD07AC06000000ED25E0EC3390E6D0F0D3
:101E6200000000ED25E090E6D1F000000075BB0413
:091E7200000000E5BB30E7FB2293
:10109E00C2041221EE7FD07E07121B271221F57F8C
:1010AE00D07E07121B271221FC7FD07E07121B2732
:1010BE0012207175510290E7C0E551F01215B87506
:1010CE00510390E7C0E551F0300403021181E4F5BD
:1010DE0077F578C3E5789529E5779528500D121E9A
:1010EE00E90578E57870EC057780E8D3E54994005A
:1010FE00E5489400400BAD49AC48AF39AE38121CF0
:10110E003ED3E5259400E52494004007AF25AE2498
:10111E00121E52E4F575F576C3E5769559E575958B
:10112E0058502C121E27E4F577F578C3E578953CD8
:10113E007480F8657798500D121EE90578E5787081
:10114E00EA057780E60576E57670CD057580C9E40B
:10115E00F577F578C3E5789557E5779556500D12E6
:10116E001EE90578E57870EC057780E8AF50AE4F54
:03117E00121DFB44
:01118100224B
:101E2700000000E53925E0E5383390E6D0F0000002
:101E370000E53925E090E6D1F000000075BB04000D
:0B1E47000000E5BB20E7033004F82298
:0721CB0053A0F043A009221C
:0721D20053A0F043A001221D
:0721D90053A0F043A0032214
:0721E00053A0F043A002220E
:0721E70053A0F043A0062203
:0721EE0053A0F043A00422FE
:0721F50053A0F043A00C22EF
:0721FC0053A0F043A00822EC
:0D20BD0053A0F07526FF90E7CBE526F0223A
:1019F2001221CB7F287E0A121B271221D27F287E3A
:101A02000A121B271221D97F287E0A121B271221B4
:101A1200E07F287E0A121B271221E77F287E0A1206
:101A22001B271221EE7F287E0A121B271221F57F27
:101A3200287E0A121B271221FC7F287E0A121B27EE
:0A1A4200E4F52690E7CBE526F0223C
:0D20CA00121AEE75260390E7CBE526F022F2
:101F9800121AEE1221D2121B231221CB121B237507
:091FA800260190E7CBE526F022AA
:101F44001221CB121B231221D2121B191221E012CF
:0C1F54001B2375260290E7CBE526F02247
:101876000537E537B40803E4F537E53770057F0823
:10188600FE804BE537B401067F0A7E008040E537CF
:10189600B402067F027E008035E537B403067F0377
:1018A6007E00802AE537B404067F017E00801FE5AE
:1018B60037B405067F057E008014E537B406067F3B
:1018C600047E008009E537B407077F0C7E00121DF1
:0218D600762278
:10202500C202E555600F6405600B1218760540E5A0
:06203500407002053F228D
:101EC700E555601D640560190540E5407002053F52
:101ED700121876E54064A0453F7006F53FF540D2FD
:021EE7000B22CC
:0821AE00E4F51DD2E9D2AF22D5
:101CAB0090E678E020E6F9C2E990E678E04480F02F
:101CBB00EF25E090E679F090E678E030E0F990E6F9
:101CCB0078E04440F090E678E020E6F990E678E0A2
:061CDB0030E1D6D2E9223F
:101D1500A90790E678E020E6F9E51D702390E678BE
:101D2500E04480F0E925E090E679F08D18AF03A94D
:101D3500077519018A1A891BE4F51C751D01D32243
:021D4500C322B7
:101CE100A90790E678E020E6F9E51D702590E678F1
:101CF100E04480F0E925E0440190E679F08D18AFE9
:101D010003A9077519018A1A891BE4F51C751D03BE
:041D1100D322C322F4
:03004B00020F960B
:100F9600C0E0C083C082C085C084C086758600C09C
:100FA600D075D000C000C001C002C003C006C00793
:100FB60090E678E030E206751D0602108090E6782D
:100FC600E020E10CE51D64026006751D0702108035
:100FD600E51D24FE605F14603624FE700302107166
:100FE60024FC700302107D24086003021080AB19F4
:100FF600AA1AA91BAF1C051C8F82758300120959FA
:1010060090E679F0E51C65187070751D05806B908B
:10101600E679E0AB19AA1AA91BAE1C8E827583006D
:10102600120986751D02E5186401704E90E678E097
:101036004420F08045E51824FEB51C0790E678E0CC
:101046004420F0E51814B51C0A90E678E04440F018
:10105600751D0090E679E0AB19AA1AA91BAE1C8E85
:1010660082758300120986051C800F90E678E0449D
:1010760040F0751D008003751D005391DFD007D029
:1010860006D003D002D001D000D0D0D086D084D0F4
:0810960085D082D083D0E03246
:101F6000121CE1E51D24FA600E146006240770F3CC
:0C1F7000D322E4F51DD322E4F51DD3229A
:101F7C00121D15E51D24FA600E146006240770F37B
:0C1F8C00D322E4F51DD322E4F51DD3227E
:0300000002166B7A
:0C166B00787FE4F6D8FD75817D0216B290
:10095900BB010CE58229F582E5833AF583E0225053
:1009690006E92582F8E622BBFE06E92582F8E2229D
:0D097900E58229F582E5833AF583E49322B7
:10098600F8BB010DE58229F582E5833AF583E8F0A7
:10099600225006E92582C8F622BBFE05E92582C853
:0209A600F2223B
:1009A800E88FF0A4CC8BF0A42CFCE98EF0A42CFCEE
:1009B8008AF0EDA42CFCEA8EF0A4CDA8F08BF0A46C
:1009C8002DCC3825F0FDE98FF0A42CCD35F0FCEBCB
:1009D8008EF0A4FEA9F0EB8FF0A4CFC5F02ECD3990
:0F09E800FEE43CFCEAA42DCE35F0FDE43CFC22FD
:101B3E00C2D5E830E70FB2D5E4C39BFBE49AFAE4D2
:101B4E0099F9E498F8EC30E717B2D5121B74120A23
:101B5E0091E4C39BFBE49AFAE499F9E498F88003C4
:101B6E00120A9130D50DE4C39FFFE49EFEE49DFD65
:041B7E00E49CFC22C5
:1009F700EB9FF5F0EA9E42F0E99D42F0E89C45F056
:010A070022CC
:100A0800E8600FECC313FCED13FDEE13FEEF13FFCC
:030A1800D8F122F0
:100A1B00E86010ECA2E713FCED13FDEE13FEEF13F1
:040A2B00FFD8F022DE
:100A2F00D083D082F8E4937012740193700DA3A356
:100A3F0093F8740193F5828883E47374029368606A
:060A4F00EFA3A3A380DF6A
:10167700020B23E493A3F8E493A34003F68001F25B
:1016870008DFF48029E493A3F85407240CC8C33374
:10169700C4540F4420C8834004F456800146F6DF43
:1016A700E4800B0102040810204080900E8BE47E3A
:1016B700019360BCA3FF543F30E509541FFEE49338
:1016C700A360010ECF54C025E060A840B8E493A3FF
:1016D700FAE493A3F8E493A3C8C582C8CAC583CA2A
:1016E700F0A3C8C582C8CAC583CADFE9DEE780BEE2
:010F9500005B
:100A550075F008758200EF2FFFEE33FECD33CDCC58
:100A650033CCC58233C5829BED9AEC99E5829840DB
:100A75000CF582EE9BFEED9AFDEC99FC0FD5F0D6B8
:100A8500E4CEFBE4CDFAE4CCF9A88222B800C1B9E2
:100A95000059BA002DEC8BF084CFCECDFCE5F0CB20
:100AA500F97818EF2FFFEE33FEED33FDEC33FCEB59
:100AB50033FB10D703994004EB99FB0FD8E5E4F914
:100AC500FA227818EF2FFFEE33FEED33FDEC33FC01
:100AD500C933C910D7059BE99A4007EC9BFCE99AF5
:100AE500F90FD8E0E4C9FAE4CCFB2275F010EF2F3A
:100AF500FFEE33FEED33FDCC33CCC833C810D7073A
:100B05009BEC9AE899400AED9BFDEC9AFCE899F874
:0E0B15000FD5F0DAE4CDFBE4CCFAE4C8F92207
:00000001FF
