:0A18100000010202030304040505B1
:10060400E4F553F552F551F550C203C200C202C2DB
:10061400011217501207B17E0F7F008E0A8F0B75DF
:10062400120F75131275080F75091C75100F7511CB
:100634004A75140F751578EE54E0700302074B7574
:1006440054007555808E568F57C374A29FFF740F44
:100654009ECF2402CF3400FEE48F4F8E4EF54DF52D
:100664004CF54BF54AF549F548AF4FAE4EAD4DACA0
:100674004CAB4BAA4AA949A848C31212345026E5E8
:1006840055254BF582E554354AF58374CDF0E54B99
:100694002401F54BE4354AF54AE43549F549E43596
:1006A40048F54880C4E4F54BF54AF549F548AF4FA1
:1006B400AE4EAD4DAC4CAB4BAA4AA949A848C312A7
:1006C40012345031AE4AAF4BE5572FF582E5563E12
:1006D400F583E0FDE5552FF582E5543EF583EDF015
:1006E400EF2401F54BE43EF54AE43549F549E43598
:1006F40048F54880B985540A85550B74002480FF59
:10070400740F34FFFEC3E5139FF513E5129EF51233
:10071400C3E50D9FF50DE50C9EF50CC3E50F9FF5A4
:100724000FE50E9EF50EC3E5099FF509E5089EF554
:1007340008C3E5119FF511E5109EF510C3E5159F5B
:10074400F515E5149EF514D2E843D82090E668E048
:100754004409F090E65CE0443DF0D2AF90E680E0DE
:1007640020E105D20812158E90E680E054F7F0538C
:100774008EF8C2033001051203E0C20130032912CE
:100784000CFE5024C2031216E920001690E682E003
:1007940030E704E020E1EF90E682E030E604E02078
:0D07A400E0E41215EA12189F12115C80C7E4
:1003E00090E6B9E0700302049114700302050E2434
:1003F000FE700302059124FB700302048B1470034A
:10040000020485146073146076240560030205F00D
:100410001218A140030205FC90E6BBE024FE602216
:1004200014603324FD601114602224067048E50A2C
:1004300090E6B3F0E50B8037E51290E6B3F0E513F4
:10044000802DE50C90E6B3F0E50D8023E50E90E6F7
:10045000B3F0E50F801990E6BAE0FF121616AA066F
:10046000A9077B01EA494B600DEE90E6B3F0EF90EF
:10047000E6B4F00205FC0205F51217D60205FC12DF
:1004800018590205FC1213D90205FC1217C4020503
:10049000FC1218A340030205FC90E6B8E0247F603C
:1004A0001514601924027063A200E43325E0FFA252
:1004B00002E4334F8041E490E740F0803F90E6BC97
:1004C000E0547EFF7E00E0D394807C0040047D01F8
:1004D00080027D00EC4EFEED4F2410F58274183E34
:1004E000F583E493FF3395E0FEEF24A1FFEE34E6BD
:1004F0008F82F583E0540190E740F0E4A3F090E6AA
:100500008AF090E68B7402F00205FC0205F51218E1
:10051000A540030205FC90E6B8E024FE6016240224
:1005200060030205FC90E6BAE0B40105C2000205D2
:10053000FC0205F590E6BAE0705590E6BCE0547E0A
:10054000FF7E00E0D394807C0040047D0180027D2A
:1005500000EC4EFEED4F2410F58274183EF583E456
:1005600093FF3395E0FEEF24A1FFEE34E68F82F592
:1005700083E054FEF090E6BCE05480131313541F44
:10058000FFE0540F2F90E683F0E04420F0806D8070
:10059000641218A7506690E6B8E024FE60192402A1
:1005A000705A90E6BAE0B40104D200804F90E6BAE7
:1005B000E064026047803E90E6BCE0547EFF7E002F
:1005C000E0D394807C0040047D0180027D00EC4EED
:1005D000FEED4F2410F58274183EF583E493FF334B
:1005E00095E0FEEF24A1FFEE34E68F82F5838008CC
:1005F000120080500790E6A0E04401F090E6A0E0F1
:030600004480F043
:0106030022D4
:03003300020EFCBE
:040EFC0053D8EF32A6
:10175000758CE0758AC0E58954F04401F589758E71
:0817600003D28CD2A9D2AF2202
:03000B00020DB82B
:100DB800C0E0C0F0C083C082C0D075D000C000C001
:100DC80001C002C003C004C005C006C007758CE09E
:100DD800758AC0D28CE47F607EEAFDFCAB47AA46E8
:100DE800A945A844C31212345019AF47AE46AD45C1
:100DF800AC44EF2401F547E43EF546E43DF545E40F
:100E08003CF544E47F01FEFDFCAB47AA46A945A892
:100E180044C31212347008E5A054F02531F5A0E55A
:100E28002B2401FFE4352AFEE4FCFDAB47AA46A9C2
:100E380045A844C3121234700553A0F0C28CD007E1
:100E4800D006D005D004D003D002D001D000D0D035
:090E5800D082D083D0F0D0E0324A
:100F000012010002000000401816512800000102E2
:100F100000010A06000200000040010009022E0044
:100F200001010080FA0904000004FF000000070529
:100F300001024000000705820200020007050202CC
:100F40000002000705810240000009022E00010195
:100F50000080FA0904000004FF00000007050102F8
:100F6000400000070582024000000705020200025F
:100F70000007058102400000040309041003530028
:100F8000480049004D004100470045001603490054
:100F90004D0047002D003200500052004F0020004D
:040FA000200000002D
:100AD50060802800020202010202010700000002F4
:100AE500000002001B3A1A0200040000000000008A
:100AF5000000003F0202020101010107000000029F
:100B0500000002001B3A021A180400000000000051
:100B15000000003F033A030303030307000000023C
:100B2500000002001B3A1A02000400000000000049
:100B35000000003F035A03030303030700000002FC
:100B4500000002001B3A021A180400000000000011
:100B55000000003F6024288700000000000000001E
:100B65000000000000000000000000000000000080
:100B75000000000000000000000000004728808001
:060B8500000000CA4E0052
:100B9E0090E60174CAF090E6F574FFF0902880E0BC
:100BAE0090E6F3F0902881E090E6C3F0902882E082
:100BBE0090E6C1F0902883E090E6C2F0902885E0A0
:100BCE0090E6C0F0902886E090E6F4F075AF0774DA
:100BDE0028F59A7400F59B759DE4E4F59EFF90E66A
:100BEE007BE090E67CF00FBF80F490E67174FFF02E
:100BFE00F5B490E672E04480F043B680000000E465
:100C0E0090E6C4F000000090E6C5F0902887E090D2
:100C1E00E6C6F0902888E090E6C7F0902889E0902C
:100C2E00E6C8F090288AE090E6C9F090288BE09014
:100C3E00E6CAF090288CE090E6CBF090288DE090FC
:0B0C4E00E6CCF090288EE090E6CDF0A0
:010C59002278
:03004300020D00AB
:03005300020D009B
:100D0000021768000217AE00021798000217800051
:100D100002148A00021416000218A9000218AA0080
:100D20000218AB000218AC000212AF00020E610004
:100D30000218AD000218AE000218AF000218B00091
:100D40000218B1000218AA000218B2000218B3007B
:100D50000218B4000218B5000218B6000218B70055
:100D60000218B8000218AA000218AA000218AA0065
:100D70000218B9000218BA000218BB000218BC0021
:100D80000218BD000218BE000218BF000218C00001
:100D90000218C1000218C2000218C3000218C400E1
:100DA0000218C5000218C6000218C7000218C800C1
:080DB0000218C9000218CA0074
:1015EA0090E682E030E004E020E60B90E682E0300C
:1015FA00E119E030E71590E680E04401F07F147EBF
:0C160A000012135490E680E054FEF02221
:1016E90090E682E044C0F090E681F0438701000073
:0416F90000000022CB
:10158E0030080990E680E0440AF0800790E680E09B
:10159E004408F07FDC7E0512135490E65D74FFF074
:0F15AE0090E65FF05391EF90E680E054F7F02263
:02161600A90722
:10161800AE14AF158F828E83A3E064037017AD01FB
:1016280019ED7001228F828E83E07C002FFDEC3E45
:09163800FEAF0580DF7E007F009B
:011641002286
:101354008E608F6190E600E054187012E5612401FC
:10136400FFE43560C313F560EF13F561801590E673
:1013740000E05418FFBF100BE56125E0F561E5605E
:1013840033F560E5611561AE60700215604E60056D
:061394001216FD80EE229E
:1016FD007400F58690FDA57C05A3E582458370F900
:01170D0022B9
:100B8B00C18502230000022E1040C1070440000063
:020B9B00000058
:08166E0090E679F07F057E0093
:101676008E608F61E561456060177F957E00121769
:1016860039000000000000E561156170E715608013
:02169600E3224D
:1007B10090E600E054E74410F000000000000090D3
:1007C100E61074A0F000000090E60B7401F090E6D2
:1007D1001274E0F0000000E490E613F000000090D5
:1007E100E614F000000090E615F000000090E61815
:1007F100740CF000000090E6D27402F090E60474EC
:1008010080F00000007402F0000000E4F00000003D
:10081100120B9EE490E671F075B4FF90E672F075EC
:10082100B6FF75B1FF90E670F075B2FFC28CD2874A
:10083100D2851217F875230275240000000090E696
:100841001074A0F000000000000090E611F000001C
:100851000090E65EE04408F0000000E490E68DF0D0
:1008610090E65EE04404F0000000E490E68FF012B0
:1008710015BD5380FE7FAA7E0012181A75280075D7
:1008810029B4753B01753C90752E10752FB8753ED6
:1008910006753F2C12186112186190E67AE054FE39
:1008A100F0E4FD7F9012152A7F647E001213547DBF
:1008B100FF7F4212152A7F647E001213547D0A7F46
:1008C1004E12152A7532FF75350A90E782E532F02E
:0908D10090E781E535F002188A78
:1010D300E535D3940040037532FF90E678E0448011
:1010E300F0749112166E90E679E090E7C0121671D3
:1010F30090E679E090E7C112167190E679E090E707
:10110300C212167190E679E090E7C312167190E669
:1011130078E0444012167190E678E04480F074421F
:1011230012166E90E679E53212167190E678E04475
:101133004012167190E678E04480F090E679744EA0
:1011430012167190E679E53512167190E678E0444F
:0911530040F07F057E00021676D3
:10115C00E5432401F543E43542F542E43541F541DC
:10116C00E43540F540E47FE87E03FDFCAB43AA4246
:10117C00A941A840C31212347006FD7F9012152AA3
:10118C007FA07E867D017C00AB43AA42A941A8408A
:10119C00C312123470091218851210D312188A7FD8
:1011AC00407E0D7D037C00AB43AA42A941A840D3ED
:1011BC001212344009E4F543F542F541F540300490
:0711CC00031209E2C2042234
:020CFE00D322FF
:02189F00D32252
:0218A100D32250
:1013D90090E680E030E71800000090E6207402F003
:1013E900000000E490E621F0000000D2058016001C
:1013F9000000E490E620F000000090E6217440F03F
:0D140900000000C20590E6BAE0F539D322DC
:1017C40090E740E539F0E490E68AF090E68B04F087
:0217D400D3221E
:0818590090E6BAE0F527D32266
:1017D60090E740E527F0E490E68AF090E68B04F087
:0217E600D3220C
:0218A300D3224E
:0218A500D3224C
:0218A700D3224A
:10008000E4F558F55990E6B9E0244B606B14700321
:1000900002024224F4700302027824FD700302027B
:1000A000C214700302032624FD700302035B2416AE
:1000B00060030203DCE490E68AF090E68BF090E6C1
:1000C000A0E020E1F990E68BE0F558E4F5B5F5B352
:1000D00090E60174CAF0E490E6C3F090E6C2F0D274
:1000E0000400000090E6047480F00000007402F048
:1000F000000000E4F00203DEE490E68AF090E68B74
:10010000F090E6A0E020E1F990E68BE0F558D3947A
:100110003F4024E4F55974402559F582E434E7F56D
:1001200083E0FF74AB2559F582E43428F583EFF0C2
:100130000559E559B440DF7FAA7E0012181A9028AD
:10014000ABE0FF7E001218239028ABE0FF7E001288
:10015000182C9028ABE0FF7E001218359028ACE0F8
:1001600075F004A4FFAEF012183E9028ACE075F0D4
:1001700004A4FFAEF01218479028ACE075F004A478
:10018000FFAEF01218509028B0E0C39402501390C4
:1001900028CCE090E6C07005744EF08016749CF098
:1001A00080119028CCE090E6C07005749FF0800329
:1001B000749DF09028CEE0F5369028CBE0F5349091
:1001C00028CFE0F53A9028D9E0F533A3E0FEA3E08C
:1001D0007C002400F526EC3EF5259028B1E0F530B2
:1001E000E53070037530019028B6E0FEA3E07C0096
:1001F0002400F529EC3EF528A3E0FEA3E02400F559
:100200003CEC3EF53B9028B2E0FEA3E02400F52F45
:10021000EC3EF52EA3E0FEA3E02400F53FEC3EF516
:100220003E9028BCE0FEA3E02400F538EC3EF53714
:100230009028BAE0FEA3E02400F52DEC3EF52C0258
:1002400003DEE4F55974AB2559F582E43428F583CF
:10025000E0FF74402559F582E434E7F583EFF005BB
:1002600059E559B440DF000000E490E68AF0000050
:100270000090E68B7440804390E74074B6F0A3741E
:1002800017F0A3740CF0A37426F0A37407F0A37402
:10029000EEF0A37401F0E4A3F0A37453F03005056D
:1002A000E4A3F0800690E74974FFF0000000E490BA
:1002B000E68AF000000090E68B740AF01215BD0289
:1002C00003DE90E678E04480F090E6797491F07F68
:1002D000647E0012173990E679E090E740F07F6481
:1002E0007E0012173990E679E090E741F07F647E56
:1002F0000012173990E679E090E742F07F647E00C3
:1003000012173990E679E090E743F090E678E04400
:1003100040F0000000E490E68AF000000090E68BD8
:100320007404F00203DEE490E68AF090E68BF0902D
:10033000E6A0E020E1F990E68BE0F558D394015077
:10034000030203DE90E740E0FD7F4E12152A90E79E
:1003500041E0FD7F4212152A0203DEE490E68AF0B6
:1003600090E68BF090E6A0E020E1F990E68BE0F5D6
:1003700058D39401406890E740E05480C4131313AD
:10038000540124FF92A3E05440C41313540324FFE8
:1003900092A2E05420C413540724FF92A1E0541009
:1003A000C4540F24FF92A0A3E075F00AA4FFAEF09E
:1003B00012135490E740E05408131313541F24FF02
:1003C00092A3E054041313543F24FF92A2E054027A
:0F03D000C31324FF92A1E01392A08002D322C393
:0103DF0022FB
:10176800C0E0C083C082D2015391EF90E65D74015E
:08177800F0D082D083D0E032F2
:10179800C0E0C083C0825391EF90E65D7404F0D03E
:0617A80082D083D0E03284
:1017AE00C0E0C083C0825391EF90E65D7402F0D02A
:0617BE0082D083D0E0326E
:10148A00C0E0C083C08285100C85110D850D828550
:10149A000C83A37402F085080E85090F850F8285D7
:1014AA000E83A37407F05391EF90E65D7410F0D0A9
:0614BA0082D083D0E03275
:10178000C0E0C083C082D2035391EF90E65D74083D
:08179000F0D082D083D0E032DA
:10141600C0E0C083C08290E680E030E72085080CFB
:1014260085090D850D82850C83A37402F085100E47
:1014360085110F850F82850E83A37407F05391EFF4
:0D14460090E65D7420F0D082D083D0E032BB
:0118A900320C
:0118AA00320B
:0118AB00320A
:0118AC003209
:1012AF00C0E0C0F0C083C082C0D075D000C000C005
:1012BF0001C002C003C004C005C006C007C2AF1200
:1012CF00188500000090E68F7404F0000000539121
:1012DF00EF90E65FE04404F012188AD2AFD007D047
:1012EF0006D005D004D003D002D001D000D0D0D08A
:0812FF0082D083D0F0D0E03270
:100E6100C0E0C083C082C0D075D000C004C006C03D
:010E71000779
:100E7200C2AF90E6A1E020E1F990E780E0146014AF
:100E820024F8601E240C604624FE604614704875E7
:100E92002200804390E782E0F53290E781E0F53569
:100EA2008035D28C90E781E0540FF531A3E0FEA3A8
:100EB200E07C002400FFEC3EC313F52AEF13F52B70
:100EC2007547007546007545007544008009C28C5F
:100ED2008005752200D20600000090E68DE4F053F2
:0B0EE20091EF90E65FE04408F0D2AF13
:0F0EED00D007D006D004D0D0D082D083D0E0324E
:0118AD003208
:0118AE003207
:0118AF003206
:0118B0003205
:0118B1003204
:0118B2003203
:0118B3003202
:0118B4003201
:0118B5003200
:0118B60032FF
:0118B70032FE
:0118B80032FD
:0118B90032FC
:0118BA0032FB
:0118BB0032FA
:0118BC0032F9
:0118BD0032F8
:0118BE0032F7
:0118BF0032F6
:0118C00032F5
:0118C10032F4
:0118C20032F3
:0118C30032F2
:0118C40032F1
:0118C50032F0
:0118C60032EF
:0118C70032EE
:0118C80032ED
:0118C90032EC
:0118CA0032EB
:060C5A008F5A8C5B8D5CDB
:100C6000535A0753A0BF121735E4F55DF55EC37400
:100C700002955EFFE55AA807088002C313D8FC302E
:100C8000E00543A020800353A0DF1217351217326E
:100C900053A0EF121735055EE55E7002055DC39443
:100CA00003E55D6480948040C5E4F55DF55EC37442
:100CB00009955EFFE55CAE5BA807088005CEC3130F
:100CC000CE13D8F930E00543A020800353A0DF12F3
:100CD000173512173253A0EF121735055EE55E7017
:100CE00002055DC3940AE55D6480948040C043A022
:0E0CF0004012173553A0BF7F0A7E000217394D
:09181A00AD07AC06E4FF020C5A14
:09182300AD07AC067F04020C5A6B
:09182C00AD07AC067F05020C5A61
:09183500AD07AC067F06020C5A57
:09183E00AD07AC067F01020C5A53
:09184700AD07AC067F02020C5A49
:09185000AD07AC067F03020C5A3F
:10152A008D5AAD0790E678E04480F090E679EDF0C8
:10153A007F647E0012173990E679E55AF07F647E5F
:10154A000012173990E678E04440F07F647E00028A
:02155A0017393F
:0717320043A0107F0A7E00B6
:10173900EF7803C333CE33CED8F9FFEF4E6007EF0E
:071749001F70F81E80F5225D
:04188F0053B17F22B0
:0418930043B18022BB
:0718690053B1FE53B1FB2255
:0718700053B1FE43B1042255
:0718770043B10143B104225B
:0418970053B1F72230
:04189B0043B108222B
:07187E0043B14053B1EF221A
:0917E80012187712189312189BD5
:0717F10043B14043B1102297
:0C17F8001218931218701218970217F1C3
:101245001217F812173512187E7F037E0012173910
:101255001218777F037E0012173912188F7F037ECD
:101265000012173912189B7F037E001217391218C6
:10127500707F037E001217391217F17F037E00126B
:1012850017391218977F147E001217391218697FC3
:10129500017E001217391218937F087E0012173944
:0A12A5001218707F147E0002173942
:1014530012187E00000012187700000012188F0087
:10146300000000000012189B00000012187000001A
:10147300001217F10000000000001218970000008E
:071483001218930000002283
:10139A00E4FFFE12187E0000001218770000001207
:1013AA00188F00000012189B00000012187000002D
:1013BA00001217F10000001218970000001218938B
:0E13CA000000000FBF00010EBE04C8BF1AC510
:0113D80022F2
:0C180400C2857F027E00121739D28522B7
:1015BD00C283E4F55AF55BD2827F1E7E001213546E
:1015CD00C2827F1E7E00121354055BE55B7002051F
:0C15DD005AC39405E55A6480948040DBFA
:0115E90022DF
:05188500C283C28222B3
:05188A00D283D282228E
:0118CB0022FA
:0118CC0022F9
:100FA4001217E8E52D452C7003121804E534B4013A
:100FB40002C2871218CBE53670757522019028ADF0
:100FC400E075F040A485F05EF55FAF227E00AC5E74
:100FD400AD5F121222D3EF9400EE940040147FC44C
:100FE4007E031216761210D3E55F155F70DC155E72
:100FF40080D89028AEE0755E00F55FAF227E00AC2D
:101004005EAD5F121222D3EF9400EE940040147F81
:10101400C47E001216761210D3E55F155F70DC15DE
:101024005E80D89028AFE0FF7E00121354800975CB
:101034002201E522640160FA1218CCE534B40102FD
:02104400D28751
:011046002287
:10164200AD07AC06D3ED9400EC9400401E00000000
:10165200EE90E6D0F0000000ED90E6D1F000000040
:0C16620075BB04000000E5BB30E7FB2274
:02130700AC0632
:1013090090E6C0E0FBE490E618F090E6C0744EF079
:10131900EC90E6D0F0000000EF90E6D1F00000007C
:1013290075BB04000000E5BB30E7FB90E604748060
:10133900F00000007402F0000000E4F000000090EA
:0A134900E618740CF090E6C0EBF01B
:011353002277
:10169800AD07AC06000000ED25E0EC3390E6D0F095
:1016A800000000ED25E090E6D1F000000075BB04D5
:0916B800000000E5BB30E7FB2255
:10170E00E53A700E120FA4E52D452C701112139AA6
:10171E00800CE52D452C700312139A120FA4121291
:04172E0045D28622F8
:1009E20012188AC20612170E121885300603020A5E
:1009F200D4E4F55AF55BC3E55B9529E55A95285091
:100A020029E4F55CF55DC3E55D95307480F8655CBD
:100A120098500D121453055DE55D70EA055C80E6A1
:100A2200055BE55B70D0055A80CCE533D39400407A
:100A32000EAF337E00AC2EAD2F121222121307D34B
:100A4200E5269400E52594004007AF26AE25121650
:100A520098E4F558F559C3E559953FE558953E5048
:100A62002C1216C1E4F55CF55DC3E55D953074802A
:100A7200F8655C98500D121453055DE55D70EA054A
:100A82005C80E60559E55970CD055880C9E4F55AF0
:100A9200F55BC3E55B953CE55A953B5029E4F55C73
:100AA200F55DC3E55D95307480F8655C98500D1274
:100AB2001453055DE55D70EA055C80E6055BE55B68
:100AC20070D0055A80CC1217E8C286AF38AE371202
:020AD2001642CA
:010AD40022FF
:1016C100000000E52F25E0E52E3390E6D0F0000084
:1016D10000E52F25E090E6D1F000000075BB040085
:0816E1000000E5BB30E7FB222D
:08186100E4F51BD2E9D2AF222D
:1014C00090E678E020E6F9C2E990E678E04480F022
:1014D000EF25E090E679F090E678E030E0F990E6EC
:1014E00078E04440F090E678E020E6F990E678E095
:0614F00030E1D6D2E92232
:10155C00A90790E678E020E6F9E51B702390E67881
:10156C00E04480F0E925E090E679F08D16AF03A910
:10157C00077517018A188919E4F51A751B01D3220E
:02158C00C32278
:1014F600A90790E678E020E6F9E51B702590E678E6
:10150600E04480F0E925E0440190E679F08D16AFDD
:1015160003A9077517018A188919E4F51A751B03BB
:04152600D322C322E7
:03004B000208DACE
:1008DA00C0E0C083C082C085C084C086758600C05F
:1008EA00D075D000C000C001C002C003C006C00756
:1008FA0090E678E030E206751B060209C490E678B5
:10090A00E020E10CE51B64026006751B070209C4BE
:10091A00E51B24FE605F14603624FE70030209B5ED
:10092A0024FC70030209C1240860030209C4AB173E
:10093A00AA18A919AF1A051A8F827583001211D342
:10094A0090E679F0E51A65167070751B05806B9054
:10095A00E679E0AB17AA18A919AE1A8E8275830038
:10096A00121200751B02E5166401704E90E678E0DB
:10097A004420F08045E51624FEB51A0790E678E093
:10098A004420F0E51614B51A0A90E678E04440F0DF
:10099A00751B0090E679E0AB17AA18A919AE1A8E52
:1009AA0082758300121200051A800F90E678E044DF
:1009BA0040F0751B008003751B005391DFD007D0F0
:1009CA0006D003D002D001D000D0D0D086D084D0B7
:0809DA0085D082D083D0E03209
:03000000021047A4
:0C104700787FE4F6D8FD75816102108E00
:1011D300BB010CE58229F582E5833AF583E02250D1
:1011E30006E92582F8E622BBFE06E92582F8E2221B
:0D11F300E58229F582E5833AF583E4932235
:10120000F8BB010DE58229F582E5833AF583E8F024
:10121000225006E92582C8F622BBFE05E92582C8D0
:02122000F222B8
:10122200EF8DF0A4A8F0CF8CF0A428CE8DF0A42EE0
:02123200FE229A
:10123400EB9FF5F0EA9E42F0E99D42F0E89C45F010
:011244002287
:10105300020604E493A3F8E493A34003F68001F2A9
:1010630008DFF48029E493A3F85407240CC8C3339E
:10107300C4540F4420C8834004F456800146F6DF6D
:10108300E4800B0102040810204080900AD5E47E1E
:10109300019360BCA3FF543F30E509541FFEE49362
:1010A300A360010ECF54C025E060A840B8E493A329
:1010B300FAE493A3F8E493A3C8C582C8CAC583CA54
:1010C300F0A3C8C582C8CAC583CADFE9DEE780BE0C
:010B9D000057
:00000001FF
