:0A0ED70000010202030304040505F4
:1003BC00E4F531F530F52FF52EC203C200C202C2AE
:1003CC00011208A07E007F908E0A8F0B75120075AB
:1003DC0013A27508007509AC7510007511D375144E
:1003EC00007515FA90E680E030E70E85080C85095B
:1003FC000D85100E85110F800C85100C85110D8547
:10040C00080E85090FEE54E0700302052D753200BD
:10041C007533807E007F908E348F35C374209FFFA0
:10042C0074019ECF2402CF3400FEE48F2D8E2CF568
:10043C002BF52AF529F528F527F526AF2DAE2CAD91
:10044C002BAC2AAB29AA28A927A826C3120EC65062
:10045C002AE5332529F582E5323528F58374CDF06C
:10046C00E4FAF9F8E5292401F529EA3528F528E913
:10047C003527F527E83526F52680C0E4F529F5283B
:10048C00F527F526AF2DAE2CAD2BAC2AAB29AA281F
:10049C00A927A826C3120EC65035AE28AF29E535BC
:1004AC002FF582E5343EF583E0FDE5332FF582E54B
:1004BC00323EF583EDF0E4FAF9F8EF2401F529EA80
:1004CC003EF528E93527F527E83526F52680B5854C
:1004DC00320A85330B74902480FF740034FFFEC302
:1004EC00E5139FF513E5129EF512C3E50D9FF50D6F
:1004FC00E50C9EF50CC3E50F9FF50FE50E9EF50E72
:10050C00C3E5099FF509E5089EF508C3E5119FF5BC
:10051C0011E5109EF510C3E5159FF515E5149EF534
:10052C0014D2E843D82090E668E04409F090E65CE9
:10053C00E0443DF0D2AF90E680E020E105D2051218
:10054C000D9B90E680E054F7F0538EF8C203300117
:10055C0005120122C201300329120AFB5024C203E6
:10056C00120E2220001690E682E030E704E020E133
:10057C00EF90E682E030E604E020E0E4120DCA12CF
:07058C000AFD120AFF80C7FF
:010593002245
:1001220090E6B9E070030201FE1470030202A724F4
:10013200FE700302033C24FB70030201F8147003F7
:100142000201F21470030201E61470030201EC24AE
:100152000560030203A8120EE940030203B490E60D
:10016200BBE024FE602C14604724FD60161460314D
:1001720024067066E50A90E6B3F0E50B90E6B4F06B
:100182000203B4E51290E6B3F0E51390E6B4F00290
:1001920003B4E50C90E6B3F0E50D90E6B4F002038B
:1001A200B4E50E90E6B3F0E50F90E6B4F00203B4C6
:1001B20090E6BAE0FF120DF6AA06A9077B01EA490A
:1001C2004B600DEE90E6B3F0EF90E6B4F00203B4AC
:1001D20090E6A0E04401F00203B490E6A0E04401FE
:1001E200F00203B4120EB40203B4120EE10203B41D
:1001F200120CF60203B4120EA20203B4120EEB406A
:10020200030203B490E6B8E0247F602B14603C2420
:1002120002600302029DA200E433FF25E0FFA20276
:10022200E4334F90E740F0E4A3F090E68AF090E6E2
:100232008B7402F00203B4E490E740F0A3F090E67E
:100242008AF090E68B7402F00203B490E6BCE054AC
:100252007EFF7E00E0D3948040067C007D01800416
:100262007C007D00EC4EFEED4F24D7F582740E3EED
:10027200F583E493FF3395E0FEEF24A1FFEE34E62D
:100282008F82F583E0540190E740F0E4A3F090E61A
:100292008AF090E68B7402F00203B490E6A0E04488
:1002A20001F00203B4120EED40030203B490E6B86B
:1002B200E024FE601D240260030203B490E6BAE06B
:1002C200B40105C2000203B490E6A0E04401F002CA
:1002D20003B490E6BAE0705990E6BCE0547EFF7E2B
:1002E20000E0D3948040067C007D0180047C007D88
:1002F20000EC4EFEED4F24D7F582740E3EF583E4FA
:1003020093FF3395E0FEEF24A1FFEE34E68F82F5F2
:1003120083E054FEF090E6BCE05480FF13131354C4
:100322001FFFE0540F2F90E683F0E04420F0020319
:10033200B490E6A0E04401F08078120EEF50739082
:10034200E6B8E024FE60202402706790E6BAE0B4CA
:100352000104D200805C90E6BAE06402605490E648
:10036200A0E04401F0804B90E6BCE0547EFF7E00AA
:10037200E0D3948040067C007D0180047C007D00F7
:10038200EC4EFEED4F24D7F582740E3EF583E493D6
:10039200FF3395E0FEEF24A1FFEE34E68F82F58372
:1003A200E04401F0800C120594500790E6A0E0446E
:0903B20001F090E6A0E04480F0A7
:0103BB00221F
:0300330002008C3C
:04008C0053D8EF3224
:10009000120100020000004018166966000001020B
:1000A00000010A06000200000040010009022700CA
:1000B000010100A0FA0904000003FF000000070589
:1000C0000102400000070586020002000705020247
:1000D00000020009022700010100A0FA0904000043
:1000E00003FF00000007050202400000070586022A
:1000F00040000007050102400000040309040E034C
:1001000051004800590043004300440014034900D3
:100110004D0047002D003500300020002000200059
:020120000000DD
:03004300020B00AD
:03005300020B009D
:100B0000020AE300020E8C00020E7600020E47007D
:100B1000020D2D00020D6400020EF100020EF20023
:100B2000020EF300020EF400020EF500020972003C
:100B3000020EF600020EF700020EF800020EF90097
:100B4000020EFA00020EF200020EFB00020EFC0082
:100B5000020EFD00020EFE00020EFF00020F00005A
:100B6000020F0100020EF200020EF200020EF2006D
:100B7000020F0200020F0300020F0400020F050023
:100B8000020F0600020F0700020F0800020F090003
:100B9000020F0A00020F0B00020F0C00020F0D00E3
:100BA000020F0E00020F0F00020F1000020F1100C3
:080BB000020F1200020F1300F6
:100DCA0090E682E030E004E020E60B90E682E03034
:100DDA00E119E030E71590E680E04401F07F147EE7
:0C0DEA0000120CB090E680E054FEF022F5
:100E220090E682E044C0F090E681F0438701000042
:040E3200000000229A
:100D9B0030050990E680E0440AF0800790E680E099
:100DAB004408F07FDC7E05120CB090E65D74FFF01A
:0F0DBB0090E65FF05391EF90E680E054F7F0225E
:020DF600A9074B
:100DF800AE14AF158F828E83A3E064037017AD0124
:100E080019ED7001228F828E83E07C002FFDEC3E6D
:090E1800FEAF0580DF7E007F00C3
:010E210022AE
:100CB0008E388F3990E600E054187012E53924011F
:100CC000FFE43538C313F538EF13F539801590E696
:100CD00000E05418FFBF100BE53925E0F539E53881
:100CE00033F538E5391539AE38700215384E6005E0
:060CF000120E3680EE2218
:100E36007400F58690FDA57C05A3E582458370F9CF
:010E46002289
:1008A00090E6007412F000000090E61074A0F000D2
:1008B000000090E6017443F000000090E61274A07E
:1008C000F0000000E490E613F000000090E61474DD
:1008D000E0F0000000E490E615F000000090E6046F
:1008E0007480F00000007402F00000007406F00054
:1008F0000000E4F000000090E60274E6F000000062
:1009000090E60374F8F000000090E670E04440F0D8
:10091000000000E490E609F000000043B20F90E60A
:100920001804F00000007411F000000090E61A7442
:1009300009F0000000E490E671F090E672F0F5B482
:1009400075B6FFD28090E65EE04408F0000000E457
:1009500090E68DF07D2B7F01120A33E4FD7F80123B
:100960000A3353B1F77F647E00120CB043B108C262
:0209700004225F
:010AFF0022D4
:020AFB00D32204
:020AFD00D32202
:020EE900D32212
:100CF60090E680E030E71590E6247402F0000000EC
:100D0600E490E625F0000000D2048013E490E62487
:100D1600F000000090E6257440F0000000C2049048
:070D2600E6BAE0F518D32244
:100EA20090E740E518F0E490E68AF090E68B04F0D3
:020EB200D32249
:080EE10090E6BAE0F516D322F9
:100EB40090E740E516F0E490E68AF090E68B04F0C3
:020EC400D32237
:020EEB00D32210
:020EED00D3220E
:020EEF00D3220C
:1005940090E6B9E0244B606314700302068624FEDF
:1005A40070030206BE24F6700302071D240F6003C5
:1005B40002075EE490E68AF090E68BF090E6A0E015
:1005C40020E1F990E68BE0F53600000090E6047433
:1005D40080F0000000C28053B1F77406F000000000
:1005E400E4F090E740E0FF7E00120CB0D2807F641C
:1005F4007E00120CB043B108020760E490E68AF072
:1006040090E68BF090E6A0E020E1F990E68BE0F52F
:1006140036D3943F4024E4F53774402537F582E41B
:1006240034E7F583E0FF74132537F582E43418F5D5
:1006340083EFF00537E537B440DF901834E0FF70FE
:100644000353173FEFB40108E517543F2440F5174F
:10065400901834E0B40208E517543F2480F517904D
:100664001834E0B40308E517543F24C0F517AD1758
:100674007F80120A3390184DE0FD7F01120A330285
:100684000760E4F53774132537F582E43418F583ED
:10069400E0FF74402537F582E434E7F583EFF00595
:1006A40037E537B440DF000000E490E68AF000004C
:1006B4000090E68B7440F0020760E490E68AF090C4
:1006C400E68BF090E6A0E020E1F990E68BE0F536C9
:1006D400D394124024E4F53774402537F582E4348A
:1006E400E7F583E0FF74002537F582E43418F583D9
:1006F400EFF00537E537B413DF901800E07003120C
:100704000C60901800E0B40103120762901800E036
:1007140064027048120BB8804390E74074C1F0A3A0
:100724007408F0A3F0E4A3F0A37406F0E4A3F0A328
:1007340004F0E4A3F0A374A0F0300405E4A3F08073
:100744000690E74974FFF0000000E490E68AF000A8
:0D075400000090E68B740AF08002D322C3EF
:010761002275
:100AE300C0E0C083C082D2015391EF90E65D7401F0
:080AF300F0D082D083D0E03284
:100E7600C0E0C083C0825391EF90E65D7404F0D069
:060E860082D083D0E032AF
:100E8C00C0E0C083C0825391EF90E65D7402F0D055
:060E9C0082D083D0E03299
:100D2D00C0E0C083C08290E680E030E70E85080CFD
:100D3D0085090D85100E85110F800C85100C851100
:100D4D000D85080E85090F5391EF90E65D7410F037
:070D5D00D082D083D0E03208
:100E4700C0E0C083C082D2035391EF90E65D74087F
:080E5700F0D082D083D0E0321C
:100D6400C0E0C083C08290E680E030E70E85080CC6
:100D740085090D85100E85110F800C85100C8511C9
:100D84000D85080E85090F5391EF90E65D7420F0F0
:070D9400D082D083D0E032D1
:010EF10032CE
:010EF20032CD
:010EF30032CC
:010EF40032CB
:010EF50032CA
:10097200C0E0C0F0C083C082C0D075D000C000C04B
:0D09820001C002C003C004C005C006C007CC
:10098F00C2AF90E68DE4F090E780E0F5217012534E
:10099F00B1F7C2807F64FE120CB043B108D28080E1
:1009AF0054E521B4010F53B1F77F0A7E00120CB04A
:1009BF0043B1088040E521B4020DC2807F647E0000
:1009CF00120CB0D280802EE5216403702890E7814D
:1009DF00E0FD7F0A120A3390E782E0FD7F0B120AD7
:1009EF003390E783E0FD7F0C120A3390E784E0FD3C
:1009FF007F0D120A3300000090E68DE4F05391EF63
:090A0F0090E65FE04408F0D2AF6C
:100A1800D007D006D005D004D003D002D001D00032
:0B0A2800D0D0D082D083D0F0D0E032DC
:010EF60032C9
:010EF70032C8
:010EF80032C7
:010EF90032C6
:010EFA0032C5
:010EFB0032C4
:010EFC0032C3
:010EFD0032C2
:010EFE0032C1
:010EFF0032C0
:010F000032BE
:010F010032BD
:010F020032BC
:010F030032BB
:010F040032BA
:010F050032B9
:010F060032B8
:010F070032B7
:010F080032B6
:010F090032B5
:010F0A0032B4
:010F0B0032B3
:010F0C0032B2
:010F0D0032B1
:010F0E0032B0
:010F0F0032AF
:010F100032AE
:010F110032AD
:010F120032AC
:010F130032AB
:100C600090E678E04480F090E67974BAF07F647E94
:100C700000120E5F901801E090E679F07F647E002C
:100C8000120E5F901802E090E679F07F647E001209
:100C90000E5F901803E090E679F07F647E00120EFC
:100CA0005F90E678E04440F07F647E00120E5F22A1
:1007620090E678E04480F090E67974BAF07F647E97
:1007720000120E5F90E6797401F07F647E00120E23
:100782005F901801E090E679F07F647E00120E5FC0
:10079200901802E090E679F07F647E00120E5F907E
:1007A2001803E090E679F07F647E00120E5F9018E5
:1007B20004E090E679F07F647E00120E5F901805E7
:1007C200E090E679F07F647E00120E5F901806E0FA
:1007D20090E679F07F647E00120E5F901807E09039
:1007E200E679F07F647E00120E5F901808E090E6D2
:1007F20079F07F647E00120E5F901809E090E6792E
:10080200F07F647E00120E5F90180AE090E679F0A5
:100812007F647E00120E5F90180BE090E679F07F05
:10082200647E00120E5F90180CE090E679F07F640F
:100832007E00120E5F90180DE090E679F07F647EE4
:1008420000120E5F90180EE090E679F07F647E0051
:10085200120E5F90180FE090E679F07F647E00122E
:100862000E5F901810E090E679F07F647E00120E21
:100872005F901811E090E679F07F647E00120E5FBF
:10088200901812E090E679F07F647E00120E5F907D
:0E089200E678E04440F07F647E00120E5F22A4
:100BB80090E678E04480F090E67974BAF07F647E3D
:100BC80000120E5F90E679742BF07F647E00120E9F
:100BD8005F901801E090E679F07F647E00120E5F66
:100BE800901802E090E679F07F647E00120E5F9024
:100BF8001803E090E679F07F647E00120E5F90188B
:100C080004E090E679F07F647E00120E5F9018058C
:100C1800E090E679F07F647E00120E5F901806E09F
:100C280090E679F07F647E00120E5F901807E090DE
:100C3800E679F07F647E00120E5F901808E090E677
:100C480079F07F647E00120E5F90E678E04440F011
:080C58007F647E00120E5F2292
:040A33008F388D3932
:100A3700C2A07F017E00120E5FE4F53AF53BAF3BA3
:100A4700E539A807088002C313D8FC30E004D2A117
:100A57008002C2A17F017E00120E5FD2A27F017EBB
:100A670000120E5FC2A27F017E00120E5F053BE5FA
:100A77003B7002053AC39408E53A6480948040BE0F
:100A8700E4F53AF53BAF3BE538A807088002C31306
:100A9700D8FC30E004D2A18002C2A17F017E0012FF
:100AA7000E5FD2A27F017E00120E5FC2A27F017E7F
:100AB70000120E5F053BE53B7002053AC39408E55B
:100AC7003A6480948040BEC2A0D2A07F017E00120B
:0B0AD7000E5FC2A07F017E00120E5FC8
:010AE20022F1
:100E5F00AD07AC06ED25E0FDEC33FCED4C6007ED86
:070E6F001D70011C80F5223B
:030000000200807B
:0C008000787FE4F6D8FD75813B0203BCDC
:100EC600EB9FF5F0EA9E42F0E99D42F0E89C45F082
:010ED60022F9
:00000001FF
