:0A1690000001020203030404050533
:10094200E4F52DF52CF52BF52AC203C200C202C232
:1009520001120AF47E0F7F008E458F46754F0F7588
:10096200501275430F75441C754B0F754C437551EE
:100972000F75525CEE54E07003020A86752E007504
:100982002F808E308F31C374989FFF740F9ECF24B7
:1009920002CF3400FEE48F298E28F527F526F525AF
:1009A200F524F523F522AF29AE28AD27AC26AB25D9
:1009B200AA24A923A822C31208CC5026E52F252554
:1009C200F582E52E3524F58374CDF0E5252401F575
:1009D20025E43524F524E43523F523E43522F522F4
:1009E20080C4E4F525F524F523F522AF29AE28AD20
:1009F20027AC26AB25AA24A923A822C31208CC50CF
:100A020031AE24AF25E5312FF582E5303EF583E0A6
:100A1200FDE52F2FF582E52E3EF583EDF0EF240163
:100A2200F525E43EF524E43523F523E43522F522C9
:100A320080B9852E45852F4674002480FF740F34BB
:100A4200FFFEC3E5509FF550E54F9EF54FC3E548C5
:100A52009FF548E5479EF547C3E54A9FF54AE549B4
:100A62009EF549C3E5449FF544E5439EF543C3E53E
:100A72004C9FF54CE54B9EF54BC3E5529FF552E575
:100A8200519EF551D2E843D82090E668E04409F03F
:100A920090E65CE0443DF0D2AFD288D28AC2A8C2CE
:100AA200AA90E680E020E105D20812143790E68091
:100AB200E054F7F0538EF8C203300105120563C209
:100AC20001300329120EFE5024C20312150B20001E
:100AD2001690E682E030E704E020E1EF90E682E063
:100AE20030E604E020E0E41214661216AE1211BEE3
:020AF20080C7BB
:1005630090E6B9E0700302061414700302069124A6
:10057300FE700302071424FB700302060E147003BB
:10058300020608146073146076240560030207737F
:100593001216B0400302077F90E6BBE024FE602200
:1005A30014603324FD601114602224067048E5456D
:1005B30090E6B3F0E5468037E54F90E6B3F0E550BB
:1005C300802DE54790E6B3F0E5488023E54990E6C2
:1005D300B3F0E54A801990E6BAE0FF121492AA0636
:1005E300A9077B01EA494B600DEE90E6B3F0EF906B
:1005F300E6B4F002077F02077812167E02077F1225
:10060300169A02077F12165702077F12166C02070B
:100613007F1216B2400302077F90E6B8E0247F60A2
:100623001514601924027063A200E43325E0FFA2CD
:1006330002E4334F8041E490E740F0803F90E6BC12
:10064300E0547EFF7E00E0D394807C0040047D0173
:1006530080027D00EC4EFEED4F2490F58274163E31
:10066300F583E493FF3395E0FEEF24A1FFEE34E638
:100673008F82F583E0540190E740F0E4A3F090E625
:100683008AF090E68B7402F002077F020778121655
:10069300B4400302077F90E6B8E024FE601624020C
:1006A300600302077F90E6BAE0B40105C2000207C7
:1006B3007F02077890E6BAE0705590E6BCE0547E7E
:1006C300FF7E00E0D394807C0040047D0180027DA6
:1006D30000EC4EFEED4F2490F58274163EF583E454
:1006E30093FF3395E0FEEF24A1FFEE34E68F82F50E
:1006F30083E054FEF090E6BCE05480131313541FC0
:10070300FFE0540F2F90E683F0E04420F0806D80EB
:10071300641216B6506690E6B8E024FE601924020F
:10072300705A90E6BAE0B40104D200804F90E6BA62
:10073300E064026047803E90E6BCE0547EFF7E00AA
:10074300E0D394807C0040047D0180027D00EC4E68
:10075300FEED4F2490F58274163EF583E493FF3348
:1007630095E0FEEF24A1FFEE34E68F82F583800847
:10077300120080500790E6A0E04401F090E6A0E06C
:030783004480F0BF
:010786002250
:03000300021234B2
:10123400C0E0C083C082C0D075D000C004C005C067
:1012440006C00790E6017443F0E51B703790F00088
:1012540074AAF0A37411F0A374CCF0A374EEF0900C
:10126400E690E4F090E6917405F0300419AF10AE06
:101274000FAD0EAC0D8F428E418D408C3F753E0FED
:10128400D2078002151BA283B39283D007D006D065
:0C12940005D004D0D0D082D083D0E0324E
:03000B00020F9A47
:100F9A00C0E0C0F0C083C082C0D075D000C000C01D
:100FAA0001C002C003C004C005C006C00785098C81
:100FBA00850A8AE53E6016D283153EE53E704C905E
:100FCA00E600E054FDF0000000C283803E30073B9B
:100FDA00AF42AE41AD40AC3FEF24FFF542EE34FFE5
:100FEA00F541ED34FFF540EC34FFF53FE4FFFEFD3B
:100FFA00FCAB42AA41A940A83FC31208CC700CC25C
:10100A000790E600E04402F0000000D007D006D0C6
:10101A0005D004D003D002D001D000D0D0D082D0E5
:06102A0083D0F0D0E0329B
:030033000216AA08
:0416AA0053D8EF32F0
:100DDD000109D1010A4A040D00000000C107C10438
:100DED00010B0004160000000004110000000001BA
:020DFD0015BA25
:1016150085098C850A8AE58954F04401F589438E4C
:0616250008D28CD2A922BC
:1010BC00F07F647E00121139902001E090E679F007
:1010CC007F647E00121139902002E090E679F07F67
:1010DC00647E00121139902003E090E679F07F6471
:1010EC007E00121139902004E090E679F07F647E46
:1010FC0000121139902005E090E679F07F647E00B3
:10110C00121139902006E090E679F07F647E00128F
:10111C001139902007E090E679F07F647E0012117F
:0D112C0039902008E090E679F07F647E00A5
:0C113900EF4E6007EF1F70F81E80F522DB
:1015520090E6187408F000000090E619F000000010
:0F15620090E61AF000000090E61BF00000002257
:1015710090E6187409F000000090E619F0000000F0
:0F15810090E61AF000000090E61BF00000002238
:100AF40090E6007412F090E60B7403F0000000908E
:100B0400E6047480F00000007402F0000000740435
:100B1400F00000007406F00000007408F00000000B
:100B2400E4F000000000000090E61274E8F0000019
:100B340000E490E613F000000090E614F0000000DA
:100B440090E615F000000090E6187408F00000002C
:100B540090E619F000000090E61AF000000090E61C
:100B64001BF000000090E6097404F000000090E619
:100B740070E04401F000000090E6727408F0000098
:100B84000090E6207402F0000000E490E621F000FA
:100B9400000090E602F000000090E603F090E60109
:100BA4007443F043AF0100000090E61074A0F0001D
:100BB400000090E611F000000090E65EE04408F0CA
:100BC400000000E490E68DF090E65EE04404F0005E
:100BD4000000E490E68FF0D20043B20843B20275FD
:100BE400B5F01216A290E67AE054FEF0E4F5B0C235
:100BF400817F64FE121139D281121615753B20755E
:100C04003C337B027D107FA01214E6902033E0F584
:100C14001EA3E0F50C751520D206E4F51B7515200E
:050C2400D206D283227C
:1011BE00E50B6402706FC2832080FD7F057E0012F6
:1011CE000EB890E600E054FDF085191485181385CD
:1011DE001712851611E47F64FEFDFCAB14AA13A949
:1011EE0012A811D31208CC40217F647E00120EB8D3
:1011FE00E514249CF514E51334FFF513E51234FFC2
:10120E00F512E51134FFF51180CBAE13AF14120EAB
:10121E00B890E6017440F090E600E04402F0D2A8E7
:06122E00C283E4F50B226F
:020EFE00D322FD
:0216AE00D32245
:0216B000D32243
:1016570090E680E030E704D2058002C20590E6BA42
:05166700E0F51AD3229A
:10166C0090E740E51AF0E490E68AF090E68B04F0FF
:02167C00D32277
:08169A0090E6BAE0F508D32246
:10167E0090E740E508F0E490E68AF090E68B04F0FF
:02168E00D32265
:0216B200D32241
:0216B400D3223F
:0216B600D3223D
:1000800090E6B9E01208F000C4B300E8B40124B56A
:100090000172B601BFB70204B8025EB9027CBB03AD
:1000A0000BBD034BBF035AC00387C103E2C2042543
:1000B000C8044CC9049ACA04C8CB051ECD054DCF4F
:1000C0000000055FC2A890E6017440F000000090B7
:1000D000E6047480F00000007402F0000000E4F018
:0800E000000000D2A802053D5A
:1000E80090E6BBE0FE90E6BAE07C002400F535EC33
:1000F8003EF53490E6BEE0FF7E007D007B017AE7A6
:100108007940120916E534C313E53513FF90E6BEAE
:0C011800E0FD7AE77B401215C9020201ED
:1001240090E6BBE0FE90E6BAE07C002400F535ECF6
:100134003EF53490E6BDE0FE90E6BCE02400F537E1
:10014400EC3EF53690E6BEE0FF7E007D007B017A52
:10015400E77940120916AF35AD3790E6BEE0FB9063
:0E016400E740753BE7753C401214E6020201CD
:1001720090E6BBE0FE90E6BAE07C002400F535ECA8
:100182003EF53490E6BDE0FE90E6BCE02400F53793
:10019200EC3EF53690E6BEE0FF7E007D007B017A04
:1001A200E77940120916AF3590E6BEE0FB753CE7F1
:0D01B200753D40AD37AC361214BE0204B6E8
:1001BF0090E6BDE0FE90E6BCE07C002400F533EC59
:1001CF003EF532200616AD3390E6BEE0FB7EE775B6
:1001DF003BE7753C40AF151214E6801690E6BEE083
:1001EF00FB7EE7753CE7753D40AD33AC32AF151282
:1001FF0014BE0204B6E490E68AF090E68BF090E627
:10020F00A0E020E1F9E4FFFE74402FF582E434E72B
:10021F00F583E0FD74002FF582E43420F583EDF0D3
:10022F000FBF00010EEF64134E70DD902000E070E1
:10023F0003121408902000E0B401031212A09020C2
:10024F0000E064026003020561121530020561E4EB
:10025F0090E68AF090E68BF090E6A0E020E1F9E5D9
:10026F0015C313FF7AE77B407D03020519E490E67F
:10027F008AF090E68BF090E6A0E020E1F978137C0D
:10028F00207D017B0120062D7AE679BC7E007F015F
:10029F0012085790E6BEE0FF7E0078147C207D01A7
:1002AF007B017AE77940120857E515C313FF90E6F3
:1002BF00BEE004803F7AE679BD7E007F01120857C9
:1002CF0078147C207D017B017AE679BC7E007F016A
:1002DF0012085790E6BEE0FF7E0078157C207D0166
:1002EF007B017AE77940120857E515C313FF90E6B3
:1002FF00BEE02402FD7A207B13020519E490E68A02
:10030F00F090E68BF090E6A0E020E1F990E740E076
:10031F00FCA3E0FDA3E0FEA3E0F5108E0F8D0E8C85
:10032F000DE4FFFEFDFCAB10AA0FA90EA80DC31222
:10033F0008CC7004C204807ED204807AE4F53EC2F9
:10034F000790E600E04402F000000090E6BAE030CB
:10035F00E00E90E6BCE05490FFE5B0546F4FF5B05F
:10036F0090E6BAE030E10E90E6BCE05460FFE5B0F5
:10037F00549F4FF5B0020554E490E68AF090E68B57
:10038F00F090E6A0E020E1F990E740E0FCA3E0FD6B
:10039F00A3E0FEA3E0F5108E0F8D0E8C0DE4FFFE93
:1003AF00FDFCAB10AA0FA90EA80DC31208CC700448
:1003BF00C2048002D204E4F53EC207751B0190E629
:1003CF0000E04402F0000000E490E68AF000000034
:1003DF0002055990E74074F9F0A3740FF0E4A3F00D
:1003EF00A3F0A3F0A20633A3F0A3E50CF0A3E51549
:1003FF00F0A3E51EF0300505E4A3F0800690E74971
:10040F0074FFF0000000E490E68AF000000090E630
:10041F008B740A020547E490E68AF090E68BF09021
:10042F00E6A0E020E1F990E740E014600C14600BC7
:10043F002402600302056180258032803FE490E64C
:10044F008AF090E68BF090E6A0E020E1F990E7408B
:10045F00E014601914602524026003020561750918
:10046F00F4750A5390E6007402F00205617509E80D
:10047F00750AA590E600740AF00205617509D17539
:10048F000A4A90E6007412F002056190E6BCE0752E
:10049F003200F533FD90E6BEE0FB7EE7753BE77576
:1004AF003C407FA01214E6E490E68AF00000009032
:1004BF00E6BEE090E68B020547E490E68AF090E610
:1004CF008BF090E6A0E020E1F990E6BCE0D3940732
:1004DF00500302056178137C207D017B017AE67958
:1004EF00BC7E007F0112085790E6BEE0FF7E0078C9
:1004FF00147C207D017B017AE7794012085790E642
:10050F00BEE004FD7A207B137F501215C98043E4AF
:10051F0090E68AF090E68BF090E6A0E020E1F9906B
:10052F00E740E070051215528003121571E490E652
:10053F008AF000000090E68BF00000008014C2816A
:10054F00121135D281E490E68AF090E68BF08002AA
:03055F00D322C3E1
:010562002276
:1015E500C0E0C083C082D2015391EF90E65D7401E3
:0815F500F0D082D083D0E03277
:10162B00C0E0C083C0825391EF90E65D7404F0D0AC
:06163B0082D083D0E032F2
:10164100C0E0C083C0825391EF90E65D7402F0D098
:0616510082D083D0E032DC
:1012FE00C0E0C083C08290E680E030E70E854347B1
:10130E00854448854B49854C4A800C854B47854C16
:10131E004885434985444A5391EF90E65D7410F039
:07132E00D082D083D0E03231
:1015FD00C0E0C083C082D2035391EF90E65D7408C2
:08160D00F0D082D083D0E0325E
:10133500C0E0C083C08290E680E030E70E85434779
:10134500854448854B49854C4A800C854B47854CDF
:101355004885434985444A5391EF90E65D7420F0F2
:07136500D082D083D0E032FA
:0116B80032FF
:0116B90032FE
:0116BA0032FD
:0116BB0032FC
:10114500C0E0C083C082C0D075D000C000C004C05C
:1011550005C006C007C2AFE4FFFEFDE511FC781827
:101165001208DD90E7C4EFF0E4FFFEE512FDE4FCB4
:1011750078101208DDA3EFF0E4FFE513FEE4FDFCB3
:1011850078081208DDA3EFF0E514FFA3EFF00000E7
:101195000090E68F7408F00000005391EF90E65F31
:1011A500E04404F0D2AFD007D006D005D004D0007B
:0911B500D0D0D082D083D0E0320A
:100D3100C0E0C083C082C0D075D000C004C005C06F
:030D410006C007E2
:100D4400C2AF90E6A1E020E1F990E780E024EF60F3
:100D54002214604F2413605024EF705890E781E010
:100D6400FCA3E0FDA3E0FEA3E0F5198E188D178C1B
:100D7400168041750B01C2A8D28390E600E04402BC
:100D8400F000000090E6017440F000000090E604DA
:100D94007480F00000007402F0000000E4F0000031
:100DA400008011750B02800C7514647513007512A4
:100DB4000075110000000090E68DE4F05391EF906F
:080DC400E65FE04408F0D2AF45
:100DCC00D007D006D005D004D0D0D082D083D0E0CC
:010DDC0032E4
:0116BC0032FB
:0116BD0032FA
:0116BE0032F9
:0116BF0032F8
:0116C00032F7
:0116C10032F6
:0116C20032F5
:0116C30032F4
:0116C40032F3
:0116C50032F2
:0116C60032F1
:0116C70032F0
:0116C80032EF
:0116C90032EE
:0116CA0032ED
:0116CB0032EC
:0116CC0032EB
:0116CD0032EA
:0116CE0032E9
:0116CF0032E8
:0116D00032E7
:0116D10032E6
:0116D20032E5
:0116D30032E4
:0116D40032E3
:0116D50032E2
:0116D60032E1
:0116D70032E0
:0116D80032DF
:0116D90032DE
:1014080090E678E04480F090E679E5151211349082
:101418002001121130902002121130902003121175
:0F1428003090E678E04440F07F647E0002113996
:1012A00090E678E04480F090E679E5151211347408
:1012B000011210BC90200912113090200A12113036
:1012C00090200B12113090200C12113090200D1232
:1012D000113090200E12113090200F1211309020FA
:1012E0001012113090201112113090201212113072
:0E12F00090E678E04440F07F647E0002113901
:1015300090E678E04480F090E679E5151211347475
:101540002B1210BC90E678E04440F07F647E0002ED
:0215500011394F
:0414E6008F388B3A76
:1014EA00902035EDF0E538C313FF7A207B357D0176
:1014FA001215C9E538C313FFAB3CAA3BAD3A021536
:01150A00AD33
:0414BE008F388B3B9D
:1014C200EC902035F0EDA3F0E538C313FF7A207BD2
:1014D200357D021215C9E538C313FFAB3DAA3CADF9
:0414E2003B0215AD07
:10159000A907EC902013F0EDA3F0EAA3F0EBA3F081
:0D15A000E9C313FF7A207B137D040215C9F7
:100F00001201000200000040181641090000010211
:100F100000010A060002000000400100090227004B
:100F200001010080FA0904000003FF00000007052A
:100F3000820200020007058102400000070501024D
:100F40004000000902190001010080FA09040000B4
:100F500001FF0000000705820240000004030904AD
:100F600014035100480043002D0043004300440097
:100F70002000200024035100480059002D0050009B
:100F80006F006C0065004D00610073007400650027
:0A0F90007200200020002000000085
:1014660090E682E030E004E020E60B90E682E03091
:10147600E119E030E71590E680E04401F07F147E44
:0C14860000120EB890E680E054FEF02248
:10150B0090E682E044C0F090E681F0438701000052
:04151B0000000022AA
:1014370030080990E680E0440AF0800790E680E0F3
:101447004408F07FDC7E05120EB890E65D74FFF06D
:0F14570090E65FF05391EF90E680E054F7F022BB
:100EB8008E328F3390E600E054187012E533240127
:100EC800FFE43532C313F532EF13F533801590E69E
:100ED80000E05418FFBF100BE53325E0F533E53289
:100EE80033F532E5331533AE32700215324E6005F4
:060EF80012151F80EE221E
:0816A200E4F558D2E9D2AF22B1
:10136C0090E678E020E6F9C2E990E678E04480F077
:10137C00EF25E090E679F090E678E030E0F990E641
:10138C0078E04440F090E678E020E6F990E678E0EA
:06139C0030E1D6D2E92287
:1013D600A90790E678E020E6F9E558702390E678CC
:1013E600E04480F0E925E090E679F08D53AF03A95B
:1013F600077554018A558956E4F557755801D32265
:02140600C322FF
:1013A200A90790E678E020E6F9E558702590E678FE
:1013B200E04480F0E925E0440190E679F08D53AFF6
:1013C20003A9077554018A558956E4F557755803E0
:0413D200D322C3223D
:03004B00020C297B
:100C2900C0E0C083C082C085C084C086758600C00C
:100C3900D075D000C000C001C002C003C006C00703
:100C490090E678E030E206755806020D1390E678D2
:100C5900E020E10CE55864026006755807020D139F
:100C6900E55824FE605F14603624FE7003020D040B
:100C790024FC7003020D1024086003020D13AB5409
:100C8900AA55A956AF5705578F8275830012087D5B
:100C990090E679F0E55765537070755805806B904B
:100CA900E679E0AB54AA55A956AE578E82758300F2
:100CB9001208AA755802E5536401704E90E678E06F
:100CC9004420F08045E55324FEB5570790E678E0C7
:100CD9004420F0E55314B5570A90E678E04440F013
:100CE90075580090E679E0AB54AA55A956AE578ECF
:100CF900827583001208AA0557800F90E678E044B0
:100D090040F075580080037558005391DFD007D023
:100D190006D003D002D001D000D0D0D086D084D064
:080D290085D082D083D0E032B6
:02149200A907A8
:10149400AE51AF528F828E83A3E064037017AD0107
:1014A40019ED7001228F828E83E07C002FFDEC3ECB
:0914B400FEAF0580DF7E007F0021
:0114BD00220C
:1015AD001213A2E55824FA600E146006240770F396
:0C15BD00D322E4F558D322E4F558D322E1
:1015C9001213D6E55824FA600E146006240770F346
:0C15D900D322E4F558D322E4F558D322C5
:10151F007400F58690FDA57C05A3E582458370F9DF
:01152F002299
:03004300020E00AA
:03005300020E009A
:100E00000215E5000216410002162B000215FD0036
:100E10000212FE00021335000216B8000216B900D5
:100E20000216BA000216BB0002114500020D310085
:100E30000216BC000216BD000216BE000216BF005C
:100E40000216C0000216B9000216C1000216C20046
:100E50000216C3000216C4000216C5000216C60020
:100E60000216C7000216B9000216B9000216B90030
:100E70000216C8000216C9000216CA000216CB00EC
:100E80000216CC000216CD000216CE000216CF00CC
:100E90000216D0000216D1000216D2000216D300AC
:100EA0000216D4000216D5000216D6000216D7008C
:080EB0000216D8000216D90059
:03000000021030BB
:0C103000787FE4F6D8FD75815802107737
:10078700E709F608DFFA8046E709F208DFFA803E54
:1007970088828C83E709F0A3DFFA8032E309F60841
:1007A700DFFA8078E309F208DFFA807088828C83A9
:1007B700E309F0A3DFFA806489828A83E0A3F6085D
:1007C700DFFA805889828A83E0A3F208DFFA804C37
:1007D70080D280FA80C680D4806980F2803380100E
:1007E70080A680EA809A80A880DA80E280CA803377
:1007F70089828A83ECFAE493A3C8C582C8CCC583EF
:10080700CCF0A3C8C582C8CCC583CCDFE9DEE780BE
:100817000D89828A83E493A3F608DFF9ECFAA9F03D
:10082700EDFB2289828A83ECFAE0A3C8C582C8CC93
:10083700C583CCF0A3C8C582C8CCC583CCDFEADEAC
:10084700E880DB89828A83E493A3F208DFF980CC0E
:1008570088F0EF60010E4E60C388F0ED2402B40407
:100867000050B9F582EB2402B4040050AF232345AE
:0608770082239007D773F5
:10087D00BB010CE58229F582E5833AF583E0225030
:10088D0006E92582F8E622BBFE06E92582F8E2227A
:0D089D00E58229F582E5833AF583E4932294
:1008AA00F8BB010DE58229F582E5833AF583E8F084
:1008BA00225006E92582C8F622BBFE05E92582C830
:0208CA00F22218
:1008CC00EB9FF5F0EA9E42F0E99D42F0E89C45F082
:0108DC0022F9
:1008DD00E8600FECC313FCED13FDEE13FEEF13FFF9
:0308ED00D8F1221D
:1008F000D083D082F8E4937012740193700DA3A397
:1009000093F8740193F5828883E4737402936860AA
:06091000EFA3A3A380DFAA
:10091600EF4E6012EF60010EEDBB010B89828A83F8
:10092600F0A3DFFCDEFA2289F05007F709DFFCA905
:0C093600F022BBFEFCF309DFFCA9F0225C
:10103C00020942E493A3F8E493A34003F68001F27F
:10104C0008DFF48029E493A3F85407240CC8C333B5
:10105C00C4540F4420C8834004F456800146F6DF84
:10106C00E4800B0102040810204080900DDDE47E2A
:10107C00019360BCA3FF543F30E509541FFEE49379
:10108C00A360010ECF54C025E060A840B8E493A340
:10109C00FAE493A3F8E493A3C8C582C8CAC583CA6B
:1010AC00F0A3C8C582C8CAC583CADFE9DEE780BE23
:010DFF0000F3
:00000001FF
