:0A0080000001020203030404050559
:10062600E4F52FF52EF52DF52CC203C200C202C249
:1006360001120A447E007F908E0A8F0B7512007598
:1006460013A27508007509AC7510007511D37514E1
:10065600007515FA90E680E030E70E85080C8509EE
:100666000D85100E85110F800C85100C85110D85DA
:10067600080E85090FEE54E07003020797753000E7
:100686007531807E007F908E328F33C374209FFF3A
:1006960074019ECF2402CF3400FEE48F2B8E2AF500
:1006A60029F528F527F526F525F524AF2BAE2AAD35
:1006B60029AC28AB27AA26A925A824C3120ECC50FC
:1006C6002AE5312527F582E5303526F58374CDF008
:1006D600E4FAF9F8E5272401F527EA3526F526E9AF
:1006E6003525F525E83524F52480C0E4F527F526DB
:1006F600F525F524AF2BAE2AAD29AC28AB27AA26C3
:10070600A925A824C3120ECC5035AE26AF27E53353
:100716002FF582E5323EF583E0FDE5312FF582E5E2
:10072600303EF583EDF0E4FAF9F8EF2401F527EA17
:100736003EF526E93525F525E83524F52480B585E9
:10074600300A85310B74902480FF740034FFFEC399
:10075600E5139FF513E5129EF512C3E50D9FF50D02
:10076600E50C9EF50CC3E50F9FF50FE50E9EF50E05
:10077600C3E5099FF509E5089EF508C3E5119FF550
:1007860011E5109EF510C3E5159FF515E5149EF5C8
:1007960014D2E843D82090E668E04409F090E65C7D
:1007A600E0443DF0D2AF90E680E020E105D20512AC
:1007B60011AC90E680E054F7F0538EF8C203300196
:1007C60005120122C20130032912008E5024C203F1
:1007D60012125920001690E682E030E704E020E18C
:1007E600EF90E682E030E604E020E0E41211DB124E
:0707F6001397120BFF80C7EF
:0107FD0022D9
:1001220090E6B9E070030201FE1470030202A724F4
:10013200FE700302033C24FB70030201F8147003F7
:100142000201F21470030201E61470030201EC24AE
:100152000560030203A812139940030203B490E658
:10016200BBE024FE602C14604724FD60161460314D
:1001720024067066E50A90E6B3F0E50B90E6B4F06B
:100182000203B4E51290E6B3F0E51390E6B4F00290
:1001920003B4E50C90E6B3F0E50D90E6B4F002038B
:1001A200B4E50E90E6B3F0E50F90E6B4F00203B4C6
:1001B20090E6BAE0FF121207AA06A9077B01EA49F4
:1001C2004B600DEE90E6B3F0EF90E6B4F00203B4AC
:1001D20090E6A0E04401F00203B490E6A0E04401FE
:1001E200F00203B41213670203B41213790203B4C8
:1001F20012106B0203B4120BED0203B412139B40F4
:10020200030203B490E6B8E0247F602B14603C2420
:1002120002600302029DA200E433FF25E0FFA20276
:10022200E4334F90E740F0E4A3F090E68AF090E6E2
:100232008B7402F00203B4E490E740F0A3F090E67E
:100242008AF090E68B7402F00203B490E6BCE054AC
:100252007EFF7E00E0D3948040067C007D01800416
:100262007C007D00EC4EFEED4F2480F58274003E52
:10027200F583E493FF3395E0FEEF24A1FFEE34E62D
:100282008F82F583E0540190E740F0E4A3F090E61A
:100292008AF090E68B7402F00203B490E6A0E04488
:1002A20001F00203B412139D40030203B490E6B8B6
:1002B200E024FE601D240260030203B490E6BAE06B
:1002C200B40105C2000203B490E6A0E04401F002CA
:1002D20003B490E6BAE0705990E6BCE0547EFF7E2B
:1002E20000E0D3948040067C007D0180047C007D88
:1002F20000EC4EFEED4F2480F58274003EF583E45F
:1003020093FF3395E0FEEF24A1FFEE34E68F82F5F2
:1003120083E054FEF090E6BCE05480FF13131354C4
:100322001FFFE0540F2F90E683F0E04420F0020319
:10033200B490E6A0E04401F0807812139F507390CD
:10034200E6B8E024FE60202402706790E6BAE0B4CA
:100352000104D200805C90E6BAE06402605490E648
:10036200A0E04401F0804B90E6BCE0547EFF7E00AA
:10037200E0D3948040067C007D0180047C007D00F7
:10038200EC4EFEED4F2480F58274003EF583E4933B
:10039200FF3395E0FEEF24A1FFEE34E68F82F58372
:1003A200E04401F0800C1203BC500790E6A0E04448
:0903B20001F090E6A0E04480F0A7
:0103BB00221F
:0300130002008A5E
:04008A0075000132CA
:0300330002139025
:0413900053D8EF320D
:1000900012010002000000401816111600000102B3
:1000A00000010A06000200000040010009022700CA
:1000B000010100A0FA0904000003FF000000070589
:1000C0000102400000070586020002000705020247
:1000D00000020009022700010100A0FA0904000043
:1000E00003FF00000007050102400000070586022B
:1000F00040000007050202400000040309040E034B
:1001000051004800590043004300440014035100CB
:10011000480059002D00310036003000300030001A
:020120000000DD
:03004300020C00AC
:03005300020C009C
:100C00000212F4000213510002133B0002130C0005
:100C10000210A2000210D9000213A1000213A200C8
:100C20000213A3000213A4000213A500020D60002A
:100C30000213A6000213A7000213A8000213A900C2
:100C40000213AA000213A2000213AB000213AC00AD
:100C50000213AD000213AE000213AF000213B00086
:100C60000213B1000213A2000213A2000213A20099
:100C70000213B2000213B3000213B4000213B50052
:100C80000213B6000213B7000213B8000213B90032
:100C90000213BA000213BB000213BC000213BD0012
:100CA0000213BE000213BF000213C0000213C100F2
:080CB0000213C2000213C3008D
:1011DB0090E682E030E004E020E60B90E682E0301F
:1011EB00E119E030E71590E680E04401F07F147ED2
:0C11FB0000120FA390E680E054FEF022EA
:1012590090E682E044C0F090E681F0438701000007
:04126900000000225F
:1011AC0030050990E680E0440AF0800790E680E084
:1011BC004408F07FDC7E05120FA390E65D74FFF00F
:0F11CC0090E65FF05391EF90E680E054F7F02249
:02120700A90735
:10120900AE14AF158F828E83A3E064037017AD010E
:1012190019ED7001228F828E83E07C002FFDEC3E58
:09122900FEAF0580DF7E007F00AE
:011232002299
:100FA3008E388F3990E600E054187012E539240129
:100FB300FFE43538C313F538EF13F539801590E6A0
:100FC30000E05418FFBF100BE53925E0F539E5388B
:100FD30033F538E5391539AE38700215384E6005EA
:060FE30012126D80EE22E7
:10126D007400F58690FDA57C05A3E582458370F994
:01127D00224E
:06138900013F0001407865
:100A440090E6007412F000000090E61074A0F0002C
:100A5400000090E6017443F000000090E61274A0D8
:100A6400F0000000E490E613F000000090E6147437
:100A7400E0F0000000E490E615F000000090E604C9
:100A84007480F00000007402F00000007406F000AE
:100A94000000E4F000000090E60274E6F0000000BC
:100AA40090E60374F8F000000090E670E04440F033
:100AB400000000E490E609F000000043B20F90E665
:100AC4001804F00000007411F000000090E61A749D
:100AD40009F0000000E490E671F090E672F0F5B4DD
:100AE40075B6FFD28090E65EE04408F0000000E4B2
:100AF40090E68DF07D057F01120B3DE4FD7F8012B1
:100B04000B3D53B1F77F647E00120FA343B108C2BB
:100B1400047D0B7C007F05120F537D0B7C047F0743
:100B2400120F537D0A7C007F09120F537D0A7C0348
:090B34007F0B120F5312138122F2
:010BFF0022D3
:02008E00D3227B
:02139700D3225F
:02139900D3225D
:10106B0090E680E030E71590E6247402F000000073
:10107B00E490E625F0000000D2048013E490E6240F
:10108B00F000000090E6257440F0000000C20490D0
:07109B00E6BAE0F541D322A3
:100BED0090E740E541F0E490E68AF090E68B04F062
:020BFD00D32201
:0813790090E6BAE0F53DD32235
:1013670090E740E53DF0E490E68AF090E68B04F0E4
:02137700D3227F
:02139B00D3225B
:02139D00D32259
:02139F00D32257
:10127E0090E6187408F000000090E619F0000000E7
:0F128E0090E61AF000000090E61BF0000000222E
:10129D0090E6187409F000000090E619F0000000C7
:0F12AD0090E61AF000000090E61BF0000000220F
:1003BC0090E6B9E0120EDD03E2B30429B40469B58A
:1003CC0004A9B604E9B70528B8058BC205CFCA063F
:1003DC0002CD00000622E490E68AF090E68BF090C5
:1003EC00E6A0E020E1F990E68BE0F5340000009007
:1003FC00E6047480F0000000C28053B1F77FC87E21
:10040C0000120FA3D28043B10800000090E60474E0
:10041C0006F0000000E4F0000000020624E490E680
:10042C008AF090E68BF090E6A0E020E1F990E68B64
:10043C00E0F534E4F53574402535F582E434E7F520
:10044C0083E0FF74002535F582E43418F583EFF072
:10045C000535E535B402DF12102A020624E490E6D5
:10046C008AF090E68BF090E6A0E020E1F990E68B24
:10047C00E0F534E4F53574402535F582E434E7F5E0
:10048C0083E0FF74002535F582E43418F583EFF032
:10049C000535E535B402DF120FE9020624E490E6D7
:1004AC008AF090E68BF090E6A0E020E1F990E68BE4
:1004BC00E0F534E4F53574402535F582E434E7F5A0
:1004CC0083E0FF74002535F582E43418F583EFF0F2
:1004DC000535E535B403DF120F0302062490E6BDA3
:1004EC00E0FE90E6BCE07C002400F537EC3EF536EF
:1004FC00AD3790E6BEE0FB7EE77F40753BE7753C91
:10050C0040AF40121233E490E68AF000000090E60F
:10051C00BEE090E68BF0000000020624E490E68A30
:10052C00F090E68BF090E6A0E020E1F990E68BE00D
:10053C00F534D394124024E4F53574402535F58216
:10054C00E434E7F583E0FF74002535F582E43418D4
:10055C00F583EFF00535E535B413DF901800E07046
:10056C0003120F03901800E0B401031207FE901859
:10057C0000E064026003020624120CB80206249008
:10058C00E74074EAF0A3740AF0A37402F0A374F0C9
:10059C00F0A37401F0A374E0F0E4A3F0A3F0A3744F
:1005AC00A2F0300405E4A3F0800690E74974FFF054
:1005BC00000000E490E68AF000000090E68B740ADC
:1005CC00F0805590E6BCE0753600F537FD90E6BE40
:1005DC00E0FB7EE77F40753BE7753C407FA0121245
:1005EC0033E490E68AF000000090E6BEE090E68BE3
:1005FC00F00000008022E490E68AF090E68BF09008
:10060C00E6A0E020E1F990E740E0700512127E8050
:09061C000712129D8002D322C3D3
:0106250022B2
:1012F400C0E0C083C082D2015391EF90E65D7401D7
:08130400F0D082D083D0E0326A
:10133B00C0E0C083C0825391EF90E65D7404F0D09F
:06134B0082D083D0E032E5
:10135100C0E0C083C0825391EF90E65D7402F0D08B
:0613610082D083D0E032CF
:1010A200C0E0C083C08290E680E030E70E85080C85
:1010B20085090D85100E85110F800C85100C851188
:1010C2000D85080E85090F5391EF90E65D7410F0BF
:0710D200D082D083D0E03290
:10130C00C0E0C083C082D2035391EF90E65D7408B5
:08131C00F0D082D083D0E03252
:1010D900C0E0C083C08290E680E030E70E85080C4E
:1010E90085090D85100E85110F800C85100C851151
:1010F9000D85080E85090F5391EF90E65D7420F078
:07110900D082D083D0E03258
:0113A1003219
:0113A2003218
:0113A3003217
:0113A4003216
:0113A5003215
:100D6000C0E0C0F0C083C082C0D075D000C000C059
:0D0D700001C002C003C004C005C006C007DA
:100D7D00C2AF90E68DE4F090E780E0F5217012535C
:100D8D00B1F7C2807F64FE120FA343B108D28080F9
:100D9D0024E521B4010F53B1F77F0A7E00120FA392
:100DAD0043B1088010E521B4020BC2807F647E0040
:100DBD00120FA3D28000000090E68DE4F05391EF66
:090DCD0090E65FE04408F0D2AFAB
:100DD600D007D006D005D004D003D002D001D00071
:0B0DE600D0D0D082D083D0F0D0E0321B
:0113A6003214
:0113A7003213
:0113A8003212
:0113A9003211
:0113AA003210
:0113AB00320F
:0113AC00320E
:0113AD00320D
:0113AE00320C
:0113AF00320B
:0113B000320A
:0113B1003209
:0113B2003208
:0113B3003207
:0113B4003206
:0113B5003205
:0113B6003204
:0113B7003203
:0113B8003202
:0113B9003201
:0113BA003200
:0113BB0032FF
:0113BC0032FE
:0113BD0032FD
:0113BE0032FC
:0113BF0032FB
:0113C00032FA
:0113C10032F9
:0113C20032F8
:0113C30032F7
:02139400EEFF6A
:011396002234
:0113C4002206
:041233008F388B3A2B
:10123700901873EDF0E538C313FF7A187B737D01BF
:101247001212D8E538C313FFAB3CAA3BAD3A1212D2
:01125700BCDA
:011258002273
:100FE90090E678E04480F090E6797478F07F647E4A
:100FF90000121324901800E090E679F07F647E00D7
:10100900121324901801E090E679F07F647E0012B3
:10101900132490E678E04440F07F647E00121324A4
:0110290022A4
:10102A0090E678E04480F090E679747AF07F647E06
:10103A0000121324901800E090E679F07F647E0095
:10104A00121324901801E090E679F07F647E001272
:10105A00132490E678E04440F07F647E0012132463
:01106A002263
:100F030090E678E04480F090E6797478F07F647E30
:100F130000121324901800E090E679F07F647E00BD
:100F2300121324901801E090E679F07F647E00129A
:100F33001324901802E090E679F07F647E00121388
:100F43002490E678E04440F07F647E00121324226C
:100F53008F348C358D3690E678E04480F090E679D6
:100F63007478F07F647E0012132490E679E534F000
:100F73007F647E00121324E53590E679F07F647E6A
:100F830000121324E53690E679F07F647E00121395
:100F93002490E678E04440F07F647E00121324221C
:1007FE0090E678E04480F090E67974B8F07F647EFD
:10080E000012132490E6797401F07F647E001213B7
:10081E0024901801E090E679F07F647E0012132494
:10082E00901802E090E679F07F647E001213249017
:10083E001803E090E679F07F647E0012132490187E
:10084E0004E090E679F07F647E0012132490180580
:10085E00E090E679F07F647E00121324901806E093
:10086E0090E679F07F647E00121324901807E090D2
:10087E00E679F07F647E00121324901808E090E66B
:10088E0079F07F647E00121324901809E090E679C7
:10089E00F07F647E0012132490180AE090E679F03F
:1008AE007F647E0012132490180BE090E679F07F9F
:1008BE00647E0012132490180CE090E679F07F64A9
:1008CE007E0012132490180DE090E679F07F647E7E
:1008DE000012132490180EE090E679F07F647E00EB
:1008EE0012132490180FE090E679F07F647E0012C8
:1008FE001324901810E090E679F07F647E001213B6
:10090E0024901811E090E679F07F647E0012132493
:10091E00901812E090E679F07F647E001213249016
:0E092E00E678E04440F07F647E00121324223D
:100CB80090E678E04480F090E67974B8F07F647E3E
:100CC8000012132490E679742BF07F647E001213CF
:100CD80024901801E090E679F07F647E00121324D6
:100CE800901802E090E679F07F647E001213249059
:100CF8001803E090E679F07F647E001213249018C0
:100D080004E090E679F07F647E00121324901805C1
:100D1800E090E679F07F647E00121324901806E0D4
:100D280090E679F07F647E00121324901807E09013
:100D3800E679F07F647E00121324901808E090E6AC
:100D480079F07F647E0012132490E678E04440F046
:080D58007F647E0012132422C7
:040B3D008F348D352F
:100B4100C2A07F017E00121324E4F536F537AF37DA
:100B5100E535A807088002C313D8FC30E004D2A110
:100B61008002C2A17F017E00121324D2A27F017EE6
:100B710000121324C2A27F017E001213240537E55F
:100B81003770020536C39408E5366480948040BE10
:100B9100E4F536F537AF37E534A807088002C3130B
:100BA100D8FC30E004D2A18002C2A17F017E0012F4
:100BB1001324D2A27F017E00121324C2A27F017EE0
:100BC100001213240537E53770020536C39408E592
:100BD100366480948040BEC2A0D2A07F017E001204
:0B0BE1001324C2A07F017E0012132429
:010BEC0022E6
:10132400AD07AC06ED25E0FDEC33FCED4C6007EDBC
:071334001D70011C80F52271
:08138100E4F51BD2E9D2AF2212
:1011100090E678E020E6F9C2E990E678E04480F0D5
:10112000EF25E090E679F090E678E030E0F990E69F
:1011300078E04440F090E678E020E6F990E678E048
:0611400030E1D6D2E922E5
:10117A00A90790E678E020E6F9E51B702390E67867
:10118A00E04480F0E925E090E679F08D16AF03A9F6
:10119A00077517018A188919E4F51A751B01D322F4
:0211AA00C3225E
:10114600A90790E678E020E6F9E51B702590E67899
:10115600E04480F0E925E0440190E679F08D16AF91
:1011660003A9077517018A188919E4F51A751B036F
:04117600D322C3229B
:03004B0002093C6B
:10093C00C0E0C083C082C085C084C086758600C0FC
:10094C00D075D000C000C001C002C003C006C007F3
:10095C0090E678E030E206751B06020A2690E678EF
:10096C00E020E10CE51B64026006751B07020A26F9
:10097C00E51B24FE605F14603624FE7003020A1728
:10098C0024FC7003020A2324086003020A26AB1716
:10099C00AA18A919AF1A051A8F82758300120E7D39
:1009AC0090E679F0E51A65167070751B05806B90F2
:1009BC00E679E0AB17AA18A919AE1A8E82758300D6
:1009CC00120EAA751B02E5166401704E90E678E0D3
:1009DC004420F08045E51624FEB51A0790E678E031
:1009EC004420F0E51614B51A0A90E678E04440F07D
:1009FC00751B0090E679E0AB17AA18A919AE1A8EF0
:100A0C0082758300120EAA051A800F90E678E044D6
:100A1C0040F0751B008003751B005391DFD007D08D
:100A2C0006D003D002D001D000D0D0D086D084D054
:080A3C0085D082D083D0E032A6
:1012BC00121146E51B24FA600E146006240770F325
:0C12CC00D322E4F51BD322E4F51BD3224F
:1012D80012117AE51B24FA600E146006240770F3D5
:0C12E800D322E4F51BD322E4F51BD32233
:03000000020DF1FD
:0C0DF100787FE4F6D8FD758141020E38D1
:100E7D00BB010CE58229F582E5833AF583E022502A
:100E8D0006E92582F8E622BBFE06E92582F8E22274
:0D0E9D00E58229F582E5833AF583E493228E
:100EAA00F8BB010DE58229F582E5833AF583E8F07E
:100EBA00225006E92582C8F622BBFE05E92582C82A
:020ECA00F22212
:100ECC00EB9FF5F0EA9E42F0E99D42F0E89C45F07C
:010EDC0022F3
:100EDD00D083D082F8E4937012740193700DA3A3A4
:100EED0093F8740193F5828883E4737402936860B8
:060EFD00EFA3A3A380DFB8
:100DFD00020626E493A3F8E493A34003F68001F2E0
:100E0D0008DFF48029E493A3F85407240CC8C333F6
:100E1D00C4540F4420C8834004F456800146F6DFC5
:100E2D00E4800B0102040810204080901389E47EB9
:100E3D00019360BCA3FF543F30E509541FFEE493BA
:100E4D00A360010ECF54C025E060A840B8E493A381
:100E5D00FAE493A3F8E493A3C8C582C8CAC583CAAC
:100E6D00F0A3C8C582C8CAC583CADFE9DEE780BE64
:01138F00005D
:00000001FF
