:0A1D6000000102020303040405055C
:10068300E4F513F512F511F510C203C200C202C25C
:10069300011209BC7E137F008E4B8F4C755313756B
:1006A3005412754913754A1C75511375524A755581
:1006B30013755678EE54E070030207C7751400757E
:1006C30015808E168F17C374A29FFF74139ECF24B9
:1006D30002CF3400FEE48F0F8E0EF50DF50CF50BF3
:1006E300F50AF509F508AF0FAE0EAD0DAC0CAB0B6B
:1006F300AA0AA909A808C31209AB5026E515250BB8
:10070300F582E514350AF58374CDF0E50B2401F584
:100713000BE4350AF50AE43509F509E43508F5086B
:1007230080C4E4F50BF50AF509F508AF0FAE0EAD7D
:100733000DAC0CAB0BAA0AA909A808C31209AB504C
:1007430031AE0AAF0BE5172FF582E5163EF583E0D0
:10075300FDE5152FF582E5143EF583EDF0EF240159
:10076300F50BE43EF50AE43509F509E43508F50827
:1007730080B985144B85154C74002480FF741334A1
:10078300FFFEC3E5549FF554E5539EF553C3E54E71
:100793009FF54EE54D9EF54DC3E5509FF550E54F52
:1007A3009EF54FC3E54A9FF54AE5499EF549C3E5E2
:1007B300529FF552E5519EF551C3E5569FF556E517
:1007C300559EF555D2E843D82090E668E04409F0F9
:1007D30090E65CE0443DF0D2AF90E680E020E10596
:1007E300D208121A8F90E680E054F7F0538EF8C2C5
:1007F3000330010512045FC201300329121DED50BD
:1008030024C203121C1820001690E682E030E7048D
:10081300E020E1EF90E682E030E604E020E0E4123D
:0A0823001B1A121DEF1213A480C768
:10045F0090E6B9E0700302051014700302058D24B5
:10046F00FE700302061024FB700302050A147003CA
:10047F000205041460731460762405600302066F8E
:10048F00121DF1400302067B90E6BBE024FE6022C2
:10049F0014603324FD601114602224067048E54B6C
:1004AF0090E6B3F0E54C8037E55390E6B3F0E554B2
:1004BF00802DE54D90E6B3F0E54E8023E54F90E6B5
:1004CF00B3F0E550801990E6BAE0FF121B46AA067A
:1004DF00A9077B01EA494B600DEE90E6B3F0EF9070
:1004EF00E6B4F002067B020674121D1E02067B1292
:1004FF001DD202067B1218DA02067B121D0C0206B1
:10050F007B121DF3400302067B90E6B8E0247F6068
:10051F001514601924027063A200E43325E0FFA2D2
:10052F0002E4334F8041E490E740F0803F90E6BC17
:10053F00E0547EFF7E00E0D394807C0040047D0178
:10054F0080027D00EC4EFEED4F2460F582741D3E5F
:10055F00F583E493FF3395E0FEEF24A1FFEE34E63D
:10056F008F82F583E0540190E740F0E4A3F090E62A
:10057F008AF090E68B7402F002067B020674121D5D
:10058F00F5400302067B90E6B8E024FE60162402D5
:10059F00600302067B90E6BAE0B40105C2000206D2
:1005AF007B02067490E6BAE0705590E6BCE0547E8C
:1005BF00FF7E00E0D394807C0040047D0180027DAB
:1005CF0000EC4EFEED4F2460F582741D3EF583E482
:1005DF0093FF3395E0FEEF24A1FFEE34E68F82F513
:1005EF0083E054FEF090E6BCE05480131313541FC5
:1005FF00FFE0540F2F90E683F0E04420F0806D80F1
:10060F0064121DF7506690E6B8E024FE60192402CC
:10061F00705A90E6BAE0B40104D200804F90E6BA67
:10062F00E064026047803E90E6BCE0547EFF7E00AF
:10063F00E0D394807C0040047D0180027D00EC4E6D
:10064F00FEED4F2460F582741D3EF583E493FF3376
:10065F0095E0FEEF24A1FFEE34E68F82F58380084C
:10066F00120080500790E6A0E04401F090E6A0E071
:03067F004480F0C4
:010682002255
:03003300020FFCBD
:040FFC0053D8EF32A5
:101300001201000200000040181601100000010246
:1013100000010A06000200000040010009022E0040
:1013200001010080FA0904000004FF000000070525
:1013300001024000000705820200020007050202C8
:101340000002000705810240000009022E00010191
:101350000080FA0904000004FF00000007050102F4
:10136000400000070582024000000705020200025B
:101370000007058102400000040309041003510026
:10138000480059002D00430043004400160351005B
:10139000480059002D0031003000200020002000BE
:0413A0002000000029
:100CC1006080270001030202020202070000000205
:100CD100000002001332120A080C08000000000094
:100CE1000000003F010402020202020700000002AC
:100CF1000000000020202020000000000000000073
:100D01000000003F033A030303030307000000024E
:100D1100000002001332120A080C08000000000053
:100D21000000003F03FAFA03030303070000000277
:100D31000000000020202020000000000000000032
:100D41000000003F60242787000000000000000031
:100D51000000000000000000000000000000000092
:100D61000000000000000000000000004727808014
:060D7100000000CA4E0064
:100E530090E60174CAF090E6F574FFF0902780E005
:100E630090E6F3F0902781E090E6C3F0902782E0CC
:100E730090E6C1F0902783E090E6C2F0902785E0EA
:100E830090E6C0F0902786E090E6F4F075AF077423
:100E930027F59A7400F59B759DE4E4F59EFF90E6B3
:100EA3007BE090E67CF00FBF80F490E67174FFF076
:100EB300F5B490E672E04480F043B680000000E4AD
:100EC30090E6C4F000000090E6C5F0902787E0901C
:100ED300E6C6F0902788E090E6C7F0902789E09077
:100EE300E6C8F090278AE090E6C9F090278BE0905F
:100EF300E6CAF090278CE090E6CBF090278DE09047
:0B0F0300E6CCF090278EE090E6CDF0E9
:010F0E0022C0
:03004300021000A8
:0300530002100098
:10100000021C9B00021CE100021CCB00021CB3006E
:10101000020FC60002191700021DF900021DFA0096
:10102000021DFB00021DFC000216C30002171B007C
:10103000021DFD00021DFE00021DFF00021E000039
:10104000021E0100021DFA00021E0200021E030021
:10105000021E0400021E0500021E0600021E0700FA
:10106000021E0800021DFA00021DFA00021DFA000D
:10107000021E0900021E0A00021E0B00021E0C00C6
:10108000021E0D00021E0E00021E0F00021E1000A6
:10109000021E1100021E1200021E1300021E140086
:1010A000021E1500021E1600021E1700021E180066
:0810B000021E1900021E1A00C5
:101B1A0090E682E030E004E020E60B90E682E030D6
:101B2A00E119E030E71590E680E04401F07F147E89
:0C1B3A00001212B190E680E054FEF02290
:101C180090E682E044C0F090E681F043870100003E
:041C28000000002296
:101A8F0030080990E680E0440AF0800790E680E095
:101A9F004408F07FDC7E051212B190E65D74FFF012
:0F1AAF0090E65FF05391EF90E680E054F7F0225D
:021B4600A907ED
:101B4800AE55AF568F828E83A3E064037017AD0144
:101B580019ED7001228F828E83E07C002FFDEC3E10
:091B6800FEAF0580DF7E007F0066
:011B71002251
:1012B1008E1C8F1D90E600E054187012E51D24016C
:1012C100FFE4351CC313F51CEF13F51D801590E6E3
:1012D10000E05418FFBF100BE51D25E0F51DE51CCE
:1012E10033F51CE51D151DAE1C7002151C4E600565
:0612F100121C2C80EE220D
:101C2C007400F58690FDA57C05A3E582458370F9CB
:011C3C002285
:100D7700C18502230000022F1040C107044500006F
:020D870000006A
:081B9D0090E679F07F057E005F
:101BA5008E1E8F1FE51F451E60177F957E00120F45
:101BB500AF000000000000E51F151F70E7151E802F
:021BC500E32219
:1009BC0090E600E054E74410F000000000000090C6
:1009CC00E61074A0F000000090E60B7401F090E6C5
:1009DC001274E0F0000000E490E613F000000090C8
:1009EC00E61474E0F0000000E490E615F00000005E
:1009FC0090E618740CF000000090E6D27402F090AF
:100A0C00E6047480F00000007402F0000000E4F0D2
:100A1C0000000090E61474E0F0000000120E53E4A5
:100A2C0090E671F075B4FF90E672F075B6FF75B193
:100A3C00FF90E670F075B2FFD287D285121D3D751E
:100A4C00230275240000000090E61074A0F0000052
:100A5C000000000090E611F000000090E65EE0441B
:100A6C0008F0000000E490E68DF090E65EE04404AF
:100A7C00F0000000E490E68FF0121B725380FE7FB2
:100A8C009A7E001212F77528007529B4754001750D
:100A9C004190752F107530B875430675442C121D96
:100AAC00DA90E67AE054FEF0E4FD7F901219FB7FB9
:100ABC00647E001212B17DFF7F421219FB7F647EAF
:100ACC00001212B17D827F4E1219FB7532FF753503
:100ADC008290E782E532F090E781E535F0121DEA6D
:030AEC00D2832290
:1015D50090E678E04480F07491121B9D90E679E0E6
:1015E50090E7C0121BA090E679E090E7C1121BA01E
:1015F50090E679E090E7C2121BA090E679E090E7CB
:10160500C3121BA090E678E04440121BA090E67838
:10161500E04480F07442121B9D90E679E532121B7E
:10162500A090E678E04440121BA090E678E0448064
:10163500F090E679744E121BA090E679E535121B01
:0F164500A090E678E04440F07F057E00021BA5F0
:1013A400E5482401F548E43547F547E43546F54674
:1013B400E43545F545E47FE87E03FDFCAB48AA47E8
:1013C400A946A845C31209AB7006FD7F901219FB0C
:1013D4007FA07E867D017C00AB48AA47A946A8452C
:1013E400C31209AB7009121D521215D5121DEA7FE2
:1013F400407E0D7D037C00AB48AA47A946A845D38F
:101404001209AB4009E4F548F547F546F5453004C3
:1014140020E531B401031210B8E531B40203121708
:10142400C5E531B40403121771E531B46303121234
:041434000CC20422C0
:021DED00D322FF
:021DEF00D322FD
:021DF100D322FB
:1018DA0090E680E030E71800000090E6207402F0FD
:1018EA00000000E490E621F0000000D20580160016
:1018FA000000E490E620F000000090E6217440F039
:0D190A00000000C20590E6BAE0F53ED322D1
:101D0C0090E740E53EF0E490E68AF090E68B04F034
:021D1C00D322D0
:081DD20090E6BAE0F527D322E8
:101D1E0090E740E527F0E490E68AF090E68B04F039
:021D2E00D322BE
:021DF300D322F9
:021DF500D322F7
:021DF700D322F5
:10008000E4F518F51990E6B9E0244B60711470039B
:100090000202AF24F470030202E524FD70030203A0
:1000A0002F14700302039324FD70030203C814701D
:1000B000030204492417600302045BE490E68AF01B
:1000C00090E68BF090E6A0E020E1F990E68BE0F579
:1000D00018E4F5B5F5B390E60174CAF0E490E6C310
:1000E000F090E6C2F0D20400000090E6047480F0C4
:1000F0000000007402F0000000E4F002045DE490EF
:10010000E68AF090E68BF090E6A0E020E1F990E638
:100110008BE0F518D3943F4024E4F5197440251979
:10012000F582E434E7F583E0FF74AB2519F582E44A
:100130003427F583EFF00519E519B440DF9027AEB9
:10014000E0FFE4FCFDFEFB7A01F9F812088EC00422
:10015000C005C006C0079027ADE0FFE4FCFDFEFB34
:10016000FA7901F812088ED003D002D001D000EF46
:100170002BFBEE3AFAED39F9EC38F89027AFE0FFB7
:10018000E4FCFDFEEB2FF53BEE3AF53AED39F5399F
:10019000EC38F5389027ADE0F52AA3E0F52CA3E084
:1001A000F52B7F9A1212F79027ABE0FF7E00121D0D
:1001B0009C9027ABE0FF7E00121DA59027ABE0FFCF
:1001C0007E00121DAE9027ACE075F004A4FFAEF0E7
:1001D000121DB79027ACE075F004A4FFAEF0121D1D
:1001E000C09027ACE075F004A4FFAEF0121DC990DA
:1001F00027B0E0C3940250139027CCE090E6C07083
:1002000005744EF08016749CF080119027CCE0901D
:10021000E6C07005749FF08003749DF09027CEE0D7
:10022000F5369027CBE0F5349027CFE0F53F9027C7
:10023000D9E0F533A3E0FEA3E07C002400F526EC32
:100240003EF5259027B1E0F531E5317003753101B8
:100250009027B6E0FEA3E07C002400F529EC3EF5F3
:1002600028A3E0FEA3E02400F541EC3EF5409027F2
:10027000B2E0FEA3E02400F530EC3EF52FA3E0FE53
:10028000A3E02400F544EC3EF5439027BCE0FEA338
:10029000E02400F53DEC3EF53C9027BAE0FEA3E0FB
:1002A0002400F52EEC3EF52DE4FD7F900203C2E420
:1002B000F51974AB2519F582E43427F583E0FF7452
:1002C000402519F582E434E7F583EFF00519E519C7
:1002D000B440DF000000E490E68AF000000090E601
:1002E0008B7440804390E74074A8F0A3740CF0A393
:1002F000740AF0A37498F0A3740FF0A3747CF0A3B5
:100300007401F0A304F0A37493F0300505E4A3F0A6
:10031000800690E74974FFF0000000E490E68AF060
:1003200000000090E68B740AF0121B7202045D90CC
:10033000E678E04480F090E6797491F07F647E0086
:10034000120FAF90E679E090E740F07F647E0012F4
:100350000FAF90E679E090E741F07F647E00120FE6
:10036000AF90E679E090E742F07F647E00120FAF35
:1003700090E679E090E743F090E678E04440F000C2
:100380000000E490E68AF000000090E68B7404F030
:1003900002045DE490E68AF090E68BF090E6A0E03F
:1003A00020E1F990E68BE0F518D3940150030204A4
:1003B0005D90E741E0FD7F421219FB90E740E0FDD0
:1003C0007F4E1219FB02045DE490E68AF090E68B02
:1003D000F090E6A0E020E1F990E68BE0F518D394E8
:1003E00001407A90E740E05480C413131354012471
:1003F000FF92A3E05440C41313540324FF92A2E0DD
:100400005420C413540724FF92A1E05410C4540F85
:1004100024FF92A0A3E075F00AA4FFAEF01212B17F
:1004200090E740E05408131313541F24FF92A3E0F5
:1004300054041313543F24FF92A2E05402C3132424
:10044000FF92A1E01392A08014D2867F647E0012F6
:0E04500012B1C2867F647E001212B1D322C3A5
:01045E00227B
:101C9B00C0E0C083C082D2015391EF90E65D740126
:081CAB00F0D082D083D0E032BA
:101CCB00C0E0C083C0825391EF90E65D7404F0D006
:061CDB0082D083D0E0324C
:101CE100C0E0C083C0825391EF90E65D7402F0D0F2
:061CF10082D083D0E03236
:100FC600C0E0C083C08285514D85524E854E8285D4
:100FD6004D83A37402F085494F854A50855082851A
:100FE6004F83A37407F05391EF90E65D7410F0D031
:060FF60082D083D0E0323E
:101CB300C0E0C083C082D2035391EF90E65D740805
:081CC300F0D082D083D0E032A2
:10191700C0E0C083C08290E680E030E72085494D73
:10192700854A4E854E82854D83A37402F085514FBB
:10193700855250855082854F83A37407F05391EFEA
:0D19470090E65D7420F0D082D083D0E032B5
:011DF90032B7
:011DFA0032B6
:011DFB0032B5
:011DFC0032B4
:1016C300C0E0C0F0C083C082C0D075D000C000C0ED
:1016D30001C002C003C004C005C006C007C2AF12E8
:1016E3001D5200000090E68F7404F0000000539137
:1016F300EF90E65FE04404F0121DEAD2AFD007D0CA
:1017030006D005D004D003D002D001D000D0D0D071
:0817130082D083D0F0D0E03257
:0D171B00C0E0C083C082C0D075D000C00700
:10172800C2AF90E6A1E020E1F990E780E0FF700405
:10173800F5228016BFFF07752200D206800C90E7BD
:1017480082E0F53290E781E0F53500000090E68D03
:0E175800E4F05391EF90E65FE04408F0D2AF6A
:0B176600D007D0D0D082D083D0E0327A
:011DFD0032B3
:011DFE0032B2
:011DFF0032B1
:011E000032AF
:011E010032AE
:011E020032AD
:011E030032AC
:011E040032AB
:011E050032AA
:011E060032A9
:011E070032A8
:011E080032A7
:011E090032A6
:011E0A0032A5
:011E0B0032A4
:011E0C0032A3
:011E0D0032A2
:011E0E0032A1
:011E0F0032A0
:011E1000329F
:011E1100329E
:011E1200329D
:011E1300329C
:011E1400329B
:011E1500329A
:011E16003299
:011E17003298
:011E18003297
:011E19003296
:011E1A003295
:060BF7008F1A8C1B8D1CFF
:100BFD00531A0753A0BF7F0A7E00120FAFE4F51DF5
:100C0D00F51EC37402951EFFE51AA807088002C3DE
:100C1D0013D8FC30E00543A020800353A0DF7F0AEA
:100C2D007E00120FAF43A0107F0A7E00120FAF534C
:100C3D00A0EF7F0A7E00120FAF051EE51E700205A4
:100C4D001DC39403E51D6480948040B6E4F51DF545
:100C5D001EC37409951EFFE51CAE1BA80708800571
:100C6D00CEC313CE13D8F930E00543A02080035333
:100C7D00A0DF7F0A7E00120FAF43A0107F0A7E0017
:100C8D00120FAF53A0EF7F0A7E00120FAF051EE5C6
:100C9D001E7002051DC3940AE51D6480948040B149
:100CAD0043A0407F0A7E00120FAF53A0BF7F0A7E84
:040CBD0000020FAF73
:0912F700AD07AC06E4FF020BF7A1
:091D9C00AD07AC067F04020BF751
:091DA500AD07AC067F05020BF747
:091DAE00AD07AC067F06020BF73D
:091DB700AD07AC067F01020BF739
:091DC000AD07AC067F02020BF72F
:091DC900AD07AC067F03020BF725
:1019FB008D1AAD0790E678E04480F090E679EDF033
:101A0B007F647E00120FAF90E679E51AF07F647E5B
:101A1B0000120FAF90E678E04440F07F647E000246
:021A2B000FAFFB
:100F0F00121D3D5380FE7F017E00120FAF121D8810
:100F1F007F027E00120FAF121D927F027E00120F12
:100F2F00AF121DE67F027E00120FAF121DE27F028D
:100F3F007E00120FAF121D7E7F027E00120FAF12C6
:100F4F00184E7F027E00120FAF121D5C7F027E00D3
:100F5F00120FAF121D087F027E00120FAF121D88F5
:100F6F007F027E00120FAF121D927F027E00120FC2
:100F7F00AF121DE67F027E00120FAF121DE27F023D
:100F8F007E00120FAF121D7E7F027E00120FAF1276
:100F9F00184E7F027E00120FAF121D5C7F027E0083
:100FAF00EF7803C333CE33CED8F9FFEF4E6007EFA0
:070FBF001F70F81E80F522EF
:071D55007F017E00120FAFB9
:041D5C0053B1F72266
:041DE20043B10822DF
:041DE60053B17F2254
:101CF700121DEAC206752201121DE2121D92121868
:011D07004E8D
:041D080043B1802241
:0A1D6A0053B1EF53B1BF53B1DF22B4
:0A1D740053B1FE53B1FB53B1FD2241
:0A1D7E0053B1EF43B14043B12022FE
:0A1D880053B1FE43B10443B102223F
:0A1D920043B11043B14043B12022D9
:101815007F017E00120FAF121D887F017E00120F1F
:10182500AF121D927F017E00120FAF121DE67F01E0
:101835007E00120FAF121DE27F017E00120FAF1264
:091845001D7E7F017E00120FAF31
:0A184E0043B10143B10443B102228B
:0C1D3D00121D7E121D5C12184E021D08C3
:10195400121D3D7F0A7E00120FAF121D92121D88C8
:101964007F037E00120FAF121D747F0D7E00120FD5
:10197400AF121DE2120FAB121DE6120FAB121D883F
:0D198400120F8D121D087F147E00020FAFA0
:10165400E4FFFEE539FDE4FCFB7A01F9F81209190F
:10166400E4FB7A01F9F81209198F2AE4FFE53AFE3E
:10167400E4FDFCFB7A01F9F81209198F2CE53BFF14
:081684008F2B121858121954A3
:10168C00121D3D7F0A7E00120FAF121DE2121DE6E5
:10169C007F037E00120FAF121D6A7F0D7E00120FAA
:1016AC00AF121D08120FA1121D7E120F65121D081C
:0716BC007F147E00020FAF56
:101ABE005380FE121815121D557F017E00120FAFB6
:101ACE00121D08C283121C5FD283121C5F121815DE
:0F1ADE007F01120FA3121D08120FAB43800122CC
:0D1D3000120F0F121D08120FAB438001228D
:101C3D00120F0F121D08120FABC283121C5FD2833D
:101C4D00121C5F7F02120F17121D08120FAB43807B
:021C5D00012262
:10189A00121D3D120FABE4FDFC12181C121D557FE0
:1018AA00017E00120FAF121D08121815121D557F66
:1018BA00017E00120FAF121D087F017E00120FAFCA
:0F18CA000DBD00010CED64DF7003EC640370CA08
:0118D90022EC
:10185800C2857F057E00120FAFD2857F057E0012FC
:101868000FAFC2857F057E00120FAFD2857F057E40
:1018780000120FAFC2857F057E00120FAFD2857FA1
:10188800057E00120FAFC2857F057E00120FAFD212
:021898008522A7
:101B7200E4F51AF51BD2827F1E7E001212B1C282D8
:101B82007F1E7E001212B1051BE51B7002051AC3EF
:0A1B92009405E51A6480948040DB9E
:011B9C002226
:091D490012189A12195412168C9A
:031D5200C2822228
:031DEA00D2822280
:011E1B0022A4
:011E1C0022A3
:10143800121654E534B40102C287121E1BE5367039
:101448006EE52A75F040A485F01AF51BAF227E00E0
:10145800AC1AAD1B12087CD3EF9400EE6480948024
:1014680040147FC47E03121BA51215D5E51B151B5E
:1014780070DA151A80D6751A00852C1BAF227E00EB
:10148800AC1AAD1B12087CD3EF9400EE64809480F4
:1014980040147FC47E00121BA51215D5E51B151B31
:1014A80070DA151A80D6AF2B7E00121BA58006E5D0
:0F14B80022640160FA121E1CE534B40102D287CF
:0114C7002202
:100D8A00121654E534B40102C287121E1B9027CCF6
:100D9A00E0702AF51CF51D7F487E03121BA512156B
:100DAA00D57F757E01121BA5051DE51D7002051C68
:100DBA00C39409E51C6480948040DC80077F747EBC
:100DCA0008121BA512168C121DE2E536706AE52A76
:100DDA0075F040A485F01AF51BAF227E00AC1AAD5F
:100DEA001B12087CD3EF9400EE940040147FC47E5B
:100DFA0003121BA51215D5E51B151B7002151A80C7
:100E0A00D8751A00852C1BAF227E00AC1AAD1B12B6
:100E1A00087CD3EF9400EE940040147FC47E001245
:100E2A001BA51215D5E51B151B7002151A80D8AF24
:100E3A002B7E00121BA58006E522640160FA121EB1
:080E4A001CE534B40102D2875B
:010E5200227D
:041A5F00AF3DAE3CAD
:101A6300AD07AC06D3ED9400EC9400401E000000DB
:101A7300EE90E6D0F0000000ED90E6D1F00000001B
:0C1A830075BB04000000E5BB30E7FB224F
:101C7E00E53F700C121438E52E452D700F02189AA0
:0D1C8E00E52E452D700312189A121438220D
:1010B8009027AEE0FFE4FCFDFEFB7A01F9F8120888
:1010C8008EC004C005C006C0079027ADE0FFE4FC51
:1010D800FDFEFBFA7901F812088ED003D002D00188
:1010E800D000EF2BFBEE3AFAED39F9EC38F89027FF
:1010F800AFE0FFE4FCFDFEEB2FF53BEE3AF53AEDF1
:1011080039F539EC38F5389027CCE0701E7F9D7E94
:1011180024AB3BAA3AA939A838D31209AB403CE51D
:101128003B2463F53BE53A34DB801FE47F747E089B
:10113800FDFCAB3BAA3AA939A838D31209AB401B2E
:10114800E53B248CF53BE53A34F7F53AE53934FFCD
:0F115800F539E53834FFF53802155412116722C6
:10155400121CF7120D8A12189A121954200671E5FA
:1015640033D394004003121BC7D3E5269400E5252A
:1015740094004003121AEDE4F518F519C283121B06
:10158400F0D283121BF0121ABE0519E51970020578
:1015940018C394DFE5186480948340E012189A120B
:1015A400168CE4F518F519C283121BF0D283121BB2
:1015B400F0121ABE0519E51970020518C394DFE587
:1015C400186480948340E0121CFF121A5F121D52AB
:0115D40022F4
:10116700121CF7C286121438C28612189A12195422
:1011770030060302120BE533D394004003121BC75A
:10118700D3E5269400E52594004003121AEDE4F513
:1011970018F519C283121BF0D283121BF0121ABE64
:1011A7000519E51970020518C394DFE518648094E2
:1011B7008340E0121DE2121D92121D88121D08C203
:1011C70086121438C28612189A12168CE533D394F5
:1011D700004003121BC7E4F518F519C283121BF070
:1011E700D283121BF0121ABE0519E51970020518F1
:1011F700C394DFE5186480948340E0121CFF121A41
:041207005F121D5203
:01120B0022C0
:1017C500121CF7121438121D49200643E533D39431
:1017D500004003121BC7D3E5269400E5259400407D
:1017E50003121AEDE4F518F519C283121BF0D28322
:1017F500121BF0121ABE0519E51970020518C394DB
:0F180500DFE5186480948340E0121CFF121A5F25
:0118140022B1
:10177100121CF7D286121438D286121D4920064354
:10178100E533D394004003121BC7D3E5269400E54B
:101791002594004003121AEDE4F518F519C28312DD
:1017A1001BF0D283121BF0121C3D0519E5197002C2
:1017B1000518C394F0E5186480948140E0121CFF81
:0317C100121A5F9A
:0117C4002202
:10120C00121CF7121438121D493006030212B0E4F6
:10121C00F518F519121ABE0519E51970020518C34F
:10122C009402E5186480948040EAE4F518F519C33B
:10123C00E5199529E5189528500D121ABE0519E5E2
:10124C001970EC051880E8E533D394004003121BA9
:10125C00C7D3E5269400E52594004003121AEDE46B
:10126C00F518F519C3E5199544E51895435012D2B4
:10127C0083121BF0121ABE0519E51970E7051880C8
:10128C00E3E4F518F519C3E5199541E518954050B7
:10129C000D121ABE0519E51970EC051880E8121C20
:0412AC00FF121A5FB4
:0112B000221B
:101BF000000000E53025E0E52F3390E6D0F000004E
:101C000000E53025E090E6D1F000000075BB04004F
:081C10000000E5BB30E7FB22F8
:101C5F00000000E490E6D0F000000090E6D104F020
:0F1C6F0000000075BB06000000E5BB30E7FB225C
:0B1BC700AF337E00AC2FAD3012087C65
:101BD200AC06EC90E6D0F0000000EF90E6D1F00009
:0E1BE200000075BB06000000E5BB30E7FB22EB
:041AED00AF26AE254D
:101AF100AD07AC06000000ED25E0EC3390E6D0F038
:101B0100000000ED25E090E6D1F000000075BB0477
:091B1100000000E5BB30E7FB22F7
:081DDA00E4F55CD2E9D2AF226E
:1019910090E678E020E6F9C2E990E678E04480F04C
:1019A100EF25E090E679F090E678E030E0F990E616
:1019B10078E04440F090E678E020E6F990E678E0BF
:0619C10030E1D6D2E9225C
:101A2D00A90790E678E020E6F9E55C702390E6786A
:101A3D00E04480F0E925E090E679F08D57AF03A9F9
:101A4D00077558018A59895AE4F55B755C01D322F3
:021A5D00C322A2
:1019C700A90790E678E020E6F9E55C702590E678CF
:1019D700E04480F0E925E0440190E679F08D57AFC7
:1019E70003A9077558018A59895AE4F55B755C03A1
:0419F700D322C32212
:03004B00020AEFB7
:100AEF00C0E0C083C082C085C084C086758600C048
:100AFF00D075D000C000C001C002C003C006C0073F
:100B0F0090E678E030E206755C06020BD990E67845
:100B1F00E020E10CE55C64026006755C07020BD90E
:100B2F00E55C24FE605F14603624FE7003020BCA7E
:100B3F0024FC7003020BD624086003020BD9AB58B8
:100B4F00AA59A95AAF5B055B8F8275830012082DD6
:100B5F0090E679F0E55B65577070755C05806B907A
:100B6F00E679E0AB58AA59A95AAE5B8E827583001D
:100B7F0012085A755C02E5576401704E90E678E0F2
:100B8F004420F08045E55724FEB55B0790E678E0FA
:100B9F004420F0E55714B55B0A90E678E04440F046
:100BAF00755C0090E679E0AB58AA59A95AAE5B8EF6
:100BBF008275830012085A055B800F90E678E04437
:100BCF0040F0755C008003755C005391DFD007D057
:100BDF0006D003D002D001D000D0D0D086D084D0A0
:080BEF0085D082D083D0E032F2
:030000000214C81F
:0C14C800787FE4F6D8FD75815C02150FFA
:10082D00BB010CE58229F582E5833AF583E0225080
:10083D0006E92582F8E622BBFE06E92582F8E222CA
:0D084D00E58229F582E5833AF583E49322E4
:10085A00F8BB010DE58229F582E5833AF583E8F0D4
:10086A00225006E92582C8F622BBFE05E92582C880
:02087A00F22268
:10087C00EF8DF0A4A8F0CF8CF0A428CE8DF0A42E90
:02088C00FE224A
:10088E00E88FF0A4CC8BF0A42CFCE98EF0A42CFC09
:10089E008AF0EDA42CFCEA8EF0A4CDA8F08BF0A487
:1008AE002DCC3825F0FDE98FF0A42CCD35F0FCEBE6
:1008BE008EF0A4FEA9F0EB8FF0A4CFC5F02ECD39AB
:0F08CE00FEE43CFCEAA42DCE35F0FDE43CFC2218
:1008DD0075F008758200EF2FFFEE33FECD33CDCCD2
:1008ED0033CCC58233C5829BED9AEC99E582984055
:1008FD000CF582EE9BFEED9AFDEC99FC0FD5F0D632
:10090D00E4CEFBE4CDFAE4CCF9A88222B800C1B95B
:10091D000059BA002DEC8BF084CFCECDFCE5F0CB99
:10092D00F97818EF2FFFEE33FEED33FDEC33FCEBD2
:10093D0033FB10D703994004EB99FB0FD8E5E4F98D
:10094D00FA227818EF2FFFEE33FEED33FDEC33FC7A
:10095D00C933C910D7059BE99A4007EC9BFCE99A6E
:10096D00F90FD8E0E4C9FAE4CCFB2275F010EF2FB3
:10097D00FFEE33FEED33FDCC33CCC833C810D707B3
:10098D009BEC9AE899400AED9BFDEC9AFCE899F8EE
:0E099D000FD5F0DAE4CDFBE4CCFAE4C8F92281
:1009AB00EB9FF5F0EA9E42F0E99D42F0E89C45F0A2
:0109BB002219
:1014D400020683E493A3F8E493A34003F68001F2A5
:1014E40008DFF48029E493A3F85407240CC8C33319
:1014F400C4540F4420C8834004F456800146F6DFE8
:10150400E4800B0102040810204080900CC1E47EAA
:10151400019360BCA3FF543F30E509541FFEE493DC
:10152400A360010ECF54C025E060A840B8E493A3A3
:10153400FAE493A3F8E493A3C8C582C8CAC583CACE
:10154400F0A3C8C582C8CAC583CADFE9DEE780BE86
:010D89000069
:00000001FF
