:0A17A600000102020303040405051C
:10081500E4F513F512F511F510C203C200C202C2C8
:10082500011209EF7E007F908E458F46754D00754C
:100835004EA27543007544AC754B00754CDA754F87
:100845000175500890E680E030E70E854347854402
:1008550048854B49854C4A800C854B47854C4885D6
:10086500434985444AEE54E0700302098875140033
:100875007515807E007F908E168F17C3742E9FFF8F
:1008850074019ECF2402CF3400FEE48F0F8E0EF547
:100895000DF50CF50BF50AF509F508AF0FAE0EAD24
:1008A5000DAC0CAB0BAA0AA909A808C3120F2F504F
:1008B5002AE515250BF582E514350AF58374CDF087
:1008C500E4FAF9F8E50B2401F50BEA350AF50AE92E
:1008D5003509F509E83508F50880C0E4F50BF50A92
:1008E500F509F508AF0FAE0EAD0DAC0CAB0BAA0AB2
:1008F500A909A808C3120F2F5037E517250BF58254
:10090500E516350AF583E0FFE515250BF582E514B7
:10091500350AF583EFF0E4FAF9F8E50B2401F50B58
:10092500EA350AF50AE93509F509E83508F50880D3
:10093500B385144585154674902480FF740034FFF3
:10094500FEC3E54E9FF54EE54D9EF54DC3E5489F2B
:10095500F548E5479EF547C3E54A9FF54AE5499EB3
:10096500F549C3E5449FF544E5439EF543C3E54C8E
:100975009FF54CE54B9EF54BC3E5509FF550E54F74
:100985009EF54FD2E843D82090E668E04409F09000
:10099500E65CE0443DF0D2AF90E680E020E105D290
:1009A5000812153690E680E054F7F0538EF8C2032E
:1009B500300105120573C20130032912008E50243F
:1009C500C20312166620001690E682E030E704E0C6
:1009D50020E1EF90E682E030E604E020E0E4121545
:0909E500941218361214D180C7D7
:0109EE0022E6
:1005730090E6B9E0700302064F1470030206F824F4
:10058300FE700302079024FB7003020649147003F4
:1005930002064314700302063714700302063D2457
:1005A300056003020801121838400302080D90E6A3
:1005B300BBE024FE602C14604724FD6016146031F8
:1005C30024067066E54590E6B3F0E54690E6B4F0A0
:1005D30002080DE54D90E6B3F0E54E90E6B4F00267
:1005E300080DE54790E6B3F0E54890E6B4F002085D
:1005F3000DE54990E6B3F0E54A90E6B4F002080D44
:1006030090E6BAE0FF1215C0AA06A9077B01EA49E2
:100613004B600DEE90E6B3F0EF90E6B4F002080DF8
:1006230090E6A0E04401F002080D90E6A0E044014A
:10063300F002080D12178702080D1217F602080DB3
:100643001213C202080D12177502080D12183A4050
:100653000302080D90E6B8E0247F602B14603C246D
:100663000260030206EEA200E433FF25E0FFA202CC
:10067300E4334F90E740F0E4A3F090E68AF090E68D
:100683008B7402F002080DE490E740F0A3F090E6CB
:100693008AF090E68B7402F002080D90E6BCE054F9
:1006A3007EFF7E00E0D3948040067C007D018004C1
:1006B3007C007D00EC4EFEED4F24A6F58274173EC0
:1006C300F583E493FF3395E0FEEF24A1FFEE34E6D8
:1006D3008F82F583E0540190E740F0E4A3F090E6C5
:1006E3008AF090E68B7402F002080D90E6A0E044D5
:1006F30001F002080D12183C400302080D90E6B801
:10070300E024FE601D2402600302080D90E6BAE0B7
:10071300B40105C20002080D90E6A0E04401F00216
:10072300080D90E6BAE0705990E6BCE0547EFF7E77
:1007330000E0D3948040067C007D0180047C007D32
:1007430000EC4EFEED4F24A6F58274173EF583E4CC
:1007530093FF3395E0FEEF24A1FFEE34E68F82F59D
:1007630083E054FEF090E6BCE05480FF131313546F
:100773001FFFE0540F2F90E683F0E04420F00208BF
:100783000D90E6A0E04401F002080D807D12183EB2
:10079300507890E6B8E024FE60232402706C90E663
:1007A300BAE0B40104D200806190E6BAE0B4020476
:1007B3008058805690E6A0E04401F0804D90E6BC5E
:1007C300E0547EFF7E00E0D3948040067C007D01F0
:1007D30080047C007D00EC4EFEED4F24A6F5827470
:1007E300173EF583E493FF3395E0FEEF24A1FFEE7C
:1007F30034E68F82F583E04401F0800E800C120111
:1008030030500790E6A0E04401F090E6A0E0448079
:01081300F0F4
:0108140022C1
:030033000218228E
:0418220053D8EF3276
:1000900012010002000000401816111100000102B8
:1000A00000010A06000200000040010009022E00C3
:1000B000010100A0FA0904000004FF000000070588
:1000C0000102400000070586020002000705020247
:1000D0000002000705810240000009022E00010114
:1000E00000A0FA0904000004FF0000000705010257
:1000F000400000070586024000000705020240009C
:100100000007058102400000040309040E035100AA
:1001100048005900430043004400140351004800C4
:1001200059002D0031003100530020002000000054
:03004300020E00AA
:03005300020E009A
:100E00000216EB0002175F000217490002170300E9
:100E10000213F90002143000020DFF000218400016
:100E20000218410002184200020F660002114F0032
:100E30000218430002184400021845000218460038
:100E40000218470002184000021848000218490022
:100E500002184A0002184B0002184C0002184D00FC
:100E600002184E000218400002184000021840000C
:100E700002184F00021850000218510002185200C8
:100E800002185300021854000218550002185600A8
:100E900002185700021858000218590002185A0088
:100EA00002185B0002185C0002185D0002185E0068
:080EB00002185F000218600047
:1015940090E682E030E004E020E60B90E682E03062
:1015A400E119E030E71590E680E04401F07F147E15
:0C15B4000012134490E680E054FEF02288
:1016660090E682E044C0F090E681F04387010000F6
:04167600000000224E
:1015360030080990E680E0440AF0800790E680E0F3
:101546004408F07FDC7E0512134490E65D74FFF0DC
:0F15560090E65FF05391EF90E680E054F7F022BB
:0215C000A90779
:1015C200AE4FAF508F828E83A3E064037017AD01DC
:1015D20019ED7001228F828E83E07C002FFDEC3E9C
:0915E200FEAF0580DF7E007F00F2
:0115EB0022DD
:101344008E1E8F1F90E600E054187012E51F2401D2
:10135400FFE4351EC313F51EEF13F51F801590E649
:1013640000E05418FFBF100BE51F25E0F51FE51E34
:1013740033F51EE51F151FAE1E7002151E4E6005C7
:0613840012167A80EE2231
:10167A007400F58690FDA57C05A3E582458370F983
:01168A00223D
:1012F200022C1A0002270000023C0000023F03F702
:101302000236000002240000022A0000013001011E
:101312003400013300013B00013E00013200022E85
:1013220000000142A0013100012300013A0001291D
:1013320000013500C107014100012200013800C14E
:0113420004A6
:0B0DF40030080453B1EF2243B110227D
:1016AF008E1E8F1FE51F451E60177F957E00121738
:1016BF001B000000000000E51F151F7002151E80A3
:0216CF00E32214
:1009EF0090E6007412F090E6017443F0000000905E
:1009FF00E61074A0F000000000000090E611F00077
:100A0F00000000000090E612F0000000E490E613F2
:100A1F00F000000090E61474E0F0000000E490E6AF
:100A2F0015F000000090E6047480F00000007402DE
:100A3F00F00000007406F0000000E4F000000090E9
:100A4F00E60274E6F000000090E60374F8F0000090
:100A5F000090E670E04440F0000000E490E609F0FA
:100A6F0000000053B2FE43B20243B20890E61804EE
:100A7F00F00000007411F000000090E61A7409F005
:100A8F00000000E490E671F090E672F075B4FF7527
:100A9F00B6BF90E65EE04408F0000000E490E68DFB
:100AAF00F090E65EE04404F0000000E490E68FF082
:100ABF00C208120DF4D28112181BE4FD7F801212AE
:100ACF006B7F647E001213447D807F8012126BC295
:100ADF00057D0D7F4012126B7D787F2012126BE423
:100AEF00FD7F1012126BE4FD7F0812126B7D0F7FDA
:100AFF000212126BE4FD7F0412126B1217FE90E6C6
:100B0F007AE054FEF0E4FD7F901216177F647E00AA
:100B1F001213447DFF7F421216177F647E0012135B
:100B2F00447DAF7F4E12161712186175B6BF12159E
:0F0B3F00ECD2A053B17F1217327F3412179922D4
:1014D100300715753801E53AB40105E5B120E6F6A6
:1014E100120B4EC207E4F5380522D3E522940074AD
:1014F1008094884003E4F522E52270041216D1227B
:03150100D2A02253
:02008E00D3227B
:02183600D322BB
:02183800D322B9
:1013C20090E680E030E71590E6247402F000000019
:1013D200E490E625F0000000D2058013E490E624B4
:1013E200F000000090E6257440F0000000C2059075
:0713F200E6BAE0F539D32251
:1017750090E740E539F0E490E68AF090E68B04F0D6
:02178500D3226D
:0817F60090E6BAE0F526D322CB
:1017870090E740E526F0E490E68AF090E68B04F0D7
:02179700D3225B
:02183A00D322B7
:02183C00D322B5
:02183E00D322B3
:1001300090E6B9E0120F400156B301A3B50380B6B3
:1001400003BBC003DBC10459C204A1C50504C60535
:1001500035C70000056FE490E68AF090E68BF090DA
:10016000E6A0E020E1F990E68BE0F51800000090B1
:10017000E6047480F000000053297FAD29FF1212BD
:100180006B90E6047406F0000000E4F07F0AFE12B3
:100190001344432980AD297F8012126BD207C2A07D
:1001A000020571E490E68AF090E68BF090E6A0E01C
:1001B00020E1F990E68BE0F518D3943F4024E4F574
:1001C0001974402519F582E434E7F583E0FF7400E3
:1001D0002519F582E43427F583EFF00519E519B404
:1001E00040DF7F9A7E001217B0902700E0FF7E006C
:1001F0001217BA902700E0FF7E001217C490270064
:10020000E0FF7E001217CE902701E075F004A4FFF6
:10021000AEF01217D8902701E075F004A4FFAEF0FD
:100220001217E2902701E075F004A4FFAEF0121758
:10023000EC902705E0C3940250035329CF90270583
:10024000E0B40208E52954CF2410F529902705E0F1
:10025000B40308E52954CF2420F529902705E0B4FC
:100260000408E52954CF2430F529902721E07003B4
:100270005329B7902721E0B40108E529444054F7F9
:10028000F529902721E0B40208E52954BF4408F578
:1002900029902726E070055329FD80034329029009
:1002A0002707E0FD7F4012126B902708E0FD7F20BA
:1002B00012126B902711E0FD7F1012126B90271223
:1002C000E0FD7F0812126B902723E0F53490272081
:1002D000E0F533902724E0F53B90272EE0F53290AF
:1002E0002733E0F531A3E0F53E90273AE0F5429060
:1002F0002706E0F530E530700375300190270BE0FC
:10030000FEA3E07C002400F528EC3EF527A3E0FEE8
:10031000A3E02400F53DEC3EF53C902707E0FEA36A
:10032000E02400F52DEC3EF52CA3E0FEA3E0240034
:10033000F540EC3EF53F902711E0FEA3E02400F5E8
:1003400037EC3EF53690270FE0FEA3E02400F52BB6
:10035000EC3EF52A90272FE0FEA3E02400F525ECE3
:100360003EF52490271DE0FD7F0212126B90271EA0
:10037000E0FD7F0412126B90273FE0F5410205710A
:10038000E4F51974002519F582E43427F583E0FFBC
:1003900074402519F582E434E7F583EFF00519E59B
:1003A00019B440DF000000E490E68AF000000090FD
:1003B000E68B7440F01215EC020571A298E43390BC
:1003C000E740F0A3E599F0000000E490E68AF00031
:1003D000000090E68B7402F0020571E490E68AF06A
:1003E00090E68BF090E6A0E020E1F990E68BE0F556
:1003F00018C298D39400500302057190E740E0942E
:100400000A5007E02430FF12179990E740E0B40A41
:10041000057F6112179990E740E0B40B057F6212E7
:10042000179990E740E0B40C057F6312179990E7A5
:1004300040E0B40D057F6412179990E740E0B40ED8
:10044000057F6512179990E740E0640F600302058D
:10045000717F6612179902057190E74074ACF0A3A2
:10046000741AF0A3740DF0A37478F0A3740AF0A3C7
:10047000740EF0E4A3F0A3F0A37411F0300505E4CA
:10048000A3F0800690E74974FFF0000000E490E6D6
:100490008AF000000090E68B740AF01215EC020559
:1004A0007190E678E04480F090E6797491F07F6492
:1004B0007E0012171B90E679E090E740F07F647EA3
:1004C0000012171B90E679E090E741F07F647E0010
:1004D00012171B90E679E090E742F07F647E0012ED
:1004E000171B90E679E090E743F090E678E044400F
:1004F000F0000000E490E68AF000000090E68B74C3
:1005000004F0806DE490E68AF090E68BF090E6A02F
:10051000E020E1F990E68BE0F518D3940140529089
:10052000E741E0FD7F4212161790E740E0FD7F4E65
:10053000121617803CE490E68AF090E68BF090E685
:10054000A0E020E1F990E68BE0F518D3940040217B
:1005500090E740E0700312182E90E740E0B40103EA
:1005600012183290E740E0B402071218618002D3FB
:0205700022C3A4
:010572002266
:1016EB00C0E0C083C082D2015391EF90E65D7401DC
:0816FB00F0D082D083D0E03270
:10174900C0E0C083C0825391EF90E65D7404F0D08D
:0617590082D083D0E032D3
:10175F00C0E0C083C0825391EF90E65D7402F0D079
:06176F0082D083D0E032BD
:1013F900C0E0C083C08290E680E030E70E854347B5
:10140900854448854B49854C4A800C854B47854C1A
:101419004885434985444A5391EF90E65D7410F03D
:07142900D082D083D0E03235
:10170300C0E0C083C082D2035391EF90E65D7408BA
:08171300F0D082D083D0E03257
:10143000C0E0C083C08290E680E030E70E8543477D
:10144000854448854B49854C4A800C854B47854CE3
:101450004885434985444A5391EF90E65D7420F0F6
:07146000D082D083D0E032FE
:010DFF0032C1
:011840003275
:011841003274
:011842003273
:100F6600C0E0C0F0C083C082C0D075D000C000C051
:100F760001C002C003C004C005C006C007C2AFE579
:100F860038705090E678E04480F090E6797491F0FD
:100F96007F647E0012171B90E679E090E7C0F07F31
:100FA600647E0012171B90E679E090E7C1F07F643B
:100FB6007E0012171B90E679E090E7C2F07F647E10
:100FC6000012171B90E679E090E7C3F090E678E010
:100FD6004440F090E7C0E538F000000090E68F74DA
:100FE60004F00000005391EF90E65FE04404F0D275
:100FF600AFD007D006D005D004D003D002D001D0A0
:0C10060000D0D0D082D083D0F0D0E032F7
:10114F00C0E0C0F0C083C082C0D075D000C000C066
:0D115F0001C002C003C004C005C006C007E7
:10116C00C2AF90E6A1E020E1F990E780E0FF7004C7
:10117C00F5238030BFFF07752300D2068026BFFE03
:10118C000890E781E0F53A801B90E782E0FD7F4212
:10119C0012161790E781E0FD7F4E121617E4FD7FC3
:1011AC009012161700000090E68DE4F05391EF902A
:0811BC00E65FE04408F0D2AF49
:1011C400D007D006D005D004D003D002D001D0007F
:0B11D400D0D0D082D083D0F0D0E03229
:011843003272
:011844003271
:011845003270
:01184600326F
:01184700326E
:01184800326D
:01184900326C
:01184A00326B
:01184B00326A
:01184C003269
:01184D003268
:01184E003267
:01184F003266
:011850003265
:011851003264
:011852003263
:011853003262
:011854003261
:011855003260
:01185600325F
:01185700325E
:01185800325D
:01185900325C
:01185A00325B
:01185B00325A
:01185C003259
:01185D003258
:01185E003257
:01185F003256
:011860003255
:10171B00AD07AC06ED25E0FDEC33FCED4C6007EDC1
:07172B001D70011C80F52276
:0610BA008C1A8D1BA90732
:1010C000530107C2A77F0A7E0012171BE4FBFAC375
:1010D00074029BFFE9A807088002C313D8FC30E024
:1010E00004D2A68002C2A67F0A7E0012171BD2A5D8
:1010F00012171BC2A512171B0BBB00010AEB6403DE
:101100004A70CCE4FAFBC374099BFFE51BAE1AA836
:1011100007088005CEC313CE13D8F930E004D2A659
:101120008002C2A67F0A7E0012171BD2A512171BCF
:10113000C2A512171B0BBB00010AEB640A4A70C65A
:0E114000D2A77F0A7E0012171BC2A712171B30
:01114E00227E
:0A17B000AD07AC06E4FF1210BA22E8
:0A17BA00AD07AC067F041210BA223E
:0A17C400AD07AC067F051210BA2233
:0A17CE00AD07AC067F061210BA2228
:0A17D800AD07AC067F011210BA2223
:0A17E200AD07AC067F021210BA2218
:0A17EC00AD07AC067F031210BA220D
:04126B008F1DA90525
:10126F00C2A47F017E0012171BE4FBFAAF03E9A8AB
:10127F0007088002C313D8FC30E004D2A68002C254
:10128F00A67F017E0012171BD2A512171BC2A51233
:10129F00171B0BBB00010AEB64084A70CFE4FAFB83
:1012AF00AF03E51DA807088002C313D8FC30E00484
:1012BF00D2A68002C2A67F017E0012171BD2A512F2
:1012CF00171BC2A512171B0BBB00010AEB64084AC0
:1012DF0070CEC2A4D2A47F017E0012171BC2A4122B
:0212EF00171BCB
:0112F10022DA
:0418260053B1FE229A
:04182A0043B10122A3
:0718060053B1FB43B10222C4
:07180D0043B10243B10422C4
:0718140053B1FB53B1FD22AB
:07181B0012182A12180D2219
:1016D10012182A0000001218067F3C7E0012171B08
:0A16E10012180D12182612171B2212
:10168B001218067FAA7E0012171B12181412182AA2
:10169B007FC812171B1218261218067F7812171BF9
:0416AB0012180D22E2
:10138A00E4F557F558E4FBFA1216D17F467E0012AF
:10139A00171B0BBB00010ABA04EEBB06EBC2813075
:1013AA0080FDD2810558E55870020557C39404E5BB
:0713BA00576480948040CECF
:0113C1002209
:100D8C0012182612180DE4F51CF51D43B1087F0F3F
:100D9C007E0012171BE4FBFA12182A1218067F1495
:100DAC007E0012171B12180D1218267F3212171BF9
:100DBC000BBB00010AEB641E4A70DD53B1F77F14C4
:100DCC007E0012171B12182A12180612171B121863
:100DDC000D121826051DE51D7002051CC39410E5A7
:070DEC001C6480948140A407
:010DF30022DD
:04182E0043B1802220
:0418320053B17F220D
:0E00800053B1DF7F027E0012171B43B1202216
:10101200E52B452A7003120080E533B40105D2089E
:10102200120DF4E531700312182EE534706F75233A
:1010320001902702E075F040A485F01CF51DAF2356
:101042007E00AC1CAD1D120F07D3EF9400EE94008E
:1010520040117F007E041216AFE51D151D700215AA
:101062001C80DB902703E0751C00F51DAF237E007A
:10107200AC1CAD1D120F07D3EF9400EE940040118B
:101082007F007E011216AFE51D151D7002151C8032
:10109200DB902704E0FF7E001216AF800975230162
:1010A200E523640160FAE5317003121832E533B4C6
:0710B2000105C208120DF454
:0110B9002214
:100B4E00C2A0C206753802E52B452A700312168B19
:100B5E00E52B452A700312168BE53B701812101206
:100B6E00D208120DF4E52B452A7003120D8CC20823
:100B7E00120DF4800CE52B452A7003120D8C121009
:100B8E001212168B3006041215EC22753803E4F59A
:100B9E0018F519C3E5199528E51895275029E4F598
:100BAE001AF51BC3E51B95307480F8651A98500D25
:100BBE001216D1051BE51B7002051A80E60519E514
:100BCE00197002051880CCE532D3940040057F647D
:100BDE00121640E4F518F519C3E5199540E5189578
:100BEE003F5030C2813080FDD281E4F51AF51BC32F
:100BFE00E51B95307480F8651A98500D1216D105C4
:100C0E001BE51B7002051A80E60519E51970020531
:100C1E001880C5E4F518F519C3E519953DE5189545
:100C2E003C5029E4F51AF51BC3E51B95307480F88A
:100C3E00651A98500D1216D1051BE51B7002051A88
:100C4E0080E60519E5197002051880CCE536FD7FA2
:100C5E004012126BE537FD7F2012126BC28130807D
:100C6E00FDD281E52CFD7F4012126BE52DFD7F201C
:050C7E0012126BD2A070
:010C8300224E
:10161700AB05AE0790E678E04480F090E679EEF00F
:101627007F647E0012171BEBF012171B90E678E021
:091637004440F07F6412171B22ED
:011861002264
:1015EC00E4F51CF51DD2A07F327E00121344C2A07C
:1015FC007F327E00121344051DE51D7002051CC3CD
:0A160C009403E51C6480948040DB29
:0116160022B1
:101640008F1C432904AD297F8012126BE51C600BAF
:10165000C2813080FDD281151C80F15329FBAD2958
:061660007F8012126B22D4
:10173200E490E608F075C83443985053877FC2ACF2
:0717420075CBFF75CA64229C
:0D179900309902C2998F993099FDC29922B2
:10156500E4F559F55A209822055AE55A70020559AD
:10157500AE59FFE4FCFD7BFA7AFFF9F8C3120F19A7
:0E1585005004D2048004C20480DBC298AF99E7
:011593002235
:0817FE00E4F556D2E9D2AF2256
:1014670090E678E020E6F9C2E990E678E04480F07B
:10147700EF25E090E679F090E678E030E0F990E645
:1014870078E04440F090E678E020E6F990E678E0EE
:0614970030E1D6D2E9228B
:10150400A90790E678E020E6F9E556702390E6789E
:10151400E04480F0E925E090E679F08D51AF03A92D
:10152400077552018A538954E4F555755601D3223F
:02153400C322D0
:10149D00A90790E678E020E6F9E556702590E67804
:1014AD00E04480F0E925E0440190E679F08D51AFFC
:1014BD0003A9077552018A538954E4F555755603EE
:0414CD00D322C32241
:03004B00020C8420
:100C8400C0E0C083C082C085C084C086758600C0B1
:100C9400D075D000C000C001C002C003C006C007A8
:100CA40090E678E030E206755606020D6E90E6781E
:100CB400E020E10CE55664026006755607020D6EED
:100CC400E55624FE605F14603624FE7003020D5F57
:100CD40024FC7003020D6B24086003020D6EAB52FA
:100CE400AA53A954AF5505558F82758300120EB8C7
:100CF40090E679F0E55565517070755605806B90F6
:100D0400E679E0AB52AA53A954AE558E827583009E
:100D1400120EE5755602E5516401704E90E678E0D6
:100D24004420F08045E55124FEB5550790E678E06F
:100D34004420F0E55114B5550A90E678E04440F0BB
:100D440075560090E679E0AB52AA53A954AE558E7D
:100D540082758300120EE50555800F90E678E04415
:100D640040F075560080037556005391DFD007D0CC
:100D740006D003D002D001D000D0D0D086D084D009
:080D840085D082D083D0E0325B
:030000000211DF0B
:0C11DF00787FE4F6D8FD75815A021226D4
:100EB800BB010CE58229F582E5833AF583E02250EF
:100EC80006E92582F8E622BBFE06E92582F8E22239
:0D0ED800E58229F582E5833AF583E4932253
:100EE500F8BB010DE58229F582E5833AF583E8F043
:100EF500225006E92582C8F622BBFE05E92582C8EF
:020F0500F222D6
:100F0700EF8DF0A4A8F0CF8CF0A428CE8DF0A42EFE
:020F1700FE22B8
:100F1900EB9FF5F0EA9E42F0E99D42F0EC6480C84F
:060F290064809845F022EF
:100F2F00EB9FF5F0EA9E42F0E99D42F0E89C45F018
:010F3F00228F
:100F4000D083D082F8E4937012740193700DA3A340
:100F500093F8740193F5828883E473740293686054
:060F6000EFA3A3A380DF54
:1011EB00020815E493A3F8E493A34003F68001F2FD
:1011FB0008DFF48029E493A3F85407240CC8C33305
:10120B00C4540F4420C8834004F456800146F6DFD3
:10121B00E4800B01020408102040809012F2E47E5F
:10122B00019360BCA3FF543F30E509541FFEE493C8
:10123B00A360010ECF54C025E060A840B8E493A38F
:10124B00FAE493A3F8E493A3C8C582C8CAC583CABA
:10125B00F0A3C8C582C8CAC583CADFE9DEE780BE72
:0113430000A9
:00000001FF
