:0A162800000102020303040405059B
:10077D00E4F513F512F511F510C208C205C207C252
:10078D00061209577E007F908E448F45754C00757B
:10079D004DA27542007543AC754A00754BDA754E26
:1007AD0001754F0890E680E030E70E85424685439F
:1007BD0047854A48854B49800C854A46854B478578
:1007CD004248854349EE54E070030208F075140069
:1007DD007515807E007F908E168F17C3742E9FFF28
:1007ED0074019ECF2402CF3400FEE48F0F8E0EF5E0
:1007FD000DF50CF50BF50AF509F508AF0FAE0EADBD
:10080D000DAC0CAB0BAA0AA909A808C312112950EB
:10081D002AE515250BF582E514350AF58374CDF01F
:10082D00E4FAF9F8E50B2401F50BEA350AF50AE9C6
:10083D003509F509E83508F50880C0E4F50BF50A2A
:10084D00F509F508AF0FAE0EAD0DAC0CAB0BAA0A4A
:10085D00A909A808C31211295037E517250BF582F0
:10086D00E516350AF583E0FFE515250BF582E51450
:10087D00350AF583EFF0E4FAF9F8E50B2401F50BF1
:10088D00EA350AF50AE93509F509E83508F508806C
:10089D00B385144485154574902480FF740034FF8E
:1008AD00FEC3E54D9FF54DE54C9EF54CC3E5479FC9
:1008BD00F547E5469EF546C3E5499FF549E5489E52
:1008CD00F548C3E5439FF543E5429EF542C3E54B2D
:1008DD009FF54BE54A9EF54AC3E54F9FF54FE54E13
:1008ED009EF54ED2E843D82090E668E04409F0909A
:1008FD00E65CE0443DF0D2AF90E680E020E105D229
:10090D0009120CD090E680E054F7F0538EF8C2082F
:10091D003006051204DBC20630082912008D502462
:10092D00C20812153B20051690E682E030E704E080
:10093D0020E1EF90E682E030E604E020E0E41214DE
:09094D00691216B512143B80C7B3
:01095600227E
:1004DB0090E6B9E070030205B714700302066024BE
:1004EB00FE70030206F824FB70030205B1147003BF
:1004FB000205AB14700302059F1470030205A524BB
:10050B000560030207691216B7400302077590E6F0
:10051B00BBE024FE602C14604724FD601614603190
:10052B0024067066E54490E6B3F0E54590E6B4F03A
:10053B00020775E54C90E6B3F0E54D90E6B4F0029A
:10054B000775E54690E6B3F0E54790E6B4F0020791
:10055B0075E54890E6B3F0E54990E6B4F00207750F
:10056B0090E6BAE0FF121495AA06A9077B01EA49A7
:10057B004B600DEE90E6B3F0EF90E6B4F00207752A
:10058B0090E6A0E04401F002077590E6A0E044017C
:10059B00F002077512161602077512168A020775F6
:1005AB001212CB0207751216040207751216B94008
:1005BB000302077590E6B8E0247F602B14603C249F
:1005CB00026003020656A205E433FF25E0FFA207F3
:1005DB00E4334F90E740F0E4A3F090E68AF090E626
:1005EB008B7402F0020775E490E740F0A3F090E6FD
:1005FB008AF090E68B7402F002077590E6BCE0542B
:10060B007EFF7E00E0D3948040067C007D01800459
:10061B007C007D00EC4EFEED4F2428F58274163ED7
:10062B00F583E493FF3395E0FEEF24A1FFEE34E670
:10063B008F82F583E0540190E740F0E4A3F090E65D
:10064B008AF090E68B7402F002077590E6A0E04406
:10065B0001F00207751216BB400302077590E6B84E
:10066B00E024FE601D2402600302077590E6BAE0E9
:10067B00B40105C20502077590E6A0E04401F00243
:10068B00077590E6BAE0705990E6BCE0547EFF7EA9
:10069B0000E0D3948040067C007D0180047C007DCB
:1006AB0000EC4EFEED4F2428F58274163EF583E4E4
:1006BB0093FF3395E0FEEF24A1FFEE34E68F82F536
:1006CB0083E054FEF090E6BCE05480FF1313135408
:1006DB001FFFE0540F2F90E683F0E04420F0020759
:1006EB007590E6A0E04401F0020775807D1216BDFF
:1006FB00507890E6B8E024FE60232402706C90E6FC
:10070B00BAE0B40104D205806190E6BAE0B4020409
:10071B008058805690E6A0E04401F0804D90E6BCF6
:10072B00E0547EFF7E00E0D3948040067C007D0188
:10073B0080047C007D00EC4EFEED4F2428F5827486
:10074B00163EF583E493FF3395E0FEEF24A1FFEE15
:10075B0034E68F82F583E04401F0800E800C1201A9
:10076B0030500790E6A0E04401F090E6A0E0448012
:01077B00F08D
:01077C00225A
:030033000216A111
:0416A10053D8EF32F9
:1000900012010002000000401816011600000102C3
:1000A00000010A06000200000040010009022E00C3
:1000B000010100A0FA0904000004FF000000070588
:1000C0000102400000070586020002000705020247
:1000D0000002000705810240000009022E00010114
:1000E00000A0FA0904000004FF0000000705010257
:1000F000400000070586024000000705020240009C
:100100000007058102400000040309040E035100AA
:1001100048005900430043004400140351004800C4
:1001200059002D0031003600200020002000000082
:03004300020D00AB
:03005300020D009B
:100D000002157A000215EE000215D80002159200B5
:100D1000021302000213390002008F00020CFF00D0
:100D20000216BF000216C000020DB800020F9400A8
:100D30000216C1000216C2000216C3000216C40049
:100D40000216C500020CFF000216C6000216C700FC
:100D50000216C8000216C9000216CA000216CB000D
:100D60000216CC00020CFF00020CFF00020CFF0078
:100D70000216CD000216CE000216CF000216D000D9
:100D80000216D1000216D2000216D3000216D400B9
:100D90000216D5000216D6000216D7000216D80099
:100DA0000216D9000216DA000216DB000216DC0079
:080DB0000216DD000216DE0050
:1014690090E682E030E004E020E60B90E682E0308E
:10147900E119E030E71590E680E04401F07F147E41
:0C1489000012120F90E680E054FEF022EA
:10153B0090E682E044C0F090E681F0438701000022
:04154B00000000227A
:100CD00030090990E680E0440AF0800790E680E061
:100CE0004408F07FDC7E0512120F90E65D74FFF081
:0F0CF00090E65FF05391EF90E680E054F7F0222A
:02149500A907A5
:10149700AE4EAF4F8F828E83A3E064037017AD010A
:1014A70019ED7001228F828E83E07C002FFDEC3EC8
:0914B700FEAF0580DF7E007F001E
:0114C0002209
:10120F008E1E8F1F90E600E054187012E51F240108
:10121F00FFE4351EC313F51EEF13F51F801590E67F
:10122F0000E05418FFBF100BE51F25E0F51FE51E6A
:10123F0033F51EE51F151FAE1E7002151E4E6005FD
:06124F0012154F80EE2293
:10154F007400F58690FDA57C05A3E582458370F9AF
:01155F002269
:1011C100022C1A0002270000023B0000023E03F736
:1011D1000236000002240000022A00000130010151
:1011E1003400013300013A00013D00013200022EBA
:1011F10000000141A0013100C104012900013500B5
:0D120100C103014000012200013800C100BE
:1009570090E6007412F090E6017443F000000090F6
:10096700E61074A0F000000000000090E611F0000F
:10097700000000000090E612F0000000E490E6138B
:10098700F000000090E61474E0F0000000E490E648
:1009970015F000000090E6047480F0000000740277
:1009A700F00000007406F0000000E4F00000009082
:1009B700E60274E6F000000090E60374F8F0000029
:1009C7000090E670E04440F0000000E490E609F093
:1009D70000000053B2FE43B20243B20890E6180487
:1009E700F00000007411F000000090E61A7409F09E
:1009F700000000E490E671F090E672F075B4FF75C0
:100A0700B6BF90E65EE04408F0000000E490E68D93
:100A1700F090E65EE04404F0000000E490E68FF01A
:100A2700D28112169A43B110E4FD7F8012113A7FEA
:100A3700647E0012120F7D807F8012113AC2017D01
:100A47000D7F4012113A7D787F2012113AE4FD7F25
:100A57001012113AE4FD7F0812113AE4FD7F0212E9
:100A6700113AE4FD7F0412113A12169290E67AE0E9
:100A770054FEF0E4FD7F901214EC1216DF1214C13D
:100A8700D2A053B17F7DFF7F421214ECE4FD7F4E6D
:0C0A97001214EC1215C17F6312008022C3
:10143B00300313753801300405E5B120E6F8120AC4
:10144B00A3C203E4F5380522D3E5229400748094FB
:0E145B00884003E4F522E5227003121560229A
:02008D00D3227C
:0216B500D3223E
:0216B700D3223C
:1012CB0090E680E030E71590E6247402F000000011
:1012DB00E490E625F0000000D2018013E490E624B0
:1012EB00F000000090E6257440F0000000C2019071
:0712FB00E6BAE0F539D32249
:1016040090E740E539F0E490E68AF090E68B04F048
:02161400D322DF
:08168A0090E6BAE0F526D32238
:1016160090E740E526F0E490E68AF090E68B04F049
:02162600D322CD
:0216B900D3223A
:0216BB00D32238
:0216BD00D32236
:1001300090E6B9E0244B607214700302038624F445
:1001400070030203C124FD7003020409147003024A
:10015000046C14700302049D241460030204D7E4A9
:1001600090E68AF090E68BF090E6A0E020E1F9902E
:10017000E68BE0F51800000090E6047480F00000C3
:100180000053297FAD29FF12113A90E6047406F05E
:10019000000000E4F07F0AFE12120F432980AD290F
:1001A0007F8012113AD2030204D9E490E68AF090DB
:1001B000E68BF090E6A0E020E1F990E68BE0F51800
:1001C000D3943F4024E4F51974402519F582E434B2
:1001D000E7F583E0FF74002519F582E43418F58310
:1001E000EFF00519E519B440DF7F887E0012163262
:1001F000901800E0FF7E0012163C901800E0FF7E91
:1002000000121646901800E0FF7E0012165090185B
:1002100001E075F004A4FFAEF012165A901801E048
:1002200075F004A4FFAEF0121664901801E075F0AA
:1002300004A4FFAEF012166E901821E0700353294B
:10024000BF901821E0B40103432940901805E0C392
:10025000940250035329CF901805E0B40208E52911
:1002600054CF2410F529901805E0B40308E529546B
:10027000CF2420F529901805E0B40408E52954CFCF
:100280002430F529901839E070035329F790183974
:10029000E0B40103432908901826E070055329FDB6
:1002A0008003432902901807E0FD7F4012113A9025
:1002B0001808E0FD7F2012113A901811E0FD7F1020
:1002C00012113A901812E0FD7F0812113A9018238B
:1002D000E0F534901820E0F533901824E0F53A90DA
:1002E000182EE0F532901833E0F531A3E0F53D909B
:1002F000183AE0F541901806E0F530E530700375E6
:10030000300190180BE0FEA3E07C002400F528ECFF
:100310003EF527A3E0FEA3E02400F53CEC3EF53BD0
:10032000901807E0FEA3E02400F52DEC3EF52CA389
:10033000E0FEA3E02400F53FEC3EF53E901811E00E
:10034000FEA3E02400F537EC3EF53690180FE0FEF2
:10035000A3E02400F52BEC3EF52A90182FE0FEA335
:10036000E02400F525EC3EF52490181DE0FD7F0209
:1003700012113A90181EE0FD7F0412113A90183FB6
:10038000E0F5400204D9E4F51974002519F582E47A
:100390003418F583E0FF74402519F582E434E7F55D
:1003A00083EFF00519E519B440DF000000E490E6A2
:1003B0008AF000000090E68B7440F01214C1020431
:1003C000D990E74074CCF0A37405F0A3740DF0A3AA
:1003D0007478F0A3740AF0A3740EF0E4A3F0A3F011
:1003E000A37483F0300105E4A3F0800690E749741C
:1003F000FFF0000000E490E68AF000000090E68B39
:10040000740AF01214C10204D990E678E04480F036
:1004100090E6797491F07F647E001215AA90E679D7
:10042000E090E740F07F647E001215AA90E679E044
:1004300090E741F07F647E001215AA90E679E09083
:10044000E742F07F647E001215AA90E679E090E71B
:1004500043F090E678E04440F0000000E490E68A43
:10046000F000000090E68B7404F0806DE490E68A62
:10047000F090E68BF090E6A0E020E1F990E68BE0CA
:10048000F518D39401405290E741E0FD7F421214E9
:10049000EC90E740E0FD7F4E1214EC803CE490E6E7
:1004A0008AF090E68BF090E6A0E020E1F990E68BF0
:1004B000E0F518D39400402190E740E07003121655
:1004C0007890E740E0B4010312168190E740E0B471
:0A04D00002071216DF8002D322C3D8
:0104DA0022FF
:10157A00C0E0C083C082D2065391EF90E65D740149
:08158A00F0D082D083D0E032E2
:1015D800C0E0C083C0825391EF90E65D7404F0D000
:0615E80082D083D0E03246
:1015EE00C0E0C083C0825391EF90E65D7402F0D0EC
:0615FE0082D083D0E03230
:10130200C0E0C083C08290E680E030E70E854246AE
:10131200854347854A48854B49800C854A46854B1B
:10132200478542488543495391EF90E65D7410F03A
:07133200D082D083D0E0322D
:10159200C0E0C083C082D2085391EF90E65D740828
:0815A200F0D082D083D0E032CA
:10133900C0E0C083C08290E680E030E70E85424677
:10134900854347854A48854B49800C854A46854BE4
:10135900478542488543495391EF90E65D7420F0F3
:07136900D082D083D0E032F6
:01008F00323E
:010CFF0032C2
:0116BF0032F8
:0116C00032F7
:100DB800C0E0C0F0C083C082C0D075D000C000C001
:100DC80001C002C003C004C005C006C007C2AFE529
:100DD80038705090E678E04480F090E6797491F0AD
:100DE8007F647E001215AA90E679E090E7C0F07F54
:100DF800647E001215AA90E679E090E7C1F07F645E
:100E08007E001215AA90E679E090E7C2F07F647E32
:100E1800001215AA90E679E090E7C3F090E678E032
:100E28004440F090E7C0E538F000000090E68F7489
:100E380004F00000005391EF90E65FE04404F0D224
:100E4800AFD007D006D005D004D003D002D001D04F
:0C0E580000D0D0D082D083D0F0D0E032A7
:100F9400C0E0C0F0C083C082C0D075D000C000C023
:0D0FA40001C002C003C004C005C006C007A4
:100FB100C2AF90E6A1E020E1F990E780E0FF700484
:100FC100F5238032BFFF07752300D2028028BFFEC0
:100FD1000A90E781E024FF9204801B90E782E0FD04
:100FE1007F421214EC90E781E0FD7F4E1214ECE495
:100FF100FD7F901214EC00000090E68DE4F0539117
:0A100100EF90E65FE04408F0D2AF84
:10100B00D007D006D005D004D003D002D001D00039
:0B101B00D0D0D082D083D0F0D0E032E3
:0116C10032F6
:0116C20032F5
:0116C30032F4
:0116C40032F3
:0116C50032F2
:0116C60032F1
:0116C70032F0
:0116C80032EF
:0116C90032EE
:0116CA0032ED
:0116CB0032EC
:0116CC0032EB
:0116CD0032EA
:0116CE0032E9
:0116CF0032E8
:0116D00032E7
:0116D10032E6
:0116D20032E5
:0116D30032E4
:0116D40032E3
:0116D50032E2
:0116D60032E1
:0116D70032E0
:0116D80032DF
:0116D90032DE
:0116DA0032DD
:0116DB0032DC
:0116DC0032DB
:0116DD0032DA
:0116DE0032D9
:1015AA00AD07AC06ED25E0FDEC33FCED4C6007ED34
:0715BA001D70011C80F522E9
:060EFF008C1A8D1BA907EF
:100F0500530107C2A77F0A7E001215AAE4FBFAC3A4
:100F150074029BFFE9A807088002C313D8FC30E0E0
:100F250004D2A68002C2A67F0A7E001215AAD2A507
:100F35001215AAC2A51215AA0BBB00010AEB640380
:100F45004A70CCE4FAFBC374099BFFE51BAE1AA8F3
:100F550007088005CEC313CE13D8F930E004D2A616
:100F65008002C2A67F0A7E001215AAD2A51215AA72
:100F7500C2A51215AA0BBB00010AEB640A4A70C68A
:0E0F8500D2A77F0A7E001215AAC2A71215AAD3
:010F9300223B
:0A163200AD07AC06E4FF120EFF2224
:0A163C00AD07AC067F04120EFF227A
:0A164600AD07AC067F05120EFF226F
:0A165000AD07AC067F06120EFF2264
:0A165A00AD07AC067F01120EFF225F
:0A166400AD07AC067F02120EFF2254
:0A166E00AD07AC067F03120EFF2249
:04113A008F1DA90557
:10113E00C2A47F017E001215AAE4FBFAAF03E9A850
:10114E0007088002C313D8FC30E004D2A68002C286
:10115E00A67F017E001215AAD2A51215AAC2A5124B
:10116E0015AA0BBB00010AEB64084A70CFE4FAFB28
:10117E00AF03E51DA807088002C313D8FC30E004B6
:10118E00D2A68002C2A67F017E001215AAD2A51297
:10119E0015AAC2A51215AA0BBB00010AEB64084AD8
:1011AE0070CEC2A4D2A47F017E001215AAC2A412D0
:0211BE0015AA70
:0111C000220C
:0416A50043B101222A
:0416A90053B1FE2219
:0416AD0043B104221F
:0416B10053B1FB2214
:07169A001216A91216B1227D
:101560001216A57F127E001215AA1216A91216AD28
:0A1570001215AA1216B11215AA22D4
:10129300E4F51CF51DE4FBFA1215607F467E00128F
:1012A30015AA0BBB00010ABA04EEBB06EBC28130E0
:1012B30080FDD281051DE51D7002051CC39404E564
:0712C3001C6480948040CE02
:0112CA002201
:091678007F4F12008043B1802273
:091681007F4312008053B17F2267
:100E6400E533B4010353B1EFE5317003121678E5AD
:100E740034706F752301901802E075F040A485F07A
:100E84001CF51DAF237E00AC1CAD1D121101D3EF68
:100E94009400EE940040117FEF7E0312120FE51DC3
:100EA400151D7002151C80DB901803E0751C00F5FD
:100EB4001DAF237E00AC1CAD1D121101D3EF9400B5
:100EC400EE940040117F007E0112120FE51D151DE6
:100ED4007002151C80DB901804E0FF7E0012120FD4
:100EE4008009752301E523640160FAE5317003127A
:0A0EF4001681E533B4010343B11089
:010EFE0022D1
:100AA300C2A0C202E5317003121681E52B452A70FC
:100AB30003121293753802120E6475380330020361
:100AC300020BC7E4F518F519C3E5199528E5189540
:100AD300275030E4F51AF51BC3E51B95307480F8F5
:100AE300651A98500D121560051BE51B7002051A57
:100AF30080E67F647E001215AA0519E519700205C8
:100B03001880C5E532D394004005AF32121515E4C1
:100B1300F518F519C3E519953FE518953E5030C210
:100B2300813080FDD281E4F51AF51BC3E51B9530B6
:100B33007480F8651A98500D121560051BE51B703B
:100B430002051A80E60519E5197002051880C5D259
:100B5300A0E4F518F519C3E5199528E5189527506C
:100B630030E4F51AF51BC3E51B95307480F8651A5C
:100B730098500D121560051BE51B7002051A80E6DF
:100B83007F647E001215AA0519E519700205188005
:100B9300C5E536FD7F4012113AE537FD7F2012117E
:100BA3003AC2813080FDD281C2813080FDD281E59D
:100BB3002CFD7F4012113AE52DFD7F2012113A12D0
:040BC30016DFD2A0C7
:010BC700220B
:1014EC00AB05AE0790E678E04480F090E679EEF03C
:1014FC007F647E001215AAEBF01215AA90E678E034
:09150C004440F07F641215AA228C
:10125500E4FBFAEF75F010A4AAF0FB90E678E04401
:1012650080F090E6797418F07F647E001215AAAFBD
:1012750002EFF07F641215AAAF03EFF07F64121539
:0D128500AA90E678E04440F07F641215AABC
:011292002239
:0116DF0022E8
:1014C100E4F51AF51BD2A07F327E0012120FC2A0E2
:1014D1007F327E0012120F051BE51B7002051AC335
:0A14E1009403E51A6480948040DB58
:0114EB0022DE
:101515008F1C432904AD297F8012113AE51C600B0D
:10152500C2813080FDD281151C80F15329FBAD2984
:061535007F8012113A2232
:1015C100E490E608F075C83443985053877FC2AC65
:0715D10075CBFF75CA64220F
:0D008000309902C2998F993099FDC29922E2
:10140C00E4F556F5572098220557E5577002055616
:10141C00AE56FFE4FCFD7BFA7AFFF9F8C312111308
:0E142C005004D2008004C20080DBC298AF9949
:01143A00228F
:08169200E4F555D2E9D2AF22C4
:1013700090E678E020E6F9C2E990E678E04480F073
:10138000EF25E090E679F090E678E030E0F990E63D
:1013900078E04440F090E678E020E6F990E678E0E6
:0613A00030E1D6D2E92283
:1013DA00A90790E678E020E6F9E555702390E678CB
:1013EA00E04480F0E925E090E679F08D50AF03A95A
:1013FA00077551018A528953E4F554755501D32270
:02140A00C322FB
:1013A600A90790E678E020E6F9E555702590E678FD
:1013B600E04480F0E925E0440190E679F08D50AFF5
:1013C60003A9077551018A528953E4F554755503EB
:0413D600D322C32239
:03004B00020BC8DD
:100BC800C0E0C083C082C085C084C086758600C06E
:100BD800D075D000C000C001C002C003C006C00765
:100BE80090E678E030E206755506020CB290E67899
:100BF800E020E10CE55564026006755507020CB269
:100C0800E55524FE605F14603624FE7003020CA3D1
:100C180024FC7003020CAF24086003020CB2AB5131
:100C2800AA52A953AF5405548F827583001210B28B
:100C380090E679F0E55465507070755505806B90B5
:100C4800E679E0AB51AA52A953AE548E827583005F
:100C58001210DF755502E5506401704E90E678E099
:100C68004420F08045E55024FEB5540790E678E02E
:100C78004420F0E55014B5540A90E678E04440F07A
:100C880075550090E679E0AB51AA52A953AE548E3F
:100C9800827583001210DF0554800F90E678E044D7
:100CA80040F075550080037555005391DFD007D08B
:100CB80006D003D002D001D000D0D0D086D084D0C6
:080CC80085D082D083D0E03218
:03000000021026C5
:0C102600787FE4F6D8FD75815702106D4C
:1010B200BB010CE58229F582E5833AF583E02250F3
:1010C20006E92582F8E622BBFE06E92582F8E2223D
:0D10D200E58229F582E5833AF583E4932257
:1010DF00F8BB010DE58229F582E5833AF583E8F047
:1010EF00225006E92582C8F622BBFE05E92582C8F3
:0210FF00F222DB
:10110100EF8DF0A4A8F0CF8CF0A428CE8DF0A42E02
:02111100FE22BC
:10111300EB9FF5F0EA9E42F0E99D42F0EC6480C853
:0611230064809845F022F3
:10112900EB9FF5F0EA9E42F0E99D42F0E89C45F01C
:011139002293
:1010320002077DE493A3F8E493A34003F68001F250
:1010420008DFF48029E493A3F85407240CC8C333BF
:10105200C4540F4420C8834004F456800146F6DF8E
:10106200E4800B01020408102040809011C1E47E4C
:10107200019360BCA3FF543F30E509541FFEE49383
:10108200A360010ECF54C025E060A840B8E493A34A
:10109200FAE493A3F8E493A3C8C582C8CAC583CA75
:1010A200F0A3C8C582C8CAC583CADFE9DEE780BE2D
:01120E0000DF
:00000001FF
