:0A171C0000010202030304040505A6
:10060E00E4F513F512F511F510C208C205C207C2C2
:10061E0006120CE11207BD7E0F7F008E4B8F4C75BC
:10062E00530F75541275490F754A1C75510F75523B
:10063E004A75550F755678EE54E0700302075775DC
:10064E0014007515808E168F17C374A29FFF740F3A
:10065E009ECF2402CF3400FEE48F0F8E0EF50DF5E3
:10066E000CF50BF50AF509F508AF0FAE0EAD0DAC96
:10067E000CAB0BAA0AA909A808C31211A25026E5B1
:10068E0015250BF582E514350AF58374CDF0E50BCF
:10069E002401F50BE4350AF50AE43509F509E435CC
:1006AE0008F50880C4E4F50BF50AF509F508AF0F57
:1006BE00AE0EAD0DAC0CAB0BAA0AA909A808C3125D
:1006CE0011A25033E517250BF582E516350AF58391
:1006DE00E0FFE515250BF582E514350AF583EFF0FD
:1006EE00E50B2401F50BE4350AF50AE43509F509A5
:1006FE00E43508F50880B785144B85154C74002435
:10070E0080FF740F34FFFEC3E5549FF554E5539EEE
:10071E00F553C3E54E9FF54EE54D9EF54DC3E550A1
:10072E009FF550E54F9EF54FC3E54A9FF54AE549C3
:10073E009EF549C3E5529FF552E5519EF551C3E52D
:10074E00569FF556E5559EF555D2E843D82090E6CE
:10075E0068E04409F090E65CE0443DF0D2AF90E6EC
:10076E0080E020E105D20912148B90E680E054F768
:10077E00F0538EF8C2083006051203E9C20630089F
:10078E0029120CFE5024C2081215E620051690E61A
:10079E0082E030E704E020E1EF90E682E030E6040C
:0F07AE00E020E0E41214E71217951210B980C78B
:1003E90090E6B9E0700302049A1470030205172419
:1003F900FE700302059A24FB70030204941470032F
:1004090002048E146073146076240560030205FAF1
:10041900121797400302060690E6BBE024FE60220D
:1004290014603324FD601114602224067048E54BE2
:1004390090E6B3F0E54C8037E55390E6B3F0E55428
:10044900802DE54D90E6B3F0E54E8023E54F90E62B
:10045900B3F0E550801990E6BAE0FF121513AA0629
:10046900A9077B01EA494B600DEE90E6B3F0EF90E6
:10047900E6B4F00206060205FF1216FE020606128F
:100489000EF802060612130D0206061216EC0206F3
:1004990006121799400302060690E6B8E0247F6029
:1004A9001514601924027063A205E43325E0FFA244
:1004B90007E4334F8041E490E740F0803F90E6BC89
:1004C900E0547EFF7E00E0D394807C0040047D01EF
:1004D90080027D00EC4EFEED4F241CF58274173E20
:1004E900F583E493FF3395E0FEEF24A1FFEE34E6B4
:1004F9008F82F583E0540190E740F0E4A3F090E6A1
:100509008AF090E68B7402F00206060205FF1217C4
:100519009B400302060690E6B8E024FE601624021A
:10052900600302060690E6BAE0B40105C2050206B8
:10053900060205FF90E6BAE0705590E6BCE0547EED
:10054900FF7E00E0D394807C0040047D0180027D21
:1005590000EC4EFEED4F241CF58274173EF583E442
:1005690093FF3395E0FEEF24A1FFEE34E68F82F589
:1005790083E054FEF090E6BCE05480131313541F3B
:10058900FFE0540F2F90E683F0E04420F0806E8066
:100599006512179D506790E6B8E024FE601A2402A0
:1005A900705B90E6BAE0B40104D205805090E6BAD7
:1005B900E0B402028047803E90E6BCE0547EFF7EB4
:1005C90000E0D394807C0040047D0180027D00EC32
:1005D9004EFEED4F241CF58274173EF583E493FF1C
:1005E9003395E0FEEF24A1FFEE34E68F82F5838098
:1005F90008120080500790E6A0E04401F090E6A0C0
:04060900E04480F059
:01060D0022CA
:030033000217773A
:0417770053D8EF3222
:100CE100758CE0758AC0E58954F04401F589758EEB
:080CF10003D28CD2A9D2AF227C
:03000B00020DB82B
:100DB800C0E0C0F0C083C082C0D075D000C000C001
:100DC80001C002C003C004C005C006C007758CE09E
:100DD800758AC0D28CE47F607EEAFDFCAB48AA47E6
:100DE800A946A845C31211A25019AF48AE47AD464F
:100DF800AC45EF2401F548E43EF547E43DF546E40B
:100E08003CF545E47F01FEFDFCAB48AA47A946A88E
:100E180045C31211A27008E5A054F02531F5A0E5EC
:100E28002B2401FFE4352AFEE4FCFDAB48AA47A9C0
:100E380046A845C31211A2700553A0F0C28CD00772
:100E4800D006D005D004D003D002D001D000D0D035
:090E5800D082D083D0F0D0E0324A
:100F0000120100020000004018165180000001028A
:100F100000010A06000200000040010009022E0044
:100F200001010080FA0904000004FF000000070529
:100F300001024000000705820200020007050202CC
:100F40000002000705810240000009022E00010195
:100F50000080FA0904000004FF00000007050102F8
:100F6000400000070582024000000705020200025F
:100F7000000705810240000004030904100351002A
:100F8000480059002D00430043004400160351005F
:100F9000480059002D0039004C002000200020009E
:040FA000200000002D
:1009EB0060802800020301010101010700000002E1
:1009FB00000002000A2B0B1311151111000000004F
:100A0B000000003F01030101010102070000000289
:100A1B00000002000A2B130B091511110000000036
:100A2B000000003F032A0303030303070000000237
:100A3B00000002000A2B0B1311151111000000000E
:100A4B000000003F022A010303030307000000021A
:100A5B00000002000A2B130B0915111100000000F6
:100A6B000000003F60242887000000000000000009
:100A7B00000000000000000000000000000000006B
:100A8B0000000000000000000000000047288080EC
:060A9B00000011CA4E002C
:100B7B0090E60174CAF090E6F574FFF0902880E0DF
:100B8B0090E6F3F0902881E090E6C3F0902882E0A5
:100B9B0090E6C1F0902883E090E6C2F0902885E0C3
:100BAB0090E6C0F0902886E090E6F4F075AF0774FD
:100BBB0028F59A7400F59B759DE4E4F59EFF90E68D
:100BCB007BE090E67CF00FBF80F490E67174FFF051
:100BDB00F5B490E672E04480F043B680000000E488
:100BEB0090E6C4F000000090E6C5F0902887E090F6
:100BFB00E6C6F0902888E090E6C7F0902889E09050
:100C0B00E6C8F090288AE090E6C9F090288BE09037
:100C1B00E6CAF090288CE090E6CBF090288DE0901F
:0B0C2B00E6CCF090288EE090E6CDF0C3
:010C3600229B
:03004300020D00AB
:03005300020D009B
:100D0000021690000216D6000216C0000216A800B5
:100D10000213870002134A0002179F000217A00067
:100D20000217A1000217A200021222000211B30052
:100D30000217A3000217A4000217A5000217A600BD
:100D40000217A7000217A0000217A8000217A900A7
:100D50000217AA000217AB000217AC000217AD0081
:100D60000217AE000217A0000217A0000217A00091
:100D70000217AF000217B0000217B1000217B2004D
:100D80000217B3000217B4000217B5000217B6002D
:100D90000217B7000217B8000217B9000217BA000D
:100DA0000217BB000217BC000217BD000217BE00ED
:080DB0000217BF000217C0008A
:1014E70090E682E030E004E020E60B90E682E03010
:1014F700E119E030E71590E680E04401F07F147EC3
:0C150700001212C790E680E054FEF022B3
:1015E60090E682E044C0F090E681F0438701000077
:0415F60000000022CF
:10148B0030090990E680E0440AF0800790E680E09E
:10149B004408F07FDC7E051212C790E65D74FFF006
:0F14AB0090E65FF05391EF90E680E054F7F02267
:02151300A90726
:10151500AE55AF568F828E83A3E064037017AD017D
:1015250019ED7001228F828E83E07C002FFDEC3E49
:09153500FEAF0580DF7E007F009F
:01153E00228A
:1012C7008E1E8F1F90E600E054187012E51F240150
:1012D700FFE4351EC313F51EEF13F51F801590E6C7
:1012E70000E05418FFBF100BE51F25E0F51FE51EB2
:1012F70033F51EE51F151FAE1E7002151E4E600545
:061307001215FA80EE222F
:1015FA007400F58690FDA57C05A3E582458370F904
:01160A0022BD
:100AA100C18102230000022E1040C104C103044190
:070AB1000000000001390004
:08156B0090E679F07F057E0097
:101573008E1E8F1FE51F451E60177F957E00121676
:1015830059000000000000E51F151F70E7151E80BD
:02159300E32251
:1007BD0090E600E054E74410F000000000000090C7
:1007CD00E61074A0F000000090E60B7401F090E6C6
:1007DD001274E0F0000000E490E613F000000090C9
:1007ED00E614F000000090E615F000000090E61809
:1007FD00740CF000000090E6D27402F090E60474E0
:10080D0080F00000007402F0000000E4F000000031
:10081D00120B7BE490E671F075B4FF90E672F07503
:10082D00B6FF75B1FF90E670F075B2FFC28CD2873E
:10083D0012171075230275240000000090E6107445
:10084D00A0F000000000000090E611F00000009004
:10085D00E65EE04408F0000000E490E68DF090E6DE
:10086D005EE04404F0000000E490E68FF01214BA4C
:10087D00C2A17F9A7E001217267528007529B475BE
:10088D003C01753D90752E10752FB8753F0675405E
:10089D002C12176590E67AE054FEF0E4FD7F90127D
:1008AD0014277F647E001212C77DFF7F421214272A
:1008BD007F647E001212C77D827F4E12142775321F
:1008CD00FFE4F53590E782E532F090E781E535F00C
:0608DD0012177F02171044
:10103000E535D3940040037532FF90E678E04480B4
:10104000F0749112156B90E679E090E7C012156E7E
:1010500090E679E090E7C112156E90E679E090E7AE
:10106000C212156E90E679E090E7C312156E90E615
:1010700078E0444012156E90E678E04480F07442C7
:1010800012156B90E679E53212156E90E678E04421
:101090004012156E90E678E04480F090E679744E48
:1010A00012156E90E679E53512156E90E678E044FB
:0910B00040F07F057E000215737B
:1010B900E5442401F544E43543F543E43542F5427A
:1010C900E43541F541E47FE87E03FDFCAB44AA43E6
:1010D900A942A841C31211A27006FD7F90121427DC
:1010E9007FA07E867D017C00AB44AA43A942A8412A
:1010F900C31211A2700912177B12103012177F7FC9
:10110900407E0D7D037C00AB44AA43A942A841D38C
:101119001211A2400CE4F544F543F542F5411216CB
:101129000B300011753901E5B130E6032004F812DE
:081139000AB9E4F539C20022F5
:020CFE00D322FF
:02179500D3225D
:02179700D3225B
:10130D0090E680E030E71800000090E6207402F0CF
:10131D00000000E490E621F0000000D201801600EC
:10132D000000E490E620F000000090E6217440F00B
:0D133D00000000C20190E6BAE0F53AD322AC
:1016EC0090E740E53AF0E490E68AF090E68B04F05F
:0216FC00D322F7
:080EF80090E6BAE0F527D322D1
:1016FE0090E740E527F0E490E68AF090E68B04F060
:02170E00D322E4
:02179900D32259
:02179B00D32257
:02179D00D32255
:10008000E4F518F51990E6B9E0244B606D1470039F
:1000900002024824F4700302028024FD700302026D
:1000A000CB14700302032F24FD7003020364241693
:1000B00060030203E5E490E68AF090E68BF090E6B8
:1000C000A0E020E1F990E68BE0F518E4F5B5F5B392
:1000D00090E60174CAF0E490E6C3F090E6C27410B2
:1000E000F0D20000000090E6047480F0000000747C
:1000F00002F0000000E4F00203E7E490E68AF090EA
:10010000E68BF090E6A0E020E1F990E68BE0F518B0
:10011000D3943F4024E4F51974402519F582E43462
:10012000E7F583E0FF74AB2519F582E43428F58305
:10013000EFF00519E519B440DF7F8A7E001217261B
:100140009028ABE0FF7E0012172F9028ABE0FF7ED7
:10015000001217389028ABE0FF7E0012174190285C
:10016000ACE075F004A4FFAEF012174A9028ACE0A2
:1001700075F004A4FFAEF01217539028ACE075F0B0
:1001800004A4FFAEF012175C9028B0E0C3940250B4
:10019000139028CCE090E6C07005744EF080167481
:1001A0009CF080119028CCE090E6C07005749FF020
:1001B0008003749DF09028CEE0F5369028CBE0F5D2
:1001C000349028CFE0F53B9028D9E0F533A3E0FE4A
:1001D000A3E07C002400F526EC3EF5259028B1E054
:1001E000F530E53070037530019028B6E0FEA3E0ED
:1001F0007C002400F529EC3EF528A3E0FEA3E024D2
:1002000000F53DEC3EF53C9028B2E0FEA3E0240072
:10021000F52FEC3EF52EA3E0FEA3E02400F540EC24
:100220003EF53F9028BCE0FEA3E02400F538EC3E0C
:10023000F5379028BAE0FEA3E02400F52DEC3EF55A
:100240002CE4FD7F9002035EE4F51974AB2519F5EB
:1002500082E43428F583E0FF74402519F582E43404
:10026000E7F583EFF00519E519B40ADF000000E4B3
:1002700090E68AF000000090E68B740AF00203E733
:1002800090E74074ABF0A37408F0A3740CF0A3746F
:1002900026F0A37407F0A374EEF0A37401F0A37426
:1002A00003F0A37453F0300105E4A3F0800690E757
:1002B0004974FFF0000000E490E68AF0000000902E
:1002C000E68B740AF01214BA0203E790E678E04471
:1002D00080F090E6797491F07F647E001216599058
:1002E000E679E090E740F07F647E0012165990E6D0
:1002F00079E090E741F07F647E0012165990E6792C
:10030000E090E742F07F647E0012165990E679E0B3
:1003100090E743F090E678E04440F0000000E4907D
:10032000E68AF000000090E68B7404F00203E7E434
:1003300090E68AF090E68BF090E6A0E020E1F9905C
:10034000E68BE0F518D3940150030203E790E741F0
:10035000E0FD7F4212142790E740E0FD7F4E12142B
:10036000270203E7E490E68AF090E68BF090E6A09F
:10037000E020E1F990E68BE0F518D3940140689015
:10038000E740E05480C4131313540124FF92A3E008
:100390005440C41313540324FF92A2E05420C41306
:1003A000540724FF92A1E05410C4540F24FF92A0DC
:1003B000A3E075F00AA4FFAEF01212C790E740E088
:1003C0005408131313541F24FF92A3E0540413136F
:1003D000543F24FF92A2E05402C31324FF92A1E0F1
:0803E0001392A08002D322C396
:0103E80022F2
:10169000C0E0C083C082D2065391EF90E65D740132
:0816A000F0D082D083D0E032CB
:1016C000C0E0C083C0825391EF90E65D7404F0D017
:0616D00082D083D0E0325D
:1016D600C0E0C083C0825391EF90E65D7402F0D003
:0616E60082D083D0E03247
:10138700C0E0C083C08285514D85524E854E82850F
:101397004D83A37402F085494F854A508550828555
:1013A7004F83A37407F05391EF90E65D7410F0D06C
:0613B70082D083D0E03279
:1016A800C0E0C083C082D2085391EF90E65D740811
:0816B800F0D082D083D0E032B3
:10134A00C0E0C083C08290E680E030E72085494D46
:10135A00854A4E854E82854D83A37402F085514F8E
:10136A00855250855082854F83A37407F05391EFBD
:0D137A0090E65D7420F0D082D083D0E03288
:01179F003217
:0117A0003216
:0117A1003215
:0117A2003214
:10122200C0E0C0F0C083C082C0D075D000C000C092
:1012320001C002C003C004C005C006C007C2AF128D
:10124200177B00000090E68F7404F00000005391B9
:10125200EF90E65FE04404F012177FD2AFD007D0E0
:1012620006D005D004D003D002D001D000D0D0D017
:0812720082D083D0F0D0E032FD
:0D11B300C0E0C083C082C0D075D000C0076E
:1011C000C2AF90E6A1E020E1F990E780E014601260
:1011D0002404601C14601D14602414702675220001
:1011E000802190E782E0F53290E781E0F5358013C9
:1011F000C28C800F90E781E024FF92048005752265
:1012000000D20200000090E68DE4F05391EF90E6EA
:071210005FE04408F0D2AFDB
:0B121700D007D0D0D082D083D0E032CE
:0117A3003213
:0117A4003212
:0117A5003211
:0117A6003210
:0117A700320F
:0117A800320E
:0117A900320D
:0117AA00320C
:0117AB00320B
:0117AC00320A
:0117AD003209
:0117AE003208
:0117AF003207
:0117B0003206
:0117B1003205
:0117B2003204
:0117B3003203
:0117B4003202
:0117B5003201
:0117B6003200
:0117B70032FF
:0117B80032FE
:0117B90032FD
:0117BA0032FC
:0117BB0032FB
:0117BC0032FA
:0117BD0032F9
:0117BE0032F8
:0117BF0032F7
:0117C00032F6
:060C37008F1A8C1B8D1CBE
:100C3D00531A0753A0BF121655E4F51DF51EC374C4
:100C4D0002951EFFE51AA807088002C313D8FC30D1
:100C5D00E00543A020800353A0DF12165543A010DA
:100C6D0012165553A0EF121655051EE51E700205FE
:100C7D001DC39403E51D6480948040C2E4F51DF509
:100C8D001EC37409951EFFE51CAE1BA80708800541
:100C9D00CEC313CE13D8F930E00543A02080035303
:100CAD00A0DF12165543A01012165553A0EF1216C1
:100CBD0055051EE51E7002051DC3940AE51D6480D1
:100CCD00948040BD43A04012165553A0BF7F0A7EAD
:040CDD0000021659A2
:09172600AD07AC06E4FF020C372C
:09172F00AD07AC067F04020C3783
:09173800AD07AC067F05020C3779
:09174100AD07AC067F06020C376F
:09174A00AD07AC067F01020C376B
:09175300AD07AC067F02020C3761
:09175C00AD07AC067F03020C3757
:101427008D1AAD0790E678E04480F090E679EDF00C
:101437007F647E0012165990E679E51AF07F647E84
:101447000012165990E678E04440F07F647E00026F
:02145700165924
:0A164F00120CF912178C7F0A7E00BE
:10165900EF7803C333CE33CED8F9FFEF4E6007EFEF
:071669001F70F81E80F5223E
:050CF900C281D284223B
:05176D00D281D28422AC
:05177200C281C28422C7
:03178300C28522FA
:03178600D28522E7
:03178900C28222F7
:03178C00D28222E4
:03178F00C28322F0
:03179200D28322DD
:0C17100012176D1217831217890217922E
:10160B0012178612178F12165512164F12178312B6
:10161B00179212165512176D1217897F0A7E000248
:02162B0016594E
:10162D0012164F121772121786121655120CF91246
:10163D00178312165512176D1217897F0A7E000235
:02164D0016592C
:10167000E4FDFCE4FBFA12160B0BBB00010ABA02F4
:0F168000F5BBA8F20DBD00010CED64044C70E445
:01168F002238
:0117C1002205
:1014BA00E4F51AF51B43B1807F1E7E001212C75352
:1014CA00B17F7F1E7E001212C7051BE51B70020545
:0C14DA001AC39405E51A6480948040D980
:0114E60022E3
:04177B0043B18022D4
:04177F0053B17F22C1
:0117C2002204
:0117C3002203
:100E6100E534B40102C2871217C2E53670757522E6
:100E7100019028ADE075F040A485F01CF51DAF226E
:100E81007E00AC1CAD1D121190D3EF9400EE9400C6
:100E910040147FC47E03121573121030E51D151D19
:100EA10070DC151C80D89028AEE0751C00F51DAFD4
:100EB100227E00AC1CAD1D121190D3EF9400EE9474
:100EC1000040147FC47E00121573121030E51D1509
:100ED1001D70DC151C80D89028AFE0FF7E00121237
:100EE100C78009752201E522640160FA1217C3E582
:060EF10034B40102D287B7
:010EF70022D8
:10153F00AD07AC06D3ED9400EC9400401E00000004
:10154F00EE90E6D0F0000000ED90E6D1F000000044
:0C155F0075BB04000000E5BB30E7FB2278
:02127A00AC06C0
:10127C0090E6C0E0FBE490E618F090E6C0744EF007
:10128C00EC90E6D0F0000000EF90E6D1F00000000A
:10129C0075BB04000000E5BB30E7FB90E6047480EE
:1012AC00F00000007402F0000000E4F00000009078
:0A12BC00E618740CF090E6C0EBF0A9
:0112C6002205
:10159500AD07AC06000000ED25E0EC3390E6D0F099
:1015A500000000ED25E090E6D1F000000075BB04D9
:0915B500000000E5BB30E7FB2259
:100AB90012177FC202121670753902120E6175394A
:100AC9000312162D12177B300203020B7AE4F51A72
:100AD900F51BC3E51B9529E51A9528500D12160B30
:100AE900051BE51B70EC051A80E8E533D39400403B
:100AF9000EAF337E00AC2EAD2F12119012127AD3A5
:100B0900E5269400E52594004007AF26AE25121589
:100B190095E4F518F519C3E5199540E518953F5081
:100B29002C1215BEE4F51AF51BC3E51B953074802C
:100B3900F8651A98500D12160B051BE51B70EA058E
:100B49001A80E60519E51970CD051880C9E4F51A6A
:100B5900F51BC3E51B953DE51A953C500D12160B87
:100B6900051BE51B70EC051A80E8AF38AE37121586
:010B79003F3C
:010B7A002258
:1015BE00000000E52F25E0E52E3390E6D0F0000088
:1015CE0000E52F25E090E6D1F000000075BB040089
:0815DE000000E5BB30E7FB2231
:08176500E4F55CD2E9D2AF22E9
:1013BD0090E678E020E6F9C2E990E678E04480F026
:1013CD00EF25E090E679F090E678E030E0F990E6F0
:1013DD0078E04440F090E678E020E6F990E678E099
:0613ED0030E1D6D2E92236
:10145900A90790E678E020E6F9E55C702390E67844
:10146900E04480F0E925E090E679F08D57AF03A9D3
:10147900077558018A59895AE4F55B755C01D322CD
:02148900C3227C
:1013F300A90790E678E020E6F9E55C702590E678A9
:10140300E04480F0E925E0440190E679F08D57AFA0
:1014130003A9077558018A59895AE4F55B755C037A
:04142300D322C322EB
:03004B000208E3C5
:1008E300C0E0C083C082C085C084C086758600C056
:1008F300D075D000C000C001C002C003C006C0074D
:1009030090E678E030E206755C060209CD90E67861
:10091300E020E10CE55C64026006755C070209CD2A
:10092300E55C24FE605F14603624FE70030209BE9A
:1009330024FC70030209CA240860030209CDAB58E2
:10094300AA59A95AAF5B055B8F82758300121141C7
:1009530090E679F0E55B65577070755C05806B9088
:10096300E679E0AB58AA59A95AAE5B8E827583002B
:1009730012116E755C02E5576401704E90E678E0E3
:100983004420F08045E55724FEB55B0790E678E008
:100993004420F0E55714B55B0A90E678E04440F054
:1009A300755C0090E679E0AB58AA59A95AAE5B8E04
:1009B3008275830012116E055B800F90E678E04428
:1009C30040F0755C008003755C005391DFD007D065
:1009D30006D003D002D001D000D0D0D086D084D0AE
:0809E30085D082D083D0E03200
:03000000020FA448
:0C0FA400787FE4F6D8FD75815C020FEB4D
:10114100BB010CE58229F582E5833AF583E0225063
:1011510006E92582F8E622BBFE06E92582F8E222AD
:0D116100E58229F582E5833AF583E49322C7
:10116E00F8BB010DE58229F582E5833AF583E8F0B7
:10117E00225006E92582C8F622BBFE05E92582C863
:02118E00F2224B
:10119000EF8DF0A4A8F0CF8CF0A428CE8DF0A42E73
:0211A000FE222D
:1011A200EB9FF5F0EA9E42F0E99D42F0E89C45F0A3
:0111B200221A
:100FB00002060EE493A3F8E493A34003F68001F243
:100FC00008DFF48029E493A3F85407240CC8C33342
:100FD000C4540F4420C8834004F456800146F6DF11
:100FE000E4800B01020408102040809009EBE47EAD
:100FF000019360BCA3FF543F30E509541FFEE49306
:10100000A360010ECF54C025E060A840B8E493A3CC
:10101000FAE493A3F8E493A3C8C582C8CAC583CAF7
:10102000F0A3C8C582C8CAC583CADFE9DEE780BEAF
:010AB800003D
:00000001FF
