:0A1B69000001020203030404050555
:10077A00E4F554F553F552F551C20AC207C209C24B
:10078A0008121A7B120ACD7E137F008E0A8F0B7510
:10079A00121375131275081375091C751013751148
:1007AA004A751413751578EE54E070030208C37580
:1007BA0055007556808E578F58C374A29FFF7413C5
:1007CA009ECF2402CF3400FEE48F508E4FF54EF5B3
:1007DA004DF54CF54BF54AF549AF50AE4FAD4EAC21
:1007EA004DAB4CAA4BA94AA849C3120A965026E512
:1007FA0056254CF582E555354BF58374CDF0E54C1D
:10080A002401F54CE4354BF54BE4354AF54AE43519
:10081A0049F54980C4E4F54CF54BF54AF549AF5022
:10082A00AE4FAD4EAC4DAB4CAA4BA94AA849C31228
:10083A000A965033E558254CF582E557354BF58332
:10084A00E0FFE556254CF582E555354BF583EFF08B
:10085A00E54C2401F54CE4354BF54BE4354AF54AB1
:10086A00E43549F54980B785550A85560B74002445
:10087A0080FF741334FFFEC3E5139FF513E5129E40
:10088A00F512C3E50D9FF50DE50C9EF50CC3E50FBA
:10089A009FF50FE50E9EF50EC3E5099FF509E508DC
:1008AA009EF508C3E5119FF511E5109EF510C3E505
:1008BA00159FF515E5149EF514D2E843D82090E665
:1008CA0068E04409F090E65CE0443DF0D2AF90E67F
:1008DA0080E020E105D20B12183F90E680E054F741
:1008EA00F0538EF8C20A300805120555C208300ABC
:1008FA0029121BF75024C20A12199420071690E6EF
:10090A0082E030E704E020E1EF90E682E030E6049E
:0F091A00E020E0E412186E121BF91214D080C70F
:1005550090E6B9E0700302060614700302068324D0
:10056500FE700302070624FB7003020600147003E5
:100575000205FA14607314607624056003020766A9
:10058500121BFB400302077290E6BBE024FE6022CB
:1005950014603324FD601114602224067048E50AB6
:1005A50090E6B3F0E50B8037E51290E6B3F0E5137E
:1005B500802DE50C90E6B3F0E50D8023E50E90E681
:1005C500B3F0E50F801990E6BAE0FF12189AAA0673
:1005D500A9077B01EA494B600DEE90E6B3F0EF9079
:1005E500E6B4F002077202076B121B0602077212CD
:1005F5001BBB0207721216920207721212EB020758
:1006050072121BFD400302077290E6B8E0247F607A
:100615001514601924027063A207E43325E0FFA2D4
:1006250009E4334F8041E490E740F0803F90E6BC19
:10063500E0547EFF7E00E0D394807C0040047D0181
:1006450080027D00EC4EFEED4F2469F582741B3E61
:10065500F583E493FF3395E0FEEF24A1FFEE34E646
:100665008F82F583E0540190E740F0E4A3F090E633
:100675008AF090E68B7402F002077202076B121B78
:10068500FF400302077290E6B8E024FE60162402DC
:10069500600302077290E6BAE0B40105C2070207DB
:1006A5007202076B90E6BAE0705590E6BCE0547EA6
:1006B500FF7E00E0D394807C0040047D0180027DB4
:1006C50000EC4EFEED4F2469F582741B3EF583E484
:1006D50093FF3395E0FEEF24A1FFEE34E68F82F51C
:1006E50083E054FEF090E6BCE05480131313541FCE
:1006F500FFE0540F2F90E683F0E04420F0806E80F9
:1007050065121C01506790E6B8E024FE601A2402C9
:10071500705B90E6BAE0B40104D207805090E6BA67
:10072500E0B402028047803E90E6BCE0547EFF7E46
:1007350000E0D394807C0040047D0180027D00ECC4
:100745004EFEED4F2469F582741B3EF583E493FF5D
:100755003395E0FEEF24A1FFEE34E68F82F583802A
:1007650008120080500790E6A0E04401F090E6A052
:04077500E04480F0EC
:01077900225D
:03003300021BE2CB
:041BE20053D8EF32B3
:101A7B00758CE0758AC0E58954F04401F589758E43
:081A8B0003D28CD2A9D2AF22D4
:03000B000210528E
:10105200C0E0C0F0C083C082C0D075D000C000C064
:1010620001C002C003C004C005C006C007758CE001
:10107200758AC0D28CE47F607EEAFDFCAB48AA4749
:10108200A946A845C3120A965019AF48AE47AD46C5
:10109200AC45EF2401F548E43EF547E43DF546E46E
:1010A2003CF545E47F01FEFDFCAB48AA47A946A8F2
:1010B20045C3120A967008E5A054F02531F5A0E563
:1010C2002B2401FFE4352AFEE4FCFDAB48AA47A924
:1010D20046A845C3120A96700553A0F0C28CD007E9
:1010E200D006D005D004D003D002D001D000D0D099
:0910F200D082D083D0F0D0E032AE
:1013000012010002000000401816592800000102D6
:1013100000010A06000200000040010009022E0040
:1013200001010080FA0904000004FF000000070525
:1013300001024000000705820200020007050202C8
:101340000002000705810240000009022E00010191
:101350000080FA0904000004FF00000007050102F4
:10136000400000070582024000000705020200025B
:101370000007058102400000040309041003510026
:101380004800590043004300440020001603510068
:10139000480059002D0032004500200020002000A8
:0413A0002000000029
:100DFA0060802800020202010202020700000002CB
:100E0A00000002001332320A080C0C08000000002D
:100E1A000000003F02020201010101070000000276
:100E2A000000020013320A12100C08080000000029
:100E3A000000003F032A0303030303070000000224
:100E4A00000002001332320A080C0C0800000000ED
:100E5A000000003F033A03030303030700000002F4
:100E6A000000020013320A12100C080800000000E9
:100E7A000000003F602428870000000000000000F6
:100E8A000000000000000000000000000000000058
:100E9A0000000000000000000000000047288080D9
:060EAA00000008CA4E0022
:100F960090E60174CAF090E6F574FFF0902880E0C0
:100FA60090E6F3F0902881E090E6C3F0902882E086
:100FB60090E6C1F0902883E090E6C2F0902885E0A4
:100FC60090E6C0F0902886E090E6F4F075AF0774DE
:100FD60028F59A7400F59B759DE4E4F59EFF90E66E
:100FE6007BE090E67CF00FBF80F490E67174FFF032
:100FF600F5B490E672E04480F043B680000000E469
:1010060090E6C4F000000090E6C5F0902887E090D6
:10101600E6C6F0902888E090E6C7F0902889E09030
:10102600E6C8F090288AE090E6C9F090288BE09018
:10103600E6CAF090288CE090E6CBF090288DE09000
:0B104600E6CCF090288EE090E6CDF0A4
:01105100227C
:03004300021100A7
:0300530002110097
:10110000021A9300021AF000021ADA00021AAB0067
:1011100002170C000216CF00021C0300021C040080
:10112000021C0500021C0600021555000211B80041
:10113000021C0700021C0800021C0900021C0A0015
:10114000021C0B00021C0400021C0C00021C0D00FF
:10115000021C0E00021C0F00021C1000021C1100D9
:10116000021C1200021C0400021C0400021C0400E9
:10117000021C1300021C1400021C1500021C1600A5
:10118000021C1700021C1800021C1900021C1A0085
:10119000021C1B00021C1C00021C1D00021C1E0065
:1011A000021C1F00021C2000021C2100021C220045
:0811B000021C2300021C2400B4
:10186E0090E682E030E004E020E60B90E682E03085
:10187E00E119E030E71590E680E04401F07F147E38
:0C188E000012164C90E680E054FEF022A0
:1019940090E682E044C0F090E681F04387010000C5
:0419A400000000221D
:10183F00300B0990E680E0440AF0800790E680E0E4
:10184F004408F07FDC7E0512164C90E65D74FFF0C5
:0F185F0090E65FF05391EF90E680E054F7F022AF
:02189A00A9079C
:10189C00AE14AF158F828E83A3E064037017AD0175
:1018AC0019ED7001228F828E83E07C002FFDEC3EBF
:0918BC00FEAF0580DF7E007F0015
:0118C5002200
:10164C008E618F6290E600E054187012E5622401FE
:10165C00FFE43561C313F561EF13F562801590E675
:10166C0000E05418FFBF100BE56225E0F562E56160
:10167C0033F561E5621562AE61700215614E60056D
:06168C001219A880EE22F5
:1019A8007400F58690FDA57C05A3E582458370F952
:0119B800220C
:100EB000C18202230000022E1040C100C106C105FC
:0B0EC000C104044100000000013900E3
:0818F20090E679F07F057E000D
:1018FA008E618F62E562456160177F957E00121ADC
:10190A002C000000000000E562156270E715618096
:02191A00E322C6
:100ACD0090E600E054E74410F000000000000090B4
:100ADD00E61074A0F000000090E60B7401F090E6B3
:100AED001274E0F0000000E490E613F000000090B6
:100AFD00E614F000000090E615F000000090E618F6
:100B0D00740CF000000090E6D27402F090E60474CC
:100B1D0080F00000007402F0000000E4F00000001E
:100B2D00120F96E490E671F075B4FF90E672F075D1
:100B3D00B6BF75B1FF90E670F075B2FFC28CD2876B
:100B4D00D286121B5175230275240000000090E619
:100B5D001074A0F000000000000090E611F00000FD
:100B6D000090E65EE04408F0000000E490E68DF0B1
:100B7D0090E65EE04404F0000000E490E68FF01291
:100B8D00180FC2A17FAA7E00121B7375280075294C
:100B9D00B4753C01753D90752E10752FB8753F06D7
:100BAD0075402C121BCB121BCB90E67AE054FEF055
:100BBD00E4FD7F901219B97F647E0012164C7DFF03
:100BCD007F421219B97F647E0012164CE4FD7F4EF0
:100BDD001219B97532FF75350A90E782E532F0903A
:0E0BED00E781E535F0121BEA121AC3021B4C19
:10144700D205E535D3940040037532FF90E678E086
:101457004480F074911218F290E679E090E7C01298
:1014670018F590E679E090E7C11218F590E679E073
:1014770090E7C21218F590E679E090E7C31218F5E5
:1014870090E678E044401218F590E678E04480F062
:1014970074421218F290E679E5321218F590E67860
:1014A700E044401218F590E678E04480F090E67941
:1014B700744E1218F590E679E5351218F590E6782E
:0914C700E044401218F5C20522B0
:1014D000E5442401F544E43543F543E43542F5425F
:1014E000E43541F541E47FE87E03FDFCAB44AA43CB
:1014F000A942A841C3120A967006FD7F901219B93D
:101500007FA07E867D017C00AB44AA43A942A8410E
:10151000C3120A967009121BE6121447121BEA7FC7
:10152000407E0D7D037C00AB44AA43A942A841D371
:10153000120A964009E4F544F543F542F5413001BD
:1015400013753901E5B130E6032006F8120D03C228
:0515500001E4F5392261
:021BF700D322F7
:021BF900D322F5
:021BFB00D322F3
:1016920090E680E030E71800000090E6207402F047
:1016A200000000E490E621F0000000D20280160063
:1016B2000000E490E620F000000090E6217440F083
:0D16C200000000C20290E6BAE0F53AD32223
:1012EB0090E740E53AF0E490E68AF090E68B04F064
:0212FB00D322FC
:081BBB0090E6BAE0F527D32201
:101B060090E740E527F0E490E68AF090E68B04F053
:021B1600D322D8
:021BFD00D322F1
:021BFF00D322EF
:021C0100D322EC
:10008000E4F559F55A90E6B9E0120AA700B1B300B9
:10009000E5B5022FB60265C202AFC502FCC6033148
:1000A000C903B6CA03EACB0479CC04C3CD0000056A
:1000B00051E490E68AF090E68BF090E6A0E020E133
:1000C000F990E68BE0F559E4F5B5F5B3D2010000FF
:1000D0000090E6047480F00000007402F00000005C
:1000E000E4F0020553E490E68AF090E68BF090E6A7
:1000F000A0E020E1F990E68BE0F559D3943F40244D
:10010000E4F55A7440255AF582E434E7F583E0FFBC
:1001100074AB255AF582E43428F583EFF0055AE5EF
:100120005AB440DF7F8A7E00121B739028ABE0FF39
:100130007E00121B7C9028ABE0FF7E00121B859096
:1001400028ABE0FF7E00121B8E9028ACE075F00417
:10015000A4FFAEF0121B979028ACE075F004A4FF4A
:10016000AEF0121BA09028ACE075F004A4FFAEF036
:10017000121BA99028B0E0C3940250139028CCE041
:1001800090E6C07005744EF08016749CF08011905B
:1001900028CCE090E6C07005749FF08003749DF059
:1001A0009028CEE0F5369028CBE0F5349028CFE0CB
:1001B000F53B9028D9E0F533A3E0FEA3E07C0024D2
:1001C00000F526EC3EF5259028B1E0F530E53070DD
:1001D000037530019028B6E0FEA3E07C002400F512
:1001E00029EC3EF528A3E0FEA3E02400F53DEC3E1B
:1001F000F53C9028B2E0FEA3E02400F52FEC3EF59C
:100200002EA3E0FEA3E02400F540EC3EF53F90284D
:10021000BCE0FEA3E02400F538EC3EF5379028BAA8
:10022000E0FEA3E02400F52DEC3EF52C020553E49E
:10023000F55A74AB255AF582E43428F583E0FF744F
:1002400040255AF582E434E7F583EFF0055AE55A84
:10025000B440DF000000E490E68AF000000090E681
:100260008B7440804390E74074C7F0A3741EF0A3E2
:10027000740CF0A37426F0A37407F0A374EEF0A33B
:100280007401F0E4A3F0A37453F0300205E4A3F08A
:10029000800690E74974FFF0000000E490E68AF0E1
:1002A00000000090E68B740AF012180F02055390BC
:1002B000E678E04480F07491121A2490E679E09098
:1002C000E740121A2790E679E090E741121A27904A
:1002D000E679E090E742121A2790E679E090E7434A
:1002E000F090E678E04440F0000000E490E68AF008
:1002F00000000090E68B7404F0020553E490E68A57
:10030000F090E68BF090E6A0E020E1F990E68BE03B
:10031000F559D39401500302055390E740E0FD7F67
:100320004E1219B990E741E0FD7F421219B902055A
:1003300053E490E68AF090E68BF090E6A0E020E1AE
:10034000F990E68BE0F559D39401500302055390E0
:10035000E740E05480C4131313540124FF92A3E038
:100360005440C41313540324FF92A2E05420C41336
:10037000540724FF92A1E05410C4540F24FF92A00C
:10038000A3E075F00AA4FFAEF012164C90E740E02F
:100390005408131313541F24FF92A3E0540413139F
:1003A000543F24FF92A2E05402C31324FF92A1E021
:1003B0001392A002055390E6BCE0755B00F55C204B
:1003C00005FDAD5C90E6BEE0FB7EE77560E775611C
:1003D000407FA01219DEAD5C90E6BEE0FB7EE775C3
:1003E00060E77561407FA00204AAE490E68AF0907D
:1003F000E68BF090E6A0E020E1F990E6BCE0D39433
:100400000750030205532005FD78EB7C287D017B16
:10041000017AE679BC7E007F011209F990E6BEE020
:10042000FF7E0078EC7C287D017B017AE779401221
:1004300009F990E6BEE004FD7A287BEB7F50121AA2
:100440005F78EB7C287D017B017AE679BC7E007FBA
:10045000011209F990E6BEE0FF7E0078EC7C287D71
:10046000017B017AE779401209F990E6BEE004FDCC
:100470007A287BEB7F5002054C90E6BCE0755B0070
:10048000F55C2005FDAD5C90E6BEE0FB7EE77560A7
:10049000E77561407FA21219DEAD5C90E6BEE0FB1D
:1004A0007EE77560E77561407FA21219DEE490E691
:1004B0008AF000000090E6BEE090E68BF0000000BD
:1004C000020553E490E68AF090E68BF090E6A0E017
:1004D00020E1F990E6BCE0D3940740772005FD7851
:1004E000EB7C287D017B017AE679BC7E007F0112DE
:1004F00009F990E6BEE0FF7E0078EC7C287D017B68
:10050000017AE779401209F990E6BEE004FD7A2805
:100510007BEB7F51121A5F78EB7C287D017B017A9F
:10052000E679BC7E007F011209F990E6BEE0FF7E0D
:100530000078EC7C287D017B017AE779401209F98B
:1005400090E6BEE004FD7A287BEB7F51121A5F80B3
:0405500002D322C3ED
:010554002284
:101A9300C0E0C083C082D2085391EF90E65D740129
:081AA300F0D082D083D0E032C4
:101ADA00C0E0C083C0825391EF90E65D7404F0D0F9
:061AEA0082D083D0E0323F
:101AF000C0E0C083C0825391EF90E65D7402F0D0E5
:061B000082D083D0E03228
:10170C00C0E0C083C08285100C85110D850D8285CB
:10171C000C83A37402F085080E85090F850F828552
:10172C000E83A37407F05391EF90E65D7410F0D024
:06173C0082D083D0E032F0
:101AAB00C0E0C083C082D20A5391EF90E65D740808
:081ABB00F0D082D083D0E032AC
:1016CF00C0E0C083C08290E680E030E72085080C40
:1016DF0085090D850D82850C83A37402F085100E8C
:1016EF0085110F850F82850E83A37407F05391EF39
:0D16FF0090E65D7420F0D082D083D0E03200
:011C030032AE
:011C040032AD
:011C050032AC
:011C060032AB
:10155500C0E0C0F0C083C082C0D075D000C000C05C
:1015650001C002C003C004C005C006C007C2AF1257
:101575001BE600000090E68F7404F0000000539114
:10158500EF90E65FE04404F0121BEAD2AFD007D03B
:1015950006D005D004D003D002D001D000D0D0D0E1
:0815A50082D083D0F0D0E032C7
:1011B800C0E0C083C082C0D075D000C004C006C0E3
:0111C800071F
:1011C900C2AF90E6A1E020E1F990E780E014601653
:1011D90024F86020240C604814604914605014708D
:1011E90052752200804D90E782E0F53290E781E068
:1011F900F535803FD28C90E781E0540FF531A3E0BB
:10120900FEA3E07C002400FFEC3EC313F52AEF1394
:10121900F52B754800754700754600754500801324
:10122900C28C800F90E781E024FF92068005752229
:1012390000D20300000090E68DE4F05391EF90E6B0
:071249005FE04408F0D2AFA2
:0F125000D007D006D004D0D0D082D083D0E032E7
:011C070032AA
:011C080032A9
:011C090032A8
:011C0A0032A7
:011C0B0032A6
:011C0C0032A5
:011C0D0032A4
:011C0E0032A3
:011C0F0032A2
:011C100032A1
:011C110032A0
:011C1200329F
:011C1300329E
:011C1400329D
:011C1500329C
:011C1600329B
:011C1700329A
:011C18003299
:011C19003298
:011C1A003297
:011C1B003296
:011C1C003295
:011C1D003294
:011C1E003293
:011C1F003292
:011C20003291
:011C21003290
:011C2200328F
:011C2300328E
:011C2400328D
:060ECC008F5D8C5E8D5F5E
:100ED200535D0753A0BF7F0A7E00121A2CE4F5600F
:100EE200F561C374029561FFE55DA807088002C33E
:100EF20013D8FC30E00543A020800353A0DF7F0A13
:100F02007E00121A2C43A0107F0A7E00121A2C5364
:100F1200A0EF7F0A7E00121A2C0561E561700205BE
:100F220060C39403E5606480948040B6E4F560F5A4
:100F320061C374099561FFE55FAE5EA8070880058D
:100F4200CEC313CE13D8F930E00543A0208003535B
:100F5200A0DF7F0A7E00121A2C43A0107F0A7E00B7
:100F6200121A2C53A0EF7F0A7E00121A2C0561E59B
:100F72006170020560C3940AE5606480948040B1A8
:100F820043A0407F0A7E00121A2C53A0BF7F0A7E24
:040F920000021A2C13
:091B7300AD07AC06E4FF020ECC44
:091B7C00AD07AC067F04020ECC9B
:091B8500AD07AC067F05020ECC91
:091B8E00AD07AC067F06020ECC87
:091B9700AD07AC067F01020ECC83
:091BA000AD07AC067F02020ECC79
:091BA900AD07AC067F03020ECC6F
:1019B9008D5DAD0790E678E04480F0ED121A249031
:1019C900E679E55D121A2790E678E04440F07F64F5
:0519D9007E00021A2C43
:081A240090E679F07F647E007A
:101A2C00EF7803C333CE33CED8F9FFEF4E6007EF18
:071A3C001F70F81E80F52267
:0312FD00C2852285
:031BEE00D285227B
:071B45007F037E00121A2C41
:051B4C00C283D28422D7
:0510FB00D283D2842223
:051BD300C283C2842260
:031BF100C282228B
:031BF400D2822278
:051BD800C280D2812251
:091B2A001210FB121BEE121BF459
:051B3300D280D28122E6
:051BDD00C280C281225C
:0C1B5100121BEE121B4C121BF1021B3386
:1017DE00121BD80000001210FB0000001212FD00B8
:1017EE000000121BF4000000121B4C000000121B24
:1017FE0033000000121BF1000000121BEE0000006F
:01180E0022B7
:1015AD00121B51121BD87F037E00121A2C1210FB36
:1015BD007F037E00121A2C1212FD7F037E00121A79
:1015CD002C121BF4121B457F037E00121A2C121BCA
:1015DD00337F037E00121A2C121BF17F037E001243
:1015ED001A2C121BD3121BEE121B457F037E000219
:0215FD001A2CA6
:101B1800E4FFFE1217DE0FBF00010EBE04F5BF1A68
:011B2800F2CA
:011B29002299
:0C1B5D00C2867F027E00121A2CD2862263
:10180F0053B17FE4F55DF55E43B1807F1E7E00121C
:10181F00164C53B17F7F1E7E0012164C055EE55E9F
:0F182F007002055DC39405E55D6480948040D927
:01183E002287
:041BE60043B1802265
:041BEA0053B17F2252
:091BB2007F4F121B3843B12022C1
:081BC30053B1DF7F43021B3820
:1013A400121B2AE52D452C7003121B5DE534B40194
:1013B40002C287121BB2E53670757522019028AD02
:1013C400E075F040A485F05FF560AF227E00AC5F6D
:1013D400AD60120A6ED3EF9400EE940040147FC403
:1013E4007E031218FA121447E560156070DC155F6D
:1013F40080D89028AEE0755F00F560AF227E00AC27
:101404005FAD60120A6ED3EF9400EE940040147F37
:10141400C47E001218FA121447E560156070DC15DA
:101424005F80D89028AFE0FF7E0012164C800975CB
:101434002201E522640160FA121BC3E534B40102FF
:02144400D2874D
:011446002283
:1018C600AD07AC06D3ED9400EC9400401E0000007A
:1018D600EE90E6D0F0000000ED90E6D1F0000000BA
:0C18E60075BB04000000E5BB30E7FB22EE
:0215FF00AC0638
:1016010090E6C0E0FBE490E618F090E6C0744EF07E
:10161100EC90E6D0F0000000EF90E6D1F000000081
:1016210075BB04000000E5BB30E7FB90E604748065
:10163100F00000007402F0000000E4F000000090EF
:0A164100E618740CF090E6C0EBF020
:01164B00227C
:10191C00AD07AC06000000ED25E0EC3390E6D0F00E
:10192C00000000ED25E090E6D1F000000075BB044E
:09193C00000000E5BB30E7FB22CE
:101A0300E53B700E1213A4E52D452C7011121B1823
:101A1300800CE52D452C7003121B181213A402151C
:011A2300AD15
:100D0300121BEAC203753902121A03753903121B47
:100D1300E6300303020DF9E4F55BF55CC3E55C958E
:100D230029E55B95285029E4F55DF55EC3E55E95FD
:100D3300307480F8655D98500D1217DE055EE55E30
:100D430070EA055D80E6055CE55C70D0055B80CCF0
:100D5300E533D39400400EAF337E00AC2EAD2F129B
:100D63000A6E1215FFD3E5269400E525940040078B
:100D7300AF26AE2512191CE4F559F55AC3E55A9569
:100D830040E559953F502C121945E4F55DF55EC3D6
:100D9300E55E95307480F8655D98500D1217DE0599
:100DA3005EE55E70EA055D80E6055AE55A70CD059D
:100DB3005980C9E4F55BF55CC3E55C953DE55B955E
:100DC3003C5029E4F55DF55EC3E55E95307480F82B
:100DD300655D98500D1217DE055EE55E70EA055DF0
:100DE30080E6055CE55C70D0055B80CC121B2AAF06
:060DF30038AE371218C6ED
:010DF90022D7
:10194500000000E52F25E0E52E3390E6D0F00000FD
:1019550000E52F25E090E6D1F000000075BB0400FE
:081965000000E5BB30E7FB22A6
:101AC300E490E608F075C83443985053877FC2AC5E
:071AD30075CBFF75CA642208
:0D1B3800309902C2998F993099FDC299220F
:10196D0090000020981CA3AF82AE83E4FCFD7BFAAF
:10197D007AFFF9F8C3120A805004D2008004C20025
:06198D0080E1C298AF9951
:011993002231
:0419DE008F5D8B5F2F
:1019E20090290BEDF0E55DC313FF7A297B0B7D0196
:1019F200121A5FE55DC313FFAB61AA60AD5F021A05
:011A020043A0
:081BCB00E4F51BD2E9D2AF22C0
:1017420090E678E020E6F9C2E990E678E04480F09D
:10175200EF25E090E679F090E678E030E0F990E667
:1017620078E04440F090E678E020E6F990E678E010
:0617720030E1D6D2E922AD
:1017AC00A90790E678E020E6F9E51B702390E6782F
:1017BC00E04480F0E925E090E679F08D16AF03A9BE
:1017CC00077517018A188919E4F51A751B01D322BC
:0217DC00C32226
:10177800A90790E678E020E6F9E51B702590E67861
:10178800E04480F0E925E0440190E679F08D16AF59
:1017980003A9077517018A188919E4F51A751B0337
:0417A800D322C32263
:03004B00020BFBAA
:100BFB00C0E0C083C082C085C084C086758600C03B
:100C0B00D075D000C000C001C002C003C006C00731
:100C1B0090E678E030E206751B06020CE590E6786C
:100C2B00E020E10CE51B64026006751B07020CE576
:100C3B00E51B24FE605F14603624FE7003020CD6A5
:100C4B0024FC7003020CE224086003020CE5AB17D2
:100C5B00AA18A919AF1A051A8F82758300120A1FD9
:100C6B0090E679F0E51A65167070751B05806B9030
:100C7B00E679E0AB17AA18A919AE1A8E8275830014
:100C8B00120A4C751B02E5166401704E90E678E073
:100C9B004420F08045E51624FEB51A0790E678E06F
:100CAB004420F0E51614B51A0A90E678E04440F0BB
:100CBB00751B0090E679E0AB17AA18A919AE1A8E2E
:100CCB0082758300120A4C051A800F90E678E04477
:100CDB0040F0751B008003751B005391DFD007D0CC
:100CEB0006D003D002D001D000D0D0D086D084D093
:080CFB0085D082D083D0E032E5
:101A4300121778E51B24FA600E146006240770F35E
:0C1A5300D322E4F51BD322E4F51BD322C0
:101A5F001217ACE51B24FA600E146006240770F30E
:0C1A6F00D322E4F51BD322E4F51BD322A4
:0300000002125F8A
:0C125F00787FE4F6D8FD7581620212A6CB
:10092900E709F608DFFA8046E709F208DFFA803EB0
:1009390088828C83E709F0A3DFFA8032E309F6089D
:10094900DFFA8078E309F208DFFA807088828C8305
:10095900E309F0A3DFFA806489828A83E0A3F608B9
:10096900DFFA805889828A83E0A3F208DFFA804C93
:1009790080D280FA80C680D4806980F2803380106A
:1009890080A680EA809A80A880DA80E280CA8033D3
:1009990089828A83ECFAE493A3C8C582C8CCC5834B
:1009A900CCF0A3C8C582C8CCC583CCDFE9DEE7801B
:1009B9000D89828A83E493A3F608DFF9ECFAA9F09A
:1009C900EDFB2289828A83ECFAE0A3C8C582C8CCF0
:1009D900C583CCF0A3C8C582C8CCC583CCDFEADE09
:1009E900E880DB89828A83E493A3F208DFF980CC6B
:1009F90088F0EF60010E4E60C388F0ED2402B40464
:100A09000050B9F582EB2402B4040050AF2323450A
:060A1900822390097973AD
:100A1F00BB010CE58229F582E5833AF583E022508C
:100A2F0006E92582F8E622BBFE06E92582F8E222D6
:0D0A3F00E58229F582E5833AF583E49322F0
:100A4C00F8BB010DE58229F582E5833AF583E8F0E0
:100A5C00225006E92582C8F622BBFE05E92582C88C
:020A6C00F22274
:100A6E00EF8DF0A4A8F0CF8CF0A428CE8DF0A42E9C
:020A7E00FE2256
:100A8000EB9FF5F0EA9E42F0E99D42F0EC6480C8ED
:060A900064809845F0228D
:100A9600EB9FF5F0EA9E42F0E99D42F0E89C45F0B6
:010AA600222D
:100AA700D083D082F8E4937012740193700DA3A3DE
:100AB70093F8740193F5828883E4737402936860F2
:060AC700EFA3A3A380DFF2
:10126B0002077AE493A3F8E493A34003F68001F218
:10127B0008DFF48029E493A3F85407240CC8C33384
:10128B00C4540F4420C8834004F456800146F6DF53
:10129B00E4800B0102040810204080900DFAE47EDC
:1012AB00019360BCA3FF543F30E509541FFEE49348
:1012BB00A360010ECF54C025E060A840B8E493A30F
:1012CB00FAE493A3F8E493A3C8C582C8CAC583CA3A
:1012DB00F0A3C8C582C8CAC583CADFE9DEE780BEF2
:010ECB000026
:00000001FF
