:0A21FB0000010202030304040505BD
:100D3700E4F56BF56AF569F568C209C206C208C22F
:100D4700071220AA12078A7E177F008E0A8F0B755B
:100D5700121775131275081775091C751017751179
:100D67005175161775177FEE54E07003020E7E75E6
:100D77006C00756D808E6E8F6FC374A99FFF74179B
:100D87009ECF2402CF3400FEE48F678E66F565F5AB
:100D970064F563F562F561F560AF67AE66AD65ACA6
:100DA70064AB63AA62A961A860C3120B315026E540
:100DB7006D2563F582E56C3562F58374CDF0E563E7
:100DC7002401F563E43562F562E43561F561E435E4
:100DD70060F56080C4E4F563F562F561F560AF67BF
:100DE700AE66AD65AC64AB63AA62A961A860C312C5
:100DF7000B315031AE62AF63E56F2FF582E56E3E82
:100E0700F583E0FDE56D2FF582E56C3EF583EDF0AA
:100E1700EF2401F563E43EF562E43561F561E435FD
:100E270060F56080B9856C0A856D0B74002480FFBE
:100E3700741734FFFEC3E5139FF513E5129EF512F1
:100E4700C3E50D9FF50DE50C9EF50CC3E50F9FF56A
:100E57000FE50E9EF50EC3E5099FF509E5089EF51A
:100E670008C3E5119FF511E5109EF510C3E5179F1F
:100E7700F517E5169EF516D2E843D82090E668E008
:100E87004409F090E65CE0443DF0D2AF90E680E0A4
:100E970020E105D20A121E2690E680E054F7F053AF
:100EA7008EF8C209300705120566C20730092912F4
:100EB70022775024C209121FC920061690E682E045
:100EC70030E704E020E1EF90E682E030E604E0203E
:0D0ED700E0E4121E551222791211D080C7DE
:1005660090E6B9E07003020617147003020694249D
:10057600FE700302071724FB7003020611147003B2
:1005860002060B1460731460762405600302077676
:1005960012227B400302078290E6BBE024FE602223
:1005A60014603324FD601114602224067048E50AA5
:1005B60090E6B3F0E50B8037E51290E6B3F0E5136D
:1005C600802DE50C90E6B3F0E50D8023E50E90E670
:1005D600B3F0E50F801990E6BAE0FF121E81AA0675
:1005E600A9077B01EA494B600DEE90E6B3F0EF9068
:1005F600E6B4F002078202077B12216E020782121E
:100606002257020782121B1B02078212215C020775
:100616008212227D400302078290E6B8E0247F60C2
:100626001514601924027063A206E43325E0FFA2C4
:1006360008E4334F8041E490E740F0803F90E6BC09
:10064600E0547EFF7E00E0D394807C0040047D0170
:1006560080027D00EC4EFEED4F24FBF58274213EB8
:10066600F583E493FF3395E0FEEF24A1FFEE34E635
:100676008F82F583E0540190E740F0E4A3F090E622
:100686008AF090E68B7402F002078202077B122240
:100696007F400302078290E6B8E024FE601624023B
:1006A600600302078290E6BAE0B40105C2060207BB
:1006B6008202077B90E6BAE0705590E6BCE0547E75
:1006C600FF7E00E0D394807C0040047D0180027DA3
:1006D60000EC4EFEED4F24FBF58274213EF583E4DB
:1006E60093FF3395E0FEEF24A1FFEE34E68F82F50B
:1006F60083E054FEF090E6BCE05480131313541FBD
:10070600FFE0540F2F90E683F0E04420F0806D80E8
:1007160064122281506690E6B8E024FE6019240235
:10072600705A90E6BAE0B40104D206804F90E6BA59
:10073600E064026047803E90E6BCE0547EFF7E00A7
:10074600E0D394807C0040047D0180027D00EC4E65
:10075600FEED4F24FBF58274213EF583E493FF33CF
:1007660095E0FEEF24A1FFEE34E68F82F583800844
:10077600120080500790E6A0E04401F090E6A0E069
:030786004480F0BC
:01078900224D
:030033000216FBB7
:0416FB0053D8EF329F
:1020AA00758CE0758AC0E58954F04401F589758E0E
:0820BA0003D28CD2A9D2AF229F
:03000B000217AB2E
:1017AB00C0E0C0F0C083C082C0D075D000C000C004
:1017BB0001C002C003C004C005C006C007758CE0A1
:1017CB00758AC0D28CE47F607EEAFDFCAB5BAA5AC3
:1017DB00A959A858C3120B315019AF5BAE5AAD596A
:1017EB00AC58EF2401F55BE43EF55AE43DF559E4C2
:1017FB003CF558E47F01FEFDFCAB5BAA5AA959A846
:10180B0058C3120B317008E5A054F02534F5A0E550
:10181B002A2401FFE43529FEE4FCFDAB5BAA5AA99F
:10182B0059A858C3120B31700553A0F0C28CD007C6
:10183B00D006D005D004D003D002D001D000D0D038
:09184B00D082D083D0F0D0E0324D
:03003B00021A4F57
:101A4F00C0E0C083C082C0D075D000C006C00730D0
:101A5F00C041C2C085C114052EE52E7002052DD3DD
:101A6F00E52E94F4E52D648094814006752D007564
:101A7F002E00AE2DAF2EEE90F800F0AE2DAF2EEF64
:101A8F00A3F0AE2DAF2E74012FF58274F83EF583BF
:101A9F00E514F030C105C2C185C114D007D006D0FE
:081AAF00D0D082D083D0E032D8
:03002300021B7A43
:101B7A00C0E0C083C082C0D075D000C0073098369C
:101B8A00C298859915052CE52C7002052BD3E52CF6
:101B9A00940EE52B648094804006752B00752C000A
:101BAA00AF2C90E7F0EFF0AF2C74F02FF582E4340D
:101BBA00E7F583E515F0D007D0D0D082D083D0E006
:011BCA0032E8
:1017000012010002000000401816711600000102CC
:1017100000010A0600020000004001000902350035
:1017200001010080FA0904000005FF000000070520
:101730000102400000070582020002000705810245
:1017400040000007058602000200070508020002AB
:101750000009022E0001010080FA0904000004FFC4
:10176000000000070501024000000705820240005A
:101770000007050202000200070581024000000484
:1017800003090410035100480059002D0043004391
:101790000044001603510048005900320038002070
:0B17A0000020002000200020000000BE
:1010E90060802800030A03030202030700000002CC
:1010F900000002000B2A0A12101410100000000050
:101109000000003F020A0303030303070000000273
:10111900000002000B2A120A10141010000000002F
:101129000000003F032D030303030307000000022F
:10113900000002000B2A0A1210141010000000000F
:101149000000003F030A0A0A0A0A0A07000000020F
:10115900000002000B2A120A1014101000000000EF
:101169000000003F60242887000000000000000004
:101179000000000000000000000000000000000066
:1011890000000000000000000000000047288080E7
:06119900000010CA4E0028
:1014FE0090E60174CAF090E6F574FFF0902880E053
:10150E0090E6F3F0902881E090E6C3F0902882E018
:10151E0090E6C1F0902883E090E6C2F0902885E036
:10152E0090E6C0F0902886E090E6F4F075AF077470
:10153E0028F59A7400F59B759DE4E4F59EFF90E600
:10154E007BE090E67CF00FBF80F490E67174FFF0C4
:10155E00F5B490E672E04480F043B680000000E4FB
:10156E0090E6C4F000000090E6C5F0902887E09069
:10157E00E6C6F0902888E090E6C7F0902889E090C3
:10158E00E6C8F090288AE090E6C9F090288BE090AB
:10159E00E6CAF090288CE090E6CBF090288DE09093
:0B15AE00E6CCF090288EE090E6CDF037
:0115B900220F
:03004300021600A2
:0300530002160092
:101600000220C20002211F00022109000220DA008C
:10161000021D5400021C68000216FF000222830013
:101620000222840002228500021CA500020B7B001E
:1016300002228600022287000216B800020FEC0088
:1016400002228800022283000222890002228A00EC
:1016500002228B0002228C0002228D0002228E00C8
:1016600002228F00022283000222830002228300D2
:101670000222900002229100022292000222930094
:101680000222940002229500022296000222970074
:10169000022298000222990002229A0002229B0054
:1016A00002229C0002229D0002229E0002229F0034
:0816B0000222A0000222A100A9
:101E550090E682E030E004E020E60B90E682E03098
:101E6500E119E030E71590E680E04401F07F147E4B
:0C1E7500001215BA90E680E054FEF02246
:101FC90090E682E044C0F090E681F043870100008A
:041FD90000000022E2
:101E2600300A0990E680E0440AF0800790E680E0F8
:101E36004408F07FDC7E051215BA90E65D74FFF06B
:0F1E460090E65FF05391EF90E680E054F7F022C2
:021E8100A907AF
:101E8300AE16AF178F828E83A3E064037017AD0184
:101E930019ED7001228F828E83E07C002FFDEC3ED2
:091EA300FEAF0580DF7E007F0028
:011EAC002213
:1015BA008E748F7590E600E054187012E575240158
:1015CA00FFE43574C313F574EF13F575801590E6CF
:1015DA0000E05418FFBF100BE57525E0F575E574BA
:1015EA0033F574E5751575AE74700215744E6005A1
:0615FA00121FDD80EE224D
:101FDD007400F58690FDA57C05A3E582458370F917
:011FED0022D1
:10119F00C18202311040C100014E00C105C10404DB
:1011AF005400000000044A00000000014700012520
:1011BF0000043F000000000437000000000135006C
:0B21E500E5B15440C413135403FF2263
:10078A0090E600E054E74410F000000000000090FA
:10079A00E61074A0F000000090E60B7401F090E6F9
:1007AA001274E0F0000000E490E613F000000090FC
:1007BA00E61474E2F000000090E61574A0F0000060
:1007CA000090E6D27402F090E6047480F000000013
:1007DA007402F00000007406F00000007408F000D3
:1007EA000000E4F00000001214FE90E6187408F00D
:1007FA0000000090E619F000000090E61AF00000F0
:10080A000090E61BF0000000E490E670F075B2FF7D
:10081A007580FF90E671F075B47F75A0FF90E6725F
:10082A00F075B6BF75B11FC28CD28753A0FD1222D4
:10083A006790E61074A0F000000090E611F0000046
:10084A000090E65EE04408F0000000E490E68DF0D7
:10085A0000000090E65EE04404F0000000E490E747
:10086A00C0F090E7C4F0A3F0A3F0A3F090E7F0F093
:10087A0090E68F7440F000000090E65EE04440F09D
:10088A000000007E027F0090F800E4F0A3DFFCDEA7
:10089A00FA90E6987402F0000000E490E699F000FD
:1008AA0000007E027F0090F800E4F0A3DFFCDEFA8D
:1008BA0090E65EE04480F0000000E490E69CF000E0
:1008CA00000090E69DF00000007F9AFE12220F754C
:1008DA0027007528B4754F0175509075311075321F
:1008EA00B875520675532C12225F90E67AE054FED0
:1008FA00F0E4FD7F901221807F647E001215BA7D9C
:10090A00FF7F421221807F647E001215BA7D827FAA
:10091A004E1221807536FF43B108E4F53D90E78217
:10092A00E536F090E781E53DF01220F2E4F52BF58B
:10093A002C121F2CE4F52DF52E1222671220347F7B
:10094A00887E13121FFC1220347F887E13121FFC2C
:10095A001220347F887E13121FFC1221CC121854E5
:10096A007F55121CE17F887E13121FFCD2F9C2F850
:0C097A00E4F54790E7C0E547F053A0F714
:01098600224E
:0E21A400EF2401FBE43EFA7D047F4802207226
:1019DF00E53DC313FFC374809FF574E53DD39400B9
:1019EF0040067536FF43B108E53D700353B1F77EEE
:1019FF00297F0B1221A490290CE090E7C1F09029C8
:101A0F000DE090E7C2F09028EBE536F07A287BEBFB
:101A1F007D017F2112208E9028EB7402F0A3748039
:101A2F00F07A287BEB7D027F2812208EE49028EB42
:101A3F00F0A3E574F07A287BEB7D027F2802208EDD
:1011D000E5572401F557E43556F556E43555F555F0
:1011E000E43554F554E54D2401F54DE4354CF54C0A
:1011F000E4354BF54BE4354AF54AE47FE87E03FDE0
:10120000FCAB57AA56A955A854C3120B31700F90C6
:1012100028EBF07A287BEB7D017F4812208EE47F5B
:10122000107E27FDFCAB57AA56A955A854C3120B34
:101230003170161219DF90E6907402F0E490E69196
:10124000F0F557F556F555F554300153754701E55E
:10125000B130E6032005F890F00074AAF0A37411F1
:10126000F0A374CCF0A374EEF0E490E690F090E676
:10127000917405F01212A090F00074AAF0A37411FA
:10128000F0A374CCF0A374EEF0E490E690F090E656
:10129000917405F0C201E4F54790E7C0E547F022FC
:02227700D32270
:02227900D3226E
:02227B00D3226C
:101B1B0090E680E030E73A00000090E6207402F097
:101B2B00000000E490E621F000000090E62474022F
:101B3B00F0000000E490E625F000000090E626742B
:101B4B0002F0000000E490E627F0000000D20280D3
:101B5B0016000000E490E620F000000090E62174EF
:0F1B6B0040F0000000C20290E6BAE0F548D32235
:10215C0090E740E548F0E490E68AF090E68B04F0D6
:02216C00D3227C
:0822570090E6BAE0F526D3225F
:10216E0090E740E526F0E490E68AF090E68B04F0E6
:02217E00D3226A
:02227D00D3226A
:02227F00D32268
:02228100D32266
:10008000E4F570F57190E6B9E0120B5500B1B300DC
:10009000E9B502BFB602F7BB033EBC03E7C1039F4D
:1000A000C20465C50484C604B9CA04FACB000005BD
:1000B00062E490E68AF090E68BF090E6A0E020E122
:1000C000F990E68BE0F570E4F5B390E60174CAF0C0
:1000D000D20100000090E6047480F0000000740279
:1000E000F0000000E4F0020564E490E68AF090E697
:1000F0008BF090E6A0E020E1F990E68BE0F570D37C
:10010000943F4024E4F57174402571F582E434E7AE
:10011000F583E0FF74AB2571F582E43428F583EFB5
:10012000F00571E571B440DF7F8A7E0012220F90E6
:1001300028ABE0FF7E001222189028ABE0FF7E0083
:100140001222219028ABE0FF7E0012222A9028ACD8
:10015000E075F004A4FFAEF01222339028ACE075F5
:10016000F004A4FFAEF012223C9028ACE075F0043D
:10017000A4FFAEF01222459028B0E0C394025013C1
:100180009028CCE090E6C07005744EF08016749C08
:10019000F080119028CCE090E6C07005749FF0804C
:1001A00003749DF09028CEE0F53E9028CBE0F53C1E
:1001B0009028CFE0F5499028D9E0F53BA3E0FEA3D5
:1001C000E07C002400F524EC3EF5239028B1E0F516
:1001D00033E53370037533019028B6E0FEA3E07C6D
:1001E000002400F528EC3EF527A3E0FEA3E0240060
:1001F000F550EC3EF54F9028B2E0FEA3E02400F568
:1002000032EC3EF531A3E0FEA3E02400F553EC3ED2
:10021000F5529028E6E0FFE4FDFEFBFAF9780112C2
:100220000ACCA804A905AA06AB079028BCE0FEA347
:10023000E07C002400FFEC3EFEE4FDEB2FFFEA3EF5
:10024000FEED39FDEC38FCC004C005C006C00790C7
:1002500028E7E0FFE4FCFDFEFBFA7901F8120ACC86
:10026000D003D002D001D000EF2BF546EE3AF54591
:10027000ED39F544EC38F5439028BAE0FEA3E07C74
:10028000002400F530EC3EF52F9028E0E0540FF507
:1002900035E4FD7F901221809028ACE0FCA3E0FDC6
:1002A000A3E0FEA3E0F5428E418D408C3FE542F590
:1002B00042E541F541E540F540E4F53F020564E4DF
:1002C000F57174AB2571F582E43428F583E0FF7491
:1002D000402571F582E434E7F583EFF00571E571AF
:1002E000B440DF000000E490E68AF000000090E6F1
:1002F0008B7440F0020564E490E68AF090E68BF09F
:1003000090E6A0E020E1F978EB7C287D017B017A82
:10031000E679BC7E007F01120A5790E6BEE0FF7EC0
:100320000078EC7C287D017B017AE77940120A573E
:1003300090E6BAE0C313FF90E6BEE0048059E49073
:10034000E68AF090E68BF090E6A0E020E1F978EB09
:100350007C287D017B017AE679BD7E007F01120A4F
:100360005778EC7C287D017B017AE679BC7E007FA2
:1003700001120A5790E6BEE0FF7E0078ED7C287DF2
:10038000017B017AE77940120A5790E6BAE0C3137D
:10039000FF90E6BEE02402FD7A287BEB02055D902B
:1003A000E7407406F0A3741BF0A3740CF0A374264A
:1003B000F0A37407F0A374EEF0A37401F0A3740328
:1003C000F0A37453F0300205E4A3F0800690E749EF
:1003D00074FFF0000000E490E68AF000000090E670
:1003E0008B740AF0020564E490E68AF090E68BF0E4
:1003F00090E6A0E020E1F990E68BE0F570C298D39A
:100400009400500302056490E740E0940A5007E02E
:100410002430FF1221B290E740E0B40A057F611258
:1004200021B290E740E0B40B057F621221B290E761
:1004300040E0B40C057F631221B290E740E0B40DB8
:10044000057F641221B290E740E0B40E057F65128B
:1004500021B290E740E0640F60030205647F6612FA
:1004600021B20205647AE77B407D047F4812207246
:10047000000000E490E68AF000000090E68B74042F
:10048000F0020564E490E68AF090E68BF090E6A036
:10049000E020E1F990E68BE0F570D394015003027F
:1004A000056490E741E0FD7F4212218090E740E043
:1004B000FD7F4E12218002056490E6BCE090290B7E
:1004C000F07A297B0B7D017F5012208E7A297B0BDD
:1004D0007D017F5012208E90E6BEE0FD7AE77B40E2
:1004E0007F50122072E490E68AF000000090E6BE91
:1004F000E090E68BF0000000806AE490E68AF0006D
:10050000000090E68BF000000090E6A0E020E1F90A
:1005100090E6BCE0D39407404B78EB7C287D017BD0
:10052000017AE679BC7E007F01120A5790E6BEE0B0
:10053000FF7E0078EC7C287D017B017AE779401210
:100540000A5790E6BEE004FD7A287BEB7F5012202C
:100550008E90E6BEE004FD7A287BEB7F5012208E61
:050560008002D322C35C
:010565002273
:1020C200C0E0C083C082D2075391EF90E65D7401F5
:0820D200F0D082D083D0E0328F
:10210900C0E0C083C0825391EF90E65D7404F0D0C3
:0621190082D083D0E03209
:10211F00C0E0C083C0825391EF90E65D7402F0D0AF
:06212F0082D083D0E032F3
:101D5400C0E0C083C08285100C85110D850D82857D
:101D64000C83A37402F085080E85090F850F828504
:101D74000E83A37407F05391EF90E65D7410F0D0D6
:061D840082D083D0E032A2
:1020DA00C0E0C083C082D2095391EF90E65D7408D4
:0820EA00F0D082D083D0E03277
:101C6800C0E0C083C08290E680E030E72085080CA1
:101C780085090D850D82850C83A37402F085100EED
:101C880085110F850F82850E83A37407F05391EF9A
:0D1C980090E65D7420F0D082D083D0E03261
:0116FF0032B8
:012283003228
:012284003227
:012285003226
:101CA500C0E0C083C08290E65EE054FBF000000017
:101CB50090E68F7440F0000000752B00752C0090A5
:101CC500E7F0E4F05391EF90E65FE04404F090E62E
:0C1CD5005EE04404F0D082D083D0E03206
:100B7B00C0E0C0F0C083C082C0D075D000C000C040
:0D0B8B0001C002C003C004C005C006C007C1
:100B980090E65EE054F7F090E6A1E020E1F990E7F6
:100BA80080E0FF120B550BCD000BD3010BE2300C8C
:100BB80016310C5A320C98330CC9340CF4FE0CFE66
:100BC800FF00000D03752200020D0390E782E0F597
:100BD8003690E781E0F53D020D03755C00755D0117
:100BE80090E68DE0FFC3E55D9F7480F8655C9840F2
:100BF80003020D037480255DF582E434E7F583E094
:100C0800FF1221BF055DE55D70D6055C80D290E7D7
:100C180081E07006758DB2020D0390E781E0B401A2
:100C280006758D64020D0390E781E0B40206758DA8
:100C3800D9020D0390E781E0B40306758DE6020D35
:100C48000390E781E064046003020D03758DF302ED
:100C58000D0390E781E07006122034020D0390E73F
:100C680081E0B40106122013020D0390E781E0B47D
:100C78000206121ED8020D0390E781E0B4030512A4
:100C88002053807790E781E0F470701221CC806B5C
:100C9800755C00755D0190E68DE0FFC3E55D9F74AE
:100CA80080F8655C9850547480255DF582E434E7DB
:100CB800F583E0FF1221B2055DE55D70D9055C8022
:100CC800D590E781E0F46011E024B0FF122149E4F7
:100CD800FF1221497F1012214990E7817440F07A70
:100CE800E77B817D217F3C12208E800F90E781E099
:100CF80024FF92058005752200D20300000090E6CB
:100D08008DE4F05391EF90E65FE04408F090E65EE2
:040D1800E04408F0BB
:100D1C00D007D006D005D004D003D002D001D0002B
:0B0D2C00D0D0D082D083D0F0D0E032D5
:012286003225
:012287003224
:1016B800C0E0C083C08290E65EE054BFF000000046
:1016C80090E6987402F000000090E699E4F00000BB
:1016D80000F52DF52E90F800F0A3F05391EF90E669
:1016E8005FE04440F090E65EE04440F0D082D08372
:0316F800D0E0320D
:100FEC00C0E0C0F0C083C082C0D075D000C000C0CB
:0D0FFC0001C002C003C004C005C006C0074C
:1010090090E65EE0547FF090E6A6E020E1F990E6F4
:101019009CE0FE90E69DE07C002400F55DEC3EF549
:101029005CE55D6405455C704D90FC00E0B4EE1430
:10103900A3E0B4440FA3E0B4880AA3E07006A3E0D8
:1010490064336064755E00755F00C3E55F955DE5B7
:101059005C6480F8E55E648098504D7400255FF506
:101069008274FC355EF583E0FF1221BF055FE55F01
:1010790070D8055E80D4755E00755F00C3E55F9525
:101089005DE55C6480F8E55E648098501B7400251A
:101099005FF58274FC355EF583E0FF1221BF055FC1
:1010A900E55F70D8055E80D400000090E69CE4F00E
:1010B90090E69DF05391EF90E65FE04480F090E672
:0510C9005EE04480F030
:1010CE00D007D006D005D004D003D002D001D00076
:0B10DE00D0D0D082D083D0F0D0E03220
:012288003223
:012289003222
:01228A003221
:01228B003220
:01228C00321F
:01228D00321E
:01228E00321D
:01228F00321C
:01229000321B
:01229100321A
:012292003219
:012293003218
:012294003217
:012295003216
:012296003215
:012297003214
:012298003213
:012299003212
:01229A003211
:01229B003210
:01229C00320F
:01229D00320E
:01229E00320D
:01229F00320C
:0122A000320B
:0122A100320A
:06136D008F728C738D7479
:1013730053720753A0BF7F0A7E00121FFCE4F5756A
:10138300F576C374029576FFE572A807088002C359
:1013930013D8FC30E00543A020800353A0DF7F0A6D
:1013A3007E00121FFC43A0107F0A7E00121FFC5315
:1013B300A0EF7F0A7E00121FFC0576E5767002051A
:1013C30075C39403E5756480948040B6E4F575F5C0
:1013D30076C374099576FFE574AE73A80708800594
:1013E300CEC313CE13D8F930E00543A020800353B6
:1013F300A0DF7F0A7E00121FFC43A0107F0A7E003D
:10140300121FFC53A0EF7F0A7E00121FFC0576E536
:101413007670020575C3940AE5756480948040B1C3
:1014230043A0407F0A7E00121FFC53A0BF7F0A7EA9
:0414330000021FFC98
:09220F00AD07AC06E4FF02136DFB
:09221800AD07AC067F0402136D52
:09222100AD07AC067F0502136D48
:09222A00AD07AC067F0602136D3E
:09223300AD07AC067F0102136D3A
:09223C00AD07AC067F0202136D30
:09224500AD07AC067F0302136D26
:102180009028EBEDF0EFC313FF7A287BEB7D010283
:02219000208E9F
:101F54009028EB7402F0A37480F07A287BEB7D0266
:101F64007F2812208EE49028EBF0A3F07A287BEBF4
:071F74007D027F2802208E90
:10214900E49028EBF0A3EFF07A287BEB7D027F3C4B
:0321590002208ED3
:102135009028EB7440F0A3EFF07A287BEB7D027FCB
:042145003C02208EAA
:101854007FAE1221497F041221497F101221497F52
:10186400401221497FB01221497F811221497F8092
:101874001221497FA11221497FA61221497FA81272
:1018840021497F3F1221497FAD1221497F8B1221CB
:10189400497F301221497FC81221497FD31221493F
:1018A400E4FF1221497FD51221497F801221497F0B
:1018B400D91221497F221221497FDA1221497F025C
:1018C4001221497F8D1221497F141221497FDB1295
:0C18D40021497F401221497FAF022149C9
:021CE1008F7002
:101CE300E4FF1221497F10122149E4F572E57224C1
:101CF300B6FF122149E4FF1221497F10122149E462
:101D0300F571AF701221350571E571C3946040F22E
:091D13000572E572C3940240D48C
:011D1C0022A4
:0E1FEE007FFC7E08121FFC1221F77FFC7E088C
:101FFC00EF7803C333CE33CED8F9FFEF4E6007EF43
:07200C001F70F81E80F52291
:0122A2002219
:0122A3002218
:0122A4002217
:0122A5002216
:042267007580E32279
:101AB7007580E27F027E00121FFC7580EA7F027E3E
:101AC70000121FFC7580CA7F027E00121FFC758002
:101AD700CE7F027E00121FFC7580EC7F027E001213
:101AE7001FFC7580CE7F027E00121FFC7580C67FAB
:101AF700027E00121FFC7580C77F027E00121FFC4A
:101B07007580C37F027E00121FFC7580E37F027E13
:041B170000021FFCAD
:101BCB007580E27F017E00121FFC7580EA7F017E2B
:101BDB0000121FFC7580CA7F017E00121FFC7580EE
:101BEB00CE7F017E00121FFC7580C67F017E001226
:101BFB001FFC7580C77F017E00121FFC7580C37FA1
:101C0B00017E00121FFC7580E37F017E00021FFC2A
:10219200E4FDFC121BCB0DBD00010CBC0DF5BD0412
:0121A200F24A
:0121A3002219
:0C21D900C2867F057E00121FFCD2862209
:0A2205001220131221CC43B1202255
:09224E0053B1DF1220530221CC30
:1014370085423A854139854038853F37122267E52D
:1014470030452F70061221D943B180E53CB4010520
:10145700C28743B120E53E60030214EA752201E426
:101467007FE87E03FDFCAB3AAA39A938A837C31237
:101477000B314061E5226401705B7FDD7E0312154D
:10148700BA1219DFE53A2418F53AE53934FCF5398B
:10149700E53834FFF538E53734FFF537E4FFFEFD6F
:1014A700E537FC7818120B4290E7C4EFF0E4FFFE33
:1014B700E538FDE4FC7810120B42A3EFF0E4FFE5FA
:1014C70039FEE4FDFC7808120B42A3EFF0E53AFF82
:1014D700A3EFF0808AE522B40112AE39AF3A1215B4
:1014E700BA8009752201E522640160FA53B1DFE58C
:0714F7003CB40102D2872280
:10196C008F778E768D758C74E4FFFEFDFCAB77AAB9
:10197C0076A975A874D3120B314057000000E4FF10
:10198C00FEFDE574FC7818120B4290E6CEEFF000E9
:10199C000000E4FFFEE575FDE4FC7810120B4290AC
:1019AC00E6CFEFF0000000E4FFE576FEE4FDFC7806
:1019BC0008120B4290E6D0EFF0000000E577FF90A4
:1019CC00E6D1EFF000000075BB04000000E5BB3071
:0319DC00E7FB2204
:081D1D008C748D75AB07AA065A
:101D2500E4FDFCC3ED9575EC95745022EA90E6D080
:101D3500F0000000EB90E6D1F000000075BB050057
:0E1D45000000E5BB30E7FB0DBD00010C80D5B2
:011D5300226D
:101F0300AD07AC06000000ED25E0EC3390E6D0F021
:101F1300000000ED25E090E6D1F000000075BB0461
:091F2300000000E5BB30E7FB22E1
:101C1B00E47F297E01FDFCAB42AA41A940A83FD33A
:101C2B00120B314026E54224D7F542E54134FEF54F
:101C3B0041E54034FFF540E53F34FFF53F121437E3
:101C4B00E530452F7011122192800CE530452F7035
:0D1C5B000312219212143753B17F021AB701
:1012A000C20375470290E7C0E547F01221D9121C2E
:1012B0001B122192121AB775470390E7C0E547F059
:1012C00030030302136CE4F572F573C3E5739528DC
:1012D000E5729527500D121BCB0573E57370EC0575
:1012E0007280E8E53BD39400400CE53BFD7C00AF09
:1012F00032AE31121D1DD3E5249400E52394004045
:1013000007AF24AE23121F03E4F570F571C3E57136
:101310009553E5709552502C121EADE4F572F5739D
:10132000C3E57395337480F8657298500D121BCB2A
:101330000573E57370EA057280E60571E57170CD9D
:10134000057080C9E4F572F573C3E5739550E572D5
:10135000954F500D121BCB0573E57370EC05728031
:0C136000E8AF46AE45AD44AC4312196C3A
:01136C00225E
:101EAD00000000E53225E0E5313390E6D0F000008A
:101EBD0000E53225E090E6D1F000000075BB04008E
:0B1ECD000000E5BB20E7033003F82213
:1020F200E490E608F075C83443985053877FD2AC19
:0721020075CBFF75CA6422D2
:0D21B200309902C2998F993099FDC299228F
:101F7B0090000020981CA3AF82AE83E4FCFD7BFA9B
:101F8B007AFFF9F8C3120B1B5004D2008004C20075
:061F9B0080E1C298AF993D
:011FA100221D
:101F2C00E490E608F0D28E53897F5389BF43892011
:101F3C005389EF438E10758DB243C05043D880C285
:081F4C00C0C2C1D2AED2AF2227
:0D21BF0030C102C2C18FC130C1FDC2C122BA
:101FA20090000020C01CA3AF82AE83E4FCFD7BFA4C
:101FB2007AFFF9F8C3120B1B5004D2008004C2004E
:061FC20080E1C2C0AFC1C6
:011FC80022F6
:04226B0075B009221F
:04226F0075B0032221
:0422730075B006221A
:0721F0007FC47E09121FFCF1
:0421F70075B00C2291
:0D21CC00E4F5B07525FF90E7CBE525F02286
:10203400121FF512226B121FF812226F121FF812D0
:0F2044002273121FEEE4F52590E7CBE525F0227D
:10205300121FF5122273121FF812226F121FF812A9
:0F206300226B121FEE75250390E7CBE525F022C7
:1020130012226F7FC47E09121FFC12226B1221F061
:102023007FC47E09121FFC75250190E7CBE525F0DF
:01203300228A
:101ED80012226B7FC47E09121FFC12226F7FC47E00
:101EE80009121FFC1222731221F07FC47E09121FEF
:0B1EF800FC75250290E7CBE525F022E9
:08225F00E4F51DD2E9D2AF2223
:101D8A0090E678E020E6F9C2E990E678E04480F04F
:101D9A00EF25E090E679F090E678E030E0F990E619
:101DAA0078E04440F090E678E020E6F990E678E0C2
:061DBA0030E1D6D2E9225F
:101DF400A90790E678E020E6F9E51D702390E678DF
:101E0400E04480F0E925E090E679F08D18AF03A96D
:101E1400077519018A1A891BE4F51C751D01D32263
:021E2400C322D7
:101DC000A90790E678E020E6F9E51D702590E67811
:101DD000E04480F0E925E0440190E679F08D18AF09
:101DE00003A9077519018A1A891BE4F51C751D03DF
:041DF000D322C32215
:03004B00020EE4BE
:100EE400C0E0C083C082C085C084C086758600C04F
:100EF400D075D000C000C001C002C003C006C00746
:100F040090E678E030E206751D06020FCE90E67892
:100F1400E020E10CE51D64026006751D07020FCE9A
:100F2400E51D24FE605F14603624FE7003020FBFCB
:100F340024FC7003020FCB24086003020FCEAB190C
:100F4400AA1AA91BAF1C051C8F82758300120A7D87
:100F540090E679F0E51C65187070751D05806B903E
:100F6400E679E0AB19AA1AA91BAE1C8E8275830020
:100F7400120AAA751D02E5186401704E90E678E025
:100F84004420F08045E51824FEB51C0790E678E07F
:100F94004420F0E51814B51C0A90E678E04440F0CB
:100FA400751D0090E679E0AB19AA1AA91BAE1C8E38
:100FB40082758300120AAA051C800F90E678E0442B
:100FC40040F0751D008003751D005391DFD007D0DC
:100FD40006D003D002D001D000D0D0D086D084D0A7
:080FE40085D082D083D0E032F9
:10207200121DC0E51D24FA600E146006240770F3D9
:0C208200D322E4F51DD322E4F51DD32287
:10208E00121DF4E51D24FA600E146006240770F389
:0C209E00D322E4F51DD322E4F51DD3226B
:030000000218E003
:0C18E000787FE4F6D8FD758177021927A7
:10098700E709F608DFFA8046E709F208DFFA803E52
:1009970088828C83E709F0A3DFFA8032E309F6083F
:1009A700DFFA8078E309F208DFFA807088828C83A7
:1009B700E309F0A3DFFA806489828A83E0A3F6085B
:1009C700DFFA805889828A83E0A3F208DFFA804C35
:1009D70080D280FA80C680D4806980F2803380100C
:1009E70080A680EA809A80A880DA80E280CA803375
:1009F70089828A83ECFAE493A3C8C582C8CCC583ED
:100A0700CCF0A3C8C582C8CCC583CCDFE9DEE780BC
:100A17000D89828A83E493A3F608DFF9ECFAA9F03B
:100A2700EDFB2289828A83ECFAE0A3C8C582C8CC91
:100A3700C583CCF0A3C8C582C8CCC583CCDFEADEAA
:100A4700E880DB89828A83E493A3F208DFF980CC0C
:100A570088F0EF60010E4E60C388F0ED2402B40405
:100A67000050B9F582EB2402B4040050AF232345AC
:060A770082239009D773F1
:100A7D00BB010CE58229F582E5833AF583E022502E
:100A8D0006E92582F8E622BBFE06E92582F8E22278
:0D0A9D00E58229F582E5833AF583E4932292
:100AAA00F8BB010DE58229F582E5833AF583E8F082
:100ABA00225006E92582C8F622BBFE05E92582C82E
:020ACA00F22216
:100ACC00E88FF0A4CC8BF0A42CFCE98EF0A42CFCC9
:100ADC008AF0EDA42CFCEA8EF0A4CDA8F08BF0A447
:100AEC002DCC3825F0FDE98FF0A42CCD35F0FCEBA6
:100AFC008EF0A4FEA9F0EB8FF0A4CFC5F02ECD396B
:0F0B0C00FEE43CFCEAA42DCE35F0FDE43CFC22D7
:100B1B00EB9FF5F0EA9E42F0E99D42F0EC6480C851
:060B2B0064809845F022F1
:100B3100EB9FF5F0EA9E42F0E99D42F0E89C45F01A
:010B41002291
:100B4200E8600FECC313FCED13FDEE13FEEF13FF91
:030B5200D8F122B5
:100B5500D083D082F8E4937012740193700DA3A32F
:100B650093F8740193F5828883E473740293686043
:060B7500EFA3A3A380DF43
:1018EC00020D37E493A3F8E493A34003F68001F2CE
:1018FC0008DFF48029E493A3F85407240CC8C333FD
:10190C00C4540F4420C8834004F456800146F6DFCB
:10191C00E4800B01020408102040809010E9E47E62
:10192C00019360BCA3FF543F30E509541FFEE493C0
:10193C00A360010ECF54C025E060A840B8E493A387
:10194C00FAE493A3F8E493A3C8C582C8CAC583CAB2
:10195C00F0A3C8C582C8CAC583CADFE9DEE780BE6A
:0111CF00001F
:00000001FF
