:0A200E0000010202030304040505AB
:100B4500E4F569F568F567F566C209C206C208C22B
:100B550007121EE11209787E167F008E0A8F0B752B
:100B6500121675131275081675091C751016751170
:100B75005175161675177FEE54E07003020C8C75CF
:100B85006A00756B808E6C8F6DC374A99FFF741698
:100B95009ECF2402CF3400FEE48F658E64F563F5A5
:100BA50062F561F560F55FF55EAF65AE64AD63ACAA
:100BB50062AB61AA60A95FA85EC312092E5026E543
:100BC5006B2561F582E56A3560F58374CDF0E561E5
:100BD5002401F561E43560F560E4355FF55FE435E2
:100BE5005EF55E80C4E4F561F560F55FF55EAF65C1
:100BF500AE64AD63AC62AB61AA60A95FA85EC312C7
:100C0500092E5031AE60AF61E56D2FF582E56C3E82
:100C1500F583E0FDE56B2FF582E56A3EF583EDF0A2
:100C2500EF2401F561E43EF560E4355FF55FE435F9
:100C35005EF55E80B9856A0A856B0B74002480FFBA
:100C4500741634FFFEC3E5139FF513E5129EF512E6
:100C5500C3E50D9FF50DE50C9EF50CC3E50F9FF55E
:100C65000FE50E9EF50EC3E5099FF509E5089EF50E
:100C750008C3E5119FF511E5109EF510C3E5179F13
:100C8500F517E5169EF516D2E843D82090E668E0FC
:100C95004409F090E65CE0443DF0D2AF90E680E098
:100CA50020E105D20A121CBD90E680E054F7F0530E
:100CB5008EF8C209300705120560C20730092912EE
:100CC500206B5024C209121E5F20061690E682E0B2
:100CD50030E704E020E1EF90E682E030E604E02032
:0D0CE500E0E4121CEC12206D1214B880C760
:1005600090E6B9E0700302061114700302068E24AF
:10057000FE700302071124FB700302060B147003C4
:100580000206051460731460762405600302077088
:1005900012206F400302077C90E6BBE024FE60223D
:1005A00014603324FD601114602224067048E50AAB
:1005B00090E6B3F0E50B8037E51290E6B3F0E51373
:1005C000802DE50C90E6B3F0E50D8023E50E90E676
:1005D000B3F0E50F801990E6BAE0FF121D18AA06E5
:1005E000A9077B01EA494B600DEE90E6B3F0EF906E
:1005F000E6B4F002077C020775121FA502077C1201
:10060000205702077C1219D502077C121F9302079C
:100610007C122071400302077C90E6B8E0247F60E2
:100620001514601924027063A206E43325E0FFA2CA
:1006300008E4334F8041E490E740F0803F90E6BC0F
:10064000E0547EFF7E00E0D394807C0040047D0176
:1006500080027D00EC4EFEED4F240EF58274203EAC
:10066000F583E493FF3395E0FEEF24A1FFEE34E63B
:100670008F82F583E0540190E740F0E4A3F090E628
:100680008AF090E68B7402F002077C020775122054
:1006900073400302077C90E6B8E024FE6016240253
:1006A000600302077C90E6BAE0B40105C2060207C7
:1006B0007C02077590E6BAE0705590E6BCE0547E87
:1006C000FF7E00E0D394807C0040047D0180027DA9
:1006D00000EC4EFEED4F240EF58274203EF583E4CF
:1006E00093FF3395E0FEEF24A1FFEE34E68F82F511
:1006F00083E054FEF090E6BCE05480131313541FC3
:10070000FFE0540F2F90E683F0E04420F0806D80EE
:1007100064122075506690E6B8E024FE6019240249
:10072000705A90E6BAE0B40104D206804F90E6BA5F
:10073000E064026047803E90E6BCE0547EFF7E00AD
:10074000E0D394807C0040047D0180027D00EC4E6B
:10075000FEED4F240EF58274203EF583E493FF33C3
:1007600095E0FEEF24A1FFEE34E68F82F58380084A
:10077000120080500790E6A0E04401F090E6A0E06F
:030780004480F0C2
:010783002253
:030033000213FCB9
:0413FC0053D8EF32A1
:101EE100758CE0758AC0E58954F04401F589758ED9
:081EF10003D28CD2A9D2AF226A
:03000B0002175584
:10175500C0E0C0F0C083C082C0D075D000C000C05A
:1017650001C002C003C004C005C006C007758CE0F7
:10177500758AC0D28CE47F607EEAFDFCAB59AA581D
:10178500A957A856C312092E5019AF59AE58AD57CF
:10179500AC56EF2401F559E43EF558E43DF557E420
:1017A5003CF556E47F01FEFDFCAB59AA58A957A8A4
:1017B50056C312092E7008E5A054F02533F5A0E5AF
:1017C500292401FFE43528FEE4FCFDAB59AA58A9FC
:1017D50057A856C312092E700553A0F0C28CD00726
:1017E500D006D005D004D003D002D001D000D0D08F
:0917F500D082D083D0F0D0E032A4
:03003B0002196D3A
:10196D00C0E0C083C082C0D075D000C006C00730B3
:10197D00C041C2C085C114052DE52D7002052CD3C3
:10198D00E52D94F4E52C648094814006752C00754A
:10199D002D00AE2CAF2DEE90F800F0AE2CAF2DEF4C
:1019AD00A3F0AE2CAF2D74012FF58274F83EF583A4
:1019BD00E514F030C105C2C185C114D007D006D0E1
:0819CD00D0D082D083D0E032BB
:030023000213AB1A
:1013AB00C0E0C083C082C0D075D000C00730983673
:1013BB00C298859915052BE52B7002052AD3E52BD1
:1013CB00940EE52A648094804006752A00752B00E4
:1013DB00AF2B90E7F0EFF0AF2B74F02FF582E434E6
:1013EB00E7F583E515F0D007D0D0D082D083D0E0DD
:0113FB0032BF
:1016000012010002000000401816512900000102DA
:1016100000010A0600020000004001000902350036
:1016200001010080FA0904000005FF000000070521
:101630000102400000070582020002000705810246
:1016400040000007058602000200070508020002AC
:101650000009022E0001010080FA0904000004FFC5
:10166000000000070501024000000705820240005B
:101670000007050202000200070581024000000485
:1016800003090410035100480059002D0043004392
:101690000044001603510048005900320039002070
:0B16A0000020002000200020000000BF
:1010770060802800030A030302020307000000023E
:10108700000002000B2A0A121014101000000000C2
:101097000000003F020A03030303030700000002E6
:1010A700000002000B2A120A1014101000000000A2
:1010B7000000003F032D03030303030700000002A2
:1010C700000002000B2A0A12101410100000000082
:1010D7000000003F030A0A0A0A0A0A070000000282
:1010E700000002000B2A120A101410100000000062
:1010F7000000003F60242887000000000000000077
:1011070000000000000000000000000000000000D8
:101117000000000000000000000000004728808059
:06112700000010CA4E009A
:1012EF0090E60174CAF090E6F574FFF0902880E064
:1012FF0090E6F3F0902881E090E6C3F0902882E02A
:10130F0090E6C1F0902883E090E6C2F0902885E047
:10131F0090E6C0F0902886E090E6F4F075AF077481
:10132F0028F59A7400F59B759DE4E4F59EFF90E611
:10133F007BE090E67CF00FBF80F490E67174FFF0D5
:10134F00F5B490E672E04480F043B680000000E40C
:10135F0090E6C4F000000090E6C5F0902887E0907A
:10136F00E6C6F0902888E090E6C7F0902889E090D4
:10137F00E6C8F090288AE090E6C9F090288BE090BC
:10138F00E6CAF090288CE090E6CBF090288DE090A4
:0B139F00E6CCF090288EE090E6CDF048
:0113AA002220
:03004300021400A4
:0300530002140094
:10140000021EF900021F5600021F4000021F1100B9
:10141000021BB900021B090002207700022078009D
:101420000220790002207A00021B4600020CF20022
:1014300002207B0002207C00021AC600020F7A0004
:1014400002207D000220780002207E0002207F0022
:1014500002208000022081000220820002208300FE
:101460000220840002207800022078000220780008
:1014700002208500022086000220870002208800CA
:101480000220890002208A0002208B0002208C00AA
:1014900002208D0002208E0002208F00022090008A
:1014A000022091000220920002209300022094006A
:0814B0000220950002209600C5
:101CEC0090E682E030E004E020E60B90E682E03003
:101CFC00E119E030E71590E680E04401F07F147EB6
:0C1D0C0000121A8090E680E054FEF022E5
:101E5F0090E682E044C0F090E681F04387010000F5
:041E6F00000000224D
:101CBD00300A0990E680E0440AF0800790E680E063
:101CCD004408F07FDC7E05121A8090E65D74FFF00B
:0F1CDD0090E65FF05391EF90E680E054F7F0222D
:021D1800A90719
:101D1A00AE16AF178F828E83A3E064037017AD01EE
:101D2A0019ED7001228F828E83E07C002FFDEC3E3C
:091D3A00FEAF0580DF7E007F0092
:011D4300227D
:101A80008E728F7390E600E054187012E573240193
:101A9000FFE43572C313F572EF13F573801590E60A
:101AA00000E05418FFBF100BE57325E0F573E572F5
:101AB00033F572E5731573AE72700215724E6005E0
:061AC000121E7380EE22ED
:101E73007400F58690FDA57C05A3E582458370F982
:011E8300223C
:10112D00C18202301040C100014C00C105C1040450
:10113D005200000000043600000000014A00044285
:0D114D0000000000043A0000000001340022
:0B200300E5B15440C413135403FF2246
:1009780090E600E054E74410F0000000000000900A
:10098800E61074A0F000000090E60B7401F090E609
:100998001274E0F0000000E490E613F0000000900C
:1009A800E61474E2F000000090E61574A0F0000070
:1009B8000090E6D27402F090E6047480F000000023
:1009C8007402F00000007406F00000007408F000E3
:1009D8000000E4F00000001212EF90E6187408F02E
:1009E80000000090E619F000000090E61AF0000000
:1009F8000090E61BF0000000E490E670F075B2FF8E
:100A08007580FF90E671F075B47F75A0FF90E6726F
:100A1800F075B6BF75B11FC28CD28753A0FD1220E6
:100A28006790E61074A0F000000090E611F0000056
:100A38000090E65EE04408F0000000E490E68DF0E7
:100A480000000090E65EE04404F0000000E490E757
:100A5800C0F090E7C4F0A3F0A3F0A3F090E7F0F0A3
:100A680090E68F7440F000000090E65EE04440F0AD
:100A78000000007E027F0090F800E4F0A3DFFCDEB7
:100A8800FA90E6987402F0000000E490E699F0000D
:100A980000007E027F0090F800E4F0A3DFFCDEFA9D
:100AA80090E65EE04480F0000000E490E69CF000F0
:100AB800000090E69DF00000007F9AFE1220187555
:100AC80026007527B4754D01754E90753010753137
:100AD800B875500675512C12205F90E67AE054FEE6
:100AE800F0E4FD7F90121FB77F647E00121A807DAC
:100AF800FF7F42121FB77F647E00121A807D827FBB
:100B08004E121FB77535FF43B108E4F54090E782F0
:100B1800E535F090E781E540F0121F29E4F52AF564
:100B28002B121DC2E4F52CF52D122067D2F9C2F85C
:0C0B3800E4F54A90E7C0E54AF053A0F74E
:010B4400228E
:0E1FDB00EF2401FBE43EFA7D047F48021EA9BC
:1018FD00E540C313FFC374809FF572E540D3940098
:10190D0040067535FF43B108E540700353B1F77ECE
:10191D00297F0B121FDB90290CE090E7C1F0902975
:10192D000DE090E7C2F09028EBE535F07A287BEBDF
:10193D007D017F21121EC59028EB7402F0A37480E7
:10194D00F07A287BEB7D027F28121EC5E49028EBF0
:10195D00F0A3E572F07A287BEB7D027F28021EC58D
:1014B800E5552401F555E43554F554E43553F55311
:1014C800E43552F552E47FE87E03FDFCAB55AA549F
:1014D800A953A852C312092E700F9028EBF07A284E
:1014E8007BEB7D017F48121EC5E47F107E27FDFC43
:1014F800AB55AA54A953A852C312092E700BF5551F
:10150800F554F553F5521218FD300153754A01E5AB
:10151800B130E6032005F890F00074AAF0A3741126
:10152800F0A374CCF0A374EEF0E490E690F090E6AB
:10153800917405F012115B90F00074AAF0A3741175
:10154800F0A374CCF0A374EEF0E490E690F090E68B
:10155800917405F0C201E4F54A90E7C0E54AF0222B
:02206B00D3227E
:02206D00D3227C
:02206F00D3227A
:1019D50090E680E030E73A00000090E6207402F0DF
:1019E500000000E490E621F000000090E624740277
:1019F500F0000000E490E625F000000090E6267473
:101A050002F0000000E490E627F0000000D202801A
:101A150016000000E490E620F000000090E6217436
:0F1A250040F0000000C20290E6BAE0F54BD32279
:101F930090E740E54BF0E490E68AF090E68B04F09E
:021FA300D32247
:0820570090E6BAE0F525D32262
:101FA50090E740E525F0E490E68AF090E68B04F0B2
:021FB500D32235
:02207100D32278
:02207300D32276
:02207500D32274
:10008000E4F56EF56F90E6B9E012095200B1B300E5
:10009000E9B502B9B602F1BB0338BC03E1C103996B
:1000A000C2045FC5047EC604B3CA04F4CB000005D5
:1000B0005CE490E68AF090E68BF090E6A0E020E128
:1000C000F990E68BE0F56EE4F5B390E60174CAF0C2
:1000D000D20100000090E6047480F0000000740279
:1000E000F0000000E4F002055EE490E68AF090E69D
:1000F0008BF090E6A0E020E1F990E68BE0F56ED37E
:10010000943F4024E4F56F7440256FF582E434E7B2
:10011000F583E0FF74AB256FF582E43428F583EFB7
:10012000F0056FE56FB440DF7F8A7E0012201890E3
:1001300028ABE0FF7E001220219028ABE0FF7E007C
:1001400012202A9028ABE0FF7E001220339028ACCA
:10015000E075F004A4FFAEF012203C9028ACE075EE
:10016000F004A4FFAEF01220459028ACE075F00436
:10017000A4FFAEF012204E9028B0E0C394025013BA
:100180009028CCE090E6C07005744EF08016749C08
:10019000F080119028CCE090E6C07005749FF0804C
:1001A00003749DF09028CEE0F5419028CBE0F53F18
:1001B0009028D9E0F53EA3E0FEA3E07C002400F502
:1001C00024EC3EF5239028B1E0F532E5327003755A
:1001D00032019028B6E0FEA3E07C002400F527EC75
:1001E0003EF526A3E0FEA3E02400F54EEC3EF54DDF
:1001F0009028B2E0FEA3E02400F531EC3EF530A3F8
:10020000E0FEA3E02400F551EC3EF5509028E6E036
:10021000FFE4FDFEFBFAF978011208C9A804A9055C
:10022000AA06AB079028BCE0FEA3E07C002400FFF8
:10023000EC3EFEE4FDEB2FFFEA3EFEED39FDEC382F
:10024000FCC004C005C006C0079028E7E0FFE4FC3E
:10025000FDFEFBFA7901F81208C9D003D002D001E3
:10026000D000EF2BF549EE3AF548ED39F547EC387B
:10027000F5469028BAE0FEA3E07C002400F52FECC0
:100280003EF52E9028E0E0540FF534E4FD7F901207
:100290001FB79028ACE0FCA3E0FDA3E0FEA3E0F5CF
:1002A000458E448D438C42E545F545E544F544E5EE
:1002B00043F543E4F54202055EE4F56F74AB256F48
:1002C000F582E43428F583E0FF7440256FF582E47D
:1002D00034E7F583EFF0056FE56FB440DF00000011
:1002E000E490E68AF000000090E68B7440F002058E
:1002F0005EE490E68AF090E68BF090E6A0E020E1E4
:10030000F978EB7C287D017B017AE679BC7E007F61
:100310000112085490E6BEE0FF7E0078EC7C287D58
:10032000017B017AE7794012085490E6BAE0C313E2
:10033000FF90E6BEE0048059E490E68AF090E68BF8
:10034000F090E6A0E020E1F978EB7C287D017B01CC
:100350007AE679BD7E007F0112085478EC7C287D16
:10036000017B017AE679BC7E007F0112085490E699
:10037000BEE0FF7E0078ED7C287D017B017AE77985
:100380004012085490E6BAE0C313FF90E6BEE024A2
:1003900002FD7A287BEB02055790E7407406F0A334
:1003A0007402F0A3740CF0A37426F0A37407F0A3F6
:1003B00074EEF0A37401F0A37403F0A37453F0304F
:1003C0000205E4A3F0800690E74974FFF000000006
:1003D000E490E68AF000000090E68B740AF00205D3
:1003E0005EE490E68AF090E68BF090E6A0E020E1F3
:1003F000F990E68BE0F56EC298D3940050030205A5
:100400005E90E740E0940A5007E02430FF121FE9B5
:1004100090E740E0B40A057F61121FE990E740E0F1
:10042000B40B057F62121FE990E740E0B40C057F32
:1004300063121FE990E740E0B40D057F64121FE9E5
:1004400090E740E0B40E057F65121FE990E740E0B9
:10045000640F600302055E7F66121FE902055E7A83
:10046000E77B407D047F48121EA9000000E490E66F
:100470008AF000000090E68B7404F002055EE490C0
:10048000E68AF090E68BF090E6A0E020E1F990E6B5
:100490008BE0F56ED39401500302055E90E741E0D6
:1004A000FD7F42121FB790E740E0FD7F4E121FB75D
:1004B00002055E90E6BCE090290BF07A297B0B7D6B
:1004C000017F50121EC57A297B0B7D017F50121EC1
:1004D000C590E6BEE0FD7AE77B407F50121EA9E49E
:1004E00090E68AF000000090E6BEE090E68BF00017
:1004F0000000806AE490E68AF000000090E68BF04D
:1005000000000090E6A0E020E1F990E6BCE0D39482
:1005100007404B78EB7C287D017B017AE679BC7E35
:10052000007F0112085490E6BEE0FF7E0078EC7C6C
:10053000287D017B017AE7794012085490E6BEE0FD
:1005400004FD7A287BEB7F50121EC590E6BEE004C6
:0F055000FD7A287BEB7F50121EC58002D322C399
:01055F002279
:101EF900C0E0C083C082D2075391EF90E65D7401C0
:081F0900F0D082D083D0E03259
:101F4000C0E0C083C0825391EF90E65D7404F0D08E
:061F500082D083D0E032D4
:101F5600C0E0C083C0825391EF90E65D7402F0D07A
:061F660082D083D0E032BE
:101BB900C0E0C083C08285100C85110D850D82851A
:101BC9000C83A37402F085080E85090F850F8285A1
:101BD9000E83A37407F05391EF90E65D7410F0D073
:061BE90082D083D0E0323F
:101F1100C0E0C083C082D2095391EF90E65D74089E
:081F2100F0D082D083D0E03241
:101B0900C0E0C083C08290E680E030E72085080C01
:101B190085090D850D82850C83A37402F085100E4D
:101B290085110F850F82850E83A37407F05391EFFA
:0D1B390090E65D7420F0D082D083D0E032C1
:012077003236
:012078003235
:012079003234
:01207A003233
:101B4600C0E0C083C08290E65EE054FBF000000077
:101B560090E68F7440F0000000752A00752B009007
:101B6600E7F0E4F05391EF90E65FE04404F090E68E
:0C1B76005EE04404F0D082D083D0E03266
:100CF200C0E0C0F0C083C082C0D075D000C000C0C8
:0D0D020001C002C003C004C005C006C00748
:100D0F0090E65EE054F7F090E6A1E020E1F990E77D
:100D1F0080E014602D24D1603814606924FE7003C4
:100D2F00020DD3147003020E0424367003020E2F2B
:100D3F00147003020E39146003020E3E7522000276
:100D4F000E3E90E782E0F53590E781E0F540020E28
:100D5F003E755A00755B0190E68DE0FFC3E55B9F22
:100D6F007480F8655A984003020E3E7480255BF537
:100D7F0082E434E7F583E0FF121FF6055BE55B7055
:100D8F00D6055A80D290E781E07006758DB2020EBB
:100D9F003E90E781E0B40106758D64020E3E90E748
:100DAF0081E0B40206758DD9020E3E90E781E0B462
:100DBF000305758DE6807890E781E06404707075A7
:100DCF008DF3806B755A00755B0190E68DE0FFC364
:100DDF00E55B9F7480F8655A9850547480255BF5D5
:100DEF0082E434E7F583E0FF121FE9055BE55B70F2
:100DFF00D9055A80D590E781E0F46011E024B0FF67
:100E0F00121F80E4FF121F807F10121F8090E78156
:100E1F007440F07AE77B817D217F3C121EC5800FE5
:100E2F0090E781E024FF92058005752200D2030030
:100E3F00000090E68DE4F05391EF90E65FE04408F8
:080E4F00F090E65EE04408F0BB
:100E5700D007D006D005D004D003D002D001D000EF
:0B0E6700D0D0D082D083D0F0D0E03299
:01207B003232
:01207C003231
:101AC600C0E0C083C08290E65EE054BFF000000034
:101AD60090E6987402F000000090E699E4F00000A9
:101AE60000F52CF52D90F800F0A3F05391EF90E659
:101AF6005FE04440F090E65EE04440F0D082D08360
:031B0600D0E032FA
:100F7A00C0E0C0F0C083C082C0D075D000C000C03D
:0D0F8A0001C002C003C004C005C006C007BE
:100F970090E65EE0547FF090E6A6E020E1F990E667
:100FA7009CE0FE90E69DE07C002400F55BEC3EF5BE
:100FB7005AE55B6405455A704D90FC00E0B4EE14A9
:100FC700A3E0B4440FA3E0B4880AA3E07006A3E04B
:100FD70064336064755C00755D00C3E55D955BE532
:100FE7005A6480F8E55C648098504D7400255DF57F
:100FF7008274FC355CF583E0FF121FF6055DE55D45
:1010070070D8055C80D4755C00755D00C3E55D959F
:101017005BE55A6480F8E55C648098501B74002592
:101027005DF58274FC355CF583E0FF121FF6055D04
:10103700E55D70D8055C80D400000090E69CE4F084
:1010470090E69DF05391EF90E65FE04480F090E6E4
:051057005EE04480F0A2
:10105C00D007D006D005D004D003D002D001D000E8
:0B106C00D0D0D082D083D0F0D0E03292
:01207D003230
:01207E00322F
:01207F00322E
:01208000322D
:01208100322C
:01208200322B
:01208300322A
:012084003229
:012085003228
:012086003227
:012087003226
:012088003225
:012089003224
:01208A003223
:01208B003222
:01208C003221
:01208D003220
:01208E00321F
:01208F00321E
:01209000321D
:01209100321C
:01209200321B
:01209300321A
:012094003219
:012095003218
:012096003217
:0616AB008F708C718D723E
:1016B10053700753A0BF121E8EE4F573F574C37403
:1016C100029574FFE570A807088002C313D8FC30A7
:1016D100E00543A020800353A0DF121E8E43A0101B
:1016E100121E8E53A0EF121E8E0574E57470020552
:1016F10073C39403E5736480948040C2E4F573F589
:1017010074C374099574FFE572AE71A8070880056A
:10171100CEC313CE13D8F930E00543A02080035384
:10172100A0DF121E8E43A010121E8E53A0EF121EB8
:101731008E0574E57470020573C3940AE5736480C1
:10174100948040BD43A040121E8E53A0BF7F0A7EED
:0417510000021E92E2
:09201800AD07AC06E4FF0216ABB3
:09202100AD07AC067F040216AB0A
:09202A00AD07AC067F050216AB00
:09203300AD07AC067F060216ABF6
:09203C00AD07AC067F010216ABF2
:09204500AD07AC067F020216ABE8
:09204E00AD07AC067F030216ABDE
:101FB7009028EBEDF0EFC313FF7A287BEB7D01024E
:021FC7001EC535
:101DEA009028EB7402F0A37480F07A287BEB7D02D2
:101DFA007F28121EC5E49028EBF0A3F07A287BEB2B
:071E0A007D027F28021EC5C6
:101F8000E49028EBF0A3EFF07A287BEB7D027F3C16
:031F9000021EC569
:101F6C009028EB7440F0A3EFF07A287BEB7D027F96
:041F7C003C021EC540
:101568007FAE121F807F04121F807F10121F807FA2
:1015780040121F807FB0121F807F81121F807F80E2
:10158800121F807FA1121F807FA6121F807FA812C2
:101598001F807F3F121F807FAD121F807F8B121F1D
:1015A800807F30121F807FC8121F807FD3121F8058
:1015B800E4FF121F807FD5121F807F80121F807F5B
:1015C800D9121F807F22121F807FDA121F807F02AC
:1015D800121F807F8D121F807F14121F807FDB12E5
:0C15E8001F807F40121F807FAF021F8019
:0E1E84007F027E00121E927580CE7F0A7E00C5
:101E9200EF7803C333CE33CED8F9FFEF4E6007EFAE
:071EA2001F70F81E80F522FD
:042067007580E3227B
:101D6F007580E37F027E00121E927580EA121E8438
:101D7F007580EC121E847580C77F027E00121E9242
:0A1D8F007580E37F027E00021E92C1
:101C59007580E37F017E00121E927580EA7F017E06
:101C690000121E927580CE7F017E00121E92758031
:101C7900C77F017E00121E927580E37F017E0002FC
:021C89001E92A9
:101FC900E4FDFC121C590DBD00010CBC11F5BD94BA
:011FD900F215
:011FDA0022E4
:0C15F400C2867F057E00121E92D2862265
:1012280085453D85443C85433B85423A122067E528
:101238002F452E70061215F443B180E53FB4010521
:10124800C28743B120E54160030212DB752201E445
:101258007FE87E03FDFCAB3DAA3CA93BA83AC3123C
:10126800092E4061E5226401705B7FDD7E03121A5E
:10127800801218FDE53D2418F53DE53C34FCF53CAD
:10128800E53B34FFF53BE53A34FFF53AE4FFFEFD74
:10129800E53AFC781812093F90E7C4EFF0E4FFFE46
:1012A800E53BFDE4FC781012093FA3EFF0E4FFE50D
:1012B8003CFEE4FDFC780812093FA3EFF0E53DFF92
:1012C800A3EFF0808AE522B40112AE3CAF3D121ABA
:1012D800808009752201E522640160FA53B1DFE5D7
:0712E8003FB40102D287228E
:10188A008F758E748D738C72E4FFFEFDFCAB75AAA6
:10189A0074A973A872D312092E4057000000E4FFFE
:1018AA00FEFDE572FC781812093F90E6CEEFF000D3
:1018BA000000E4FFFEE573FDE4FC781012093F9096
:1018CA00E6CFEFF0000000E4FFE574FEE4FDFC78EB
:1018DA000812093F90E6D0EFF0000000E575FF908E
:1018EA00E6D1EFF000000075BB04000000E5BB3054
:0318FA00E7FB22E7
:081B82008C728D73AB07AA06FB
:101B8A00E4FDFCC3ED9573EC95725022EA90E6D021
:101B9A00F0000000EB90E6D1F000000075BB0500F4
:0E1BAA000000E5BB30E7FB0DBD00010C80D54F
:011BB800220A
:101D9900AD07AC06000000ED25E0EC3390E6D0F08D
:101DA900000000ED25E090E6D1F000000075BB04CD
:091DB900000000E5BB30E7FB224D
:101A3400E47FF4FEFDFCAB45AA44A943A842D312BB
:101A4400092E4026E545240CF545E54434FFF544CC
:101A5400E54334FFF543E54234FFF542121228E52D
:101A64002F452E7011121FC9800CE52F452E7003CF
:0C1A7400121FC912122853B17F021D6F0F
:10115B00C203754A0290E7C0E54AF01215F4121A61
:10116B0034121FC9121D6F754A0390E7C0E54AF090
:10117B00300303021227E4F570F571C3E57195276F
:10118B00E5709526500D121C590571E57170EC0533
:10119B007080E8E53ED39400400CE53EFD7C00AF4B
:1011AB0031AE30121B82D3E5249400E5239400402A
:1011BB0007AF24AE23121D99E4F56EF56FC3E56FEF
:1011CB009551E56E9550502C121D44E4F570F57158
:1011DB00C3E57195327480F8657098500D121C59E7
:1011EB000571E57170EA057080E6056FE56F70CDEE
:1011FB00056E80C9E4F570F571C3E571954EE57028
:10120B00954D500D121C590571E57170EC057080F0
:0C121B00E8AF49AE48AD47AC4612188A57
:0112270022A4
:101D4400000000E53125E0E5303390E6D0F00000F6
:101D540000E53125E090E6D1F000000075BB0400F9
:0B1D64000000E5BB20E7033003F8227D
:101F2900E490E608F075C83443985053877FD2ACE3
:071F390075CBFF75CA64229D
:0D1FE900309902C2998F993099FDC299225A
:101E110090000020981CA3AF82AE83E4FCFD7BFA06
:101E21007AFFF9F8C31209185004D2008004C200E5
:061E310080E1C298AF99A8
:011E37002288
:101DC200E490E608F0D28E53897F5389BF4389207D
:101DD2005389EF438E10758DB243C05043D880C2F1
:081DE200C0C2C1D2AED2AF2293
:0D1FF60030C102C2C18FC130C1FDC2C12285
:101E380090000020C01CA3AF82AE83E4FCFD7BFAB7
:101E48007AFFF9F8C31209185004D2008004C200BE
:061E580080E1C2C0AFC131
:011E5E002261
:08205F00E4F51DD2E9D2AF2225
:101BEF0090E678E020E6F9C2E990E678E04480F0EC
:101BFF00EF25E090E679F090E678E030E0F990E6B6
:101C0F0078E04440F090E678E020E6F990E678E05E
:061C1F0030E1D6D2E922FB
:101C8B00A90790E678E020E6F9E51D702390E67849
:101C9B00E04480F0E925E090E679F08D18AF03A9D8
:101CAB00077519018A1A891BE4F51C751D01D322CE
:021CBB00C32242
:101C2500A90790E678E020E6F9E51D702590E678AD
:101C3500E04480F0E925E0440190E679F08D18AFA5
:101C450003A9077519018A1A891BE4F51C751D037B
:041C5500D322C322B1
:03004B00020E7230
:100E7200C0E0C083C082C085C084C086758600C0C1
:100E8200D075D000C000C001C002C003C006C007B8
:100E920090E678E030E206751D06020F5C90E67877
:100EA200E020E10CE51D64026006751D07020F5C7F
:100EB200E51D24FE605F14603624FE7003020F4DB0
:100EC20024FC7003020F5924086003020F5CAB1963
:100ED200AA1AA91BAF1C051C8F8275830012087AFF
:100EE20090E679F0E51C65187070751D05806B90B1
:100EF200E679E0AB19AA1AA91BAE1C8E8275830093
:100F02001208A7751D02E5186401704E90E678E09C
:100F12004420F08045E51824FEB51C0790E678E0F1
:100F22004420F0E51814B51C0A90E678E04440F03D
:100F3200751D0090E679E0AB19AA1AA91BAE1C8EAA
:100F4200827583001208A7051C800F90E678E044A2
:100F520040F0751D008003751D005391DFD007D04E
:100F620006D003D002D001D000D0D0D086D084D019
:080F720085D082D083D0E0326B
:101EA900121C25E51D24FA600E146006240770F340
:0C1EB900D322E4F51DD322E4F51DD32252
:101EC500121C8BE51D24FA600E146006240770F3BE
:0C1ED500D322E4F51DD322E4F51DD32236
:030000000217FEE6
:0C17FE00787FE4F6D8FD7581750218456F
:10078400E709F608DFFA8046E709F208DFFA803E57
:1007940088828C83E709F0A3DFFA8032E309F60844
:1007A400DFFA8078E309F208DFFA807088828C83AC
:1007B400E309F0A3DFFA806489828A83E0A3F60860
:1007C400DFFA805889828A83E0A3F208DFFA804C3A
:1007D40080D280FA80C680D4806980F28033801011
:1007E40080A680EA809A80A880DA80E280CA80337A
:1007F40089828A83ECFAE493A3C8C582C8CCC583F2
:10080400CCF0A3C8C582C8CCC583CCDFE9DEE780C1
:100814000D89828A83E493A3F608DFF9ECFAA9F040
:10082400EDFB2289828A83ECFAE0A3C8C582C8CC96
:10083400C583CCF0A3C8C582C8CCC583CCDFEADEAF
:10084400E880DB89828A83E493A3F208DFF980CC11
:1008540088F0EF60010E4E60C388F0ED2402B4040A
:100864000050B9F582EB2402B4040050AF232345B1
:0608740082239007D473FB
:10087A00BB010CE58229F582E5833AF583E0225033
:10088A0006E92582F8E622BBFE06E92582F8E2227D
:0D089A00E58229F582E5833AF583E4932297
:1008A700F8BB010DE58229F582E5833AF583E8F087
:1008B700225006E92582C8F622BBFE05E92582C833
:0208C700F2221B
:1008C900E88FF0A4CC8BF0A42CFCE98EF0A42CFCCE
:1008D9008AF0EDA42CFCEA8EF0A4CDA8F08BF0A44C
:1008E9002DCC3825F0FDE98FF0A42CCD35F0FCEBAB
:1008F9008EF0A4FEA9F0EB8FF0A4CFC5F02ECD3970
:0F090900FEE43CFCEAA42DCE35F0FDE43CFC22DC
:10091800EB9FF5F0EA9E42F0E99D42F0EC6480C856
:0609280064809845F022F6
:10092E00EB9FF5F0EA9E42F0E99D42F0E89C45F01F
:01093E002296
:10093F00E8600FECC313FCED13FDEE13FEEF13FF96
:03094F00D8F122BA
:10095200D083D082F8E4937012740193700DA3A334
:1009620093F8740193F5828883E473740293686048
:06097200EFA3A3A380DF48
:10180A00020B45E493A3F8E493A34003F68001F2A4
:10181A0008DFF48029E493A3F85407240CC8C333DF
:10182A00C4540F4420C8834004F456800146F6DFAE
:10183A00E4800B0102040810204080901077E47EB7
:10184A00019360BCA3FF543F30E509541FFEE493A3
:10185A00A360010ECF54C025E060A840B8E493A36A
:10186A00FAE493A3F8E493A3C8C582C8CAC583CA95
:10187A00F0A3C8C582C8CAC583CADFE9DEE780BE4D
:01115A000094
:00000001FF
