:0A17E50000010202030304040505DD
:030B8D0001600004
:10052200E4F513F512F511F510C203C200C202C2BE
:1005320001121468121704120C777E117F008E6369
:100542008F64756B11756C1275611175621C75691A
:1005520011756A4A756D11756E78EE54E07003027A
:10056200066C7514007515808E168F17C374A29FC2
:10057200FF74119ECF2402CF3400FEE48F0F8E0E43
:10058200F50DF50CF50BF50AF509F508AF0FAE0EF2
:10059200AD0DAC0CAB0BAA0AA909A808C31208013D
:1005A2005026E515250BF582E514350AF58374CD41
:1005B200F0E50B2401F50BE4350AF50AE43509F5FB
:1005C20009E43508F50880C4E4F50BF50AF509F5E8
:1005D20008AF0FAE0EAD0DAC0CAB0BAA0AA909A861
:1005E20008C31208015031AE0AAF0BE5172FF5828E
:1005F200E5163EF583E0FDE5152FF582E5143EF59F
:1006020083EDF0EF2401F50BE43EF50AE43509F53C
:1006120009E43508F50880B985146385156474000A
:100622002480FF741134FFFEC3E56C9FF56CE56B0B
:100632009EF56BC3E5669FF566E5659EF565C3E5C8
:10064200689FF568E5679EF567C3E5629FF562E519
:10065200619EF561C3E56A9FF56AE5699EF569C326
:10066200E56E9FF56EE56D9EF56DD2E843D820905C
:10067200E668E04409F090E65CE0443DF0D2AF90D9
:10068200E680E020E105D2081215B590E680E0543C
:10069200F7F0538EF8C2033001051202FEC2013098
:1006A20003291210FE5024C2031216BD2000169018
:1006B200E682E030E704E020E1EF90E682E030E617
:1006C20004E020E0E41216111218DA120F8B80C730
:1002FE0090E6B9E070030203AF14700302042C24DD
:10030E00FE70030204AF24FB70030203A9147003F2
:10031E000203A31460731460762405600302050EB5
:10032E001218DC400302051A90E6BBE024FE6022A0
:10033E0014603324FD601114602224067048E563B6
:10034E0090E6B3F0E5648037E56B90E6B3F0E56CCC
:10035E00802DE56590E6B3F0E5668023E56790E6CF
:10036E00B3F0E568801990E6BAE0FF12163DAA06D2
:10037E00A9077B01EA494B600DEE90E6B3F0EF90D2
:10038E00E6B4F002051A0205131217BB02051A1283
:10039E00186A02051A1213EE02051A1217A902059F
:1003AE001A1218DE400302051A90E6B8E0247F60A8
:1003BE001514601924027063A200E43325E0FFA235
:1003CE0002E4334F8041E490E740F0803F90E6BC7A
:1003DE00E0547EFF7E00E0D394807C0040047D01DB
:1003EE0080027D00EC4EFEED4F24E5F58274173E43
:1003FE00F583E493FF3395E0FEEF24A1FFEE34E6A0
:10040E008F82F583E0540190E740F0E4A3F090E68C
:10041E008AF090E68B7402F002051A020513121888
:10042E00E0400302051A90E6B8E024FE60162402AE
:10043E00600302051A90E6BAE0B40105C200020597
:10044E001A02051390E6BAE0705590E6BCE0547EB1
:10045E00FF7E00E0D394807C0040047D0180027D0D
:10046E0000EC4EFEED4F24E5F58274173EF583E465
:10047E0093FF3395E0FEEF24A1FFEE34E68F82F575
:10048E0083E054FEF090E6BCE05480131313541F27
:10049E00FFE0540F2F90E683F0E04420F0806D8053
:1004AE00641218E2506690E6B8E024FE6019240249
:1004BE00705A90E6BAE0B40104D200804F90E6BACA
:1004CE00E064026047803E90E6BCE0547EFF7E0012
:1004DE00E0D394807C0040047D0180027D00EC4ED0
:1004EE00FEED4F24E5F58274173EF583E493FF335A
:1004FE0095E0FEEF24A1FFEE34E68F82F5838008AF
:10050E00120080500790E6A0E04401F090E6A0E0D3
:03051E004480F026
:0105210022B7
:030033000218C6EA
:0418C60053D8EF32D2
:10170400E490E608F075C83443985053877F75CB4E
:09171400FF75CA64C298D2992243
:10146800753509E4F53EF53FF52FC28CF58C758A84
:1014780001E58954F04401F589538EF7C28DD28C69
:10148800D2A9C28E758DDB758BACE589540F4410DB
:0C149800F589438E10C28FD28ED2AB2299
:03001B000214A428
:1014A400C0E0C0D075D000C000C007758DDB758B5F
:1014B400AC30981E63B002E535C394095012AF35C1
:1014C40074502FF8A6990535E535B409037559000C
:0B14D400C298D007D000D0D0D0E0328A
:03000B00021230AE
:0B123000C0E0C0D075D000C000C007B7
:10123B00758C00758A01E52F601030990D152FAF55
:10124B002F743A2FF8E6C299F599E52F7052E53EC7
:10125B007046E53F146032249D6019246470393068
:10126B00993EE53564097038C29975996EF53E75EE
:10127B003F96802C309929C299759973E53F153F9C
:10128B007002153E7535008017D299E535C3940968
:10129B005003755901753509E53F153F7002153E31
:0912AB00D007D000D0D0D0E03211
:101100001201000200000040C01671290000010217
:1011100000010A06000200000040010009022E0042
:1011200001010080FA0904000004FF000000070527
:1011300001024000000705820200020007050202CA
:101140000002000705810240000009022E00010193
:101150000080FA0904000004FF00000007050102F6
:10116000400000070582024000000705020200025D
:101170000007058102400000040309041003510028
:10118000480059002D00430043004400160351005D
:10119000480059002D003200500052004F0020003E
:0411A000200000002B
:100B9000608030000202020202020207000000022E
:100BA000000002001B3A1A020004000000000000CE
:100BB0000000003F020202020202020700000002DF
:100BC000000002001B3A021A180400000000000096
:100BD0000000003F033A030306060307000000027B
:100BE000000002001B3A1A0200040000000000008E
:100BF0000000003F035A0303030303070000000241
:100C0000000002001B3A021A180400000000000055
:100C10000000003F6024308700000000000000005A
:100C200000000000000000000000000000000000C4
:100C3000000000000000000000000000473080803D
:060C4000000000CA4E0096
:100ECF0090E60174CAF090E6F574FFF0903080E080
:100EDF0090E6F3F0903081E090E6C3F0903082E03E
:100EEF0090E6C1F0903083E090E6C2F0903085E05C
:100EFF0090E6C0F0903086E090E6F4F075AF07749E
:100F0F0030F59A7400F59B759DE4E4F59EFF90E62D
:100F1F007BE090E67CF00FBF80F490E67174FFF0F9
:100F2F00F5B490E672E04480F043B680000000E430
:100F3F0090E6C4F000000090E6C5F0903087E09096
:100F4F00E6C6F0903088E090E6C7F0903089E090E8
:100F5F00E6C8F090308AE090E6C9F090308BE090D0
:100F6F00E6CAF090308CE090E6CBF090308DE090B8
:0B0F7F00E6CCF090308EE090E6CDF064
:010F8A002244
:03004300021000A8
:0300530002100098
:10100000021736000217930002177D0002174E00E8
:1010100002151A0002142B000218E4000218E50061
:101020000218E6000218E700021550000212B40090
:101030000218E8000218E9000218EA000218EB00A2
:101040000218EC000218E5000218ED000218EE008C
:101050000218EF000218F0000218F1000218F20066
:101060000218F3000218E5000218E5000218E50076
:101070000218F4000218F5000218F6000218F70032
:101080000218F8000218F9000218FA000218FB0012
:101090000218FC000218FD000218FE000218FF00F2
:1010A00002190000021901000219020002190300CE
:0810B0000219040002190500F9
:1016110090E682E030E004E020E60B90E682E030E4
:10162100E119E030E71590E680E04401F07F147E97
:0C163100001210B890E680E054FEF02299
:1016BD0090E682E044C0F090E681F043870100009F
:0416CD0000000022F7
:1015B50030080990E680E0440AF0800790E680E074
:1015C5004408F07FDC7E051210B890E65D74FFF0EC
:0F15D50090E65FF05391EF90E680E054F7F0223C
:02163D00A907FB
:10163F00AE6DAF6E8F828E83A3E064037017AD0122
:10164F0019ED7001228F828E83E07C002FFDEC3E1E
:09165F00FEAF0580DF7E007F0074
:01166800225F
:1010B8008E1C8F1D90E600E054187012E51D240167
:1010C800FFE4351CC313F51CEF13F51D801590E6DE
:1010D80000E05418FFBF100BE51D25E0F51DE51CC9
:1010E80033F51CE51D151DAE1C7002151C4E600560
:0610F8001216D180EE2269
:1016D1007400F58690FDA57C05A3E582458370F92C
:0116E10022E6
:100C4600C186012F00013509023E0000C1050223BD
:100C560000000230104001481E014A000146000112
:100C66003700025E005702320181045A000000007C
:1016E2008E1C8F1DE51D451C60177F957E00121311
:1016F20059000000000000E51D151D70E7151C8053
:02170200E322E0
:10137000E4F5B375B5FF90E60174C8F0E4F518F52F
:101380001943B0027F1E7E001210B853B0FD7F1EBD
:101390007E001210B80519E51970020518C39405EE
:0E13A000E5186480948040D990E60174CAF08C
:0113AE00221C
:1013AF00E4F5B375B5FF90E60174C8F0E4F56FF599
:1013BF007043B0087F0A7E001210B853B0F77F0A4F
:1013CF007E001210B80570E5707002056FC39405AA
:0E13DF00E56F6480948040D990E60174CAF0F6
:0113ED0022DD
:100C770090E600E054E74410F00000000000009008
:100C8700E61074A0F000000090E60B7401F090E607
:100C97001274E0F0000000E490E613F0000000900A
:100CA700E614F000000090E615F000000090E6184A
:100CB700740CF000000090E6D27402F090E6047421
:100CC70080F00000007402F0000000E4F000000073
:100CD700120ECFE490E671F075B4FF90E672F075EE
:100CE700B6FF75B1FF90E670F075B2FFD2A2D2A140
:100CF7001217CD75230275240000000090E61074CA
:100D0700A0F000000000000090E611F00000009045
:100D1700E65EE04408F0000000E490E68DF090E61F
:100D27005EE04404F0000000E490E68FF053B1F772
:100D37007F9AFE12182B12137090E60174C8F022E6
:100F8B00E55D2401F55DE4355CF55CE4355BF55B13
:100F9B00E4355AF55AE47F01FEFDFCAB5DAA5CA972
:100FAB005BA85AC3120801700312176F7F407E0DA6
:100FBB007D037C00AB5DAA5CA95BA85AD312080128
:100FCB004009E4F55DF55CF55BF55A30042490E6D9
:100FDB000174CAF0E534B40103120A68E534B402B3
:100FEB0003120812E534B4040312094090E60174AD
:050FFB00C8F0C2042251
:0210FE00D322FB
:0218DA00D32217
:0218DC00D32215
:1013EE0090E680E030E71800000090E6207402F0EE
:1013FE00000000E490E621F0000000D20680160006
:10140E000000E490E620F000000090E6217440F029
:0D141E00000000C20690E6BAE0F547D322B8
:1017A90090E740E547F0E490E68AF090E68B04F094
:0217B900D32239
:08186A0090E6BAE0F527D32255
:1017BB0090E740E527F0E490E68AF090E68B04F0A2
:0217CB00D32227
:0218DE00D32213
:0218E000D32211
:0218E200D3220F
:10008000E4F518F51990E6B9E0244B6061147003AB
:1000900002023824F4700302025E14700302029418
:1000A0001470030202C5241160030202FAE490E610
:1000B0008AF090E68BF090E6A0E020E1F990E68BE4
:1000C000E0F518E4F5B390E60174CAF0E490E6C3F5
:1000D000F090E6C2F0D20400000090E6047480F0D4
:1000E0000000007402F0000000E4F00202FCE49062
:1000F000E68AF090E68BF090E6A0E020E1F990E649
:100100008BE0F518D3943F4024E4F5197440251989
:10011000F582E434E7F583E0FF74AB2519F582E45A
:100120003430F583EFF00519E519B440DF7F9A7E8E
:100130000012182B9030ABE0FF7E00121834903084
:10014000ABE0FF7E0012183D9030ABE0FF7E001266
:1001500018469030ACE075F004A4FFAEF012184FD2
:100160009030ACE075F004A4FFAEF0121858903057
:10017000ACE075F004A4FFAEF01218619030B0E06E
:10018000C3940250139030CCE090E6C07005744EDA
:10019000F08016749CF080119030CCE090E6C07036
:1001A00005749FF08003749DF09030CEE0F5399097
:1001B00030CBE0F5389030CFE0F5499030D9E0F51C
:1001C00036A3E0FEA3E07C002400F526EC3EF525F6
:1001D0009030B1E0F534E53470037534019030B6F9
:1001E000E0FEA3E07C002400F529EC3EF528A3E026
:1001F000FEA3E02400F54CEC3EF54B9030B2E0FE5F
:10020000A3E02400F531EC3EF530A3E0FEA3E024AA
:1002100000F54FEC3EF54E9030BCE0FEA3E024002C
:10022000F545EC3EF5449030BAE0FEA3E02400F53D
:100230002EEC3EF52D0202FCE4F51974AB2519F500
:1002400082E43430F583E0FF74402519F582E4340C
:10025000E7F583EFF00519E519B40ADF805490E75C
:100260004074B6F0A37414F0A3740CF0A37426F0D9
:10027000A37407F0A374EEF0A37401F0A37403F069
:10028000A37453F0300605E4A3F0800690E74974A8
:10029000FFF0801EE4F51974502519F8E6FF74404C
:1002A0002519F582E434E7F583EFF00519E519B473
:1002B0000AE5000000E490E68AF000000090E68B7A
:1002C000740AF08037E490E68AF090E68BF090E6CE
:1002D000A0E020E1F990E68BE0F518D39402401CF1
:1002E00090E742E0F53A90E741E0F53B90E740E0E7
:0D02F000F53C753D78752F048002D322C3C4
:0102FD0022DE
:10173600C0E0C083C082D2015391EF90E65D740190
:08174600F0D082D083D0E03224
:10177D00C0E0C083C0825391EF90E65D7404F0D059
:06178D0082D083D0E0329F
:10179300C0E0C083C0825391EF90E65D7402F0D045
:0617A30082D083D0E03289
:10151A00C0E0C083C082856965856A668566828502
:10152A006583A37402F08561678562688568828530
:10153A006783A37407F05391EF90E65D7410F0D0BF
:06154A0082D083D0E032E4
:10174E00C0E0C083C082D2035391EF90E65D74086F
:08175E00F0D082D083D0E0320C
:10142B00C0E0C083C08290E680E030E72085616534
:10143B00856266856682856583A37402F08569671C
:10144B00856A68856882856783A37407F05391EF7B
:0D145B0090E65D7420F0D082D083D0E032A6
:0118E40032D1
:0118E50032D0
:0118E60032CF
:0118E70032CE
:10155000C0E0C083C082C2AF90E7C0E550F0A3E511
:1015600051F0A3E556F000000090E68F7403F00000
:1015700000005391EF90E65FE04404F0D2AFD082D8
:05158000D083D0E03231
:0D12B400C0E0C083C082C0D075D000C0076C
:1012C100C2AF90E6A1E020E1F990E780E0FF700471
:1012D100F5228027BF011C90E781E06548601CE092
:1012E100F548753A0585483B85563C753D78752F1F
:1012F100048008BFFF05D20775220000000090E6B8
:0F1301008DE4F05391EF90E65FE04408F0D2AF37
:0B131000D007D0D0D082D083D0E032D4
:0118E80032CD
:0118E90032CC
:0118EA0032CB
:0118EB0032CA
:0118EC0032C9
:0118ED0032C8
:0118EE0032C7
:0118EF0032C6
:0118F00032C5
:0118F10032C4
:0118F20032C3
:0118F30032C2
:0118F40032C1
:0118F50032C0
:0118F60032BF
:0118F70032BE
:0118F80032BD
:0118F90032BC
:0118FA0032BB
:0118FB0032BA
:0118FC0032B9
:0118FD0032B8
:0118FE0032B7
:0118FF0032B6
:0119000032B4
:0119010032B3
:0119020032B2
:0119030032B1
:0119040032B0
:0119050032AF
:060D47008F1A8C1B8D1CAD
:100D4D00531A0753B1FE7F0A7E00121359E4F51DA5
:100D5D00F51EC37402951EFFE51AA807088002C38D
:100D6D0013D8FC30E00543B104800353B1FB7F0A77
:100D7D007E0012135943B1027F0A7E00121359539C
:100D8D00B1FD7F0A7E00121359051EE51E70020586
:100D9D001DC39403E51D6480948040B6E4F51DF5F4
:100DAD001EC37409951EFFE51CAE1BA80708800520
:100DBD00CEC313CE13D8F930E00543B104800353ED
:100DCD00B1FB7F0A7E0012135943B1027F0A7E00E8
:100DDD0012135953B1FD7F0A7E00121359051EE5FA
:100DED001E7002051DC3940AE51D6480948040B1F8
:100DFD0043B1017F0A7E0012135953B1FE7F0A7E63
:040E0D000002135973
:09182B00AD07AC06E4FF020D4715
:09183400AD07AC067F04020D476C
:09183D00AD07AC067F05020D4762
:09184600AD07AC067F06020D4758
:09184F00AD07AC067F01020D4754
:09185800AD07AC067F02020D474A
:09186100AD07AC067F03020D4740
:10131B007E0012135912180D7F017E001213591201
:10132B0018177F017E001213591218CA7F017E0015
:10133B001213591218D67F017E001213591218037B
:0E134B007F017E001213591218217F017E00CF
:10135900EF7803C333CE33CED8F9FFEF4E6007EFF2
:071369001F70F81E80F52241
:071872005380F75380DF22D1
:071879005380F74380202299
:071880004380084380202291
:071887005380FE5380FB2299
:07188E005380FE4380042299
:07189500438001438004229F
:0418CA0053807F22A6
:0418CE0043808022B1
:0418D2005380BF225E
:0418D60043804022E9
:07189C005380F75380EF2297
:0718A3005380F7438010227F
:0718AA004380084380102277
:0718B1005380FE5380FD226D
:0718B8005380FE4380022271
:0718BF004380014380022277
:0A17EF005380F75380DF5380EF2290
:0A17F9005380FE5380FB5380FD2255
:0A1803005380F74380204380102239
:0A180D005380FE4380044380022252
:0A1817004380084380204380102224
:0A182100438001438004438002224B
:0C17CD001218031218CE1218210218D2B4
:101669001217CD7F0A12131B1218D27F147E001293
:1016790013591217EF1213551218CE7F057E001257
:0C16890013591218037F147E000213593D
:0917660012176F12176F12176FB2
:0E176F007F0112131B1218D21213550218CE4E
:10171D007F027E00121359E4FDFC12176F0DBD0000
:08172D00010CBC04F5BD1AF229
:011735002291
:0C17D900C2A17F027E00121359D2A1228F
:030E110012171D98
:100E14001218CE1218171218211218D6E4FFFEE584
:100E240041FDE4FCFB7A01F9F812076FE4FB7A0157
:100E3400F9F812076F8F2AE4FFE542FEE4FDFCFB9C
:100E44007A01F9F812076F8F2CE543FF8F2BE52EFB
:100E5400452D70031217D9E538B40102C2A27522D8
:100E640001E52A75F040A485F01AF51BAF227E0037
:100E7400AC1AAD1B1206D2D3EF9400EE94004011CD
:100E84007F007E041216E2E51B151B70DF151A8025
:100E9400DB751A00852C1BAF227E00AC1AAD1B1229
:100EA40006D2D3EF9400EE940040117F007E01122D
:100EB40016E2E51B151B70DF151A80DBAF2B7E00D5
:0A0EC4001210B8E538B40102D2A202
:010ECE002201
:04158500AF45AE447C
:10158900AD07AC06D3ED9400EC9400401E000000BA
:10159900EE90E6D0F0000000ED90E6D1F0000000FA
:0C15A90075BB04000000E5BB30E7FB222E
:0414DF007F1C7E03ED
:0814E3008C1A8D1BAB07AA0651
:1014EB00E4FDFCC3ED951BEC951A5022EA90E6D077
:1014FB00F0000000EB90E6D1F000000075BB060099
:0E150B000000E5BB30E7FB0DBD00010C80D5F4
:0115190022AF
:0415E400AF26AE255B
:1015E800AD07AC06000000ED25E0EC3390E6D0F046
:1015F800000000ED25E090E6D1F000000075BB0486
:09160800000000E5BB30E7FB2205
:10169500000000E53125E0E5303390E6D0F00000AC
:1016A50000E53125E090E6D1F000000075BB0400AF
:0816B5000000E5BB30E7FB2259
:100A68009030AEE0FFE4FCFDFEFB7A01F9F81206D7
:100A7800E4C004C005C006C0079030ADE0FFE4FC48
:100A8800FDFEFBFA7901F81206E4D003D002D0018A
:100A9800D000EF2BFBEE3AFAED39F9EC38F890304C
:100AA800AFE0FFE4FCFDFEEB2FF543EE3AF542ED37
:100AB80039F541EC38F540E47F64AB43AA42A941DB
:100AC800A840C31208015005754901801BE4F54987
:100AD800E543249CF543E54234FFF542E54134FF04
:100AE800F541E54034FFF540C207752201E549703C
:100AF80008120E1412171D8003120E1112166930F7
:100B08000703020B8CE4F518F519C3E5199529E5D7
:100B1800189528500D12176F0519E51970EC05186E
:100B280080E89030CCE0700843B1087D28FC80074D
:100B380043B1087DC87C001214DF53B1F7D3E52612
:100B48009400E525940040031215E4E4FDFCC3ED90
:100B5800954FEC954E500D12169512176F0DBD005E
:100B6800010C80EAE4F518F519C3E519954CE51868
:100B7800954B500D12176F0519E51970EC05188083
:040B8800E8121585D5
:010B8C002246
:100812009030AEE0FFE4FCFDFEFB7A01F9F812062F
:10082200E4C004C005C006C0079030ADE0FFE4FCA0
:10083200FDFEFBFA7901F81206E4D003D002D001E2
:10084200D000EF2BFBEE3AFAED39F9EC38F89030A4
:10085200AFE0FFE4FCFDFEEB2FF543EE3AF542ED8F
:1008620039F541EC38F540E47F64AB43AA42A94133
:10087200A840C31208015005754901801BE4F549DF
:10088200E543249CF543E54234FFF542E54134FF5C
:10089200F541E54034FFF540C207752201E5497094
:1008A20008120E1412171D8003120E11121669304F
:1008B200070302093FE4F518F519C3E5199529E57F
:1008C200189528501012176F12176F0519E5197035
:1008D200E9051880E59030CCE0700843B1087D2826
:1008E200FC800743B1087DC87C001214DF53B1F7C6
:1008F200D3E5269400E525940040031215E4E4FDB7
:10090200FCC3ED954FEC954E501012169512176FD1
:1009120012176F0DBD00010C80E7E4F518F519C33D
:10092200E519954CE518954B501012176F12176F79
:0D0932000519E51970E9051880E512158515
:01093F002295
:100940009030AEE0FFE4FCFDFEFB7A01F9F8120600
:10095000E4C004C005C006C0079030ADE0FFE4FC71
:10096000FDFEFBFA7901F81206E4D003D002D001B3
:10097000D000EF2BFBEE3AFAED39F9EC38F8903075
:10098000AFE0FFE4FCFDFEEB2FF543EE3AF542ED60
:1009900039F541EC38F540E47F64AB43AA42A94104
:1009A000A840C31208015005754901801BE4F549B0
:1009B000E543249CF543E54234FFF542E54134FF2D
:1009C000F541E54034FFF540C207752201E5497065
:1009D00008120E1412171D800612171D120E141283
:1009E0001669300703020A67E4F518F519C3E5191B
:1009F0009529E5189528500D1217660519E5197007
:100A0000EC051880E89030CCE0700843B1087D28F0
:100A1000FC800743B1087DC87C001214DF53B1F796
:100A2000D3E5269400E525940040031215E4E4FD87
:100A3000FCC3ED954FEC954E500D121695121766AE
:100A40000DBD00010C80EAE4F518F519C3E5199510
:100A50004CE518954B500D1217660519E51970EC09
:070A6000051880E81215855E
:010A6700226C
:030000000211A446
:0C11A400787FE4F6D8FD7581700211EB35
:1006D200EF8DF0A4A8F0CF8CF0A428CE8DF0A42E3C
:0206E200FE22F6
:1006E400E88FF0A4CC8BF0A42CFCE98EF0A42CFCB5
:1006F4008AF0EDA42CFCEA8EF0A4CDA8F08BF0A433
:100704002DCC3825F0FDE98FF0A42CCD35F0FCEB91
:100714008EF0A4FEA9F0EB8FF0A4CFC5F02ECD3956
:0F072400FEE43CFCEAA42DCE35F0FDE43CFC22C3
:1007330075F008758200EF2FFFEE33FECD33CDCC7D
:1007430033CCC58233C5829BED9AEC99E582984000
:100753000CF582EE9BFEED9AFDEC99FC0FD5F0D6DD
:10076300E4CEFBE4CDFAE4CCF9A88222B800C1B907
:100773000059BA002DEC8BF084CFCECDFCE5F0CB45
:10078300F97818EF2FFFEE33FEED33FDEC33FCEB7E
:1007930033FB10D703994004EB99FB0FD8E5E4F939
:1007A300FA227818EF2FFFEE33FEED33FDEC33FC26
:1007B300C933C910D7059BE99A4007EC9BFCE99A1A
:1007C300F90FD8E0E4C9FAE4CCFB2275F010EF2F5F
:1007D300FFEE33FEED33FDCC33CCC833C810D7075F
:1007E3009BEC9AE899400AED9BFDEC9AFCE899F89A
:0E07F3000FD5F0DAE4CDFBE4CCFAE4C8F9222D
:10080100EB9FF5F0EA9E42F0E99D42F0E89C45F04D
:0108110022C4
:1011B000020522E493A3F8E493A34003F68001F22E
:1011C00008DFF48029E493A3F85407240CC8C33340
:1011D000C4540F4420C8834004F456800146F6DF0F
:1011E000E4800B0102040810204080900B8DE47E07
:1011F000019360BCA3FF543F30E509541FFEE49304
:10120000A360010ECF54C025E060A840B8E493A3CA
:10121000FAE493A3F8E493A3C8C582C8CAC583CAF5
:10122000F0A3C8C582C8CAC583CADFE9DEE780BEAD
:010C7600007D
:00000001FF
