:0A2126000001020203030404050592
:100AB500E4F567F566F565F564C20EC20BC20DC2B5
:100AC5000C1220271208C47E187F008E0A8F0B7522
:100AD500121875131275081875091C7510187511FB
:100AE5005175141875157FEE54E07003020BFC75F3
:100AF50068007569808E6A8F6BC374A99FFF74182F
:100B05009ECF2402CF3400FEE48F638E62F561F53B
:100B150060F55FF55EF55DF55CAF63AE62AD61AC4A
:100B250060AB5FAA5EA95DA85CC3120F045026E501
:100B350069255FF582E568355EF58374CDF0E55F7F
:100B45002401F55FE4355EF55EE4355DF55DE4357C
:100B55005CF55C80C4E4F55FF55EF55DF55CAF635F
:100B6500AE62AD61AC60AB5FAA5EA95DA85CC31265
:100B75000F045031AE5EAF5FE56B2FF582E56A3E3F
:100B8500F583E0FDE5692FF582E5683EF583EDF037
:100B9500EF2401F55FE43EF55EE4355DF55DE43592
:100BA5005CF55C80B985680A85690B74002480FF53
:100BB500741834FFFEC3E5139FF513E5129EF51275
:100BC500C3E50D9FF50DE50C9EF50CC3E50F9FF5EF
:100BD5000FE50E9EF50EC3E5099FF509E5089EF59F
:100BE50008C3E5119FF511E5109EF510C3E5159FA6
:100BF500F515E5149EF514D2E843D82090E668E093
:100C05004409F090E65CE0443DF0D2AFD288D28A48
:100C1500C2A8C2AA43E808D2FB90E680E020E1051D
:100C2500D20F121E5790E680E054F7F0538EF8C2AB
:100C35000E300C0512049AC20C300E291217FE5004
:100C450024C20E121FAC200B1690E682E030E7049A
:100C5500E020E1EF90E682E030E604E020E0E412F7
:0A0C65001E8612215F1214F880C7EA
:10049A0090E6B9E0700302054B1470030205C82404
:1004AA00FE700302064B24FB700302054514700319
:1004BA0002053F146073146076240560030206AADD
:1004CA0012216140030206B690E6BBE024FE6022D8
:1004DA0014603324FD601114602224067048E50A72
:1004EA0090E6B3F0E50B8037E51290E6B3F0E5133A
:1004FA00802DE50C90E6B3F0E50D8023E50E90E63D
:10050A00B3F0E50F801990E6BAE0FF121EB2AA0610
:10051A00A9077B01EA494B600DEE90E6B3F0EF9034
:10052A00E6B4F00206B60206AF1220AD0206B61213
:10053A00214B0206B6121AFF0206B612209B0206C9
:10054A00B612216340030206B690E6B8E0247F6043
:10055A001514601924027063A20BE43325E0FFA28C
:10056A000DE4334F8041E490E740F0803F90E6BCD1
:10057A00E0547EFF7E00E0D394807C0040047D013D
:10058A0080027D00EC4EFEED4F2426F58274213E5A
:10059A00F583E493FF3395E0FEEF24A1FFEE34E602
:1005AA008F82F583E0540190E740F0E4A3F090E6EF
:1005BA008AF090E68B7402F00206B60206AF1221A8
:1005CA006540030206B690E6B8E024FE60162402EF
:1005DA0060030206B690E6BAE0B40105C20B020651
:1005EA00B60206AF90E6BAE0705590E6BCE0547EDB
:1005FA00FF7E00E0D394807C0040047D0180027D70
:10060A0000EC4EFEED4F2426F58274213EF583E47C
:10061A0093FF3395E0FEEF24A1FFEE34E68F82F5D7
:10062A0083E054FEF090E6BCE05480131313541F89
:10063A00FFE0540F2F90E683F0E04420F0806D80B5
:10064A0064122167506690E6B8E024FE601924021D
:10065A00705A90E6BAE0B40104D20B804F90E6BA21
:10066A00E064026047803E90E6BCE0547EFF7E0074
:10067A00E0D394807C0040047D0180027D00EC4E32
:10068A00FEED4F2426F58274213EF583E493FF3371
:10069A0095E0FEEF24A1FFEE34E68F82F583800811
:1006AA00120080500790E6A0E04401F090E6A0E036
:0306BA004480F089
:0106BD00221A
:0300330002215B4C
:04215B0053D8EF3234
:10202700758CE0758AC0E58954F04401F589758E91
:0820370003D28CD2A9D2AF2222
:03005B000206BEDC
:1006BE00C0E0C083C082C0D075D000C004C006C0E8
:0106CE000724
:1006CF00AF91530780EF648060030208B553917FA9
:1006DF003009030208B3E55164047070D3E53A940E
:1006EF00C8E539940050030208B30535E53525E018
:1006FF002472F582E43424F583E539F0A3E53AF06A
:10070F00E53525E02470F582E43424F583E0FEA37B
:10071F00E0FFD394C8EE9400402FEF25E0FFEE33B7
:10072F00FEEF2444FFEE34FDFEE53525E02472F59F
:10073F0082E43424F583E0FCA3E0D39FEC9E4009D0
:10074F00752B017551007535000208ADE551640137
:10075F006003020813D3E53A94C8E53994005003B7
:10076F000208B30535E53525E02472F582E434241B
:10077F00F583E539F0A3E53AF0E53525E02470F58A
:10078F0082E43424F583E0FEA3E0FFD394C8EE9413
:10079F0000406EEF25E0FFEE33FEEF2444FFEE3412
:1007AF00FDFEE53525E02472F582E43424F583E07F
:1007BF00FCA3E0D39FEC9E40480552E552640270C3
:1007CF003DE53514F532752B01E53525E0246EF541
:1007DF0082E43424F583E0FEA3E024C8F537E43E39
:1007EF00F536E53525E02470F582E43424F583E011
:1007FF00FEA3E024C8F545E43EF544755100753578
:10080F00000208ADE55164027061C3E53A94C8E592
:10081F003994004048D3E53A94C8E5399400401024
:10082F00D3E53A9545E53995445005752B0080275A
:10083F00D3E53A9545E5399544400FD3E53A9537D9
:10084F00E53995365004052B800DD3E53A9537E5FC
:10085F003995364008052B753900753A00E52B653B
:10086F002C7041F551F539F53A8039E551B405341D
:10087F00D3E53A9401E53994004029E53525E02484
:10088F0072F582E43424F583E539F0A3E53AF005F7
:10089F0035052BE52BB40F06755100752B007539F7
:0608AF0000753A00C209C9
:0F08B500D007D006D004D0D0D082D083D0E0328C
:101800001201000200000040181653690000010296
:1018100000010A0600020000004001000902350034
:1018200001010080FA0904000005FF00000007051F
:101830000102400000070582020002000705810244
:1018400040000007058602000200070508020002AA
:101850000009022E0001010080FA0904000004FFC3
:101860000000000705010240000007058202400059
:101870000007050202000200070581024000000483
:1018800003090410035100480059002D0043004390
:101890000044001603510048005900360039003555
:0B18A00000410020002000200000009C
:100C6F00608024FF030D0103020201070000000250
:100C7F00000002001332120A080C0C0800000000DA
:100C8F000000003F030D01030203010700000000F5
:100C9F00020002001332120A120C0C0800000000AE
:100CAF000000003F031501030204010700000002CA
:100CBF00000002001332120A080C0C08000000009A
:100CCF000000003F031501030204010700000000AC
:100CDF00020002001332120A120C0C08000000006E
:100CEF000000003F60242586000000000000000087
:100CFF0000000000000000000000000000000000E5
:100D0F0000000000000000000000000047257F8069
:060D1F00000008CA4E00AE
:1015B70090E60174CAF090E6F574FFF090257FE09D
:1015C70090E6F3F0902580E090E6C3F0902581E067
:1015D70090E6C1F0902582E090E6C2F0902584E085
:1015E70090E6C0F0902585E090E6F4F075AF0774BB
:1015F70024F59A74FFF59B759DE4E4F59EFF90E64C
:101607007BE090E67CF00FBF80F490E67174FFF00A
:10161700F5B490E672E04480F043B680000000E441
:1016270090E6C4F000000090E6C5F0902586E090B3
:10163700E6C6F0902587E090E6C7F0902588E09011
:10164700E6C8F0902589E090E6C9F090258AE090F9
:10165700E6CAF090258BE090E6CBF090258CE090E1
:0B166700E6CCF090258DE090E6CDF081
:011672002255
:03004300021700A1
:0300530002170091
:1017000002203F000220850002206F0002205700C7
:10171000021D5400021CE0000216FF0002216900B5
:1017200002216A0002216B00021E260002129E00A6
:1017300002216C0002216D00021CA100021B5E0050
:1017400002216E000221690002216F000221700057
:101750000221710002217200022173000221740033
:10176000022175000221690002216900022169003D
:1017700002217600022177000221780002217900FF
:1017800002217A0002217B0002217C0002217D00DF
:1017900002217E0002217F000221800002218100BF
:1017A000022182000221830002218400022185009F
:0817B0000221860002218700DE
:101E860090E682E030E004E020E60B90E682E03067
:101E9600E119E030E71590E680E04401F07F147E1A
:0C1EA600001217B890E680E054FEF02215
:101FAC0090E682E044C0F090E681F04387010000A7
:041FBC0000000022FF
:101E5700300F0990E680E0440AF0800790E680E0C2
:101E67004408F07FDC7E051217B890E65D74FFF03A
:0F1E770090E65FF05391EF90E680E054F7F02291
:021EB200A9077E
:101EB400AE14AF158F828E83A3E064037017AD0157
:101EC40019ED7001228F828E83E07C002FFDEC3EA1
:091ED400FEAF0580DF7E007F00F7
:011EDD0022E2
:1017B8008E718F7290E600E054187012E572240161
:1017C800FFE43571C313F571EF13F572801590E6D8
:1017D80000E05418FFBF100BE57225E0F572E571C3
:1017E80033F571E5721572AE71700215714E6005B0
:0617F800121FC080EE226A
:101FC0007400F58690FDA57C05A3E582458370F934
:011FD00022EE
:100D2500C1824224FD00004224F200004224F40066
:100D35000041241000412411004124F70002300B2A
:100D450016C1000125004124F600C107C104014E6A
:100D550000044600000000043D00000000608024FF
:100D6500720000000000000000000000000000000C
:100D7500000000000000000000000000000000006E
:100D8500000000000000000000000000000000005E
:100D9500000000000000000000000000000000004E
:100DA500000000000000000000000000000000003E
:100DB500000000000000000000000000000000002E
:100DC500000000000000000000000000000000001E
:100DD500000000000000000000000000000000000E
:100DE50000013500015101012CFF012B00023900E2
:100DF50000013200015200023600000244000001E9
:100E05005000015900025700000233C350012A194E
:080E1500C189013C00012F001E
:101EDE008F6C9024527403F0E4A3F07A247B527D2D
:101EEE00027F4112200B9024527401F0A3E56CF096
:0B1EFE007A247B527D027F4102200B02
:0B211B00C2B6C2B48FB1D2B4D2B6225B
:10137200C2B77FC87E00121FD8D2B77FAE12211B20
:101382007FA012211B7F7212211B7FA112211BE45D
:10139200FF12211B7FA212211BFF12211B7FA4120D
:1013A200211B7FA812211B7F3F12211B7FAD12211F
:1013B2001B7F8E12211B7FB012211B7F0B12211B60
:1013C2007FB112211B7F3112211B7FB312211B7FA0
:1013D200F012211B7F8A12211B7F6412211B7F8B3B
:1013E20012211B7F7812211B7F8C12211B7F64121A
:1013F200211B7FBB12211B7F3A12211B7FBE1221B0
:101402001B7F3E12211B7F8712211B7F0612211B8D
:101412007F8112211B7F9112211B7F8212211B7F50
:101422005012211B7F8312211B7F7D12211B7FAF54
:0314320002211B79
:1008C40090E600E054E74410F000000000000090BF
:1008D400E61074A0F000000090E60B7401F090E6BE
:1008E4001274E0F0000000E490E613F000000090C1
:1008F400E61474E2F000000090E61574A0F0000025
:100904000090E6D27402F090E6047480F0000000D7
:100914007402F00000007406F00000007408F00097
:100924000000E4F00000001215B790E6187408F017
:1009340000000090E619F000000090E61AF00000B4
:100944000090E61BF0000000E490E671F075B47FBF
:1009540075A07F90E672F075B6FF75B1FF90E670F2
:10096400F075B2FF75B5FFC28CD2B0D2B1122101BD
:1009740090E61074A0F000000090E611F000000072
:1009840090E65EE04408F0000000E490E68DF0009C
:10099400000090E65EE04404F0000000E490E7C04C
:1009A400F090E7C4F0A3F0A3F0A3F090E7F0F09088
:1009B400E68F7440F000000090E65EE04440F000F2
:1009C40000007E027F0090F800E4F0A3DFFCDEFA72
:1009D40090E6987402F0000000E490E699F00000BC
:1009E400007E027F0090F800E4F0A3DFFCDEFA90C2
:1009F400E65EE04480F0000000E490E69CF0000035
:100A04000090E69DF00000007F9AFE1221307527C9
:100A1400007528B47553017554907530107531B84C
:100A240075550675562C12215390E67AE054FEF063
:100A3400E4FD7F901220BF7F647E001217B87DFF13
:100A44007F421220BF7F647E001217B87D827F4EE2
:100A54001220BF753BFF43A020E4F54390E782E5F5
:100A64003BF090E781E543F0122101D20975510171
:100A7400753327753410752A0A1219AA7F887E13D4
:100A8400121FD81219AA7FB87E0B121FD87F887E36
:100A940013121FD812210E121372D2F9C2F8E4F500
:100AA4004E90E7C0E54EF043A01053917F53A0F061
:010AB400221F
:0E20F300EF2401FBE43EFA7D047F48021FEF5C
:101F3400E543C313FFC374809F9024FEF0E4940030
:101F44009024FDF0E543D394004006753BFF43A085
:091F540020E543700353A0DF22D5
:1011B900E4FC9024F9E0FEA3E02400FDEC3EFC9061
:1011C9002410E0FEA3E07A002400FFEA3EFEC3ED0E
:1011D9009FFFEC9EFE9024F2F0A3EFF09024F5E03F
:1011E9002FF09024F4E03EF0D3EF9450EE64809415
:1011F9008050129024F2E0FAA3E0FBC394B0EA64B1
:1012090080947F501C9024F3E025E0FE9024F2E0C6
:10121900339024FDF0A3CEF0E49024F4F0A3F08001
:10122900337C007D14AF03AE02120E6DAC06AD0720
:101239009024F4E0FEA3E07802C333CE33CED8F98C
:101249002DFFEC3EFE7C007D0A120E7F9024FDEE00
:10125900F0A3EFF0D39024FEE094FF9024FDE06426
:101269008094804006E4F0A374FFF0C39024FDE06D
:10127900648094805004E4F0A3F09024FDE0FEA380
:10128900E0FF7C007D02120E7FC3747F9FF0E49E15
:041299009024FDF0B0
:01129D00222E
:101A8E007E247FF81220F39024F9E090E7C1F090C5
:101A9E0024FAE090E7C2F09024FEE090E7C3F090C5
:101AAE0024F7E0600B43A020753BFF1211B98003B1
:101ABE00121F34902452E53BF07A247B527D017F35
:101ACE002112200B9024527402F0A37480F07A2419
:101ADE007B527D027F2812200BE4902452F090243A
:101AEE00FEE0902453F07A247B527D027F28022060
:011AFE000BDC
:1014F8000558E5587002055705500559B5340DE5EE
:1015080057B53308E4F557F558121A8E90E7C8E531
:1015180051F0A3E52BF0A3E532F0E559B40A07E44E
:1015280090FC00F0F559E550652A7023E5516014E8
:1015380014600C14600924FD600504700F8000120B
:1015480020E38008E4FF121EDE53A0EFE4F55030DC
:10155800015C754E0190E7C0E54EF0E5A030E70369
:101568002007F890F00074AAF0A37411F0A374CCCB
:10157800F0A374EEF0E490E690F090E6917405F034
:10158800120F7D90F00074AAF0A37411F0A374CC2C
:10159800F0A374EEF0E490E690F090E6917405F014
:0F15A800C201E4F54E90E7C0E54EF012210E228D
:0217FE00D322F4
:02215F00D32289
:02216100D32287
:101AFF0090E680E030E73A00000090E6207402F0B4
:101B0F00000000E490E621F000000090E62474024B
:101B1F00F0000000E490E625F000000090E6267447
:101B2F0002F0000000E490E627F0000000D20280EF
:101B3F0016000000E490E620F000000090E621740B
:0F1B4F0040F0000000C20290E6BAE0F54FD3224A
:10209B0090E740E54FF0E490E68AF090E68B04F091
:0220AB00D3223E
:08214B0090E6BAE0F526D3226C
:1020AD0090E740E526F0E490E68AF090E68B04F0A8
:0220BD00D3222C
:02216300D32285
:02216500D32283
:02216700D32281
:10008000E4FFF56CF56D90E6B9E0244B605F147009
:100090000302029A24FA70030202D224FA700302C5
:1000A000033624F8700302037C24FA70030203BEB3
:1000B000241D6003020496E490E68AF090E68BF03B
:1000C00090E6A0E020E1F990E68BE0E4F5B390E65D
:1000D0000174CAF0D20100000090E6047480F000C0
:1000E00000007402F0000000E4F0020498E490E6DE
:1000F0008AF090E68BF090E6A0E020E1F990E68BA4
:10010000E0D3943F4024E4F56C7440256CF582E420
:1001100034E7F583E0FF7412256CF582E43424F5AE
:1001200083EFF0056CE56CB440DF7F8A7E0012211E
:1001300030902412E0FF7E00122139902413E075E4
:10014000F004A4FFAEF0122142902417E0C3940201
:100150005013902433E090E6C07005744EF0801682
:10016000749CF08011902433E090E6C07005749F79
:10017000F08003749DF0902435E024FF92069024D3
:1001800032E024FF9205902436E024FF9208902468
:1001900040E0754100F542A3E0FEA3E07C002400AE
:1001A000F524EC3EF523902445E09024F6F09024CD
:1001B00018E0F538E538700375380190241DE0FE2D
:1001C000A3E07C002400F528EC3EF527A3E0FEA385
:1001D000E02400F554EC3EF553902419E0FEA3E032
:1001E0002400F531EC3EF530A3E0FEA3E02400F559
:1001F00056EC3EF55590244DE0FFE4FDFEFBFAF988
:100200007801120EB5A804A905AA06AB079024230D
:10021000E0FEA3E07C002400FFEC3EFEE4FDEB2FBB
:10022000FFEA3EFEED39FDEC38FCC004C005C00617
:10023000C00790244EE0FFE4FCFDFEFBFA7901F8D4
:10024000120EB5D003D002D001D000EF2BF54DEE49
:100250003AF54CED39F54BEC38F54A902421E0FEA7
:10026000A3E07C002400F52EEC3EF52DE4FD7F900C
:100270001220BF902413E0FCA3E0FDA3E0FEA3E066
:10028000F5498E488D478C46E549F549E548F548DE
:10029000E547F547E4F546020498E4F56C74122549
:1002A0006CF582E43424F583E0FF7440256CF5821C
:1002B000E434E7F583EFF0056CE56CB440DF000053
:1002C00000E490E68AF000000090E68B7440F002B3
:1002D0000498E490E68AF090E68BF090E6A0E020A7
:1002E000E1F990E6BDE0902452F090E6BCE0902465
:1002F00053F0E4F56C90E6BEE0FFE56CC39F501E42
:100300007440256CF582E434E7F583E0FF745425EE
:100310006CF582E43424F583EFF0056C80D790E629
:10032000BAE0C313FF90E6BEE02402FD7A247B52BC
:1003300012200B02049890E740740AF0A3740CF0AA
:10034000A3F0A37426F0A37407F0A374EEF0A374D3
:1003500001F0A37403F0A37453F0300205E4A3F09A
:10036000800690E74974FFF0000000E490E68AF010
:1003700000000090E68B740AF002049890E6BCE05E
:100380009025AAF07A257BAA7D017F5012200B7A56
:10039000257BAA7D017F5012200B90E6BEE0FD7AFE
:1003A000E77B407F50121FEFE490E68AF0000000E8
:1003B00090E6BEE090E68BF0000000020498E49026
:1003C000E68AF090E68BF090E6A0E020E1F990E676
:1003D0008BE0F56CC29890E740E0C394304014E5A0
:1003E00032242FFFE433FEE0D39FEE6480F8748064
:1003F00098401190E740E0F46003020483E5516007
:100400000302048343A01090E740E0F4600AE0B4E4
:10041000300DE52B64016007D20975510480799095
:10042000E740E0C394314070E532242FFFE433FE0F
:10043000E0D39FEE6480F8748098505CE024D1F59E
:100440002C652B6053E0B40A03752C6190E740E003
:10045000B40B03752C6290E740E0B40C03752C6379
:1004600090E740E0B40D03752C6490E740E0B40ED3
:1004700003752C6590E740E0B40F03752C66755149
:1004800002801590E740E0B4200EE551700A43A0C9
:09049000107551058002D322C34E
:010499002240
:10203F00C0E0C083C082D20C5391EF90E65D740173
:08204F00F0D082D083D0E03212
:10206F00C0E0C083C0825391EF90E65D7404F0D05E
:06207F0082D083D0E032A4
:10208500C0E0C083C0825391EF90E65D7402F0D04A
:0620950082D083D0E0328E
:101D5400C0E0C083C08285100C85110D850D82857D
:101D64000C83A37402F085080E85090F850F828504
:101D74000E83A37407F05391EF90E65D7410F0D0D6
:061D840082D083D0E032A2
:10205700C0E0C083C082D20E5391EF90E65D740852
:08206700F0D082D083D0E032FA
:101CE000C0E0C083C08290E680E030E72085080C29
:101CF00085090D850D82850C83A37402F085100E75
:101D000085110F850F82850E83A37407F05391EF21
:0D1D100090E65D7420F0D082D083D0E032E8
:0116FF0032B8
:012169003243
:01216A003242
:01216B003241
:101E2600C0E0C083C08290E65EE054FBF000000094
:101E360090E68F7440F00000005391EF90E65FE06B
:101E46004404F090E65EE04404F0D082D083D0E013
:011E56003259
:10129E00C0E0C0F0C083C082C0D075D000C000C016
:0D12AE0001C002C003C004C005C006C00797
:1012BB00755A00755B0090E65EE054F7F090E6A17E
:1012CB00E020E1F990E780E0FF146016146026241B
:1012DB00D0603A2434604D1460541470567522005B
:1012EB00805190E782E0F53B90E781E0F543902455
:1012FB00F7E4F0803E90E782E0902410F090E781D5
:10130B00E0902411F09024F77401F0802690E7818F
:10131B00E070051219AA801B90E781E0B4FF14124C
:10132B00210E800F90E781E024FF92078005752244
:10133B0000D20300000090E68DE4F05391EF90E6AD
:0C134B005FE04408F090E65EE04408F02B
:10135700D007D006D005D004D003D002D001D000EA
:0B136700D0D0D082D083D0F0D0E03294
:01216C003240
:01216D00323F
:101CA100C0E0C083C08290E65EE054BFF000000057
:101CB10090E6987402F000000090E699E4F00000CC
:101CC1000090F800F0A3F05391EF90E65FE04440FC
:0F1CD100F090E65EE04440F0D082D083D0E03265
:0F1B5E00C0E0C083C082C0D075D000C004C006F4
:101B6D0090E65EE0547FF090E6A6E020E1F990E685
:101B7D009CE0FE90E69DE07C002400F55BEC3EF5DC
:101B8D005A00000090E69CE4F090E69DF05391EF32
:0E1B9D0090E65FE04480F090E65EE04480F069
:0D1BAB00D006D004D0D0D082D083D0E0325C
:01216E00323E
:01216F00323D
:01217000323C
:01217100323B
:01217200323A
:012173003239
:012174003238
:012175003237
:012176003236
:012177003235
:012178003234
:012179003233
:01217A003232
:01217B003231
:01217C003230
:01217D00322F
:01217E00322E
:01217F00322D
:01218000322C
:01218100322B
:01218200322A
:012183003229
:012184003228
:012185003227
:012186003226
:012187003225
:061673008F6E8C6F8D707C
:10167900536E0753B0F7121FD4E4F571C374029582
:1016890071FFE56EA807088002C313D8FC30E00596
:1016990043800280035380FD121FD4121FD153804F
:1016A900FE121FD40571E571C3940340CFE4F571AF
:1016B900C374099571FFE570AE6FA807088005CE60
:1016C900C313CE13D8F930E0054380028003538059
:1016D900FD121FD4121FD15380FE121FD40571E5CC
:1016E90071C3940A40CA43B008121FD453B0F77F9C
:0616F9000A7E00021FD86A
:09213000AD07AC06E4FF021673D2
:09213900AD07AC067F0402167329
:09214200AD07AC067F0102167323
:1020BF00902452EDF0EFC313FF7A247B527D01027F
:0220CF00200BE4
:071FD1004380017F0A7E003E
:101FD800EF7803C333CE33CED8F9FFEF4E6007EF67
:071FE8001F70F81E80F522B6
:0D210100D282C283D287C284D286D28522C8
:101C5B00C2827F017E00121FD8D284D2867F017E82
:101C6B0000121FD8C2857F017E00121FD8D283D2EB
:101C7B00877F017E00121FD8C2847F017E00121F56
:101C8B00D8D2827F017E00121FD8C2837F017E00D3
:061C9B00121FD8D28522C1
:101F8600C284C2867F037E00121FD8C283C2877FA7
:101F9600037E00121FD8C284D2867F037E00121FE2
:061FA600D8C283D287229D
:1020D100E4FDFC121C5B0DBD00010CBC08F5BDD478
:0120E100F20C
:0120E20022DB
:1014350085494085483F85473E85463DE52E452DF6
:10144500700AC2B17F32FE121FD8D2B1300505C273
:10145500B043A0403006030214E6752201E47FE89C
:101465007E03FDFCAB40AA3FA93EA83DC3120F0475
:101475004061E5226401705B7FDD7E031217B812BF
:101485001A8EE5402418F540E53F34FCF53FE53E6E
:1014950034FFF53EE53D34FFF53DE4FFFEFDE53D5A
:1014A500FC7818120F1590E7C4EFF0E4FFFEE53E57
:1014B500FDE4FC7810120F15A3EFF0E4FFE53FFE05
:1014C500E4FDFC7808120F15A3EFF0E540FFA3EF4C
:1014D500F0808AE522B40112AE3FAF401217B88002
:1014E50009752201E522640160FA300505D2B05381
:0314F500A0BF2273
:101937008F748E738D728C71E4FFFEFDFCAB74AAFD
:1019470073A972A871D3120F044057000000E4FF77
:10195700FEFDE571FC7818120F1590E6CEEFF0004A
:101967000000E4FFFEE572FDE4FC7810120F15900D
:10197700E6CFEFF0000000E4FFE573FEE4FDFC783E
:1019870008120F1590E6D0EFF0000000E574FF9005
:10199700E6D1EFF000000075BB04000000E5BB30A6
:0319A700E7FB2239
:081D1D008C718D72AB07AA0660
:101D2500E4FDFCC3ED9572EC95715022EA90E6D086
:101D3500F0000000EB90E6D1F000000075BB050057
:0E1D45000000E5BB30E7FB0DBD00010C80D5B2
:011D5300226D
:101F5D00AD07AC06000000ED25E0EC3390E6D0F0C7
:101F6D00000000ED25E090E6D1F000000075BB0407
:091F7D00000000E5BB30E7FB2287
:101C1200E47FACFEFDFCAB49AA48A947A846D31213
:101C22000F044026E5492454F549E54834FFF548B8
:101C3200E54734FFF547E54634FFF546121435E52E
:101C42002E452D70111220D1800CE52E452D7003EA
:091C52001220D1121435021F8684
:100F7D00C20353A0F043A0047FD07E07121FD853A5
:100F8D00A0F043A00C7FD07E07121FD853A0F043D2
:100F9D00A0087FD07E07121FD87FAE12211B902490
:100FAD00F6E0B40103121A1C754E0290E7C0E54E2F
:100FBD00F0121C12754E0390E7C0E54EF03003039E
:100FCD000210B0E4F56EF56FC3E56F9528E56E95EB
:100FDD0027501BE4F570E570C395385007121C5B64
:100FED00057080F2056FE56F70DE056E80DAD3E572
:100FFD00429400E5419400400BAD42AC41AF31AE9F
:10100D0030121D1DD3E5249400E52394004007AF55
:10101D0024AE23121F5DE4F56CF56DC3E56D955699
:10102D00E56C9555502C121F09E4F56EF56FC3E56F
:10103D006F95387480F8656E98500D121C5B056FB6
:10104D00E56F70EA056E80E6056DE56D70CD056C9A
:10105D0080C9E4F56EF56FC3E56F9554E56E955354
:10106D00501BE4F570E570C395385007121C5B05F5
:10107D007080F2056FE56F70DE056E80DAD282D278
:10108D0083D287D284D286D285AF4DAE4CAD4BACD8
:10109D004A1219379024F6E0B401031219AA7FAF52
:0310AD0012211BF2
:0110B000221D
:101F0900000000E53125E0E5303390E6D0F000002F
:101F190000E53125E090E6D1F000000075BB040032
:0B1F29000000E5BB20E7033003F822B6
:101BB800052FE52FB40803E4F52FE52F70047F08FF
:101BC800803DE52FB401047F0A8034E52FB4020478
:101BD8007F02802BE52FB403047F038022E52FB416
:101BE80004047F018019E52FB405047F058010E502
:101BF8002FB406047F048007E52FB4070C7F0C126E
:0A1C08001EDE7F2D7E00121FD82281
:1020E300E551600B053AE53A70020539121BB82237
:0D210E0053A0F07525FF90E7CBE525F022EA
:1019AA0053A0F043A0097F287E0A121FD853A0F043
:1019BA0043A0017F287E0A121FD853A0F043A00338
:1019CA007F287E0A121FD853A0F043A0027F287EE8
:1019DA000A121FD853A0F043A0067F287E0A121FBE
:1019EA00D853A0F043A0047F287E0A121FD853A020
:1019FA00F043A00C7F287E0A121FD853A0F043A000
:101A0A00087F287E0A121FD8E4F52590E7CBE52542
:021A1A00F022B8
:101A1C0053A0F043A0087FC47E09121FD853A0F036
:101A2C0043A00C7FC47E09121FD853A0F043A0041E
:101A3C007FC47E09121FD853A0F043A0067FC47E3A
:101A4C0009121FD853A0F043A0027FC47E09121FB5
:101A5C00D853A0F043A0037FC47E09121FD853A013
:101A6C00F043A0017FC47E09121FD853A0F043A0FD
:101A7C00097FC47E09121FD875250190E7CBE52597
:021A8C00F02246
:08215300E4F51BD2E9D2AF2232
:101D8A0090E678E020E6F9C2E990E678E04480F04F
:101D9A00EF25E090E679F090E678E030E0F990E619
:101DAA0078E04440F090E678E020E6F990E678E0C2
:061DBA0030E1D6D2E9225F
:101DF400A90790E678E020E6F9E51B702390E678E1
:101E0400E04480F0E925E090E679F08D16AF03A96F
:101E1400077517018A188919E4F51A751B01D3226D
:021E2400C322D7
:101DC000A90790E678E020E6F9E51B702590E67813
:101DD000E04480F0E925E0440190E679F08D16AF0B
:101DE00003A9077517018A188919E4F51A751B03E9
:041DF000D322C32215
:03004B000210B1EF
:1010B100C0E0C083C082C085C084C086758600C080
:1010C100D075D000C000C001C002C003C006C00777
:1010D10090E678E030E206751B0602119B90E678F7
:1010E100E020E10CE51B64026006751B0702119B01
:1010F100E51B24FE605F14603624FE700302118C30
:1011010024FC70030211982408600302119BAB17A1
:10111100AA18A919AF1A051A8F82758300120E1E1B
:1011210090E679F0E51A65167070751B05806B9075
:10113100E679E0AB17AA18A919AE1A8E8275830059
:10114100120E4B751B02E5166401704E90E678E0B5
:101151004420F08045E51624FEB51A0790E678E0B4
:101161004420F0E51614B51A0A90E678E04440F000
:10117100751B0090E679E0AB17AA18A919AE1A8E73
:1011810082758300120E4B051A800F90E678E044B9
:1011910040F0751B008003751B005391DFD007D011
:1011A10006D003D002D001D000D0D0D086D084D0D8
:0811B10085D082D083D0E0322A
:101FEF00121DC0E51B24FA600E146006240770F35F
:0C1FFF00D322E4F51BD322E4F51BD3220F
:10200B00121DF4E51B24FA600E146006240770F30E
:0C201B00D322E4F51BD322E4F51BD322F2
:030000000218AB38
:0C18AB00787FE4F6D8FD7581740218F215
:100E1E00BB010CE58229F582E5833AF583E0225089
:100E2E0006E92582F8E622BBFE06E92582F8E222D3
:0D0E3E00E58229F582E5833AF583E49322ED
:100E4B00F8BB010DE58229F582E5833AF583E8F0DD
:100E5B00225006E92582C8F622BBFE05E92582C889
:020E6B00F22271
:100E6D00EF8DF0A4A8F0CF8CF0A428CE8DF0A42E99
:020E7D00FE2253
:100E7F00C2D5EC30E709B2D5E4C39DFDE49CFCEE8E
:100E8F0030E715B2D5E4C39FFFE49EFE120F28C3CF
:100E9F00E49DFDE49CFC8003120F2830D507C3E4CA
:060EAF009FFFE49EFE22FD
:100EB500E88FF0A4CC8BF0A42CFCE98EF0A42CFCDC
:100EC5008AF0EDA42CFCEA8EF0A4CDA8F08BF0A45A
:100ED5002DCC3825F0FDE98FF0A42CCD35F0FCEBB9
:100EE5008EF0A4FEA9F0EB8FF0A4CFC5F02ECD397E
:0F0EF500FEE43CFCEAA42DCE35F0FDE43CFC22EB
:100F0400EB9FF5F0EA9E42F0E99D42F0E89C45F043
:010F140022BA
:100F1500E8600FECC313FCED13FDEE13FEEF13FFBA
:030F2500D8F122DE
:1018B700020AB5E493A3F8E493A34003F68001F288
:1018C70008DFF48029E493A3F85407240CC8C33332
:1018D700C4540F4420C8834004F456800146F6DF01
:1018E700E4800B0102040810204080900C6FE47E16
:1018F700019360BCA3FF543F30E509541FFEE493F6
:10190700A360010ECF54C025E060A840B8E493A3BC
:10191700FAE493A3F8E493A3C8C582C8CAC583CAE7
:10192700F0A3C8C582C8CAC583CADFE9DEE780BE9F
:010E1D0000D4
:100F2800BC000BBE0029EF8DF084FFADF022E4CCAD
:100F3800F875F008EF2FFFEE33FEEC33FCEE9DEC76
:100F4800984005FCEE9DFE0FD5F0E9E4CEFD22EDBC
:100F5800F8F5F0EE8420D21CFEADF075F008EF2F06
:100F6800FFED33FD4007985006D5F0F222C398FDF7
:050F78000FD5F0EA2294
:00000001FF
