:0A1F3B00000102020303040405057F
:10060700E4F513F512F511F510C203C200C202C2D8
:1006170001121E62120AB37E167F008E538F547525
:100627005B16755C1275511675521C755916755AFD
:100637004A755D16755E78EE54E0700302074E75D5
:1006470014007515808E168F17C374A29FFF74163A
:100657009ECF2402CF3400FEE48F0F8E0EF50DF5EA
:100667000CF50BF50AF509F508AF0FAE0EAD0DAC9D
:100677000CAB0BAA0AA909A808C31209325026E530
:1006870015250BF582E514350AF58374CDF0E50BD6
:100697002401F50BE4350AF50AE43509F509E435D3
:1006A70008F50880C4E4F50BF50AF509F508AF0F5E
:1006B700AE0EAD0DAC0CAB0BAA0AA909A808C31264
:1006C70009325031AE0AAF0BE5172FF582E5163E1A
:1006D700F583E0FDE5152FF582E5143EF583EDF092
:1006E700EF2401F50BE43EF50AE43509F509E43595
:1006F70008F50880B985145385155474002480FFC4
:10070700741634FFFEC3E55C9FF55CE55B9EF55B05
:10071700C3E5569FF556E5559EF555C3E5589FF534
:1007270058E5579EF557C3E5529FF552E5519EF59B
:1007370051C3E55A9FF55AE5599EF559C3E55E9FA2
:10074700F55EE55D9EF55DD2E843D82090E668E06A
:100757004409F090E65CE0443DF0D2AF90E680E0DB
:1007670020E105D208121C8B90E680E054F7F05385
:100777008EF8C2033001051203E3C20130032912C8
:100787001FCD5024C203121E1A20001690E682E0E5
:1007970030E704E020E1EF90E682E030E604E02075
:0D07A700E0E4121D70121FCF12173F80C733
:1003E30090E6B9E07003020494147003020511242B
:1003F300FE700302059424FB700302048E14700341
:10040300020488146073146076240560030205F304
:10041300121FD140030205FF90E6BBE024FE6022D9
:1004230014603324FD601114602224067048E553E0
:1004330090E6B3F0E5548037E55B90E6B3F0E55C16
:10044300802DE55590E6B3F0E5568023E55790E619
:10045300B3F0E558801990E6BAE0FF121D9CAA0696
:10046300A9077B01EA494B600DEE90E6B3F0EF90EC
:10047300E6B4F00205FF0205F8121EFB0205FF12A7
:100483001F8D0205FF121A300205FF121EE9020535
:10049300FF121FD340030205FF90E6B8E0247F60FC
:1004A3001514601924027063A200E43325E0FFA24F
:1004B30002E4334F8041E490E740F0803F90E6BC94
:1004C300E0547EFF7E00E0D394807C0040047D01F5
:1004D30080027D00EC4EFEED4F243BF582741F3EFF
:1004E300F583E493FF3395E0FEEF24A1FFEE34E6BA
:1004F3008F82F583E0540190E740F0E4A3F090E6A7
:100503008AF090E68B7402F00205FF0205F8121FD1
:10051300D540030205FF90E6B8E024FE60162402EE
:1005230060030205FF90E6BAE0B40105C2000205CC
:10053300FF0205F890E6BAE0705590E6BCE0547E01
:10054300FF7E00E0D394807C0040047D0180027D27
:1005530000EC4EFEED4F243BF582741F3EF583E421
:1005630093FF3395E0FEEF24A1FFEE34E68F82F58F
:1005730083E054FEF090E6BCE05480131313541F41
:10058300FFE0540F2F90E683F0E04420F0806D806D
:1005930064121FD7506690E6B8E024FE6019240267
:1005A300705A90E6BAE0B40104D200804F90E6BAE4
:1005B300E064026047803E90E6BCE0547EFF7E002C
:1005C300E0D394807C0040047D0180027D00EC4EEA
:1005D300FEED4F243BF582741F3EF583E493FF3316
:1005E30095E0FEEF24A1FFEE34E68F82F5838008C9
:1005F300120080500790E6A0E04401F090E6A0E0EE
:030603004480F040
:0106060022D1
:030033000212FBBB
:0412FB0053D8EF32A3
:101E6200758CE0758AC0E58954F04401F589758E58
:081E720003D28CD2A9D2AF22E9
:03000B0002146775
:10146700C0E0C0F0C083C082C0D075D000C000C04B
:1014770001C002C003C004C005C006C007758CE0E8
:10148700758AC0D28CE47F607EEAFDFCAB4FAA4E22
:10149700A94DA84CC31209325019AF4FAE4EAD4DEE
:1014A700AC4CEF2401F54FE43EF54EE43DF54DE439
:1014B7003CF54CE47F01FEFDFCAB4FAA4EA94DA8BD
:1014C7004CC31209327008E5A054F02535F5A0E5A4
:1014D7002B2401FFE4352AFEE4FCFDAB4FAA4EA9FD
:1014E7004DA84CC3120932700553A0F0C28CD00727
:1014F700D006D005D004D003D002D001D000D0D080
:09150700D082D083D0F0D0E03294
:10160000120100020000004018165A0200000102F8
:1016100000010A06000200000040010009022E003D
:1016200001010080FA0904000004FF000000070522
:1016300001024000000705820200020007050202C5
:101640000002000705810240000009022E0001018E
:101650000080FA0904000004FF00000007050102F1
:101660004000000705820240000007050202000258
:101670000007058102400000040309041003510023
:10168000480059002D004300430044001603510058
:10169000480059002D0036002000200020002000C6
:0416A0002000000026
:100FCF0060802800010402020202020700000002F2
:100FDF00000002001332120A080C08000000000083
:100FEF000000003F0104020202020207000000029B
:100FFF000000020013320A12100C0800000000005B
:10100F000000003F031A030303030307000000025D
:10101F00000002001332120A080C08000000000042
:10102F000000003F035A03030303030700000002FD
:10103F000000020013320A12100C0800000000001A
:10104F000000003F6024288700000000000000001F
:10105F000000000000000000000000000000000081
:10106F000000000000000000000000004728808002
:06107F00000000CA4E0053
:1011680090E60174CAF090E6F574FFF0902880E0EC
:1011780090E6F3F0902881E090E6C3F0902882E0B2
:1011880090E6C1F0902883E090E6C2F0902885E0D0
:1011980090E6C0F0902886E090E6F4F075AF07740A
:1011A80028F59A7400F59B759DE4E4F59EFF90E69A
:1011B8007BE090E67CF00FBF80F490E67174FFF05E
:1011C800F5B490E672E04480F043B680000000E495
:1011D80090E6C4F000000090E6C5F0902887E09003
:1011E800E6C6F0902888E090E6C7F0902889E0905D
:1011F800E6C8F090288AE090E6C9F090288BE09045
:10120800E6CAF090288CE090E6CBF090288DE0902C
:0B121800E6CCF090288EE090E6CDF0D0
:0112230022A8
:03004300021300A5
:0300530002130095
:10130000021E7A00021EC000021EAA00021E9200E7
:10131000021B5700021A6D000212FF00021FD900C3
:10132000021FDA00021FDB000219D8000216A40017
:10133000021FDC00021FDD00021FDE00021FDF00B3
:10134000021FE000021FD900021FE100021FE2009D
:10135000021FE300021FE400021FE500021FE60077
:10136000021FE700021FD900021FD900021FD90087
:10137000021FE800021FE900021FEA00021FEB0043
:10138000021FEC00021FED00021FEE00021FEF0023
:10139000021FF000021FF100021FF200021FF30003
:1013A000021FF400021FF500021FF600021FF700E3
:0813B000021FF800021FF90002
:101D700090E682E030E004E020E60B90E682E0307E
:101D8000E119E030E71590E680E04401F07F147E31
:0C1D9000001215B790E680E054FEF0222F
:101E1A0090E682E044C0F090E681F043870100003A
:041E2A000000002292
:101C8B0030080990E680E0440AF0800790E680E097
:101C9B004408F07FDC7E051215B790E65D74FFF00B
:0F1CAB0090E65FF05391EF90E680E054F7F0225F
:021D9C00A90795
:101D9E00AE5DAF5E8F828E83A3E064037017AD01DC
:101DAE0019ED7001228F828E83E07C002FFDEC3EB8
:091DBE00FEAF0580DF7E007F000E
:011DC70022F9
:1015B7008E1C8F1D90E600E054187012E51D240163
:1015C700FFE4351CC313F51CEF13F51D801590E6DA
:1015D70000E05418FFBF100BE51D25E0F51DE51CC5
:1015E70033F51CE51D151DAE1C7002151C4E60055C
:0615F700121E2E80EE2200
:101E2E007400F58690FDA57C05A3E582458370F9C7
:011E3E002281
:10108500C1850223000002311040C1070448000059
:0810950000000150700133E27C
:081DC80090E679F07F057E0032
:101DD0008E1E8F1FE51F451E60177F957E0012190E
:101DE000C1000000000000E51F151F70E7151E80F0
:021DF000E322EC
:100AB30090E600E054E74410F000000000000090CE
:100AC300E61074A0F000000090E60B7401F090E6CD
:100AD3001274E0F0000000E490E613F000000090D0
:100AE300E614F000000090E615F000000090E61810
:100AF300740CF000000090E6D27402F090E60474E7
:100B030080F00000007402F0000000E4F000000038
:100B1300121168E490E671F075B4FF90E672F07517
:100B2300B6FF75B1FF90E670F075B2FFC28CD28646
:100B3300D287121ED675230275240000000090E6AA
:100B43001074A0F000000000000090E611F0000017
:100B53000090E65EE04408F0000000E490E68DF0CB
:100B630090E65EE04404F0000000E490E68FF012AB
:100B73001D167F9A7E00121F457528007529B475CE
:100B830043017544907531107532B8754606754743
:100B93002C121F9D90E67AE054FEF0E4FD7F901244
:100BA3001BF77F647E001215B77DFF7F42121BF790
:100BB3007F647E001215B77D827F4E121BF7753658
:100BC300FF75398290E782E536F090E781E539F0E9
:060BD3001215FD021ED602
:10185F00E539D3940040037536FF90E678E0448075
:10186F00F07491121DC890E679E090E7C0121DCB7D
:10187F0090E679E090E7C1121DCB90E679E090E712
:10188F00C2121DCB90E679E090E7C3121DCB90E614
:10189F0078E04440121DCB90E678E04480F074422B
:1018AF00121DC890E679E536121DCB90E678E0441C
:1018BF0040121DCB90E678E04480F090E679744EAC
:1018CF00121DCB90E679E539121DCB90E678E044F6
:0918DF0040F07F057E00021DD0DF
:10173F00E54B2401F54BE4354AF54AE43549F549C3
:10174F00E43548F548E47FE87E03FDFCAB4BAA4A3D
:10175F00A949A848C31209327006FD7F90121BF7E2
:10176F007FA07E867D017C00AB4BAA4AA949A84881
:10177F00C31209327009121F8A12185F1215FD7FEA
:10178F00407E0D7D037C00AB4BAA4AA949A848D3E4
:10179F001209324009E4F54BF54AF549F548300492
:1017AF0020E534B40103121510E534B40203121806
:1017BF00E8E534B40403120000E534B463031209FE
:0417CF0043C20422EB
:021FCD00D3221D
:021FCF00D3221B
:021FD100D32219
:101A300090E680E030E71800000090E6207402F0A5
:101A4000000000E490E621F0000000D205801600BE
:101A50000000E490E620F000000090E6217440F0E1
:0D1A6000000000C20590E6BAE0F541D32277
:101EE90090E740E541F0E490E68AF090E68B04F053
:021EF900D322F2
:081F8D0090E6BAE0F527D3222B
:101EFB0090E740E527F0E490E68AF090E68B04F05B
:021F0B00D322DF
:021FD300D32217
:021FD500D32215
:021FD700D32213
:10008000E4F518F51990E6B9E0244B606B147003A1
:1000900002024224F4700302027A24FD7003020279
:1000A000C514700302032924FD700302035E2416A5
:1000B00060030203DFE490E68AF090E68BF090E6BE
:1000C000A0E020E1F990E68BE0F518E4F5B5F5B392
:1000D00090E60174CAF0E490E6C3F090E6C2F0D274
:1000E0000400000090E6047480F00000007402F048
:1000F000000000E4F00203E1E490E68AF090E68B71
:10010000F090E6A0E020E1F990E68BE0F518D394BA
:100110003F4024E4F51974402519F582E434E7F5ED
:1001200083E0FF74AB2519F582E43428F583EFF002
:100130000519E519B440DF7F9A7E00121F4590280B
:10014000ABE0FF7E00121F4E9028ABE0FF7E001256
:100150001F579028ABE0FF7E00121F609028ACE094
:1001600075F004A4FFAEF0121F699028ACE075F0A2
:1001700004A4FFAEF0121F729028ACE075F004A446
:10018000FFAEF0121F7B9028B0E0C3940250139092
:1001900028CCE090E6C07005744EF08016749CF098
:1001A00080119028CCE090E6C07005749FF0800329
:1001B000749DF09028CEE0F53A9028CBE0F5389089
:1001C00028DAE0FEA3E07C002400F526EC3EF525CD
:1001D0009028DFE0F5459028B1E0F534E534700370
:1001E0007534019028B6E0FEA3E07C002400F529D8
:1001F000EC3EF528A3E0FEA3E02400F544EC3EF538
:10020000439028B2E0FEA3E02400F532EC3EF53145
:10021000A3E0FEA3E02400F547EC3EF5469028BCA1
:10022000E0FEA3E02400F540EC3EF53F9028BAE064
:10023000FEA3E02400F530EC3EF52FE4FD7F9002B4
:100240000358E4F51974AB2519F582E43428F583D5
:10025000E0FF74402519F582E434E7F583EFF005FB
:1002600019E519B40ADF000000E490E68AF0000006
:100270000090E68B740AF00203E190E74074B2F05C
:10028000A37408F0A3740CF0A37426F0A37407F011
:10029000A374EEF0A37401F0A37403F0A37413F03D
:1002A000300505E4A3F0800690E74974FFF00000F4
:1002B00000E490E68AF000000090E68B740AF012E9
:1002C0001D160203E190E678E04480F090E6797430
:1002D00091F07F647E001219C190E679E090E740CA
:1002E000F07F647E001219C190E679E090E741F05A
:1002F0007F647E001219C190E679E090E742F07FBA
:10030000647E001219C190E679E090E743F090E630
:1003100078E04440F0000000E490E68AF00000003D
:1003200090E68B7404F00203E1E490E68AF090E634
:100330008BF090E6A0E020E1F990E68BE0F518D391
:10034000940150030203E190E741E0FD7F42121B5C
:10035000F790E740E0FD7F4E121BF70203E1E490C7
:10036000E68AF090E68BF090E6A0E020E1F990E6D6
:100370008BE0F518D39401406890E740E05480C4C6
:10038000131313540124FF92A3E05440C4131354D5
:100390000324FF92A2E05420C413540724FF92A127
:1003A000E05410C4540F24FF92A0A3E075F00AA4F7
:1003B000FFAEF01215B790E740E054081313135442
:1003C0001F24FF92A3E054041313543F24FF92A26E
:1003D000E05402C31324FF92A1E01392A08002D341
:0203E00022C336
:0103E20022F8
:101E7A00C0E0C083C082D2015391EF90E65D740145
:081E8A00F0D082D083D0E032D9
:101EAA00C0E0C083C0825391EF90E65D7404F0D025
:061EBA0082D083D0E0326B
:101EC000C0E0C083C0825391EF90E65D7402F0D011
:061ED00082D083D0E03255
:101B5700C0E0C083C082855955855A56855682850F
:101B67005583A37402F0855157855258855882854D
:101B77005783A37407F05391EF90E65D7410F0D08C
:061B870082D083D0E032A1
:101E9200C0E0C083C082D2035391EF90E65D740824
:081EA200F0D082D083D0E032C1
:101A6D00C0E0C083C08290E680E030E7208551550C
:101A7D00855256855682855583A37402F085595734
:101A8D00855A58855882855783A37407F05391EF73
:0D1A9D0090E65D7420F0D082D083D0E0325E
:0112FF0032BC
:011FD90032D5
:011FDA0032D4
:011FDB0032D3
:1019D800C0E0C0F0C083C082C0D075D000C000C0D5
:1019E80001C002C003C004C005C006C007C2AF12D0
:1019F8001F8A00000090E68F7404F00000005391E5
:101A0800EF90E65FE04404F01215FDD2AFD007D0A6
:101A180006D005D004D003D002D001D000D0D0D059
:081A280082D083D0F0D0E0323F
:1016A400C0E0C083C082C0D075D000C004C006C0F2
:0116B400072E
:1016B500C2AF90E6A1E020E1F990E780E014601464
:1016C50024F8601E240C604624FE6046147048759C
:1016D5002200804390E782E0F53690E781E0F53916
:1016E5008035D28C90E781E0540FF535A3E0FEA359
:1016F500E07C002400FFEC3EC313F52AEF13F52B25
:10170500754F00754E00754D00754C008009C28CF3
:101715008005752200D20600000090E68DE4F053A6
:0B17250091EF90E65FE04408F0D2AFC7
:0F173000D007D006D004D0D0D082D083D0E03202
:011FDC0032D2
:011FDD0032D1
:011FDE0032D0
:011FDF0032CF
:011FE00032CE
:011FE10032CD
:011FE20032CC
:011FE30032CB
:011FE40032CA
:011FE50032C9
:011FE60032C8
:011FE70032C7
:011FE80032C6
:011FE90032C5
:011FEA0032C4
:011FEB0032C3
:011FEC0032C2
:011FED0032C1
:011FEE0032C0
:011FEF0032BF
:011FF00032BE
:011FF10032BD
:011FF20032BC
:011FF30032BB
:011FF40032BA
:011FF50032B9
:011FF60032B8
:011FF70032B7
:011FF80032B6
:011FF90032B5
:06109E008F1A8C1B8D1C53
:1010A400531A0753A0BF7F0A7E001219C1E4F51D2D
:1010B400F51EC37402951EFFE51AA807088002C333
:1010C40013D8FC30E00543A020800353A0DF7F0A3F
:1010D4007E001219C143A0107F0A7E001219C15369
:1010E400A0EF7F0A7E001219C1051EE51E700205DD
:1010F4001DC39403E51D6480948040B6E4F51DF59A
:101104001EC37409951EFFE51CAE1BA807088005C5
:10111400CEC313CE13D8F930E00543A02080035387
:10112400A0DF7F0A7E001219C143A0107F0A7E004F
:101134001219C153A0EF7F0A7E001219C1051EE5E2
:101144001E7002051DC3940AE51D6480948040B19D
:1011540043A0407F0A7E001219C153A0BF7F0A7EBC
:04116400000219C1AB
:091F4500AD07AC06E4FF02109E9A
:091F4E00AD07AC067F0402109EF1
:091F5700AD07AC067F0502109EE7
:091F6000AD07AC067F0602109EDD
:091F6900AD07AC067F0102109ED9
:091F7200AD07AC067F0202109ECF
:091F7B00AD07AC067F0302109EC5
:101BF7008D1AAD0790E678E04480F090E679EDF035
:101C07007F647E001219C190E679E51AF07F647E41
:101C1700001219C190E678E04440F07F647E00022C
:021C270019C1E1
:10196D007F197E001219C1121CE27F197E00121917
:10197D00C1121FC17F3C7E001219C1121FAC7F0224
:10198D007E001219C1121FC57F027E001219C112ED
:10199D001F377F027E001219C1121F267F027E00A3
:1019AD001219C1121FBA7F027E001219C1121FC176
:0419BD007F027E0027
:1019C100EF7803C333CE33CED8F9FFEF4E6007EF84
:0719D1001F70F81E80F522D3
:071FA50053B1EF53B1FB2221
:071F1F007F197E001219C1B9
:071F260053B1EF43B10422A7
:071FAC0043B11043B1042210
:071FB30053B17F53B1DF229F
:101CBA00121CE27F0A7E001219C1121FA57F0A7E3A
:101CCA00001219C1121F267F0A7E001219C1121FA3
:081CDA00B37F0A7E001219C15C
:071CE20053B17F43B1202242
:071FBA0043B18043B1202276
:041FC10053B1FE22F8
:0A1F2D00121FC97F0A7E001219C1BD
:041F370043B101228F
:041FC50053B1FD22F5
:041FC90043B10222FC
:101ED600121F26121FC1121FBA121FC943B108438F
:031EE600B14022E6
:101CE900121CE27F02121983121F2D1219BD121C38
:101CF900BA7F0A7E001219C1121FC57F3C1219ABA7
:0D1D0900121FC91219BD7F647E000219C1AE
:101E3F00121CE27F02121983121F2D1219BD121CE0
:101E4F00BA7F0A121979121FC91219BD7F647E0059
:031E5F000219C1A4
:101AAA00121ED6121CE27F02121983121FC97F224C
:101ABA00121F321219BD121CE27F107E001219C1C8
:101ACA00121FA5121F1F7F19121CDD12196D121F7A
:0B1ADA00C91219BD7F647E000219C113
:101AE500121ED6121CE27F02121983121FC97F2211
:101AF500121F321219BD121CE27F10121F21121F74
:101B05001F7F197E001219C1121FB312196D121F02
:0B1B1500C91219BD7F647E000219C1D7
:0312E000121DF2EA
:1012E300121CE2121FAC121FC5121F37121F261247
:0812F3001FBA121FC1021FC93E
:101F0D00E4FFFE1212E30FBF00010EBE01F5BF2A62
:011F1D00F2D1
:011F1E0022A0
:081F9500C2871219BDD2872298
:101D1600C283E4F51AF51BD2837F1E7E001215B727
:101D2600C2837F1E7E001215B7051BE51B700205D8
:0C1D36001AC39405E51A6480948040DB19
:011D4200227E
:061F8400121F0D121AE508
:031F8A00D28322DD
:0315FD00C2832284
:011FFA0022C4
:011FFB0022C3
:10122400E4FFFEE53CFDE4FCFB7A01F9F81208A0BA
:10123400E4FB7A01F9F81208A08F2CE4FFE53DFEE7
:10124400E4FDFCFB7A01F9F81208A08F2EE53EFFBD
:101254008F2DE530452F7003121F95E538B4010238
:10126400C286121FFAE53A706AE52C75F040A4852F
:10127400F01CF51DAF227E00AC1CAD1D120803D37B
:10128400EF9400EE940040147FC47E03121DD0122C
:10129400185FE51D151D70DC151C80D8751C0085B4
:1012A4002E1DAF227E00AC1CAD1D120803D3EF949B
:1012B40000EE940040147FC47E00121DD012185F0B
:1012C400E51D151D70DC151C80D8AF2D7E00121D88
:0C12D400D08006E522640160FA021FFBD6
:100EFC00E4FFFEE53CFDE4FCFB7A01F9F81208A0E6
:100F0C00E4FB7A01F9F81208A08F2CE4FFE53DFE12
:100F1C00E4FDFCFB7A01F9F81208A08F2EE53EFFE8
:100F2C008F2D121F95E538B40102C286121FFA905C
:100F3C0028CCE07005AF33FE8004AF507E00121554
:100F4C00B7121AAAE53A706AE52C75F040A485F040
:100F5C001AF51BAF227E00AC1AAD1B120803D3EF9F
:100F6C009400EE940040147FC47E03121DD012181E
:100F7C005FE51B151B70DC151A80D8751A00852EC1
:100F8C001BAF227E00AC1AAD1B120803D3EF9400EA
:100F9C00EE940040147FC47E00121DD012185FE541
:100FAC001B151B70DC151A80D8AF2D7E00121DD0BE
:100FBC008006E522640160FA121FFBE538B40102D9
:020FCC00D286CB
:010FCE002200
:041C5B00AF40AE3FA9
:101C5F00AD07AC06D3ED9400EC9400401E000000DD
:101C6F00EE90E6D0F0000000ED90E6D1F00000001D
:0C1C7F0075BB04000000E5BB30E7FB2251
:081B20008C1C8D1DAB07AA0609
:101B2800E4FDFCC3ED951DEC951C5022EA90E6D02F
:101B3800F0000000EB90E6D1F000000075BB060055
:0E1B48000000E5BB30E7FB0DBD00010C80D5B1
:011B5600226C
:041D4300AF26AE25F4
:101D4700AD07AC06000000ED25E0EC3390E6D0F0DF
:101D5700000000ED25E090E6D1F000000075BB041F
:091D6700000000E5BB30E7FB229F
:101DF200000000E53225E0E5313390E6D0F0000046
:101E020000E53225E090E6D1F000000075BB040049
:081E12000000E5BB30E7FB22F4
:0813B8001215FDC206752201A9
:1013C0009028AEE0FFE4FCFDFEFB7A01F9F812087C
:1013D00015C004C005C006C0079028ADE0FFE4FCBE
:1013E000FDFEFBFA7901F8120815D003D002D001F6
:1013F000D000EF2BFBEE3AFAED39F9EC38F89028F3
:10140000AFE0FFE4FCFDFEEB2FF53EEE3AF53DEDDF
:1014100039F53CEC38F53BE47F03AB3EAA3DA93CF3
:10142000A83BD3120932401CE53E24FDF53EE53DC4
:1014300034FFF53DE53C34FFF53CE53B34FFF53B3F
:10144000C2088002D20820080F121224E530452F6E
:101450007003121F0DD28622E530452F7003121F34
:061460000D121224D286D9
:011466002263
:101510009028AEE0FFE4FCFDFEFB7A01F9F812082A
:1015200015C004C005C006C0079028ADE0FFE4FC6C
:10153000FDFEFBFA7901F8120815D003D002D001A4
:10154000D000EF2BFBEE3AFAED39F9EC38F89028A1
:10155000AFE0FFE4FCFDFEEB2FF53EEE3AF53DED8E
:1015600039F53CEC38F53B9028CCE07014AF33AB48
:101570003EAA3DA93CA83BD31209324036AF338086
:1015800016AF50E4FCFDFEAB3EAA3DA93CA83BD300
:10159000120932401EAF50AB07E53E9BF53EE53DDC
:1015A0009400F53DE53C9400F53CE53B9400F53BAB
:0715B000020DFE120BD9220F
:1018E8001213B8121CE9121F8A200678E4F518F5BD
:1018F80019C3E5199529E5189528500D1212E30525
:1019080019E51970EC051880E89028CCE070067D80
:101918000AFCFF80067D327C007F007E0D121B20B2
:10192800D3E5269400E52594004003121D43E4FF07
:10193800FEC3EF9547EE9546500A1212E00FBF001E
:10194800010E80EDE4F518F519C3E5199544E5187D
:101958009543500D1212E30519E51970EC0518802E
:04196800E8121C5B0A
:01196C002258
:100DFE001215FDC206752201120EFC9028CCE07071
:100E0E00097D0FFCFF7E0D121B20121F843006037E
:100E1E00020EFBE4F518F519C3E5199529E51895A9
:100E2E0028500D1212E30519E51970EC051880E82B
:100E3E009028CCE0B4010B7D327C007F007E0D1239
:100E4E001B20D3E5269400E52594004003121D4394
:100E5E00E4FDFCE546C313FEE54713FFC3ED9FEC2F
:100E6E009E500A1212E00DBD00010C80E6E4F5184A
:100E7E00F519C3E5199544E5189543500D1212E383
:100E8E000519E51970EC051880E8121F0D121AAA43
:100E9E00E4F518F519C3E5199529E5189528500DAF
:100EAE001212E30519E51970EC051880E8E4FCFD53
:100EBE00E546C313FEE54713FFC3ED9FEC9E500DB1
:100ECE00121DF21212E30DBD00010C80E3E4F518C1
:100EDE00F519C3E5199544E5189543500D1212E323
:0D0EEE000519E51970EC051880E8121C5B71
:010EFB0022D4
:100BD9001213B8121AE5121F8A300603020CF5E443
:100BE900F51AF51BC3E51B9529E51A9528500D1231
:100BF90012E3051BE51B70EC051A80E89028CCE090
:100C090070067D0AFCFF80067D327C007F007E0D28
:100C1900121B20D3E5269400E52594004003121DFC
:100C290043E4F518F519E546C313FEE54713FFC379
:100C3900E5199FE5189E5010121DF21212E30519CD
:100C4900E51970E2051880DEE4F51AF51BC3E51B0A
:100C59009544E51A9543500D1212E3051BE51B70E7
:100C6900EC051A80E81215FD1213C0121AAA121FF8
:100C79008AE4F51AF51BC3E51B9529E51A95285051
:100C89000D1212E3051BE51B70EC051A80E890288C
:100C9900CCE070067D0AFCFF80067D327C007F0077
:100CA9007E0D121B20E4F518F519E546C313FEE580
:100CB9004713FFC3E5199FE5189E5010121DF21244
:100CC90012E30519E51970E2051880DEE4F51AF555
:100CD9001BC3E51B9544E51A9543500D1212E30514
:0C0CE9001BE51B70EC051A80E8121C5B78
:010CF50022DC
:100943001215FDC2067522019028AEE0FFE4FCFDFE
:10095300FEFB7A01F9F8120815C004C005C006C0F1
:10096300079028ADE0FFE4FCFDFEFBFA7901F812E5
:100973000815D003D002D001D000EF2BFBEE3AFADA
:10098300ED39F9EC38F89028AFE0FFE4FCFDFEEB1D
:100993002FF53EEE3AF53DED39F53CEC38F53B12DB
:1009A3001224121F84300603020AB2E4F51AF51B5F
:1009B300C3E51B9529E51A9528500D1212E3051B73
:1009C300E51B70EC051A80E89028CCE070067D0AE0
:1009D300FCFF80067D327C007F007E0D121B20D33E
:1009E300E5269400E52594004003121D43E4F51821
:1009F300F519E546C313FEE54713FFC3E5199FE564
:100A0300189E5010121DF21212E30519E51970E237
:100A1300051880DEE4F51AF51BC3E51B9544E51ABA
:100A23009543500D1212E3051BE51B70EC051A806C
:100A3300E8121AAAE4F51AF51BC3E51B9529E51A72
:100A43009528500D1212E3051BE51B70EC051A8067
:100A5300E89028CCE070067D0AFCFF80067D327C9E
:100A6300007F007E0D121B20E4F518F519E546C33F
:100A730013FEE54713FFC3E5199FE5189E501012B7
:100A83001DF21212E30519E51970E2051880DEE480
:100A9300F51AF51BC3E51B9544E51A9543500D1252
:0F0AA30012E3051BE51B70EC051A80E8121C5BC3
:010AB2002221
:081F9D00E4F564D2E9D2AF22A1
:101B8D0090E678E020E6F9C2E990E678E04480F04E
:101B9D00EF25E090E679F090E678E030E0F990E618
:101BAD0078E04440F090E678E020E6F990E678E0C1
:061BBD0030E1D6D2E9225E
:101C2900A90790E678E020E6F9E564702390E67864
:101C3900E04480F0E925E090E679F08D5FAF03A9F3
:101C4900077560018A618962E4F563756401D322CD
:021C5900C322A4
:101BC300A90790E678E020E6F9E564702590E678C9
:101BD300E04480F0E925E0440190E679F08D5FAFC1
:101BE30003A9077560018A618962E4F5637564037B
:041BF300D322C32214
:03004B00020CF6AE
:100CF600C0E0C083C082C085C084C086758600C03F
:100D0600D075D000C000C001C002C003C006C00735
:100D160090E678E030E206756406020DE090E6782B
:100D2600E020E10CE56464026006756407020DE0EC
:100D3600E56424FE605F14603624FE7003020DD164
:100D460024FC7003020DDD24086003020DE0AB6095
:100D5600AA61A962AF6305638F827583001207B427
:100D660090E679F0E563655F7070756405806B9059
:100D7600E679E0AB60AA61A962AE638E82758300F4
:100D86001207E1756402E55F6401704E90E678E053
:100D96004420F08045E55F24FEB5630790E678E0E1
:100DA6004420F0E55F14B5630A90E678E04440F02D
:100DB60075640090E679E0AB60AA61A962AE638EC5
:100DC600827583001207E10563800F90E678E044A0
:100DD60040F075640080037564005391DFD007D03E
:100DE60006D003D002D001D000D0D0D086D084D097
:080DF60085D082D083D0E032E9
:030000000217D311
:0C17D300787FE4F6D8FD75816402181AD6
:1007B400BB010CE58229F582E5833AF583E02250FA
:1007C40006E92582F8E622BBFE06E92582F8E22244
:0D07D400E58229F582E5833AF583E493225E
:1007E100F8BB010DE58229F582E5833AF583E8F04E
:1007F100225006E92582C8F622BBFE05E92582C8FA
:02080100F222E1
:10080300EF8DF0A4A8F0CF8CF0A428CE8DF0A42E09
:02081300FE22C3
:10081500E88FF0A4CC8BF0A42CFCE98EF0A42CFC82
:100825008AF0EDA42CFCEA8EF0A4CDA8F08BF0A400
:100835002DCC3825F0FDE98FF0A42CCD35F0FCEB5F
:100845008EF0A4FEA9F0EB8FF0A4CFC5F02ECD3924
:0F085500FEE43CFCEAA42DCE35F0FDE43CFC2291
:1008640075F008758200EF2FFFEE33FECD33CDCC4B
:1008740033CCC58233C5829BED9AEC99E5829840CE
:100884000CF582EE9BFEED9AFDEC99FC0FD5F0D6AB
:10089400E4CEFBE4CDFAE4CCF9A88222B800C1B9D5
:1008A4000059BA002DEC8BF084CFCECDFCE5F0CB13
:1008B400F97818EF2FFFEE33FEED33FDEC33FCEB4C
:1008C40033FB10D703994004EB99FB0FD8E5E4F907
:1008D400FA227818EF2FFFEE33FEED33FDEC33FCF4
:1008E400C933C910D7059BE99A4007EC9BFCE99AE8
:1008F400F90FD8E0E4C9FAE4CCFB2275F010EF2F2D
:10090400FFEE33FEED33FDCC33CCC833C810D7072C
:100914009BEC9AE899400AED9BFDEC9AFCE899F867
:0E0924000FD5F0DAE4CDFBE4CCFAE4C8F922FA
:10093200EB9FF5F0EA9E42F0E99D42F0E89C45F01B
:010942002292
:1017DF00020607E493A3F8E493A34003F68001F213
:1017EF0008DFF48029E493A3F85407240CC8C3330B
:1017FF00C4540F4420C8834004F456800146F6DFDA
:10180F00E4800B0102040810204080900FCFE47E8B
:10181F00019360BCA3FF543F30E509541FFEE493CE
:10182F00A360010ECF54C025E060A840B8E493A395
:10183F00FAE493A3F8E493A3C8C582C8CAC583CAC0
:10184F00F0A3C8C582C8CAC583CADFE9DEE780BE78
:01109D000052
:00000001FF
