:0A1EFA0000010202030304040505C1
:10060200E4F513F512F511F510C203C200C202C2DD
:1006120001121E3A120AB97E157F008E518F527551
:100622005915755A12754F1575501C755715755811
:100632004A755B15755C78EE54E0700302074B75E2
:1006420014007515808E168F17C374A29FFF741540
:100652009ECF2402CF3400FEE48F0F8E0EF50DF5EF
:100662000CF50BF50AF509F508AF0FAE0EAD0DACA2
:100672000CAB0BAA0AA909A808C312092F5026E538
:1006820015250BF582E514350AF58374CDF0E50BDB
:100692002401F50BE4350AF50AE43509F509E435D8
:1006A20008F50880C4E4F50BF50AF509F508AF0F63
:1006B200AE0EAD0DAC0CAB0BAA0AA909A808C31269
:1006C200092F5033E517250BF582E516350AF58318
:1006D200E0FFE515250BF582E514350AF583EFF009
:1006E200E50B2401F50BE4350AF50AE43509F509B1
:1006F200E43508F50880B785145185155274002435
:1007020080FF741534FFFEC3E55A9FF55AE5599EE2
:10071200F559C3E5549FF554E5539EF553C3E55689
:100722009FF556E5559EF555C3E5509FF550E54FAB
:100732009EF54FC3E5589FF558E5579EF557C3E51B
:100742005C9FF55CE55B9EF55BD2E843D82090E6C2
:1007520068E04409F090E65CE0443DF0D2AF90E6F8
:1007620080E020E105D208121C7590E680E054F783
:10077200F0538EF8C2033001051203DDC2013003CB
:1007820029121FF05024C203121DF920001690E610
:1007920082E030E704E020E1EF90E682E030E60418
:0F07A200E020E0E4121CFE121FF212163F80C787
:1003DD0090E6B9E0700302048E14700302050B243D
:1003ED00FE700302058E24FB700302048814700353
:1003FD00020482146073146076240560030205EE16
:10040D00121FF440030205FA90E6BBE024FE6022C1
:10041D0014603324FD601114602224067048E551E8
:10042D0090E6B3F0E5528037E55990E6B3F0E55A22
:10043D00802DE55390E6B3F0E5548023E55590E625
:10044D00B3F0E556801990E6BAE0FF121D2AAA0610
:10045D00A9077B01EA494B600DEE90E6B3F0EF90F2
:10046D00E6B4F00205FA0205F3121EC20205FA12F5
:10047D001F6B0205FA121ABA0205FA121EB0020516
:10048D00FA121FF640030205FA90E6B8E0247F60E9
:10049D001514601924027063A200E43325E0FFA255
:1004AD0002E4334F8041E490E740F0803F90E6BC9A
:1004BD00E0547EFF7E00E0D394807C0040047D01FB
:1004CD0080027D00EC4EFEED4F24FAF582741E3E47
:1004DD00F583E493FF3395E0FEEF24A1FFEE34E6C0
:1004ED008F82F583E0540190E740F0E4A3F090E6AD
:1004FD008AF090E68B7402F00205FA0205F3121FE2
:10050D00F840030205FA90E6B8E024FE60162402D6
:10051D0060030205FA90E6BAE0B40105C2000205D7
:10052D00FA0205F390E6BAE0705590E6BCE0547E11
:10053D00FF7E00E0D394807C0040047D0180027D2D
:10054D0000EC4EFEED4F24FAF582741E3EF583E469
:10055D0093FF3395E0FEEF24A1FFEE34E68F82F595
:10056D0083E054FEF090E6BCE05480131313541F47
:10057D00FFE0540F2F90E683F0E04420F0806E8072
:10058D0065121FFA506790E6B8E024FE601A240247
:10059D00705B90E6BAE0B40104D200805090E6BAE8
:1005AD00E0B402028047803E90E6BCE0547EFF7EC0
:1005BD0000E0D394807C0040047D0180027D00EC3E
:1005CD004EFEED4F24FAF582741E3EF583E493FF43
:1005DD003395E0FEEF24A1FFEE34E68F82F58380A4
:1005ED0008120080500790E6A0E04401F090E6A0CC
:0405FD00E04480F066
:0106010022D6
:03003300021FDCCD
:041FDC0053D8EF32B5
:101E3A00758CE0758AC0E58954F04401F589758E80
:081E4A0003D28CD2A9D2AF2211
:03000B0002117B64
:10117B00C0E0C0F0C083C082C0D075D000C000C03A
:10118B0001C002C003C004C005C006C007758CE0D7
:10119B00758AC0D28CE47F607EEAFDFCAB4EAA4D13
:1011AB00A94CA84BC312092F5019AF4EAE4DAD4CE5
:1011BB00AC4BEF2401F54EE43EF54DE43DF54CE42C
:1011CB003CF54BD007D006D005D004D003D002D0CD
:0E11DB0001D000D0D0D082D083D0F0D0E0324E
:1015000012010002000000401816076000000102EE
:1015100000010A06000200000040010009022E003E
:1015200001010080FA0904000004FF000000070523
:1015300001024000000705820200020007050202C6
:101540000002000705810240000009022E0001018F
:101550000080FA0904000004FF00000007050102F2
:101560004000000705820240000007050202000259
:101570000007058102400000040309041003510024
:10158000480059002D004300430044001603510059
:10159000480059002D0038004D0020002000200098
:0415A0002000000027
:100FF60060802800010402020202020700000002CB
:10100600000002001332120A080C0800000000005B
:101016000000003F01040202020202070000000273
:101026000000020013320A12100C08000000000033
:101036000000003F031A0303030303070000000236
:10104600000002001332120A080C0800000000001B
:101056000000003F035A03030303030700000002D6
:101066000000020013320A12100C080000000000F3
:101076000000003F602428870000000000000000F8
:10108600000000000000000000000000000000005A
:1010960000000000000000000000000047288080DB
:0610A600000000CA4E002C
:1010BF0090E60174CAF090E6F574FFF0902880E096
:1010CF0090E6F3F0902881E090E6C3F0902882E05C
:1010DF0090E6C1F0902883E090E6C2F0902885E07A
:1010EF0090E6C0F0902886E090E6F4F075AF0774B4
:1010FF0028F59A7400F59B759DE4E4F59EFF90E644
:10110F007BE090E67CF00FBF80F490E67174FFF007
:10111F00F5B490E672E04480F043B680000000E43E
:10112F0090E6C4F000000090E6C5F0902887E090AC
:10113F00E6C6F0902888E090E6C7F0902889E09006
:10114F00E6C8F090288AE090E6C9F090288BE090EE
:10115F00E6CAF090288CE090E6CBF090288DE090D6
:0B116F00E6CCF090288EE090E6CDF07A
:01117A002252
:03004300021200A6
:0300530002120096
:10120000021E5200021E9A000211E900021E6A002C
:10121000021BA300021AF7000211FF000214FF00D4
:10122000021FFC00021FFD00021990000215A4001D
:10123000021FFE00021FFF0002200000022001002A
:10124000022002000214FF0002200300022004001A
:1012500002200500022006000220070002200800EC
:10126000022009000214FF000214FF000214FF0014
:1012700002200A0002200B0002200C0002200D00B8
:1012800002200E0002200F00022010000220110098
:101290000220120002201300022014000220150078
:1012A0000220160002201700022018000220190058
:0812B00002201A0002201B00BD
:101CFE0090E682E030E004E020E60B90E682E030F1
:101D0E00E119E030E71590E680E04401F07F147EA3
:0C1D1E0000121A3590E680E054FEF0221E
:101DF90090E682E044C0F090E681F043870100005C
:041E090000000022B3
:101C750030080990E680E0440AF0800790E680E0AD
:101C85004408F07FDC7E05121A3590E65D74FFF09E
:0F1C950090E65FF05391EF90E680E054F7F02275
:021D2A00A90707
:101D2C00AE5BAF5C8F828E83A3E064037017AD0152
:101D3C0019ED7001228F828E83E07C002FFDEC3E2A
:091D4C00FEAF0580DF7E007F0080
:011D5500226B
:101A35008E1E8F1F90E600E054187012E51F2401DA
:101A4500FFE4351EC313F51EEF13F51F801590E651
:101A550000E05418FFBF100BE51F25E0F51FE51E3C
:101A650033F51EE51F151FAE1E7002151E4E6005CF
:061A7500121E0D80EE229E
:101E0D007400F58690FDA57C05A3E582458370F9E8
:011E1D0022A2
:1010AC00C1850223000002311040C1070447000033
:0210BC00000032
:081D560090E679F07F057E00A4
:101D5E008E1E8F1FE51F451E60177F957E00121A7F
:101D6E001E000000000000E51F151F70E7151E8005
:021D7E00E3225E
:100AB90090E600E054E74410F000000000000090C8
:100AC900E61074A0F000000090E60B7401F090E6C7
:100AD9001274E0F0000000E490E613F000000090CA
:100AE900E614F000000090E615F000000090E6180A
:100AF900740CF000000090E6D27402F090E60474E1
:100B090080F00000007402F0000000E4F000000032
:100B19001210BFE490E671F075B4FF90E672F075BB
:100B2900B6FF75B1FF90E670F075B2FFC28CD2873F
:100B3900D285121EE375230275240000000090E699
:100B49001074A0F000000000000090E611F0000011
:100B59000090E65EE04408F0000000E490E68DF0C5
:100B690090E65EE04404F0000000E490E68FF012A5
:100B79001CA45380FE7F9A7E00121F2C75280075D5
:100B890029B47542017543907531107532B87545B0
:100B99000675462C121F7B90E67AE054FEF0E4FDC0
:100BA9007F901214CD7F647E00121A357DFF7F423B
:100BB9001214CD7F647E00121A357D827F4E121485
:100BC900CD7535FF75388290E782E535F090E7817C
:090BD900E538F0121FD7021EE3FB
:10190700E538D3940040037535FF90E678E04480CE
:10191700F07491121D5690E679E090E7C0121D59B8
:1019270090E679E090E7C1121D5990E679E090E7DB
:10193700C2121D5990E679E090E7C3121D5990E64F
:1019470078E04440121D5990E678E04480F07442F4
:10195700121D5690E679E535121D5990E678E04458
:1019670040121D5990E678E04480F090E679744E75
:10197700121D5990E679E538121D5990E678E04432
:0919870040F07F057E00021D5EA8
:10163F00E54A2401F54AE43549F549E43548F548CA
:10164F00E43547F547E47FE87E03FDFCAB4AAA4942
:10165F00A948A847C312092F7006FD7F901214CD19
:10166F007FA07E867D017C00AB4AAA49A948A84786
:10167F00C312092F7009121EF5121907121FD77FF7
:10168F00407E0D7D037C00AB4AAA49A948A847D3E9
:10169F0012092F4009E4F54AF549F548F54730049A
:1016AF0020E533B4010312136FE533B402031217AD
:1016BF00EEE533B404031216D3E533B46303120912
:0416CF0040C20422EF
:021FF000D322FA
:021FF200D322F8
:021FF400D322F6
:101ABA0090E680E030E71800000090E6207402F01B
:101ACA00000000E490E621F0000000D20580160034
:101ADA000000E490E620F000000090E6217440F057
:0D1AEA00000000C20590E6BAE0F540D322EE
:101EB00090E740E540F0E490E68AF090E68B04F08D
:021EC000D3222B
:081F6B0090E6BAE0F527D3224D
:101EC20090E740E527F0E490E68AF090E68B04F094
:021ED200D32219
:021FF600D322F4
:021FF800D322F2
:021FFA00D322F0
:10008000E4F518F51990E6B9E0244B606B147003A1
:1000900002023C24F4700302027424FD7003020285
:1000A000BF14700302032324FD70030203582416B7
:1000B00060030203D9E490E68AF090E68BF090E6C4
:1000C000A0E020E1F990E68BE0F518E4F5B5F5B392
:1000D00090E60174CAF0E490E6C3F090E6C2F0D274
:1000E0000400000090E6047480F00000007402F048
:1000F000000000E4F00203DBE490E68AF090E68B77
:10010000F090E6A0E020E1F990E68BE0F518D394BA
:100110003F4024E4F51974402519F582E434E7F5ED
:1001200083E0FF74AB2519F582E43428F583EFF002
:100130000519E519B440DF7F9A7E00121F2C902824
:10014000ABE0FF7E00121F359028ABE0FF7E00126F
:100150001F3E9028ABE0FF7E00121F479028ACE0C6
:1001600075F004A4FFAEF0121F509028ACE075F0BB
:1001700004A4FFAEF0121F599028ACE075F004A45F
:10018000FFAEF0121F629028B0E0C39402501390AB
:1001900028CCE090E6C07005744EF08016749CF098
:1001A00080119028CCE090E6C07005749FF0800329
:1001B000749DF09028CEE0F5399028CBE0F537908B
:1001C00028DAE0FEA3E07C002400F526EC3EF525CD
:1001D0009028B1E0F533E53370037533019028B60C
:1001E000E0FEA3E07C002400F529EC3EF528A3E026
:1001F000FEA3E02400F543EC3EF5429028B2E0FE79
:10020000A3E02400F532EC3EF531A3E0FEA3E024A8
:1002100000F546EC3EF5459028BCE0FEA3E0240046
:10022000F53FEC3EF53E9028BAE0FEA3E02400F551
:1002300030EC3EF52FE4FD7F90020352E4F5197493
:10024000AB2519F582E43428F583E0FF74402519C5
:10025000F582E434E7F583EFF00519E519B40ADF18
:10026000000000E490E68AF000000090E68B740A3B
:10027000F00203DB90E74074B2F0A37411F0A374B2
:100280000CF0A37426F0A37407F0A374EEF0A3742B
:1002900001F0A37403F0A37413F0300505E4A3F098
:1002A000800690E74974FFF0000000E490E68AF0D1
:1002B00000000090E68B740AF0121CA40203DB908D
:1002C000E678E04480F090E6797491F07F647E00F7
:1002D000121A1E90E679E090E740F07F647E0012EB
:1002E0001A1E90E679E090E741F07F647E00121AD2
:1002F0001E90E679E090E742F07F647E00121A1EBD
:1003000090E679E090E743F090E678E04440F00032
:100310000000E490E68AF000000090E68B7404F0A0
:100320000203DBE490E68AF090E68BF090E6A0E032
:1003300020E1F990E68BE0F518D394015003020315
:10034000DB90E741E0FD7F421214CD90E740E0FDF5
:100350007F4E1214CD0203DBE490E68AF090E68B28
:10036000F090E6A0E020E1F990E68BE0F518D39458
:1003700001406890E740E05480C4131313540124F3
:10038000FF92A3E05440C41313540324FF92A2E04D
:100390005420C413540724FF92A1E05410C4540FF6
:1003A00024FF92A0A3E075F00AA4FFAEF0121A3564
:1003B00090E740E05408131313541F24FF92A3E066
:1003C00054041313543F24FF92A2E05402C3132495
:0C03D000FF92A1E01392A08002D322C390
:0103DC0022FE
:101E5200C0E0C083C082D2015391EF90E65D74016D
:081E6200F0D082D083D0E03201
:1011E900C0E0C083C0825391EF90E65D7404F0D0F3
:0611F90082D083D0E03239
:101E9A00C0E0C083C0825391EF90E65D7402F0D037
:061EAA0082D083D0E0327B
:101BA300C0E0C083C08285575385585485548285CD
:101BB3005383A37402F0854F55855056855682850D
:101BC3005583A37407F05391EF90E65D7410F0D042
:061BD30082D083D0E03255
:101E6A00C0E0C083C082D2035391EF90E65D74084C
:081E7A00F0D082D083D0E032E9
:101AF700C0E0C083C08290E680E030E720854F5386
:101B0700855054855482855383A37402F0855755B5
:101B1700855856855682855583A37407F05391EFF0
:0D1B270090E65D7420F0D082D083D0E032D3
:0111FF0032BD
:0114FF0032BA
:011FFC0032B2
:011FFD0032B1
:10199000C0E0C0F0C083C082C0D075D000C000C01D
:1019A00001C002C003C004C005C006C007C2AF1218
:1019B0001EF500000090E68F7404F00000005391C3
:1019C000EF90E65FE04404F0121FD7D2AFD007D00B
:1019D00006D005D004D003D002D001D000D0D0D0A2
:0819E00082D083D0F0D0E03288
:1015A400C0E0C083C082C0D075D000C004C006C0F3
:0115B400072F
:1015B500C2AF90E6A1E020E1F990E780E014601465
:1015C50024F8601E240C604624FE6046147048759D
:1015D5002200804390E782E0F53590E781E0F53819
:1015E5008035D28C90E781E0540FF534A3E0FEA35B
:1015F500E07C002400FFEC3EC313F52AEF13F52B26
:10160500754E00754D00754C00754B008009C28CF8
:101615008005752200D20600000090E68DE4F053A7
:0B16250091EF90E65FE04408F0D2AFC8
:0F163000D007D006D004D0D0D082D083D0E03203
:011FFE0032B0
:011FFF0032AF
:0120000032AD
:0120010032AC
:0120020032AB
:0120030032AA
:0120040032A9
:0120050032A8
:0120060032A7
:0120070032A6
:0120080032A5
:0120090032A4
:01200A0032A3
:01200B0032A2
:01200C0032A1
:01200D0032A0
:01200E00329F
:01200F00329E
:01201000329D
:01201100329C
:01201200329B
:01201300329A
:012014003299
:012015003298
:012016003297
:012017003296
:012018003295
:012019003294
:01201A003293
:01201B003292
:060F2C008F1A8C1B8D1CC6
:100F3200531A0753A0BF7F0A7E00121A1EE4F51D42
:100F4200F51EC37402951EFFE51AA807088002C3A6
:100F520013D8FC30E00543A020800353A0DF7F0AB2
:100F62007E00121A1E43A0107F0A7E00121A1E5320
:100F7200A0EF7F0A7E00121A1E051EE51E700205F2
:100F82001DC39403E51D6480948040B6E4F51DF50D
:100F92001EC37409951EFFE51CAE1BA80708800539
:100FA200CEC313CE13D8F930E00543A020800353FB
:100FB200A0DF7F0A7E00121A1E43A0107F0A7E0065
:100FC200121A1E53A0EF7F0A7E00121A1E051EE59A
:100FD2001E7002051DC3940AE51D6480948040B111
:100FE20043A0407F0A7E00121A1E53A0BF7F0A7ED2
:040FF20000021A1EC1
:091F2C00AD07AC06E4FF020F2C26
:091F3500AD07AC067F04020F2C7D
:091F3E00AD07AC067F05020F2C73
:091F4700AD07AC067F06020F2C69
:091F5000AD07AC067F01020F2C65
:091F5900AD07AC067F02020F2C5B
:091F6200AD07AC067F03020F2C51
:1014CD008D1AAD0790E678E04480F090E679EDF066
:1014DD007F647E00121A1E90E679E51AF07F647E15
:1014ED0000121A1E90E678E04440F07F647E000200
:0214FD001A1EB5
:1019E8007F147E00121A1E121FE87F037E00121A4F
:1019F8001E121FE47F027E00121A1E121F187F0299
:101A08007E00121A1E121F227F027E00121A1E1258
:061A18001FE07F027E00CA
:101A1E00EF7803C333CE33CED8F9FFEF4E6007EF26
:071A2E001F70F81E80F52275
:071F830053B1EF53B1BF227F
:071F8A0053B1EF43B1402207
:071F910043B11043B14022EF
:071F980053B1FE53B1FB221F
:071F9F0053B1FE43B104221F
:071FA60043B10143B1042225
:041FE00053B1F722E0
:041FE40043B10822DB
:041FE80053B17F2250
:041FEC0043B180225B
:071FAD0053B1EF53B1DF2235
:071FB40053B1EF43B12022FD
:071FBB0043B11043B12022E5
:071FC20053B1FE53B1FD22F3
:071FC90053B1FE43B10222F7
:071FD00043B10143B10222FD
:0A1F040053B1EF53B1BF53B1DF2218
:0A1F0E0053B1FE53B1FB53B1FD22A5
:0A1F180053B1EF43B14043B1202262
:051ED4007E00121A1E41
:0A1ED90053B1FE43B10443B10222ED
:101A7B00E4FFFEE53BFDE4FCFB7A01F9F812089D5F
:101A8B00E4FB7A01F9F812089D8F2CE4FFE53CFE8C
:101A9B00E4FDFCFB7A01F9F812089D8F2EE53DFF62
:051AAB008F2D121FE465
:0A1AB00043B11043B14043B12022BE
:0A1F220043B10143B10443B10222B0
:0C1EE300121F18121FE0121F22021FEC39
:101D8000121EE37F0A7E00121A1E121F047F037EBA
:101D900000121A1E121F18121ED9121AB01219E8B8
:0A1DA000121FEC7F147E00021A1ED1
:101DD200121EE37F0A121ED47F037E00121A1E1205
:101DE2001AB0121F0E7F08121ED41219E8121FEC2D
:071DF2007F147E00021A1E9F
:031E1E00121DAAE8
:101E21007F01121ED4121A1A121AB0121A1A121F94
:091E3100E87F021219F4021FEC13
:101E8200121EE3121A1AE4FDFC121E210DBD0001FE
:071E92000CBC03F5BDF7F2E3
:011E99002226
:081F7300C285121A1AD2852260
:101CA400C283E4F51AF51BD2827F1E7E00121A3518
:101CB400C2827F1E7E00121A35051BE51B700205C9
:0C1CC4001AC39405E51A6480948040DB8C
:011CD00022F1
:061EEF00121DD2121D803D
:051EF500C283C282223D
:051FD700D283D282223A
:01201C0022A1
:01201D0022A0
:10176100121A7BE530452F7003121F73E537B40160
:1017710002C28712201CE539706AE52C75F040A47D
:1017810085F01CF51DAF227E00AC1CAD1D120800BA
:10179100D3EF9400EE940040147FC47E03121D5ECB
:1017A100121907E51D151D70DC151C80D8751C006C
:1017B100852E1DAF227E00AC1CAD1D120800D3EF9B
:1017C1009400EE940040147FC47E00121D5E121935
:1017D10007E51D151D70DC151C80D8AF2D7E00128C
:0D17E1001D5E8006E522640160FA02201DF5
:10142200121A7B121F73E537B40102C28712201C05
:101432009028CCE070067F8E7E0D80047FAA7E0508
:10144200121A35121D80121FE4121AB0E539706AA1
:10145200E52C75F040A485F01CF51DAF227E00AC92
:101462001CAD1D120800D3EF9400EE940040147FCF
:10147200C47E03121D5E121907E51D151D70DC15D1
:101482001C80D8751C00852E1DAF227E00AC1CADC1
:101492001D120800D3EF9400EE940040147FC47E26
:1014A20000121D5E121907E51D151D70DC151C804A
:1014B200D8AF2D7E00121D5E8006E522640160FA1F
:0A14C20012201DE537B40102D287A5
:0114CC0022FD
:0C1B3400121FE4121AB0C286AF3FAE3E92
:101B4000AD07AC06D3ED9400EC9400401E000000FD
:101B5000EE90E6D0F0000000ED90E6D1F00000003D
:0C1B600075BB04000000E5BB30E7FB2271
:081B6C008C1C8D1DAB07AA06BD
:101B7400E4FDFCC3ED951DEC951C5022EA90E6D0E3
:101B8400F0000000EB90E6D1F000000075BB060009
:0E1B94000000E5BB30E7FB0DBD00010C80D565
:011BA2002220
:041CD100AF26AE2567
:101CD500AD07AC06000000ED25E0EC3390E6D0F052
:101CE500000000ED25E090E6D1F000000075BB0492
:091CF500000000E5BB30E7FB2212
:101DAA00000000E53225E0E5313390E6D0F000008E
:101DBA0000E53225E090E6D1F000000075BB040092
:081DCA000000E5BB30E7FB223D
:0812B800121FD7C206752201C6
:1012C0009028AEE0FFE4FCFDFEFB7A01F9F812087D
:1012D00012C004C005C006C0079028ADE0FFE4FCC2
:1012E000FDFEFBFA7901F8120812D003D002D001FA
:1012F000D000EF2BFBEE3AFAED39F9EC38F89028F4
:10130000AFE0FFE4FCFDFEEB2FFFEE3AFEED39FD12
:10131000EC388F3D8E3C8D3BF53AE47F8EFEFDAB85
:101320003DAA3CA93BA83AD312092F401CE53D2415
:1013300071F53DE53C34FFF53CE53B34FFF53BE51D
:101340003A34FFF53AC2088002D20820081012177A
:1013500061E530452F7003121E82D287800EE53082
:0E136000452F7003121E82121761D287D286AB
:01136E00225C
:10136F009028AEE0FFE4FCFDFEFB7A01F9F81208CD
:10137F0012C004C005C006C0079028ADE0FFE4FC12
:10138F00FDFEFBFA7901F8120812D003D002D0014A
:10139F00D000EF2BFBEE3AFAED39F9EC38F8902844
:1013AF00AFE0FFE4FCFDFEEB2FFFEE3AFEED39FD63
:1013BF00EC388F3D8E3C8D3BF53A9028CCE0701F7A
:1013CF007F8E7E0DFDAB3DAA3CA93BA83AD31209F7
:1013DF002F403CE53D2472F53DE53C34F2801FE49F
:1013EF007FAA7E05FDFCAB3DAA3CA93BA83AD312D0
:1013FF00092F401BE53D2456F53DE53C34FAF53CFD
:10140F00E53B34FFF53BE53A34FFF53A020D0512A3
:03141F000BE222BB
:1017EE001212B8121EEF30060302187AE4F518F53D
:1017FE0019C3E5199529E5189528500D121E2105D6
:10180E0019E51970EC051880E89028CCE070067D7B
:10181E000AFCFF80067D327C007F007E0D121B6C61
:10182E00D3E5269400E52594004003121CD1E4FD77
:10183E00FCC3ED9546EC9545500A121E1E0DBD00DB
:10184E00010C80EDE4F518F519C3E5199543E5187B
:10185E009542500D121E210519E51970EC051880E0
:0C186E00E8121FE4121AB0D286121B3CD4
:01187A00224B
:1016D3001212B8121EEF300603021760E4F518F574
:1016E30019C3E5199529E51895285010121E2112E2
:1016F3001E210519E51970E9051880E59028CCE04D
:1017030070067D0AFCFF80067D327C007F007E0D23
:10171300121B6CD3E5269400E52594004003121CAC
:10172300D1E4FDFCC3ED9546EC9545500D121E1E0C
:10173300121E210DBD00010C80EAE4F518F519C352
:10174300E5199543E51895425010121E21121E21EA
:0D1753000519E51970E9051880E5121B3431
:011760002266
:100D0500121FD7C206752201121422121E82121D4D
:100D1500D2121EF5300603020E23E4F51AF51BC3A5
:100D2500E51B9529E51A9528500D121E21051BE591
:100D35001B70EC051A80E89028CCE070067D0AFC53
:100D4500FF80067D327C007F007E0D121B6CD3E593
:100D5500269400E52594004003121CD1E4F518F50E
:100D650019E545C313FEE54613FFC3E5199FE518CD
:100D75009E5010121DAA121E210519E51970E205D3
:100D85001880DEE4F51AF51BC3E51B9543E51A95B6
:100D950042500D121E21051BE51B70EC051A80E85B
:100DA500121D80E4F51AF51BC3E51B9529E51A9577
:100DB50028500D121E21051BE51B70EC051A80E855
:100DC5009028CCE070067D0AFCFF80067D327C0011
:100DD5007F007E0D121B6CE4F518F519E545C3136C
:100DE500FEE54613FFC3E5199FE5189E5010121D39
:100DF500AA121E210519E51970E2051880DEE4F531
:100E05001AF51BC3E51B9543E51A9542500D121EB5
:0E0E150021051BE51B70EC051A80E8121B3A44
:010E230022AC
:100BE2001212B8121DD2121EF5300603020D04E4D1
:100BF200F51AF51BC3E51B9529E51A9528500D1228
:100C02001E21051BE51B70EC051A80E89028CCE03C
:100C120070067D0AFCFF80067D327C007F007E0D1F
:100C2200121B6CD3E5269400E52594004003121CA8
:100C3200D1E4F518F519E545C313FEE54613FFC3E4
:100C4200E5199FE5189E5010121DAA121E210519C2
:100C5200E51970E2051880DEE4F51AF51BC3E51B01
:100C62009543E51A9542500D121E21051BE51B7096
:100C7200EC051A80E8121FE4121AB0121FD71212E2
:100C8200C0121D80121EF5E4F51AF51BC3E51B9573
:100C920029E51A9528500D121E21051BE51B70EC43
:100CA200051A80E89028CCE070067D0AFCFF8006D9
:100CB2007D327C007F007E0D121B6CE4F518F51965
:100CC200E545C313FEE54613FFC3E5199FE5189EEC
:100CD2005010121DAA121E210519E51970E20518FD
:100CE20080DEE4F51AF51BC3E51B9543E51A954230
:100CF200500D121E21051BE51B70EC051A80E8122F
:020D02001B34A0
:010D040022CC
:10094000121FD7C2067522019028AEE0FFE4FCFD1D
:10095000FEFB7A01F9F8120812C004C005C006C0F7
:10096000079028ADE0FFE4FCFDFEFBFA7901F812E8
:100970000812D003D002D001D000EF2BFBEE3AFAE0
:10098000ED39F9EC38F89028AFE0FFE4FCFDFEEB20
:100990002FFFEE3AFEED39FDEC388F3D8E3C8D3B5E
:1009A000F53A121761121E82121DD2121EF5300680
:1009B00003020AB8E4F51AF51BC3E51B9529E51AED
:1009C0009528500D121E21051BE51B70EC051A80A1
:1009D000E89028CCE070067D0AFCFF80067D327C22
:1009E000007F007E0D121B6CD3E5269400E5259454
:1009F000004003121CD1E4F518F519E545C313FEB8
:100A0000E54613FFC3E5199FE5189E5010121DAA75
:100A1000121E210519E51970E2051880DEE4F51AA9
:100A2000F51BC3E51B9543E51A9542500D121E2197
:100A3000051BE51B70EC051A80E8121D80E4F51A11
:100A4000F51BC3E51B9529E51A9528500D121E21AB
:100A5000051BE51B70EC051A80E89028CCE07006B9
:100A60007D0AFCFF80067D327C007F007E0D121B1C
:100A70006CE4F518F519E545C313FEE54613FFC30D
:100A8000E5199FE5189E5010121DAA121E21051986
:100A9000E51970E2051880DEE4F51AF51BC3E51BC5
:100AA0009543E51A9542500D121E21051BE51B705A
:080AB000EC051A80E8121B3A64
:010AB800221B
:081F7B00E4F562D2E9D2AF22C5
:101BD90090E678E020E6F9C2E990E678E04480F002
:101BE900EF25E090E679F090E678E030E0F990E6CC
:101BF90078E04440F090E678E020E6F990E678E075
:061C090030E1D6D2E92211
:101C4300A90790E678E020E6F9E562702390E6784C
:101C5300E04480F0E925E090E679F08D5DAF03A9DB
:101C630007755E018A5F8960E4F561756201D322BD
:021C7300C3228A
:101C0F00A90790E678E020E6F9E562702590E6787E
:101C1F00E04480F0E925E0440190E679F08D5DAF76
:101C2F0003A907755E018A5F8960E4F56175620338
:041C3F00D322C322C7
:03004B00020E247E
:100E2400C0E0C083C082C085C084C086758600C00F
:100E3400D075D000C000C001C002C003C006C00706
:100E440090E678E030E206756206020F0E90E678CE
:100E5400E020E10CE56264026006756207020F0E91
:100E6400E56224FE605F14603624FE7003020EFF08
:100E740024FC7003020F0B24086003020F0EAB5E08
:100E8400AA5FA960AF6105618F827583001207B103
:100E940090E679F0E561655D7070756205806B9030
:100EA400E679E0AB5EAA5FA960AE618E82758300CD
:100EB4001207DE756202E55D6401704E90E678E02B
:100EC4004420F08045E55D24FEB5610790E678E0B6
:100ED4004420F0E55D14B5610A90E678E04440F002
:100EE40075620090E679E0AB5EAA5FA960AE618EA0
:100EF400827583001207DE0561800F90E678E04476
:100F040040F075620080037562005391DFD007D012
:100F140006D003D002D001D000D0D0D086D084D067
:080F240085D082D083D0E032B9
:0300000002187B68
:0C187B00787FE4F6D8FD7581620218C287
:1007B100BB010CE58229F582E5833AF583E02250FD
:1007C10006E92582F8E622BBFE06E92582F8E22247
:0D07D100E58229F582E5833AF583E4932261
:1007DE00F8BB010DE58229F582E5833AF583E8F051
:1007EE00225006E92582C8F622BBFE05E92582C8FD
:0207FE00F222E5
:10080000EF8DF0A4A8F0CF8CF0A428CE8DF0A42E0C
:02081000FE22C6
:10081200E88FF0A4CC8BF0A42CFCE98EF0A42CFC85
:100822008AF0EDA42CFCEA8EF0A4CDA8F08BF0A403
:100832002DCC3825F0FDE98FF0A42CCD35F0FCEB62
:100842008EF0A4FEA9F0EB8FF0A4CFC5F02ECD3927
:0F085200FEE43CFCEAA42DCE35F0FDE43CFC2294
:1008610075F008758200EF2FFFEE33FECD33CDCC4E
:1008710033CCC58233C5829BED9AEC99E5829840D1
:100881000CF582EE9BFEED9AFDEC99FC0FD5F0D6AE
:10089100E4CEFBE4CDFAE4CCF9A88222B800C1B9D8
:1008A1000059BA002DEC8BF084CFCECDFCE5F0CB16
:1008B100F97818EF2FFFEE33FEED33FDEC33FCEB4F
:1008C10033FB10D703994004EB99FB0FD8E5E4F90A
:1008D100FA227818EF2FFFEE33FEED33FDEC33FCF7
:1008E100C933C910D7059BE99A4007EC9BFCE99AEB
:1008F100F90FD8E0E4C9FAE4CCFB2275F010EF2F30
:10090100FFEE33FEED33FDCC33CCC833C810D7072F
:100911009BEC9AE899400AED9BFDEC9AFCE899F86A
:0E0921000FD5F0DAE4CDFBE4CCFAE4C8F922FD
:10092F00EB9FF5F0EA9E42F0E99D42F0E89C45F01E
:01093F002295
:10188700020602E493A3F8E493A34003F68001F26F
:1018970008DFF48029E493A3F85407240CC8C33362
:1018A700C4540F4420C8834004F456800146F6DF31
:1018B700E4800B0102040810204080900FF6E47EBC
:1018C700019360BCA3FF543F30E509541FFEE49326
:1018D700A360010ECF54C025E060A840B8E493A3ED
:1018E700FAE493A3F8E493A3C8C582C8CAC583CA18
:1018F700F0A3C8C582C8CAC583CADFE9DEE780BED0
:0110BE000031
:00000001FF
