:0A18F60000010202030304040505CB
:1009D700E4F560F55FF55EF55DC211C20EC210C2A7
:1009E7000F1220DF1207E47E197F008E0A8F0B7526
:1009F700121975131275081975091C7510197511D7
:100A07005175141975157FEE54E07003020B1E75AE
:100A170061007562808E638F64C374A99FFF741928
:100A27009ECF2402CF3400FEE48F5C8E5BF55AF52F
:100A370059F558F557F556F555AF5CAE5BAD5AAC61
:100A470059AB58AA57A956A855C3120C775026E593
:100A5700622558F582E5613557F58374CDF0E55881
:100A67002401F558E43557F557E43556F556E4357E
:100A770055F55580C4E4F558F557F556F555AF5C6F
:100A8700AE5BAD5AAC59AB58AA57A956A855C31275
:100A97000C775031AE57AF58E5642FF582E5633ECA
:100AA700F583E0FDE5622FF582E5613EF583EDF024
:100AB700EF2401F558E43EF557E43556F556E4358D
:100AC70055F55580B985610A85620B74002480FF4E
:100AD700741934FFFEC3E5139FF513E5129EF51253
:100AE700C3E50D9FF50DE50C9EF50CC3E50F9FF5CE
:100AF7000FE50E9EF50EC3E5099FF509E5089EF57E
:100B070008C3E5119FF511E5109EF510C3E5159F84
:100B1700F515E5149EF514D2E843D82090E668E071
:100B27004409F090E65CE0443DF0D2AFD288D28A27
:100B3700C2A8C2AA43E808D2FB90E680E020E105FC
:100B4700D212121EE890E680E054F7F0538EF8C2F6
:100B570011300F051205C0C20F301129122255504E
:100B670024C211122065200E1690E682E030E704B9
:100B7700E020E1EF90E682E030E604E020E0E412D6
:0A0B87001F1712225712148A80C7AC
:1005C00090E6B9E070030206711470030206EE248F
:1005D000FE700302077124FB700302066B147003A4
:1005E000020665146073146076240560030207D068
:1005F00012225940030207DC90E6BBE024FE602291
:1006000014603324FD601114602224067048E50A4A
:1006100090E6B3F0E50B8037E51290E6B3F0E51312
:10062000802DE50C90E6B3F0E50D8023E50E90E615
:10063000B3F0E50F801990E6BAE0FF121F43AA0657
:10064000A9077B01EA494B600DEE90E6B3F0EF900D
:10065000E6B4F00207DC0207D512218B0207DC1298
:10066000223C0207DC121BE20207DC12217902079E
:10067000DC12225B40030207DC90E6B8E0247F60D6
:100680001514601924027063A20EE43325E0FFA262
:1006900010E4334F8041E490E740F0803F90E6BCA7
:1006A000E0547EFF7E00E0D394807C0040047D0116
:1006B00080027D00EC4EFEED4F24F6F58274183E6C
:1006C000F583E493FF3395E0FEEF24A1FFEE34E6DB
:1006D0008F82F583E0540190E740F0E4A3F090E6C8
:1006E0008AF090E68B7402F00207DC0207D5122232
:1006F0005D40030207DC90E6B8E024FE60162402A9
:1007000060030207DC90E6BAE0B40105C20E0207FE
:10071000DC0207D590E6BAE0705590E6BCE0547E66
:10072000FF7E00E0D394807C0040047D0180027D48
:1007300000EC4EFEED4F24F6F58274183EF583E48E
:1007400093FF3395E0FEEF24A1FFEE34E68F82F5B0
:1007500083E054FEF090E6BCE05480131313541F62
:10076000FFE0540F2F90E683F0E04420F0806D808E
:100770006412225F506690E6B8E024FE60192402FD
:10078000705A90E6BAE0B40104D20E804F90E6BAF7
:10079000E064026047803E90E6BCE0547EFF7E004D
:1007A000E0D394807C0040047D0180027D00EC4E0B
:1007B000FEED4F24F6F58274183EF583E493FF3383
:1007C00095E0FEEF24A1FFEE34E68F82F5838008EA
:1007D000120080500790E6A0E04401F090E6A0E00F
:0307E0004480F062
:0107E30022F3
:0300330002225155
:0422510053D8EF323D
:1020DF00758CE0758AC0E58954F04401F589758ED9
:0820EF0003D28CD2A9D2AF226A
:03005B00020E95FD
:0D0E9500C0E0C083C082C0D075D000C0078F
:100EA200AF91530780EF64806003020F9D53917FDF
:100EB200300C03020F9BE54864017043D3E538947C
:100EC200C8E53794005003020F9B902473E547F066
:100ED200D394C8E5469400401DD3E5479408E546FF
:100EE20094075012E53894B8E537940B5008752BE7
:100EF20001754800D202853746853847020F95E5CD
:100F02004864027061C3E53894C8E53794004048EC
:100F1200D3E53894C8E53794004010D3E5389408F7
:100F2200E53794075005752B008027D3E5389408E0
:100F3200E5379407400FD3E5389468E537941050AD
:100F420004052B800DD3E5389468E53794104008EA
:100F5200052B753700753800E52B652C703BF5487D
:100F6200F537F5388033E548B4022ED3E5389401DD
:100F7200E5379400402374722534F582E43424F575
:100F820083E538F00534052BE52BB41406754800CB
:0B0F9200752B00753700753800C20C8D
:0B0F9D00D007D0D0D082D083D0E0324B
:1019000012010002000000401816238300000102AB
:1019100000010A0600020000004001000902350033
:1019200001010080FA0904000005FF00000007051E
:101930000102400000070582020002000705810243
:1019400040000007058602000200070508020002A9
:101950000009022E0001010080FA0904000004FFC2
:101960000000000705010240000007058202400058
:101970000007050202000200070581024000000482
:1019800003090410035100480059002D004300438F
:10199000004400160351004800590039003000414E
:0B19A0000020002000200020000000BC
:100D2200608024C7030302010101010700000002E1
:100D3200000002000A0B2B13111515110000000010
:100D42000000003F0302040101040107000000004B
:100D5200020002000A0B2B130B15151100000000F4
:100D62000000003F03090101010201070000000227
:100D7200000002000A2B0B131115151100000000D0
:100D82000000003F030A0101010301070000000205
:100D9200000002000A2B130B1115151100000000B0
:100DA2000000003F6024254E00000000000000000B
:100DB2000000000000000000000000000000000031
:100DC20000000000000000000000000047254780EE
:060DD200000011CA4E00F2
:1016240090E60174CAF090E6F574FFF0902547E067
:1016340090E6F3F0902548E090E6C3F0902549E069
:1016440090E6C1F090254AE090E6C2F090254CE087
:1016540090E6C0F090254DE090E6F4F075AF077485
:1016640024F59A74C7F59B759DE4E4F59EFF90E616
:101674007BE090E67CF00FBF80F490E67174FFF09D
:10168400F5B490E672E04480F043B680000000E4D4
:1016940090E6C4F000000090E6C5F090254EE0907E
:1016A400E6C6F090254FE090E6C7F0902550E09014
:1016B400E6C8F0902551E090E6C9F0902552E090FC
:1016C400E6CAF0902553E090E6CBF0902554E090E4
:0B16D400E6CCF0902555E090E6CDF04C
:0116DF0022E8
:03004300021700A1
:0300530002170091
:101700000220F70002213D000221270002210F00E4
:10171000021DE500021D71000216FF000222610099
:101720000222620002226300021EB7000212B90008
:101730000222640002226500021D32000219AB0081
:101740000222660002226100022267000222680073
:101750000222690002226A0002226B0002226C004F
:1017600002226D0002226100022261000222610059
:1017700002226E0002226F0002227000022271001B
:1017800002227200022273000222740002227500FB
:1017900002227600022277000222780002227900DB
:1017A00002227A0002227B0002227C0002227D00BB
:0817B00002227E0002227F00EC
:101F170090E682E030E004E020E60B90E682E030D5
:101F2700E119E030E71590E680E04401F07F147E88
:0C1F370000121CEC90E680E054FEF0224A
:1020650090E682E044C0F090E681F04387010000ED
:042075000000002245
:101EE80030120990E680E0440AF0800790E680E02E
:101EF8004408F07FDC7E05121CEC90E65D74FFF070
:0F1F080090E65FF05391EF90E680E054F7F022FF
:021F4300A907EC
:101F4500AE14AF158F828E83A3E064037017AD01C5
:101F550019ED7001228F828E83E07C002FFDEC3E0F
:091F6500FEAF0580DF7E007F0065
:011F6E002250
:101CEC008E698F6A90E600E054187012E56A240140
:101CFC00FFE43569C313F569EF13F56A801590E6B7
:101D0C0000E05418FFBF100BE56A25E0F56AE569A1
:101D1C0033F569E56A156AAE69700215694E60059E
:061D2C0012207980EE2276
:102079007400F58690FDA57C05A3E582458370F97A
:012089002234
:100DD800C1834224C500004224B200004224B4006A
:100DE8000041241000412411004124BB00023010AE
:100DF80040C100C108C1050143000126004424C1C7
:100E0800000000004424B70000000001360041241F
:100E1800B6006040247200000000000000000000DE
:100E280000000000000000000000000000000000BA
:100E380000000000000000000000000000000000AA
:100E4800000000000000000000000000000000009A
:100E5800000000000000013400014801012CFF01DE
:100E68002B000237000002460000014500014F0038
:100E7800024D00000232C350012A19C10AC18CC1B7
:0C0E880002C10B013B00013900012F00EA
:101F6F008F659024527403F0E4A3F07A247B527DA2
:101F7F00027F411220C39024527401F0A3E565F053
:0B1F8F007A247B527D027F410220C3B8
:0B220B00C2B6C2B48FB1D2B4D2B6226A
:0B221600D2B6C2B48FB1D2B4D2B6224F
:10215300AE05AD077F1512220BAF0512220BAF069A
:0321630002220B4A
:10216600AE05AD077F7512220BAF0512220BAF0627
:0321760002220B37
:04201700AC05AB0762
:10201B007D5FE4FF1221537D3FFF122166FEE4FD3D
:10202B00AF03122216AF041222160DBD60F20EBEC4
:02203B0040EC77
:01203D002280
:061C9B008B508A518952B2
:101CA100E4F553F554900001120B91FC700C7D5F2B
:101CB100FF1221537D3FFF022166BCFF2DD2B67575
:101CC1005300755402C2B4AB50AA51A95285548233
:101CD100855383120B91F5B1D2B40554E5547002CA
:0A1CE1000553B482E0E553B401DBC3
:011CEB0022D6
:10156100C2B77FC87E00121BCBD2B77FAE12220B4F
:101571007FA012220B7F7212220B7FA112220BE499
:10158100FF12220B7FA212220BFF12220B7FA41249
:10159100220B7FA812220B7F3F12220B7FAD12225A
:1015A1000B7F8E12220B7FB012220B7F0B12220BAC
:1015B1007FB112220B7F3112220B7FB312220B7FDC
:1015C100F012220B7F8A12220B7F6412220B7F8B77
:1015D10012220B7F7812220B7F8C12220B7F641256
:1015E100220B7FBB12220B7F3A12220B7FBE1222EB
:1015F1000B7F3E12220B7F8712220B7F0612220BDA
:101601007F8112220B7F9112220B7F8212220B7F8C
:101611005012220B7F8312220B7F7D12220B7FAF90
:0316210002220B97
:1007E40090E600E054E74410F000000000000090A0
:1007F400E61074A0F000000090E60B7401F090E69F
:100804001274E0F0000000E490E613F000000090A1
:10081400E61474E2F000000090E61574A0F0000005
:100824000090E6D27402F090E6047480F0000000B8
:100834007402F00000007406F00000007408F00078
:100844000000E4F000000012162490E6187408F08A
:1008540000000090E619F000000090E61AF0000095
:100864000090E61BF0000000E490E671F075B47FA0
:1008740075A07F90E672F075B6FF75B1FF90E670D3
:10088400F075B2FF75B5FFC28CD2B012224C90E65F
:100894001074A0F000000090E611F000000090E653
:1008A4005EE04408F0000000E490E68DF0000000F3
:1008B40090E65EE04404F0000000E490E7C0F090AD
:1008C400E7C4F0A3F0A3F0A3F090E7F0F090E68F74
:1008D4007440F000000090E65EE04440F000000048
:1008E4007E027F0090F800E4F0A3DFFCDEFA90E6DD
:1008F400987402F0000000E490E699F00000007E95
:10090400027F0090F800E4F0A3DFFCDEFA90E65EDC
:10091400E04480F0000000E490E69CF000000090C9
:10092400E69DF00000007F9AFE12222175280075D2
:1009340029B4754901754A907530107531B8754BF5
:1009440006754C2C12224490E67AE054FEF0E4FD45
:100954007F9012219D7F647E00121CEC7DFF7F42FC
:1009640012219D7F647E00121CEC7D827F4E122139
:100974009D753AFF43A020E4F53E90E782E53AF006
:1009840090E781E53EF012224CD20C754801753295
:1009940027753310752A05121A9D7F887E13121B42
:1009A400CB121A9D7FB87E0B121BCB7F887E13124D
:1009B4001BCB1221F11215617DFFE4FF122017D227
:1009C400F9C2F8E4F54390E7C0E543F043A01053BF
:0209D400917F11
:0109D60022FE
:0E21E300EF2401FBE43EFA7D047F480220A7B2
:101FC500E53EC313FFC374809F9024C6F0E49400DC
:101FD5009024C5F0E53ED394004006753AFF43A032
:091FE50020E53E700353A0DF2249
:1013A500E4FC9024BDE0FEA3E02400FDEC3EFC90AF
:1013B5002410E0FEA3E07A002400FFEA3EFEC3ED20
:1013C5009FFFEC9EFE9024B2F0A3EFF09024B5E0D1
:1013D5002FF09024B4E03EF0D3EF9450EE64809467
:1013E5008050129024B2E0FAA3E0FBC394B0EA6403
:1013F50080947F501C9024B3E025E0FE9024B2E059
:10140500339024C5F0A3CEF0E49024B4F0A3F0808B
:10141500337C007D14AF03AE02120BE0AC06AD07C2
:101425009024B4E0FEA3E07802C333CE33CED8F9DE
:101435002DFFEC3EFE7C007D0A120BF29024C5EEDA
:10144500F0A3EFF0D39024C6E094FF9024C5E064A8
:101455008094804006E4F0A374FFF0C39024C5E0B7
:10146500648094805004E4F0A3F09024C5E0FEA3CA
:10147500E0FF7C007D02120BF2C3747F9FF0E49EB7
:041485009024C5F0FA
:011489002240
:101B0F007E247FBC1221E39024BDE090E7C1F090CA
:101B1F0024BEE090E7C2F09024C6E090E7C3F090B7
:101B2F0024BBE0600B43A020753AFF1213A580037E
:101B3F00121FC5902452E53AF07A247B527D017F23
:101B4F00211220C39024527402F0A37480F07A24DF
:101B5F007B527D027F281220C3E4902452F0902400
:101B6F00C6E0902453F07A247B527D027F28022016
:011B7F00C3A2
:10148A00054EE54E7002054D0545054FB5330DE590
:10149A004DB53208121B0FE4F54DF54E90E7C8E53D
:1014AA0048F0A3E52BF0A3E539F0E545B52A20E598
:1014BA0048601124FE60080470121221C1800D12C6
:1014CA0021D38008E4FF121F6F53A0EFE4F54520F3
:1014DA00010302156075430190E7C0E543F0E5A0FA
:1014EA0030E7032008F87FAE12220B90F00074AAAE
:1014FA00F0A37411F0A374CCF0A374EEF0E490E6B8
:10150A0090F090E6917405F01211BA90F00074AA66
:10151A00F0A37411F0A374CCF0A374EEF0E490E697
:10152A0090F090E6917405F07FAF12220BC201E4AD
:10153A00F54390E7C0E543F0121A9D7FB87E0B127F
:10154A001BCB121A9D7F887E13121BCB7F887E13BA
:07155A00121BCB1221F1224C
:02225500D32292
:02225700D32290
:02225900D3228E
:101BE20090E680E030E73A00000090E6207402F0D0
:101BF200000000E490E621F000000090E624740268
:101C0200F0000000E490E625F000000090E6267463
:101C120002F0000000E490E627F0000000D203800A
:101C220016000000E490E620F000000090E6217427
:0F1C320040F0000000C20390E6BAE0F544D32270
:1021790090E740E544F0E490E68AF090E68B04F0BD
:02218900D3225F
:08223C0090E6BAE0F527D32279
:10218B0090E740E527F0E490E68AF090E68B04F0C8
:02219B00D3224D
:02225B00D3228C
:02225D00D3228A
:02225F00D32288
:10008000E4F565F566F56790E6B9E0120CA700B6F1
:10009000B300EEB502A9B602E1BB0333BC0394C2C0
:1000A00003DCC503FBC60430CA046ECB04E2D005F2
:1000B00065D2000005BCE490E68AF090E68BF090F3
:1000C000E6A0E020E1F990E68BE0F565E4F5B39079
:1000D000E60174CAF0D20100000090E6047480F0DA
:1000E0000000007402F0000000E4F00205BEE4909D
:1000F000E68AF090E68BF090E6A0E020E1F990E649
:100100008BE0F565D3943F4024E4F56674402566A2
:10011000F582E434E7F583E0FF74122566F582E4A6
:100120003424F583EFF00566E566B440DF7F8A7E10
:1001300000122221902412E0FF7E0012222A902435
:1001400013E075F004A4FFAEF0122233902417E000
:10015000C394025013902433E090E6C07005744EAF
:10016000F08016749CF08011902433E090E6C0700B
:1001700005749FF08003749DF0902435E024FF9275
:1001800007902432E024FF9206902436E024FF9268
:1001900009902440E0753C00F53DA3E0FEA3E07C1F
:1001A000002400F525EC3EF524902445E09024B68B
:1001B000F0902418E0F535E535700375350190248D
:1001C0001DE0FEA3E07C002400F529EC3EF528A309
:1001D000E0FEA3E02400F54AEC3EF549902419E046
:1001E000FEA3E02400F531EC3EF530A3E0FEA3E0F1
:1001F0002400F54CEC3EF54B90244DE0FFE4FDFE71
:10020000FBFAF97801120C28A804A905AA06AB0785
:10021000902423E0FEA3E07C002400FFEC3EFEE4FB
:10022000FDEB2FFFEA3EFEED39FDEC38FCC004C0CB
:1002300005C006C00790244EE0FFE4FCFDFEFBFA7B
:100240007901F8120C28D003D002D001D000EF2B96
:10025000F542EE3AF541ED39F540EC38F53F9024A2
:1002600021E0FEA3E07C002400F52EEC3EF52D906D
:100270002447E0540FF536E4FD7F9012219D902431
:1002800013E0FCA3E0FDA3E0FEA3E0FF9024C11275
:100290000C9B9024C1A3E0FDA3E0FEA3E0FFE4FCDF
:1002A0009024C1120C9B0205BEE4F566741225660B
:1002B000F582E43424F583E0FF74402566F582E49A
:1002C00034E7F583EFF00566E566B440DF00000033
:1002D000E490E68AF000000090E68B7440F002059E
:1002E000BEE490E68AF090E68BF090E6A0E020E194
:1002F000F990E6BCE0902452F0E4F56690E6BEE0AA
:10030000FFE566C39F501E74402566F582E434E71E
:10031000F583E0FF74532566F582E43424F583EF1A
:10032000F0056680D790E6BAE0C313FF90E6BEE022
:10033000048059E490E68AF090E68BF090E6A0E025
:1003400020E1F990E6BDE0902452F090E6BCE09008
:100350002453F0E4F56690E6BEE0FFE566C39F50E7
:100360001E74402566F582E434E7F583E0FF74549B
:100370002566F582E43424F583EFF0056680D79096
:10038000E6BAE0C313FF90E6BEE02402FD7A247BC8
:10039000520204DC90E7407409F0A37414F0A374D3
:1003A0000CF0A37426F0A37407F0A374EEF0A3740A
:1003B00001F0A37403F0A37453F0300305E4A3F039
:1003C000800690E74974FFF0000000E490E68AF0B0
:1003D00000000090E68B740AF00205BE7AE77B40CD
:1003E0007D047F481220A7000000E490E68AF00018
:1003F000000090E68B7404F00205BEE490E68AF0FB
:1004000090E68BF090E6A0E020E1F990E68BE0F535
:1004100065D3940150030205BE90E741E0FD7F42A1
:1004200012219D90E740E0FD7F4E12219D0205BE06
:1004300090E6BCE0902572F07A257B727D017F50BA
:100440001220C37A257B727D017F501220C390E673
:10045000BEE0FD7AE77B407F501220A7E490E68A59
:10046000F000000090E6BEE090E68B0205B6E49056
:10047000E68AF000000090E68BF000000090E6A015
:10048000E020E1F990E6BCE0D3940750030205BEFA
:10049000E0902452F0E4F56690E6BEE0FFE566C326
:1004A0009F501E74402566F582E434E7F583E0FF33
:1004B00074532566F582E43424F583EFF0056680F5
:1004C000D790E6BEE004FD7A247B527F501220C311
:1004D00090E6BEE004FD7A247B527F501220C302D6
:1004E00005BEE490E68AF090E68BF090E6A0E0206E
:1004F000E1F990E68BE0F566C29890E740E0C3949E
:10050000304006E0D39436400790E740E0F4704175
:10051000E548703D43A01090E740E0F4600AE0B485
:100520003010E52B6401600AD20C754801C20A0242
:1005300005BE90E740E0C3943150030205BEE0D30E
:100540009436507AE024D1F52C652B6071C20B8073
:100550000F90E740E064207065E548706143A010AB
:100560007548028059E567C39414503AE567C31390
:10057000FD2472F582E43424F58374402567F58206
:10058000E434E7F583E4F074722DF582E43424F565
:1005900083E0FF74412567F582E434E7F583EFF0EB
:1005A0000567056780BF000000E490E68AF0000060
:0F05B0000090E68B7428F00000008002D322C375
:0105BF002219
:1020F700C0E0C083C082D20F5391EF90E65D7401B8
:08210700F0D082D083D0E03259
:10212700C0E0C083C0825391EF90E65D7404F0D0A5
:0621370082D083D0E032EB
:10213D00C0E0C083C0825391EF90E65D7402F0D091
:06214D0082D083D0E032D5
:101DE500C0E0C083C08285100C85110D850D8285EC
:101DF5000C83A37402F085080E85090F850F828573
:101E05000E83A37407F05391EF90E65D7410F0D044
:061E150082D083D0E03210
:10210F00C0E0C083C082D2115391EF90E65D740896
:08211F00F0D082D083D0E03241
:101D7100C0E0C083C08290E680E030E72085080C97
:101D810085090D850D82850C83A37402F085100EE3
:101D910085110F850F82850E83A37407F05391EF90
:0D1DA10090E65D7420F0D082D083D0E03257
:0116FF0032B8
:01226100324A
:012262003249
:012263003248
:101EB700C0E0C083C08290E65EE054FBF000000003
:101EC70090E68F7440F00000005391EF90E65FE0DA
:101ED7004404F090E65EE04404F0D082D083D0E082
:011EE70032C8
:1012B900C0E0C0F0C083C082C0D075D000C000C0FB
:0D12C90001C002C003C004C005C006C0077C
:1012D60075500075510090E65EE054F7F090E6A177
:1012E600E020E1F990E780E0FF1460161460262400
:1012F600D0603A2434606514606C14706E752300F7
:10130600806990E782E0F53A90E781E0F53E902427
:10131600BBE4F0805690E782E0902410F090E781DD
:10132600E0902411F09024BB7401F0803E90E78198
:10133600E07005121A9D803390E781E0B401051232
:1013460016E0802790E781E0B403051221FE801B9A
:1013560090E781E0B4FF141221F1800F90E781E05D
:1013660024FF92088005752300D20400000090E651
:101376008DE4F05391EF90E65FE04408F090E65E6E
:04138600E04408F047
:10138A00D007D006D005D004D003D002D001D000B7
:0B139A00D0D0D082D083D0F0D0E03261
:012264003247
:012265003246
:101D3200C0E0C083C08290E65EE054BFF0000000C5
:101D420090E6987402F000000090E699E4F000003A
:101D52000090F800F0A3F05391EF90E65FE044406A
:0F1D6200F090E65EE04440F0D082D083D0E032D3
:1019AB00C0E0C083C082C0D075D000C000C001C0F1
:0B19BB0002C003C004C005C006C00746
:1019C60090E65EE0547FF090E6A6E020E1F990E62E
:1019D6009CE0FE90E69DE07C002400FFEC3EFEBE0F
:1019E600010CBF82097B017AFC7900121C9B000066
:1019F6000090E69CE4F090E69DF05391EF90E65F50
:0B1A0600E04480F090E65EE04480F0D9
:101A1100D007D006D005D004D003D002D001D00029
:091A2100D0D0D082D083D0E03295
:012266003245
:012267003244
:012268003243
:012269003242
:01226A003241
:01226B003240
:01226C00323F
:01226D00323E
:01226E00323D
:01226F00323C
:01227000323B
:01227100323A
:012272003239
:012273003238
:012274003237
:012275003236
:012276003235
:012277003234
:012278003233
:012279003232
:01227A003231
:01227B003230
:01227C00322F
:01227D00322E
:01227E00322D
:01227F00322C
:0617B8008F688C698D6A48
:1017BE0053680753B0F77F0A7E00121BCBE4F56B1C
:1017CE00C37402956BFFE568A807088002C313D89F
:1017DE00FC30E00543800280035380FD7F0A7E00CB
:1017EE00121BCB4380017F0A7E00121BCB5380FE5F
:1017FE007F0A7E00121BCB056BE56BC3940340C0C2
:10180E00E4F56BC37409956BFFE56AAE69A807082A
:10181E008005CEC313CE13D8F930E0054380028085
:10182E00035380FD7F0A7E00121BCB4380017F0A8B
:10183E007E00121BCB5380FE7F0A7E00121BCB054F
:10184E006BE56BC3940A40BB43B0087F0A7E00125F
:0C185E001BCB53B0F77F0A7E00021BCBAF
:09222100AD07AC06E4FF0217B89A
:09222A00AD07AC067F040217B8F1
:09223300AD07AC067F010217B8EB
:10219D00902452EDF0EFC313FF7A247B527D0102A0
:0221AD0020C34D
:101B800053A0F043A0087FC47E09121BCB53A0F0E2
:101B900043A00C7FC47E09121BCB53A0F043A004CA
:101BA0007FC47E09121BCB53A0F043A0067FC47EE6
:101BB00009121BCB53A0F043A0027FC47E09121B65
:0B1BC000CB53A0F043A0037FC47E09BC
:101BCB00EF7803C333CE33CED8F9FFEF4E6007EF78
:071BDB001F70F81E80F522C7
:05224C00D283D28422C0
:10208A00C2837F027E00121BCBC284D2837F027E70
:0D209A0000121BCBD2847F027E00021BCB04
:1021AF00E4FDFC12208A0DBD00010CBC0DF5BDF63F
:0121BF00F22D
:0121C00022FC
:10203E0053A0F043A0047FD07E07121BCB53A0F019
:10204E0043A00C7FD07E07121BCB53A0F043A008F9
:07205E007FD07E07021BCBBF
:100FA8009024C1E0FCA3E0FDA3E0FEA3E0FF9024B1
:100FB800B7120C9B300605C2B043A0409024B6E09F
:100FC80070031216E0300703021097752301E47FBF
:100FD800E87E03FDFC9024B7E0F8A3E0F9A3E0FA6B
:100FE800A3E0FBC3120C775003021085E5236401CC
:100FF80060030210857FDD7E03121CEC121B0F902C
:1010080024B7E0FCA3E0FDA3E0FEA3E02418FFEE74
:1010180034FCFEED34FFFDEC34FFFC9024B7120CD9
:101028009B9024B7E0FCA3A3A3E4FFFEFDEC781893
:10103800120C8890E7C4EFF09024B7A3E0FDA3A3B7
:10104800E4FFFEE4FC7810120C8890E7C5EFF090FE
:1010580024B7A3A3E0FEA3E4FFE4FDFC7808120C88
:101068008890E7C6EFF09024B7E0FCA3E0FDA3E08A
:10107800FEA3E0FFE490E7C7EFF0020FD6E523B444
:1010880001169024B9E0FEA3E0FF121CEC8009755C
:101098002301E523640160FA9024B6E0700312216D
:0A10A800FE300605D2B053A0BF22AF
:101A2A008F6C8E6B8D6A8C69E4FFFEFDFCAB6CAA31
:101A3A006BA96AA869D3120C774057000000E4FF2B
:101A4A00FEFDE569FC7818120C8890E6CEEFF000EE
:101A5A000000E4FFFEE56AFDE4FC7810120C8890B1
:101A6A00E6CFEFF0000000E4FFE56BFEE4FDFC7852
:101A7A0008120C8890E6D0EFF0000000E56CFF90A9
:101A8A00E6D1EFF000000075BB04000000E5BB30B2
:031A9A00E7FB2245
:081DAE008C698D6AAB07AA06DF
:101DB600E4FDFCC3ED956AEC95695022EA90E6D005
:101DC600F0000000EB90E6D1F000000075BB0500C6
:0E1DD6000000E5BB30E7FB0DBD00010C80D521
:011DE40022DC
:101FEE00AD07AC06000000ED25E0EC3390E6D0F036
:101FFE00000000ED25E090E6D1F000000075BB0476
:09200E00000000E5BB30E7FB22F5
:1011BA00C20453A0F043A0047FD07E07121BCB5376
:1011CA00A0F043A00C7FD07E07121BCB53A0F043A4
:1011DA00A0087FD07E07121BCB9024B6E0B401078B
:1011EA00E536700312203E1221AF75430290E7C024
:1011FA00E543F0120FA875430390E7C0E543F030CA
:10120A0004030212B8E4F567F568C3E5689529E5B1
:10121A00679528500D12208A0568E56870EC056705
:10122A0080E8D3E53D9400E53C9400400BAD3DAC2D
:10123A003CAF31AE30121DAED3E5259400E52494BF
:10124A00004007AF25AE24121FEEE4F565F566C32C
:10125A00E566954CE565954B502C121F9AE4F567A7
:10126A00F568C3E56895357480F8656798500D127E
:10127A00208A0568E56870EA056780E60566E5661E
:10128A0070CD056580C9E4F567F568C3E568954AD8
:10129A00E5679549500D12208A0568E56870EC05E6
:0E12AA006780E8AF42AE41AD40AC3F121A2A59
:0112B8002213
:101F9A00000000E53125E0E5303390E6D0F000009E
:101FAA0000E53125E090E6D1F000000075BB0400A1
:0B1FBA000000E5BB20E7033004F82224
:0D21F10053A0F07526FF90E7CBE526F02205
:101A9D0053A0F043A0097F287E0A121BCB53A0F060
:101AAD0043A0017F287E0A121BCB53A0F043A00355
:101ABD007F287E0A121BCB53A0F043A0027F287E05
:101ACD000A121BCB53A0F043A0067F287E0A121BDF
:101ADD00CB53A0F043A0047F287E0A121BCB53A04A
:101AED00F043A00C7F287E0A121BCB53A0F043A01D
:101AFD00087F287E0A121BCBE4F52690E7CBE5265E
:021B0D00F022C4
:0D21FE00121B8075260390E7CBE526F0222A
:1016E000121B8053A0F043A001121BC753A0F0436C
:0F16F000A009121BC775260190E7CBE526F02253
:101C4100052FE52FB40803E4F52FE52F70047F0875
:101C5100803DE52FB401047F0A8034E52FB40204EE
:101C61007F02802BE52FB403047F038022E52FB48C
:101C710004047F018019E52FB405047F058010E578
:101C81002FB406047F048007E52FB4070C7F0C12E4
:0A1C91001F6F7F2D7E00121BCB2277
:1021C100C202E548600B121C410538E53870020572
:0221D1003722B3
:1021D300E548600B0538E53870020537121C4122CB
:08224400E4F51BD2E9D2AF2240
:101E1B0090E678E020E6F9C2E990E678E04480F0BD
:101E2B00EF25E090E679F090E678E030E0F990E687
:101E3B0078E04440F090E678E020E6F990E678E030
:061E4B0030E1D6D2E922CD
:101E8500A90790E678E020E6F9E51B702390E6784F
:101E9500E04480F0E925E090E679F08D16AF03A9DE
:101EA500077517018A188919E4F51A751B01D322DC
:021EB500C32246
:101E5100A90790E678E020E6F9E51B702590E67881
:101E6100E04480F0E925E0440190E679F08D16AF79
:101E710003A9077517018A188919E4F51A751B0357
:041E8100D322C32283
:03004B000210B2EE
:1010B200C0E0C083C082C085C084C086758600C07F
:1010C200D075D000C000C001C002C003C006C00776
:1010D20090E678E030E206751B0602119C90E678F5
:1010E200E020E10CE51B64026006751B0702119CFF
:1010F200E51B24FE605F14603624FE700302118D2E
:1011020024FC70030211992408600302119CAB179E
:10111200AA18A919AF1A051A8F82758300120B91AA
:1011220090E679F0E51A65167070751B05806B9074
:10113200E679E0AB17AA18A919AE1A8E8275830058
:10114200120BBE751B02E5166401704E90E678E044
:101152004420F08045E51624FEB51A0790E678E0B3
:101162004420F0E51614B51A0A90E678E04440F0FF
:10117200751B0090E679E0AB17AA18A919AE1A8E72
:1011820082758300120BBE051A800F90E678E04448
:1011920040F0751B008003751B005391DFD007D010
:1011A20006D003D002D001D000D0D0D086D084D0D7
:0811B20085D082D083D0E03229
:1020A700121E51E51B24FA600E146006240770F314
:0C20B700D322E4F51BD322E4F51BD32256
:1020C300121E85E51B24FA600E146006240770F3C4
:0C20D300D322E4F51BD322E4F51BD3223A
:0300000002186A79
:0C186A00787FE4F6D8FD75816C0218B19F
:100B9100BB010CE58229F582E5833AF583E0225019
:100BA10006E92582F8E622BBFE06E92582F8E22263
:0D0BB100E58229F582E5833AF583E493227D
:100BBE00F8BB010DE58229F582E5833AF583E8F06D
:100BCE00225006E92582C8F622BBFE05E92582C819
:020BDE00F22201
:100BE000EF8DF0A4A8F0CF8CF0A428CE8DF0A42E29
:020BF000FE22E3
:100BF200C2D5EC30E709B2D5E4C39DFDE49CFCEE1E
:100C020030E715B2D5E4C39FFFE49EFE120CCDC3BC
:100C1200E49DFDE49CFC8003120CCD30D507C3E4B7
:060C22009FFFE49EFE228C
:100C2800E88FF0A4CC8BF0A42CFCE98EF0A42CFC6B
:100C38008AF0EDA42CFCEA8EF0A4CDA8F08BF0A4E9
:100C48002DCC3825F0FDE98FF0A42CCD35F0FCEB48
:100C58008EF0A4FEA9F0EB8FF0A4CFC5F02ECD390D
:0F0C6800FEE43CFCEAA42DCE35F0FDE43CFC227A
:100C7700EB9FF5F0EA9E42F0E99D42F0E89C45F0D3
:010C8700224A
:100C8800E8600FECC313FCED13FDEE13FEEF13FF4A
:030C9800D8F1226E
:0C0C9B00ECF0A3EDF0A3EEF0A3EFF022CC
:100CA700D083D082F8E4937012740193700DA3A3DC
:100CB70093F8740193F5828883E4737402936860F0
:060CC700EFA3A3A380DFF0
:101876000209D7E493A3F8E493A34003F68001F2A8
:1018860008DFF48029E493A3F85407240CC8C33373
:10189600C4540F4420C8834004F456800146F6DF42
:1018A600E4800B0102040810204080900D22E47EA3
:1018B600019360BCA3FF543F30E509541FFEE49337
:1018C600A360010ECF54C025E060A840B8E493A3FE
:1018D600FAE493A3F8E493A3C8C582C8CAC583CA29
:1018E600F0A3C8C582C8CAC583CADFE9DEE780BEE1
:010E9400005D
:100CCD00BC000BBE0029EF8DF084FFADF022E4CC0B
:100CDD00F875F008EF2FFFEE33FEEC33FCEE9DECD4
:100CED00984005FCEE9DFE0FD5F0E9E4CEFD22ED1A
:100CFD00F8F5F0EE8420D21CFEADF075F008EF2F64
:100D0D00FFED33FD4007985006D5F0F222C398FD54
:050D1D000FD5F0EA22F1
:00000001FF
