:021B2F00EFF8CD
:061B1100000000D8FB22D9
:061B1700F0A83C021B11C6
:10191E00908000E521D2E16403121B176403121BB1
:0D192E0017DFF46403121B1754FC021B1793
:10117500C23FEE2F604A0ED3121970304A0090809C
:1011850000E521204A05D2E0121B176403121B1744
:101195006403121B17204A0554FC121B17EFBE01EE
:1011A50005C3940440045CB40112C3121970A9303C
:1011B5007840121B11D9F9DFBEDEBC22DFC3DEC1C8
:0711C500908002E524F022F6
:10185200EE2F601E0E908000E521D2E0121B17646D
:1018620003121B176403121B1754FC121B17DFEA27
:03187200DEE8228B
:1015D400A23F923CC23F1212AFEE2F601F0E9080CA
:1015E40000E521304208121B1778FF121B11640317
:1015F400121B176403121B17DFF4DEF2121A55C212
:0616040049A23C923F22C6
:101A5500E524908002D2E4F07828121B11C2E4F04C
:051A65007828021B11AE
:1012A900C2AFD30219701212C2C30219701212A965
:1012B9001211CC1212CA0211DC1212A9908000E597
:1012C90021204104D2E18002D2E0F07876121B118C
:1012D900E524908002D2E1F0780D121B11C2E1F0F1
:1012E9009080007812121B11E521F0D249D2AF2269
:1011CC00908000E521304215121B1778FF021B118D
:1011DC0030420A78FF121B1154FC021B1722EF60DD
:1011EC00121211CC6403121B176403121B17DFF4C9
:0411FC001211DC22CE
:0C1AF100908003E525C2E6F0D2E6F0226A
:10197000E5264004D2E68002C2E6908004F0F52617
:081980004001227805021B1151
:100ED600907DC1E054F0B4F006121051020F58B4E0
:100EE6000005120DA5806BB410051216408063B480
:100EF6002005121346805BB430051217E68053B402
:100F060040051218B9804BB45005121B1D8043B41E
:100F16006005121A92803BB4700512160A8033B42B
:100F26008005120E44802BB49005120F5F8023B407
:100F3600A0051216A8801BB4B0051215298013B49B
:100F4600C00512193B800BB4D00512193B80031261
:090F56000FDE907FC97400F02247
:051B1D00740602193DF1
:051B2200741502193DDD
:10193B007418C251753300901B4B858331858232ED
:0B194B00F0A37400F0F52C752D0122B4
:10187500C251753300901B4B85833185823274A527
:10188500F0A3E516F0540F240354FE03F52D752C33
:0218950000222F
:101A9200901B4D7462F5167402F0A37420F00218C4
:011AA20075CE
:10105100A3E0A3B40303021394B40A03021392B4EA
:101061000003021AB4B40403021799B4050302126F
:10107100F9B40603021420B40703021897B4080553
:10108100E0FF021A7FB4090BE0FFA3E0FD12146533
:10109100021B1DB40B04E0021AA3B40C08E01312E6
:1010A1001970021B1DB40D061212B6021B1D021986
:0210B1003B22E0
:101A7F0012170D901B4D74F2F5167408F0A3EFF0CA
:031A8F00021875C5
:101AA300B40007A24A923F021B1DA24A925E021B88
:011AB3001D15
:101AB40012173EE0F511FEA3E0F512FF050B021B21
:011AC4001D04
:10139200050B050B12173EE0FEF511A3E0FFF51257
:1013A200C3E51D9420E51C9400500A204607E4B5CD
:1013B2000B0302193BD251907DC2E0B403028003B9
:1013C200B40A0F7C00907DC7E0FD14250BF50B12CB
:0713D20011158E2C8F2D2256
:101799007400F50BE51C451D601B30460F90800059
:1017A90078007900E030E104D8FAD9F8121AF17515
:0817B9001C00751D00021B1D40
:1012F90012173EE0FCA3E0FDA3E0F8A3E0F9A3E0A8
:10130900FAA3E0FB901B4AECF0E526D2E1D2E0BC5F
:101319000306C2E0D2E18007BC0204C2E1D2E0F5D3
:1013290026908004F0901B47EDF0901B48E8F0A34D
:0D133900E9F0901B45EAF0A3EBF0021B1D4C
:10189700907DC6E0FEA3E0FF907DC3E0B4000D306D
:1018A7004A051215D480081218528003121A3F02F3
:0218B7001B1DF7
:10142000907DC4E0FF7E00A3A3A3E0FCA3E0FD1237
:101430001115907DC3E0B40020304A08204905C250
:101440003F1212AF7C07907DC1E0907DC9540FB46C
:101450000802E0FC1211758009203A03121674127A
:0514600017C1021B1D75
:10173E00907DC3E0B52E028022F52EB40006D2486D
:10174E007D40800BC248B401047D2080027D107F55
:0F175E00101214657DD87F00121465907DC4228F
:100FDE00A3E0A3C3B400028036B40102800BB402B6
:100FEE0002802DB40302800222D3121046907DC6D9
:100FFE00500CE584F8E0A3F608DFFA021B1DC2AF21
:10100E00E0A30586F0A30586DFF6D2AF021B1DD343
:10101E00121046901B4D7516E8500CE584F8E60844
:10102E00F0A3DFFA021875C2AF0586E0A30586F0BD
:10103E00A3DFF6D2AF021875E0FFA3E0F584A3E0BC
:03104E00F5852203
:10159D00EF0303543FF8EFC398FF907F98E0C2E349
:1015AD00F0C2E5F0F879C77B027A08E933F9E8C2B1
:1015BD00E45002D2E4F0D2E3F0C2E3F0DAEDEFF959
:0715CD00DBE7E8D2E5F022A4
:1013D900907F98E0C2E3F0C2E5F0FB79A77A08E9CB
:1013E90033F9EBC2E45002D2E4F0D2E3F0C2E3F005
:1013F900DAED7828000000D8FB7A087F00907F9BFF
:10140900E0C372E2EF33FF907F98EBD2E3F0C2E3DF
:07141900F0DAEAD2E5F0224F
:10146500C2AF907F98E0D2E3F0908003E525D2E407
:10147500F0F525EFF9907F98E0F87B027A08E933DB
:10148500F9E8C2E45002D2E4F0C2E3F0D2E3F0DAC4
:10149500EDEDF9DBE7908003E525C2E4F0F525D213
:0214A500AF2274
:1014A700C2AFE520907F97FA7809EAC2E6F0791E85
:1014B700D9FEEAD2E6F0D3EF00007907D9FE33CAA6
:1014C7004008C2E6F0CAD8F28006D2E6F0CAD8EAE7
:1014D700D2AF907F997A03E030E105D8FADAF8C302
:0114E70022E2
:10170D00907F96E020E0047E0180027E008E0DEF3A
:10171D006009907F96E054FEF0800B907F96E04438
:10172D0001F0A24A923FE50D70047F0180027F0017
:01173D002289
:100DA500C243907DC5E0540CF50DE030E42C907DF8
:100DB500C3E0F538A3E0F53DE53754F34404F537D2
:100DC500D24BA3E030E603E4F50DE50D7047C24BC9
:100DD500E53754F34408F537803BA24A923F907DAE
:100DE500C2E0F50CA3E0F510A3E0F517E53754FCD8
:100DF5004401F537D24EE50D700AC24EE53754FC75
:100E05004402F537C250C24D304A0AAF13EF65139D
:100E150060FB121A55E50DB404031216DBE50DB49B
:100E25000803121563121B1DC2AF907DC5E030E7A4
:0E0E350006D239D250D24DA250B39243D2AF62
:010E4300228C
:10164000C243907DC2E030E014E537540C60205373
:1016500037F3304B1A12156343370C8012E53754B9
:1016600003600C5337FC304E06121563433703D228
:0416700043021B1DF9
:10134600C2AF907DC2E030E407E0A2E3925B803753
:10135600C25BC255907DC3E0901B5BF0907DC2E0FE
:1013660030E10BA3E0F53AE4901B43F08019907D41
:10137600C2E030E00CD255907DC4E0901B43F08073
:0C13860006901B437401F0D2AF021B1D47
:1017E600E4901B4DF030550204F0901B5BE0901B1B
:1017F6004EF0A3E515F0A37480F0A3E53AF0751654
:04180600350218751A
:1018B900C2AF907DC2E0F50EA3E0F508A3E0F50FF5
:1018C900A3E0F509C253A3E030E002D253D2AF023C
:0218D9001B1DD5
:10160A00907DC2E02410547FF50DE030E715907DFF
:10161A00C4E0FFAD0D12182E901B4DEFF075167138
:10162A00021875907DC4E0FF907DC3E0FBAD0D12FA
:06163A00000E121B1D2230
:100E4400121B1D907DC2E0FFC454C0F516E4F534B6
:100E5400E516B44004D2058015E5167004C2058079
:100E64000DE516B4800575343F800375340FE537FE
:100E7400543F4516F537C204907DC2E030E402D2F7
:100E840004907F97E520F0907DC2E05403F516B4FA
:100E940001031216DBE516B40203121563E516B45A
:100EA4000303120CF7907DC2E0FFC4135403F5163C
:100EB40064016005E516B4030B301708C21790806F
:100EC40010E522F0E516B40208D217908010E5224E
:020ED400F0220A
:100F5F00C2AFE53754CF901B4DF0305904E0441029
:100F6F00F0305707901B4DE04420F0305607901B90
:100F7F004DE04430F0A204E433901B4EF0907F9983
:100F8F00E020E107901B4EE04404F0301707901B60
:100F9F004EE04408F0E50E6007901B4EE04410F061
:100FAF00E5086007901B4EE04420F0E50F600790C6
:100FBF001B4EE04440F0E5096007901B4EE0448073
:0F0FCF00F0901B4FE50AF0D2AF7516930218751C
:10152900907DC2E0F50DE4F516F50D907DC2E0FF62
:10153900E50DC39F501874C3250DF582E4347DF57C
:1015490083E0FF1214A750020516050D80DD901BDC
:0A1559004DE516F07516B102187585
:1016A800121B1DC23B907DC2E030E002D23B907D10
:1016B800C2E030E314E52F5403901B2B93FFE5257C
:1016C80054F0FEEF4EF52580035325F0908003E596
:0316D80025F022D8
:1010B3001201000100000040970D0101010001022F
:1010C300000109022000010100A000090400000240
:1010D300FF000000070582024000000705020240EE
:1010E3000000040309040A035300420049004700B7
:1010F30020035500530042002D00430041004D00E2
:10110300200045006E00670069006E006500320034
:021113000000DA
:041B2B0001020408A7
:10050000901B6612114400000000C25DC238C25444
:10051000C23D1208907E107FB38E188F19751A1085
:10052000751BC5751E10751FE5EE54E070030206BD
:1005300064901B6AE4F0A37480F0A3EEF0A3EFF0E4
:10054000C374139FFF74119ECF2402CF3400FEE4C6
:10055000FCFD901B62121138901B5C1211440000CC
:100560000000901B62E0FCA3E0FDA3E0FEA3E0FF1F
:10057000901B5CE0F8A3E0F9A3E0FAA3E0FBC31250
:100580001127503A901B5EE0FEA3E0FF901B6AE04B
:10059000FCA3E02FF582EC3EF58374CDF0901B5C5C
:1005A000E0FCA3E0FDA3E0FEA3E02401FFE43EFEA7
:1005B000E43DFDE43CFC901B5C12113880A4901BD0
:1005C0005C12114400000000901B62E0FCA3E0FDFF
:1005D000A3E0FEA3E0FF901B5CE0F8A3E0F9A3E03A
:1005E000FAA3E0FBC31211275049901B5EE0FEA363
:1005F000E0FF901B6CE0FCA3E02FF582EC3EF5835E
:10060000E0FD901B6AE0FAA3E02FF582EA3EF58355
:10061000EDF0901B5CE0FCA3E0FDA3E0FEA3E02472
:1006200001FFE43EFEE43DFDE43CFC901B5C121146
:10063000388095901B6AE0F518A3E0F51974B3248F
:1006400080FF741034FFFE901B60F0A3EFF0C3E551
:100650001B9FF51BE51A9EF51AC3E51F9FF51FE5C5
:100660001E9EF51ED2E843D820907F95E044C0F04E
:10067000907FAFE04401F0907FAEE0441DF0907FAA
:10068000ADE04404F0D2AF120715203D52203D05E5
:10069000D25F121258901B66121144000000007FB6
:1006A000407E927D047C00901B66E0F8A3E0F9A3F5
:1006B000E0FAA3E0FBC312112750CF203DCC901BE2
:1006C00066E0FCA3E0FDA3E0FEA3E02401FFE43E1E
:1006D000FEE43DFDE43CFC901B6612113880C0E551
:1006E0008E54F84401F58E303D051202E0C23D30D3
:1006F0005D12C25D1218FD203807907FD6E020E71A
:10070000F3121956120C2D120C2D120C2D120C2D49
:05071000120C2D80D247
:1002E000907FE9E070030203BF147003020433241B
:1002F000FE70030204A224FB70030203B91470030E
:100300000203B31470030203A71470030203AD24A5
:100310000560030204F1907FEBE024FE6016146098
:100320004224027078E518907FD4F0E519907FD5CB
:10033000F00204F8907FEAE0FF1214E8AA06A90789
:100340007B018B3E8A3F8940EA49600DEE907FD465
:10035000F0EF907FD5F00204F8907FB4E04401F014
:100360000204F8907FEAE0FF12176DAA06A9077B46
:10037000018B3E8A3F8940EA496018EE907FD4F0B5
:10038000EF907FD5F0E4907FB5F0907FB47402F0E9
:100390000204F8907FB4E04401F00204F8907FB4C6
:1003A000E04401F00204F8121AE30204F8121B09F7
:1003B0000204F81200030204F8121AD50204F8909D
:1003C0007FE8E0247F60241460312402705BA2384F
:1003D000E433FF25E0FFA254E4334F907F00F0E4C4
:1003E000A3F0907FB57402F00204F8E4907F00F06F
:1003F000A3F0907FB57402F00204F8907FECE0F473
:100400005480FFC4540FFFE054072F25E024B4F5B7
:1004100082E4347FF583E05401907F00F0E4A3F0A0
:10042000907FB57402F00204F8907FB4E04401F0CC
:100430000204F8907FE8E024FE601D2402600302BD
:1004400004F8907FEAE0B40105C2380204F8907F16
:10045000B4E04401F00204F8907FEAE0703B907F42
:10046000ECE0F45480FFC4540FFFE054072F25E064
:1004700024B4F582E4347FF583E4F0907FECE0541B
:1004800080FF131313541FFFE054072F907FD7F002
:03049000E4F5414F
:10049300E04420F0805F907FB4E04401F080569008
:1004A3007FE8E024FE60182402704A907FEAE0B4FB
:1004B3000104D238803F907FB4E04401F08036904D
:1004C3007FEAE07020907FECE0F45480FFC4540F87
:1004D300FFE054072F25E024B4F582E4347FF5834D
:1004E3007401F08010907FB4E04401F08007907FA6
:0C04F300B4E04401F0907FB4E04402F05B
:0104FF0022DA
:03003300021B2786
:041B270053D8EF326E
:0D00360000110C080707070707070C12FF51
:10180A00052F7E00E52F5403242BF582EE341BF5B9
:10181A0083E493FFE52554F0FEEF4EF5259080030F
:04182A00E525F0229E
:100CF700753403C247D22F908003E525F0E4F5163B
:100D07007D64750AFF12180A85130DC3E513950D47
:100D1700C39D40F7E516C39470505B12180A901BE9
:100D270042E0F50D901B42E0C3950DC3948040F45B
:100D3700152F7E00E52F5403242BF582EE341BF587
:100D470083E493FFE52554F0FEEF4EF525908003ED
:100D5700E525F0901B42E0C3950DC394F040F412D3
:100D6700180AAF160516EFC3940C40A8908000E050
:100D770030E0A1750A09532FFED259C240C257C2AB
:100D8700567535FFD247C22F908003E525F0E5352C
:0D0D970070FCE4F534D205907F97E520F064
:010DA400222C
:1016DB00C247305604D25A8026C25A305921D257AB
:1016EB00C259E52F5403901B2B93FFE52554F0FEB5
:1016FB00EF4EF525908003E525F0E4F535F536D270
:02170B00472273
:10156300C247305704D24C802EC24C304029D25649
:10157300C240C207907F97E520F0E52F5403901BEC
:101583002B93FFE52554F0FEEF4EF525908003E500
:0A15930025F0E4F535F536D24722C5
:03000B00020046AA
:10004600C0E0C0F0C083C082C0D075D000C000C080
:0D00560001C002C003C004C005C006C00701
:10006300901B42E004F0E05407600302029730451E
:1000730019908000E030E005750A098003750AFFD6
:10008300C22F908003E525F0C24530477320570304
:1000930030565D20560CE5367008901B44E0640929
:1000A300705EE535704612180A0536E5369000365F
:1000B30093F535E536640C7047908003E525F03001
:1000C3005714D240C257D207907F97E520F0304CA7
:1000D3002F121563802AD259D22F908003E525F081
:1000E300D245C256305A191216DB801415358010CA
:1000F300E535600CD535095325F0908003E525F0EF
:10010300303B75C236908004E526F090800274017E
:10011300F0741DF07419F09080007474F0908001F5
:10012300747FF0753E04908000748FF090800174AA
:1001330041F09080027419F0D53EEB753E04908037
:1001430001E4F09080027410F0D53EF290800074C8
:1001530074F0908001747FF09080027401F09080BD
:1001630000E521F0908001E523F0908002E524F082
:10017300D236908004E526F0305017303907C23963
:10018300121A55800DAF171517EF7006C250D243E0
:10019300805F901B44E004F0E0640A60030202976E
:1001A300F00513E51370020514D24F204303020236
:1001B30043E5375403FFBF010820590330400205CC
:1001C30037E5375403FFBF021DAF171517EF70163E
:1001D300AF101510EF700FAF0C150CEF7008304E09
:1001E300101215630537E5375403FFBF030E30596B
:1001F3000B304D05C23F1212AF5337FCE537540C99
:10020300FFBF040C20400330590674042537F5372B
:10021300E537540CFFBF081AAF3D153DEF7013AF20
:10022300381538EF700C304B1412156374042537EE
:10023300F537E537540CFFBF0C063059035337F33A
:10024300305306E513540F7035753E00E50E600517
:10025300433E01150EE5086005433E021508E50F10
:100263006005433E04150FE5096005433E08150983
:10027300E52054F0453EF520907F97E520F0E534E6
:10028300600655137002B205907F97E520F0E513E1
:10029300543F600330582B303F28305E25305222C4
:1002A300B208B209753E04153EE53ED394004008FA
:1002B300908000E521F080EFB208B209908000E55C
:0202C30021F028
:1002C500D007D006D005D004D003D002D001D0008D
:0B02D500D0D0D082D083D0F0D0E03237
:101AC500040103000505000301000200FFFFFEFEFF
:10089000D238907F92E054FDF0E4907FE2F0F5864C
:1008A000907F9574C3F0907F9E74FBF0907F93745B
:1008B00028F0E4907F94F0907F9C742DF0907F96C8
:1008C0007401F0907F9D74FFF0907F977430F090EA
:1008D0007FDD7409F0907FA1E04401F0907FB27455
:1008E00000F0A37446F0907FAFE04406F0758C06EC
:1008F000E58954F84402F589538EF7D28CD2A97554
:100900002560908003E525F0AF3A12159DD2069040
:100910007F97E520F0753740D243D2527524017598
:10092000217475237F752607908000E521F0908063
:1009300001E523F0908002E524F0908004E526F0A4
:10094000908010E522F0901B477401F07D1E7F40DF
:10095000121465E4FD7F701214657DD8E4FF121453
:10096000657D407F10121465D2487D0C7F201214E3
:10097000657D1E7F501214657D1E7F30121465E464
:06098000FD7F600214651A
:10071500908006E4F0A3740AF0908008E4F0A374D6
:1007250009F090800AE4F0A304F0D236908004E545
:1007350026F0D237E526F07513F5908000E030E11C
:1007450004E51370F5121AF1120CF77F0112170D5B
:10075500E4F539901B48F0A3F0750D02E50D241062
:10076500FD7FA012182E901B49E02FF0901B48E04A
:100775003400F0050DE50DC3942040E07D117FA008
:1007850012182EEFFE901B49E02400F0901B48E064
:100795003EF07D107FA012182E901B49E02FF0909F
:1007A5001B48E03400F0E0F47003A3E0F470247D0E
:1007B500157FA012182E8F397D167FA012182E8F47
:1007C5000E7D1A7FA012182E8F0F7D247FA0121880
:1007D5002E8F0D753C0FE53914601414602324FE2B
:1007E500602614602B8000753C23753021802475AC
:1007F5003080D20BD241D24AE50DA2E1B3924280BC
:1008050012753043D24A800B753C237530628003E4
:10081500753029304108D235908004E526F0304AFC
:100825000D304104D2098002D208D23FD25E9080B9
:1008350000E521F0E4F50DE50FC394804003750D47
:1008450001E50D2450FFE50F25E0FD121465E4F5E3
:100855000DE50EC394804003750D01E50D2460FF81
:10086500E50E25E0FD121465E50D2470FFE50E2566
:10087500E0FD121465E4F50FF50ED204907F97E5BF
:0B08850020F01213D9901B5BEFF02253
:100B55001213D98F15205503020BFDE4FD901B5B85
:100B6500E0FCC3951540027DFFE513547FFFBF04EC
:100B750017ED600C901B43E0F4600DE004F0800875
:100B8500901B43E0600214F0E5135407707CED60A0
:100B950030ECC39515F53FE49400F53EE53FAE3ED8
:100BA5007803C333CE33CED8F9F53F8E3E901B4341
:100BB500E0FB7E00253FEE353E7039EB253FFD809D
:100BC50033ECFFE515C39FF53FE49400F53EE53FA3
:100BD500AE3E7803C333CE33CED8F9F53F8E3E9083
:100BE5001B43E0FFFBC3E53F9BE53E94005005C377
:100BF500EF953FFD8D3A8012901B43E0600CE513A5
:100C050054077006E53A6002153AAF3A12159DE5AC
:100C15003A600AD216908010E522F08008C216903C
:070C25008010E522F0C24F30
:010C2C0022A5
:100C2D00305C3F907DC0E0F50DA3E0FFC4540FF59F
:100C3D0016E50DB4A509E516901AC593B4FF051276
:100C4D00193B801CE516901AC593FF907DC1E054A9
:100C5D000F6F6004EFB4FE05120ED68003121B2237
:100C6D00C25C30512FE533702BC3E52D951DE52C5E
:100C7D00951C5011E52DAE2C7805CEC313CE13D88F
:100C8D00F9F533800FE51DAE1C7805CEC313CE13D9
:100C9D00D8F9F533538EF8120A74058E30460C12BE
:100CAD000986304421C246C244801BE50B6017E51E
:100CBD001D2512FFE51C3511FED3EF9400EE942097
:100CCD005004D246150B304F06205B03120B55E531
:100CDD00375403FFBF0210E510D394005006E50C06
:0A0CED0094004003C25822D258229E
:08000300907FEAE0F545D322ED
:0E1AD500907F00E545F0907FB57401F0D322BC
:081B0900907FEAE0F544D322CD
:0E1AE300907F00E544F0907FB57401F0D322AF
:10198800C0E0C083C082D23D5391EF907FAB740119
:08199800F0D082D083D0E032D0
:1019E700C0E0C083C0825391EF907FAB7404F0D006
:0619F70082D083D0E03233
:1019FD00C0E0C083C0825391EF907FAB7402F0D0F2
:061A0D0082D083D0E0321C
:101A1300C0E0C083C0825391EF907FAB7410F0D0CD
:061A230082D083D0E03206
:011B31003281
:1019A000C0E0C083C082D25D5391EF907FAB7408DA
:0819B000F0D082D083D0E032B8
:1019B800C0E0C083C082D25C5391EF907FAA7404C8
:0819C800F0D082D083D0E032A0
:100A7400907FB8E020E114E53360081533792078DD
:100A8400208026E52D7005E52C7001227820E52DC7
:100A9400C398E52C94005002A82DE8F9305170E574
:100AA4001DC398E51C940040E2907FE27450F074FA
:100AB40000907FE4F0747E907FE3F0907FE57420F3
:100AC40098702C7802C2AFF0F0F0F0F0F0F0F0F093
:100AD400F0F0F0F0F0F0F0F0F0F0F0F0F0F0F0F012
:100AE400F0F0F0F0F0F0F0D8DED2AF8008C2AFF052
:100AF400F0D8FCD2AF907FE27400F0907FB9E9297E
:100B0400F0C3E51D99F51DE51C9400F51C802F85A7
:100B140032848531857400907FE4F0747E907FE3A5
:100B2400F0907FE5C2AF0586E0A30586F00586E078
:100B3400A30586F0D8F0D2AF907FB9E929F0858477
:100B440032858531E52DC399F52DE52C9400F52CDE
:010B5400227E
:011B32003280
:10098600E53B24F97003020A3B24076003020A735D
:10099600204603020A73C2AFC237908004E526F0F0
:1009A6007F05121B2FC236908004E526F0304825BD
:1009B600304A18C23F304D09E53964026003121A05
:1009C60055901B47E0FF1211EA8014901B47E0FF89
:1009D60012191E800AC25E901B47E0FF121A299068
:1009E6001B48E0FEA3E0FF8E46F547901B45E0FC62
:1009F600A3E0FDEF2DFBEE3CCB2512F547EB3511C1
:100A0600F546908006F0A3E547F0C39FF547E54617
:100A16009EF546908008F0A3E547F090800AECF03A
:100A2600A3EDF0D236908004E526F0D237E526F025
:100A3600D2AF753B07908000E020E131E512251D1D
:100A4600F51DE511351CF51CE50B6018E51D251295
:100A5600FFE51C3511FED3EF9400EE9420500515EA
:0D0A66000B02099CE4F53BD244A24A925ECB
:010A73002260
:101A6A00C3907FA57800E020E003D8FA2220E2FCA8
:051A7A0030E1F9D32268
:1018DB00C2AF907FA57480F0907FA6EF54FEF012FC
:1018EB001A6A500D7400F0907FA6EDF0121A6A5030
:0218FB000022C9
:10000E001218DB5009907FA6EBF0121A6AC3907F8C
:10001E00A57440F05008907FA6E0FF907FA5E020E9
:05002E00E6FCD2AF2248
:10182E001218DB501B7480F0907FA6EF54FE44011B
:10183E00F0121A6A500A7420F0907FA6E0121A6A0B
:04184E00D302001CA5
:101A2900908001E523C2E4F06403C2E4F0D2E4F05B
:061A3900DFF8E523F022B6
:1017C100EF2E601DD3121970908001E5230E641075
:1017D100F0640BF06410F0640BF0DFF2DEF0E5234F
:0517E100F0C3021970C5
:101A3F00908002E524D2E3F07805121B11C2E3F087
:061A4F00121674C23A22D7
:10167400908001E5237D7D7C0B7B10C2AF6BF06C09
:10168400F06BF06CF06BF06CF06BF06CF06BF06C7A
:10169400F06BF06CF06BF06CF06BF06CF0DDDED2A4
:0416A400AFD23A2265
:10195600907FD6E030E712E04401F07F147E00125B
:0A19660019D0907FD6E054FEF02265
:1018FD00907FD6E04480F043870100000000002275
:07125800907FD6E04408F08E
:03125F00E4F53E75
:04126200E054FBF069
:03126600E4F53E6E
:10126900E04408F0305F04E04402F07FDC7E0512C0
:1012790019D0907F92E030E3077FDC7E051219D008
:10128900907FAB74FFF0907FA9F0907FAAF0539103
:08129900EF907FD6E054F7F05E
:0312A100E4F53E33
:0512A400E04404F0220B
:02176D00A907CA
:10176F00AE1EAF1F8F828E83A3E064037017AD018F
:10177F0019ED7001228F828E83E07C002FFDEC3EED
:09178F00FEAF0580DF7E007F0043
:01179800222E
:0214E800AD074E
:1014EA00E4FCAE1AAF1B8F828E83A3E06402702ADB
:1014FA00AB040CEBB50501228F828E83A3A3E0FA1D
:10150A00A3E08A42F5436242E5426243E54362420E
:0E151A002FFBE5423EFEAF0380CC7E007F003B
:0115280022A0
:1019D0008E3F8F40E5401540AE3F7002153F4E6090
:0719E0000512190D80EE2233
:10190D007400F58690FDA57C05A3E582458370F9ED
:01191D0022A7
:03004300021200A6
:10120000021988000219FD000219E7000219A00066
:10121000021A1300021B3100021B3200021B3200B3
:10122000021B3200021B3200021B32000219B800FE
:10123000021B3200021B3200021B3200021B320072
:10124000021B3200021B3200021B3200021B320062
:08125000021B3200021B3200F8
:03000000021AFDE4
:0C1AFD00787FE4F6D8FD758147020500F3
:10111500EF8DF0A4A8F0CF8CF0A428CE8DF0A42EEE
:02112500FE22A8
:10112700EB9FF5F0EA9E42F0E99D42F0E89C45F01E
:011137002295
:0C113800ECF0A3EDF0A3EEF0A3EFF0222A
:10114400A8828583F0D083D08212115B12115B12C6
:10115400115B12115BE473E493A3C583C5F0C583EB
:10116400C8C582C8F0A3C583C5F0C583C8C582C8F5
:011174002258
:00000001FF
