:0A090F0000010202030304040505C1
:10031900E4F513F512F511F510C203C200C202C2C9
:10032900011204C37E077F008E238F24752B077566
:100339002C1275210775221C752907752A3C752D04
:1003490007752E5CEE54E0700302045D75140075A8
:1003590015808E168F17C374AA9FFF74079ECF242A
:1003690002CF3400FEE48F0F8E0EF50DF50CF50B60
:10037900F50AF509F508AF0FAE0EAD0DAC0CAB0BD8
:10038900AA0AA909A808C31206EF5026E515250BE4
:10039900F582E514350AF58374CDF0E50B2401F5F2
:1003A9000BE4350AF50AE43509F509E43508F508D9
:1003B90080C4E4F50BF50AF509F508AF0FAE0EADEB
:1003C9000DAC0CAB0BAA0AA909A808C31206EF5079
:1003D90031AE0AAF0BE5172FF582E5163EF583E03E
:1003E900FDE5152FF582E5143EF583EDF0EF2401C7
:1003F900F50BE43EF50AE43509F509E43508F50895
:1004090080B985142385152474002480FF7407346A
:10041900FFFEC3E52C9FF52CE52B9EF52BC3E526A6
:100429009FF526E5259EF525C3E5289FF528E527AF
:100439009EF527C3E5229FF522E5219EF521C3E517
:100449002A9FF52AE5299EF529C3E52E9FF52EE574
:100459002D9EF52DD2E843D82090E668E04409F0B6
:1004690090E65CE0443DF0D2AF90E680E020E10503
:10047900D2041207E390E680E054F7F0538EF8C2F5
:1004890003300105120080C2013003291205FD5015
:1004990024C20312086A20001690E682E030E704BD
:1004A900E020E1EF90E682E030E604E020E0E412AB
:0A04B900081212093112092D80C744
:1000800090E6B9E0700302015B14700302020424DD
:10009000FE700302029924FB7003020155147003E1
:1000A00002014F147003020143147003020149243A
:1000B000056003020305120933400302031190E6B1
:1000C000BBE024FE602C14604724FD6016146031F0
:1000D00024067065E52390E6B3F0E52490E6B4F0DD
:1000E000020311E52B90E6B3F0E52C90E6B4F002A4
:1000F0000311E52590E6B3F0E52690E6B4F002039F
:1001000011E52790E6B3F0E52890E6B4F00203117C
:1001100090E6BAE0FF12083EAA06A9077B01EA4969
:10012000600DEE90E6B3F0EF90E6B4F002031190AC
:10013000E6A0E04401F002031190E6A0E04401F0E3
:100140000203111208FD0203111209210203111208
:1001500009190203111208EB0203111209354003B9
:1001600002031190E6B8E0247F602B14603C240267
:1001700060030201FAA200E433FF25E0FFA202E4DB
:10018000334F90E740F0E4A3F090E68AF090E68BDE
:100190007402F0020311E490E740F0A3F090E68AC5
:1001A000F090E68B7402F002031190E6BCE0547EFE
:1001B000FF7E00E0D3948040067C007D0180047CBB
:1001C000007D00EC4EFEED4F240FF58274093EF5E4
:1001D00083E493FF3395E0FEEF24A1FFEE34E68F36
:1001E00082F583E0540190E740F0E4A3F090E68AC2
:1001F000F090E68B7402F002031190E6A0E0440157
:10020000F0020311120937400302031190E6B8E02F
:1002100024FE601D2402600302031190E6BAE0B4DC
:100220000105C20002031190E6A0E04401F00203C0
:100230001190E6BAE0705990E6BCE0547EFF7E0073
:10024000E0D3948040067C007D0180047C007D002A
:10025000EC4EFEED4F240FF58274093EF583E493D6
:10026000FF3395E0FEEF24A1FFEE34E68F82F583A5
:10027000E054FEF090E6BCE05480FF131313541FCB
:10028000FFE0540F2F90E683F0E04420F0020311CA
:1002900090E6A0E04401F08078120939507390E6AE
:1002A000B8E024FE60202402706790E6BAE0B40152
:1002B00004D200805C90E6BAE06402605490E6A04C
:1002C000E04401F0804B90E6BCE0547EFF7E00E00D
:1002D000D3948040067C007D0180047C007D00EC8E
:1002E0004EFEED4F240FF58274093EF583E493FF33
:1002F0003395E0FEEF24A1FFEE34E68F82F583E034
:100300004401F0800C12093B500790E6A0E0440144
:08031000F090E6A0E04480F04B
:0103180022C2
:0300330002092996
:0409290053D8EF327E
:1007000012010002000000408718030000000102EF
:1007100000010A060002000000400100090220005A
:10072000010100A0FA0904000002FF000000070513
:1007300002020002000705860200020009022000F2
:10074000010100A0FA0904000002FF0000000705F3
:10075000020240000007058602400000040309046D
:100760002A036600690073006800630061006D0081
:100770007000200065006E00670069006E00650073
:100780006500720069006E0067002003530074006A
:100790006100720066006900730068002000430079
:0C07A00061006D00650072006100000047
:1008120090E682E030E004E020E60B90E682E030F1
:10082200E119E030E71590E680E04401F07F147EA4
:0C083200001205AB90E680E054FEF022BE
:10086A0090E682E044C0F090E681F0438701000000
:04087A000000002258
:1007E30030040990E680E0440AF0800790E680E058
:1007F3004408F07FDC7E051205AB90E65D74FFF0E4
:0F08030090E65FF05391EF90E680E054F7F0221B
:02083E00A90708
:10084000AE2DAF2E8F828E83A3E064037017AD01AF
:1008500019ED7001228F828E83E07C002FFDEC3E2B
:09086000FEAF0580DF7E007F0081
:01086900226C
:1005AB008E188F1990E600E054187012E51924018B
:1005BB00FFE43518C313F518EF13F519801590E602
:1005CB0000E05418FFBF100BE51925E0F519E518ED
:1005DB0033F518E5191519AE18700215184E60058C
:0605EB0012087E80EE22E2
:10087E007400F58690FDA57C05A3E582458370F98D
:01088E002247
:03004300020600B2
:03005300020600A2
:1006000002088F000208D5000208BF000208A700F8
:100610000206B8000207AC000205FF0002093D0017
:1006200002093E0002093F000209400002094100A0
:100630000209420002094300020944000209450080
:100640000209460002093D0002094700020948006C
:100650000209490002094A0002094B0002094C0044
:1006600002094D0002093D0002093D0002093D005A
:1006700002094E0002094F00020950000209510010
:1006800002095200020953000209540002095500F0
:1006900002095600020957000209580002095900D0
:1006A00002095A0002095B0002095C0002095D00B0
:0806B00002095E0002095F006F
:1004C30090E600E054E74410F0000000E4F5B27F4A
:1004D300207E031205AB00000090E6047480F00058
:1004E30000007402F00000007404F00000007406C1
:1004F300F00000007408F0000000E4F00000009039
:10050300E6017403F000000090E60274E8F00000D6
:100513000090E6037446F000000090E609743FF093
:1005230000000090E61074A0F000000090E611F0C7
:1005330000000090E61274A2F000000090E613742D
:1005430020F000000090E61474EAF000000090E64A
:10055300157460F000000090E6187411F0000000BC
:1005630090E61A740DF000000000000090E691740C
:1005730080F0000000F000000090E6247402F00018
:100583000000E490E625F000000090E6707483F02C
:10059300000000E4F51BF51C43AF01D200F58075A4
:0805A300B2087F01FE0205AB66
:04092D00E4F5B22219
:0205FD00D32207
:02093100D322CF
:02093300D322CD
:0809190090E6BAE0F51DD322BF
:1008EB0090E740E51DF0E490E68AF090E68B04F08B
:0208FB00D32206
:0809210090E6BAE0F51AD322BA
:1008FD0090E740E51AF0E490E68AF090E68B04F07C
:02090D00D322F3
:02093500D322CB
:02093700D322C9
:02093900D322C7
:02093B00D322C5
:10088F00C0E0C083C082D2015391EF90E65D740146
:08089F00F0D082D083D0E032DA
:1008BF00C0E0C083C0825391EF90E65D7404F0D026
:0608CF0082D083D0E0326C
:1008D500C0E0C083C0825391EF90E65D7402F0D012
:0608E50082D083D0E03256
:1006B800C0E0C083C08290E680E030E70E85212547
:1006C800852226852927852A28800C852925852A9B
:1006D800268521278522285391EF90E65D7410F036
:0706E800D082D083D0E03284
:1008A700C0E0C083C082D2035391EF90E65D740825
:0808B700F0D082D083D0E032C2
:1007AC00C0E0C083C08290E680E030E70E85212552
:1007BC00852226852927852A28800C852925852AA6
:1007CC00268521278522285391EF90E65D7420F031
:0707DC00D082D083D0E0328F
:0105FF0032C9
:01093D003287
:01093E003286
:01093F003285
:010940003284
:010941003283
:010942003282
:010943003281
:010944003280
:01094500327F
:01094600327E
:01094700327D
:01094800327C
:01094900327B
:01094A00327A
:01094B003279
:01094C003278
:01094D003277
:01094E003276
:01094F003275
:010950003274
:010951003273
:010952003272
:010953003271
:010954003270
:01095500326F
:01095600326E
:01095700326D
:01095800326C
:01095900326B
:01095A00326A
:01095B003269
:01095C003268
:01095D003267
:01095E003266
:01095F003265
:030000000205F105
:0C05F100787FE4F6D8FD75812E02031916
:1006EF00EB9FF5F0EA9E42F0E99D42F0E89C45F061
:0106FF0022D8
:00000001FF
